:100000000C94A60F0C94D70F0C94D70F0C94D70F09
:100010000C94D70F0C94D70F0C94D70F0C94D70FC8
:100020000C94D70F0C94D70F0C94D70F0C94D70FB8
:100030000C94D70F0C942BAE0C94D70F0C94D70FB5
:100040000C94D70F0C94C8700C94D70F0C94D70F46
:100050000C94D70F0C94D70F0C94EF850C94F8A741
:100060000C94D70F0C941F180C94D70F0C94D70F27
:100070000C94D70F0C94D70F0C94D70F0C94D70F68
:100080000C94D70F0C94D70F0C94D70F0C94D70F58
:100090000C94D70F0C94D70F0C94D70F0C94D70F48
:1000A0000C94D70F0C94D70F0C94D70F0C94D70F38
:1000B0000C94D70F0C94D70F0C94D70F0C94D70F28
:1000C0000C94D70F0C94D70F0C94D70F0C94D70F18
:1000D0000C94D70F0C94D70F0C94D70F0C94D70F08
:1000E0000C94D70F3C864A86668674868E869C86DC
:1000F000B686BA86BC86C086C88627A92CA931A92F
:100100003BA945A9BEA94FA957A95FA969A973A988
:100110007DA98CA996A9BEA9A0A9AAA9B4A9E0A95C
:10012000E3A9D2A9D6A9DCA91AAAE7A9EBA9F1A942
:10013000F5A9F9A9FFA903AA07AA1AAA0DAA11AA43
:1001400015AA084AD73B3BCE016E84BCBFFDC12F28
:100150003D6C74319ABD56833DDA3D00C77F11BEB8
:10016000D9E4BB4C3E916BAAAABE000000803F05BB
:10017000A84CCDB2D44EB93836A9020C50B99186EC
:1001800088083CA6AAAA2ABE000000803F00486159
:100190007264636F6465642044656661756C742085
:1001A00053657474696E6773204C6F616465640095
:1001B00053746F7265642073657474696E6773201D
:1001C0007265747269657665640046696C616D6517
:1001D0006E742073657474696E67733A2044697332
:1001E00061626C6564002020204D32303020440074
:1001F00046696C616D656E742073657474696E67B1
:10020000733A002020204D3230392053004175745C
:100210006F2D526574726163743A20533D302074BF
:100220006F2064697361626C652C203120746F20CB
:10023000696E746572707265742065787472756425
:10024000652D6F6E6C79206D6F76657320617320FC
:100250007265747261637473206F72207265636F6C
:10026000766572696573002046002020204D32308B
:10027000382053005265636F7665723A20533D45CE
:1002800078747261206C656E67746820286D6D29C2
:1002900020463A537065656420286D6D2F6D2900E6
:1002A000205A002046002020204D323037205300B5
:1002B000526574726163743A20533D4C656E677485
:1002C0006820286D6D2920463A53706565642028A2
:1002D0006D6D2F6D29205A3A205A4C69667420287A
:1002E0006D6D29002044002049002020204D33302E
:1002F000312050005049442073657474696E6773EF
:100300003A00205A0020590020204D323036205823
:1003100000486F6D65206F666673657420286D6D8B
:10032000293A00204500205A002058002042002091
:10033000540020204D323035205300416476616EE8
:10034000636564207661726961626C65733A2053FB
:100350003D4D696E20666565647261746520286D27
:100360006D2F73292C20543D4D696E207472617677
:10037000656C20666565647261746520286D6D2FFB
:1003800073292C20423D6D696E696D756D20736512
:10039000676D656E742074696D6520286D73292CF6
:1003A00020583D6D6178696D756D205859206A65DA
:1003B000726B20286D6D2F73292C20205A3D6D61A2
:1003C00078696D756D205A206A65726B20286D6D95
:1003D0002F73292C2020453D6D6178696D756D2046
:1003E00045206A65726B20286D6D2F73290020549B
:1003F0000020204D323034205300416363656C652A
:10040000726174696F6E3A20533D616363656C6518
:10041000726174696F6E2C20543D726574726163F1
:100420007420616363656C65726174696F6E00202E
:100430004500205A0020590020204D3230312058EC
:10044000004D6178696D756D20416363656C6572FF
:100450006174696F6E20286D6D2F7332293A002008
:100460004500205A0020590020204D3230332058BA
:10047000004D6178696D756D2066656564726174A3
:10048000657320286D6D2F73293A00204500205A8E
:100490000020590020204D393220580053746570D7
:1004A000732070657220756E69743A0053657474B8
:1004B000696E67732053746F7265640053544F50B4
:1004C0005045442E20005072696E7465722073741A
:1004D0006F707065642064756520746F206572723A
:1004E0006F72732E20466978207468652065727279
:1004F0006F7220616E6420757365204D3939392023
:10050000746F20726573746172742E202854656D47
:1005100070657261747572652069732072657365A8
:10052000742E20536574206974206166746572208E
:1005300072657374617274696E6729004B494C4C23
:1005400045442E20005072696E7465722068616C9B
:100550007465642E206B696C6C28292063616C6C57
:10056000656421006F6B00526573656E643A20000C
:100570002200556E6B6E6F776E20636F6D6D616ECE
:10058000643A2022004D32323020532569005A202F
:100590004F6666736574203A20007A5F6D61783A21
:1005A00020007A5F6D696E3A20005A204F666673AC
:1005B0006574005A204F6666736574206F6B002265
:1005C00000556E6B6E6F776E20636F6D6D616E643C
:1005D0003A2022007A5F6D61783A20007A5F6D6977
:1005E0006E3A2000795F6D61783A2000795F6D691D
:1005F0006E3A2000785F6D61783A2000785F6D690F
:100600006E3A2000205A3A0020593A0020436F7574
:100610006E7420583A200020453A00205A3A0020B3
:10062000593A00583A004649524D574152455F4E9B
:10063000414D453A4D61726C696E2056312E302E17
:10064000323B20537072696E7465722F6772626CF0
:10065000206D617368757020666F722067656E36F5
:10066000204649524D574152455F55524C3A6874A5
:100670007470733A2F2F6769746875622E636F6D9B
:100680002F4D61726C696E4669726D776172652F6C
:100690004D61726C696E2050524F544F434F4C5F06
:1006A00056455253494F4E3A312E30204D41434822
:1006B000494E455F545950453A50727573612069EF
:1006C00033206D6F642E2045585452554445525F77
:1006D000434F554E543A3120555549443A30303005
:1006E00030303030302D303030302D303030302D13
:1006F000303030302D3030303030303030303030FD
:10070000300A005072757361206933206D6F642E5A
:10071000204155532E005072757361206933206D4E
:100720006F642E206F6B210042656420646F6E65DC
:100730002E0020423A0020453A00543A00566F728B
:100740006865697A656E2E2E2E00447275636B653E
:100750006E2E2E2E0020573A0020453A00543A00C3
:1007600048656174696E672E2E2E002042403A0063
:1007700020403A00202F003A00205400202F002073
:10078000423A00202F006F6B20543A002569206DFB
:10079000696E2C2025692073656300456E642066B0
:1007A000696C65206C69737400426567696E2066C8
:1007B000696C65206C697374004B65696E652042D5
:1007C00065776567756E6700507275736120693370
:1007D000206D6F642E206F6B2100447275636B6512
:1007E000207765697465722E2E2E007761727465AC
:1007F000206175662045696E676162652E2E2E2E1A
:10080000007363686C6166656E2E2E2E002569206C
:10081000686F757273202569206D696E75746573D4
:1008200000446F6E65207072696E74696E67206631
:10083000696C650053544F505045442E200050724F
:10084000696E7465722073746F707065642064756E
:100850006520746F206572726F72732E20466978FE
:1008600020746865206572726F7220616E642075F5
:100870007365204D39393920746F20726573746146
:1008800072742E202854656D70657261747572657E
:100890002069732072657365742E20536574206916
:1008A0007420616674657220726573746172746914
:1008B0006E6729004E6F204C696E65204E756D6223
:1008C0006572207769746820636865636B73756D02
:1008D0002C204C617374204C696E653A20004E6F79
:1008E00020436865636B73756D2077697468206C4D
:1008F000696E65206E756D6265722C204C61737433
:10090000204C696E653A2000636865636B73756D92
:10091000206D69736D617463682C204C6173742061
:100920004C696E653A20004C696E65204E756D62AB
:100930006572206973206E6F74204C617374204C53
:10094000696E65204E756D6265722B312C204C618D
:100950007374204C696E653A20004D31313000448B
:100960006F6E6520736176696E672066696C652EAF
:10097000006F6B004D3239002020506C616E6E6547
:100980007242756666657242797465733A2000201A
:1009900046726565204D656D6F72793A20004A6137
:1009A0006E203138203230313600436F6D70696C03
:1009B00065643A2000286E6F6E652C206465666160
:1009C000756C7420636F6E6669672900207C204116
:1009D0007574686F723A20004A616E203138203297
:1009E0003031362031363A33323A343200204C61DD
:1009F000737420557064617465643A2000312E3040
:100A00002E32004D61726C696E0020536F667477F0
:100A10006172652052657365740020576174636864
:100A2000646F67205265736574002042726F776E41
:100A3000206F757420526573657400204578746565
:100A4000726E616C20526573657400506F776572C9
:100A50005570007374617274002200656E71756563
:100A6000696E672022002200656E717565696E6788
:100A7000202200FFFFFF0000A0400000A040000077
:100A800000400000574300003E4300004843000080
:100A9000000000000000CDCC4C3E00005743000099
:100AA0003E4300004843000000000000000000003A
:100AB00000006563686F3A004572726F723A000019
:100AC000002110422063308440A550C660E77008C2
:100AD0008129914AA16BB18CC1ADD1CEE1EFF13149
:100AE00012100273325222B5529442F772D6623912
:100AF0009318837BB35AA3BDD39CC3FFF3DEE36299
:100B000024433420040114E664C774A44485546A61
:100B1000A54BB528850995EEE5CFF5ACC58DD55328
:100B200036722611163006D776F6669556B4465BB1
:100B3000B77AA719973887DFF7FEE79DD7BCC7C4F8
:100B400048E5588668A7784008611802282338CC01
:100B5000C9EDD98EE9AFF9488969990AA92BB9F588
:100B60005AD44AB77A966A711A500A333A122AFD51
:100B7000DBDCCBBFFB9EEB799B588B3BBB1AABA658
:100B80006C877CE44CC55C222C033C600C411CAEA1
:100B9000ED8FFDECCDCDDD2AAD0BBD688D499D9768
:100BA0007EB66ED55EF44E133E322E511E700E9FF1
:100BB000FFBEEFDDDFFCCF1BBF3AAF599F788F88B8
:100BC00091A981CAB1EBA10CD12DC14EF16FE18089
:100BD00010A100C230E3200450254046706760B980
:100BE000839893FBA3DAB33DC31CD37FE35EF3B1D9
:100BF000029012F322D2323542145277625672EAD0
:100C0000B5CBA5A89589856EF54FE52CD50DC5E228
:100C100034C324A01481046674476424540544DB5F
:100C2000A7FAB79987B8975FE77EF71DC73CD7D378
:100C300026F2369106B01657667676154634564C2F
:100C4000D96DC90EF92FE9C899E9898AB9ABA944C8
:100C500058654806782768C018E1088238A3287DBF
:100C6000CB5CDB3FEB1EFBF98BD89BBBAB9ABB7518
:100C70004A545A376A167AF10AD01AB32A923A2E8F
:100C8000FD0FED6CDD4DCDAABD8BADE89DC98D2668
:100C90007C076C645C454CA23C832CE01CC10C1F9F
:100CA000EF3EFF5DCF7CDF9BAFBABFD98FF89F17B8
:100CB0006E367E554E745E932EB23ED10EF01E7C83
:100CC0003C3E5E2B3D3F2F5B5D3B2C2A225C004D62
:100CD000383420582059205A20450043616E6E6FE9
:100CE0007420656E746572207375626469723A204F
:100CF000004D3234004D3233202573006175746F1E
:100D000025692E67006572726F7220777269746947
:100D10006E6720746F2066696C65004E6F74205397
:100D200044207072696E74696E67002F005344200E
:100D30007072696E74696E67206279746520002E26
:100D40000044656C6574696F6E206661696C6564EA
:100D50002C2046696C653A200046696C6520646504
:100D60006C657465643A002E006F70656E20666174
:100D7000696C65642C2046696C653A20005772697D
:100D800074696E6720746F2066696C653A20002E66
:100D9000006F70656E206661696C65642C20466921
:100DA0006C653A20002E006F70656E206661696C7C
:100DB00065642C2046696C653A200046696C6520A4
:100DC00073656C6563746564002053697A653A20C5
:100DD0000046696C65206F70656E65643A20002E70
:100DE000006F70656E206661696C65642C204669D1
:100DF0006C653A20004E6F772066726573682066D6
:100E0000696C653A20004E6F7720646F696E6720C9
:100E100066696C653A20002220706F730022207092
:100E20006172656E743A2200535542524F555449CF
:100E30004E452043414C4C207461726765743A22E0
:100E400000747279696E6720746F2063616C6C2026
:100E50007375622D67636F64652066696C657320C6
:100E60007769746820746F6F206D616E79206C658E
:100E700076656C732E204D4158206C6576656C202C
:100E800069733A0053442063617264206F6B006F92
:100E900070656E526F6F74206661696C6564007670
:100EA0006F6C756D652E696E6974206661696C651D
:100EB0006400534420696E6974206661696C002087
:100EC000746F6F206C6F6E672065787472757369CC
:100ED0006F6E2070726576656E7465640020636F56
:100EE0006C6420657874727573696F6E20707265BA
:100EF00076656E7465640045303A20005A3A2000E9
:100F0000593A2000583A20004D53312C4D5332208D
:100F100050696E730A00656E6473746F7073206835
:100F200069743A205A00205A3A00656E6473746FEF
:100F30007073206869743A20590020593A00656E30
:100F40006473746F7073206869743A205800205875
:100F50003A00656E6473746F7073206869743A2028
:100F60000024F4D43050C38E20C2A24017828B706C
:100F700011127A910D816CD90AA861E108C75866EF
:100F800007615143061E4B5D05C145A7041A411177
:100F900004093D9803713931034036DB0265339112
:100FA00002D4305402802E1D02632CEE01752AC536
:100FB00001B028A001102781018F2564012B244B4B
:100FC00001E0223401AC211F018D200D01801FFCA6
:100FD00000841EED00971DDF00B81CD200E61BC682
:100FE00000201BBC00641AB200B219A8000A19A0A4
:100FF000006A189900D117910040178B00B516842C
:101000000031167E00B31579003A157300C7146FCE
:101010000058146A00EE1366008813630025135EFF
:1010200000C7125B006C12570015125400C1115119
:101030000070114F0021114B00D61049008D104750
:10104000004610440002104200C00F4000800F3ED6
:1010500000420F3C00060F3B00CB0E3800930E37CA
:10106000005C0E3500270E3400F30D3200C10D3147
:1010700000900D3000600D2E00320D2D00050D2C5E
:1010800000D90C2B00AE0C2900850C29005C0C2724
:1010900000350C27000E0C2600E80B2400C40B249E
:1010A00000A00B23007D0B23005A0B2100390B21DC
:1010B00000180B2000F80A1F00D90A1E00BB0A1EE8
:1010C000009D0A1D00800A1D00630A1C00470A1BC0
:1010D000002C0A1B00110A1A00F7091A00DD091971
:1010E00000C4091900AB091900920917007B0918FF
:1010F00000630917004C091600360916002009166E
:10110000000A091500F5081500E0081400CC0814C1
:1011100000B8081400A4081400900813007D0812F9
:10112000006B08130058081200460812003408111A
:1011300000230811001208110001081100F0071027
:1011400000E0071000D0071000C0071000B0070F24
:1011500000A107100091070E0083070F0074070F0E
:101160000065070E0057070E0049070E003B070DEC
:10117000002E070E0020070D0013070D0006070DB7
:1011800000F9060C00ED060D00E0060C00D4060C7C
:1011900000C8060C00BC060C00B0060C00A4060B30
:1011A0000099060C008D060B0082060B0077060BDB
:1011B000006C060B0061060A0057060B004C060A7D
:1011C0000042060A0038060A002E060A0024060A13
:1011D000001A060A001006090007060A00FD0509A4
:1011E00000F4050900EB050900E2050900D905092D
:1011F00000D0050900C7050900BE050900B50508AE
:1012000000AD050800A50509009C05080094050827
:10121000008C050800840508007C0508007405089A
:10122000006C050700650508005D05070056050808
:10123000004E050700470507004005080038050770
:1012400000310507002A050700230507001C0506D5
:1012500000160507000F0507000805060002050730
:1012600000FB040600F5040700EE040600E804068F
:1012700000E2040700DB040600D5040600CF0406E4
:1012800000C9040600C3040600BD040600B7040636
:1012900000B1040500AC040600A6040600A0040585
:1012A000009B04060095040500900406008A0405CE
:1012B0000085040500800406007A04050075040515
:1012C00000700405006B0405006604050061040558
:1012D000005C04050057040500520405004D040598
:1012E0000048040500430405003E0404003A0405D8
:1012F0000035040500300404002C04050027040414
:1013000000230405001E0404001A0404001604054A
:1013100000110404000D0404000904050004040481
:101320000000040400FC030400F8030400F40304B8
:1013300000F0030400EC030400E8030400E40304E9
:1013400000E0030400DC030400D8030400D4030419
:1013500000D0030400CC030400C8030300C503034A
:101360000024F404D9201BC40C5C0E9804C4095F4B
:101370000265077101F405F900FB04B30048048716
:1013800000C10369005803550003034500BE023A3B
:10139000008402310053022A0029022500040220A1
:1013A00000E4011C00C8011900AF011700980114E6
:1013B0000084011300710110006101100051010E41
:1013C0000043010D0036010B002B010B0020010B27
:1013D00000150109000C01090003010800FB0008C9
:1013E00000F3000800EB000700E4000600DE000642
:1013F00000D8000600D2000600CC000500C700059A
:1014000000C2000500BD000400B9000400B50004DE
:1014100000B1000400AD000400A9000400A5000311
:1014200000A20003009F0004009B0003009800033B
:10143000009500020093000300900003008D00025D
:10144000008B000300880002008600020084000375
:1014500000810002007F0002007D0002007B00028C
:10146000007900020077000100760002007400029B
:101470000072000100710002006F0002006D0001A7
:10148000006C0002006A00010069000200670001B0
:1014900000660001006500010064000200620001B6
:1014A0000061000100600001005F0002005D0001BA
:1014B000005C0001005B0001005A000100590001BE
:1014C00000580001005700010056000100550001BE
:1014D00000540001005300000053000100520001BD
:1014E0000051000100500001004F0001004E0000BB
:1014F000004E0001004D0001004C0001004B0000B7
:10150000004B0001004A00010049000100480000B2
:1015100000480001004700010046000000460001AD
:1015200000450000004500010044000100430000A8
:1015300000430001004200000042000100410000A1
:101540000041000100400001003F0000003F000199
:10155000003E0000003E0001003D0000003D000193
:10156000003C0000003C0000003C0001003B00008B
:10157000003B0001003A0000003A00010039000081
:101580000039000100380000003800000038000178
:101590000037000000370001003600000036000070
:1015A0000036000100350000003500000035000164
:1015B000003400000034000000340001003300005B
:1015C0000033000000330001003200000032000050
:1015D0000032000100310000003100000031000144
:1015E000003000000030000000300001002F00003B
:1015F000002F0000002F0000002F0001002E00002F
:10160000002E0000002E0001002D0000002D000023
:10161000002D0000002D0001002C0000002C000017
:10162000002C0000002C0001002B0000002B00000B
:10163000002B0000002B0001002A0000002A0000FF
:10164000002A0000002A00010029000000290000F3
:1016500000290000002900000029000100280000E6
:1016600000280000002800000028000000280001D9
:1016700000270000002700000027000000270000CE
:1016800000270001002600000026000000260000C0
:1016900000260000002600010025000000250000B3
:1016A00000250000002500000025000000250001A5
:1016B000002400000024000000240000002400009A
:1016C000002400010023000000230000002300008C
:1016D000002300000023000000230000002300017D
:1016E0000022000000220000002200000022000072
:1016F0000022000000220001002100000021000063
:101700000021000000210000002100000021000055
:101710000021000100200000002000000020000047
:101720000020000000200000002000000020000039
:1017300000200001001F0000001F0000001F00002B
:10174000001F0000001F0000001F0000001F00011C
:10175000001E0000001E0000001E0000001E000011
:10176000004572723A204D415854454D5020424533
:10177000440054656D7065726174757265206865AA
:101780006174656420626564207377697463686559
:1017900064206F66662E204D415854454D5020748C
:1017A0007269676765726564202121004572723A2B
:1017B000204D494E54454D50003A2045787472757D
:1017C000646572207377697463686564206F666608
:1017D0002E204D494E54454D5020747269676765FF
:1017E0007265642021004572723A204D415854457B
:1017F0004D50003A20457874727564657220737795
:10180000697463686564206F66662E204D41585484
:10181000454D5020747269676765726564202100C8
:10182000202D20496E76616C69642065787472752C
:10183000646572206E756D626572202100504944A6
:10184000204175746F74756E652066696E69736882
:101850006564212050757420746865206C61737410
:10186000204B702C204B6920616E64204B642063F8
:101870006F6E7374616E74732066726F6D20616237
:101880006F766520696E746F20436F6E6669677549
:10189000726174696F6E2E680050494420417574FE
:1018A0006F74756E65206661696C6564212074696A
:1018B0006D656F75740020403A006F6B20543A00DC
:1018C0006F6B20423A00504944204175746F747523
:1018D0006E65206661696C6564212054656D706574
:1018E00072617475726520746F6F20686967680033
:1018F000204B643A2000204B693A2000204B703A7C
:10190000200020436C6173736963205049442000B8
:101910002054753A2000204B753A2000206D6178E4
:101920003A2000206D696E3A200020643A200020A1
:10193000626961733A20001000C90210012C014055
:1019400001220170011801B0010E01F001040150E3
:1019500002FA00B002F0003003E600D003DC009091
:1019600004D2007005C800A006BE000008B400B094
:1019700009AA00D00BA000600E960060118C000038
:1019800015820020197800C01D6E00A0226400B0EE
:10199000275A00902C500000314600E0343C0010E3
:1019A000383200903A2800603C1E00A03D140080B0
:1019B0003E0A00203F000070012C0190012701B079
:1019C000012201C0011D01F00118011002130130B4
:1019D000020E016002090190020401C002FF000032
:1019E00003FA004003F5008003F000D003EB002071
:1019F00004E6007004E100E004DC004005D700C00C
:101A000005D2004006CD00D006C8008007C30030D4
:101A100008BE00F008B900C009B400B00AAF00B0B9
:101A20000BAA00D00CA500000EA000500F9B00C018
:101A30001096005012910000148C00C0158700B061
:101A4000178200B0197D00D01B7800001E73004083
:101A5000206E0090226900F024640040275F00900F
:101A6000295A00E02B5500102E500020304B00105A
:101A7000324600E033410090353C001037370070AB
:101A8000383200A0392D00B03A2800A03B23006076
:101A90003C1E00103D1900903D1400103E0F0070D8
:101AA0003E0A00C03E0500003F0000534420656E22
:101AB000746665726E740053442062657265697461
:101AC0000047312045343020463130300047312046
:101AD0004537302046343030004D38330047312010
:101AE000452D38302046343030004D3833002D2D10
:101AF0003A2D2D002D2D2D005344000120000120F2
:101B0000004D3630300046696C616D656E747765E6
:101B1000636873656C00466C75737300466C75730F
:101B2000730056656E74696C61746F720056656EF1
:101B300074696C61746F72004265747400426574FC
:101B400074004E617365004E617365004765736391
:101B50006877696E6469676B65697400476573636C
:101B60006877696E6469676B656974004861757050
:101B70007400436F6F6C646F776E00464C4558205D
:101B80002D20203233302F35300050502020202D92
:101B900020203235342F3130300048495053202D29
:101BA00020203232302F3130300050455420202D4B
:101BB00020203234302F393000504C4120202D204D
:101BC000203231302F35300041425320202D20204B
:101BD0003235352F313030004861757074004D3822
:101BE00034004D383420582059205A2045004D32B9
:101BF00034004D323320257300052E2E00486175C8
:101C00007074005049442D43005049442D43005006
:101C100049442D44005049442D44005049442D4925
:101C2000005049442D49005049442D50005049442A
:101C30002D500056656E74696C61746F7200566544
:101C40006E74696C61746F720042657474004265F1
:101C50007474004E617365004E6173650045696E72
:101C60007374656C6C756E67656E00580059005A28
:101C70000045787472756465720065787472756475
:101C8000696572656E006661687265205A006661FA
:101C90006872652059006661687265205800456960
:101CA0006E7374656C6C756E67656E0047323800D4
:101CB0004E756C6C70756E6B74004731205A2B3109
:101CC000302E3020583231352E3020593138302ED8
:101CD00030204631303030302E300041726265693C
:101CE0007473706F736974696F6E004D383400419E
:101CF000636873656E2061757300473238205A003F
:101D00005A206B616C696272696572656E0041632D
:101D10006873656E2066616872656E0054656D70EB
:101D20006572617475720048617570740045696E02
:101D30007374656C6C756E67656E0046696C616D79
:101D4000656E74617573777572660046696C616D56
:101D5000656E74206C6164656E006B65696E6520EC
:101D6000534420676566756E64656E00766F6E20FD
:101D7000534420447275636B656E00416262726504
:101D80006368656E00776569746572206472756357
:101D90006B656E00506175736500566F726865699A
:101DA0007A656E004665696E65696E7374656C6C04
:101DB000756E6700496E666F0000000A0B02090C21
:101DC0000D0E0807030401000000000000000000E1
:101DD0000000000000000000000000000000000003
:101DE00000000000001211100000000000000000C0
:101DF00000000000000000000000000000000000E3
:101E000000000000000000000000000000000001D1
:101E100002102020080810204010204080020102FB
:101E200001080402010102040810204080804020C3
:101E300010080402018004020180402010080402FE
:101E4000010804020101020408102040800102047C
:101E500008102040801008040880102040044080B2
:101E6000102040048005050505070508080808023C
:101E70000202020A0A080804040404010101010123
:101E80000101010303030303030303040707070C12
:101E90000C0C0C0C0C0C0C020202020606060606C8
:101EA0000606060B0B0B0B0B0B0B0B07070A0A0A9C
:101EB0000A0A0A0505050404040808000020002396
:101EC00000260029002C002F003200000100000332
:101ED000010601090100002200250028002B002E28
:101EE000003100340002010000050108010B01006F
:101EF000002100240027002A002D003000330001BB
:101F0000010000040107010A01024E414E494E49F9
:101F10005459494E46CDCCCC3D0AD7233C17B7D1B6
:101F20003877CC2B329595E6241FB14F0A0000205C
:101F3000410000C84200401C4620BCBE4CCA1B0EDB
:101F40005AAEC59D7400FF4149A0034211241FBE33
:101F5000CFEFD1E2DEBFCDBF00E00CBF15E0A0E0C7
:101F6000B2E0E4EFF3E701E00BBF02C007900D928F
:101F7000A23CB107D9F723E1A2ECB5E001C01D9264
:101F8000AB3BB207E1F71FE1CAE4DFE100E006C0C6
:101F900022970109FE010BBF0E949EB3C634D107F0
:101FA00080E00807A9F70E948BAE0C94E9B90C9465
:101FB0000000EF92FF920F931F93CF93DF931F9236
:101FC000CDB7DEB78C017B01460FF70161917F0130
:101FD000F8018081918149830E9432B9F8018081A2
:101FE000918101969183808349814E11EECF0F90AC
:101FF000DF91CF911F910F91FF90EF900895EF9295
:10200000FF920F931F93CF93DF931F92CDB7DEB74D
:102010008C017B01460FF8018081918149830E94E8
:102020002AB9F70181937F01F8018081918101969E
:102030009183808349814E11EECF0F90DF91CF9134
:102040001F910F91FF90EF9008950F931F93CF93DF
:10205000DF93CDB7DEB72C970FB6F894DEBF0FBE77
:10206000CDBF80E390E3A0E3B0E08D839E83AF8398
:10207000B88704E610E01C870B8744E0BE016B5F65
:102080007F4FCE010B9695DF40E166E372E1CE0112
:102090000B968FDF40E166E472E1CE010B9689DF9B
:1020A00040E166E272E1CE010B9683DF44E06EE12F
:1020B00072E1CE010B967DDF44E06AE172E1CE0170
:1020C0000B9677DF44E062E272E1CE010B9671DF9E
:1020D00044E06AE072E1CE010B966BDF44E066E516
:1020E00072E1CE010B9665DF44E066E172E1CE015C
:1020F0000B965FDF44E062E172E1CE010B9659DF9F
:1021000044E06EE072E1CE010B9653DF4CE061E4F7
:1021100078E0CE010B964DDF42E06FE773E1CE0130
:102120000B9647DF42E06DE773E1CE010B9641DF8E
:1021300042E06BE773E1CE010B963BDF42E069E7DB
:1021400073E1CE010B9635DF42E067E773E1CE0124
:102150000B962FDF42E065E773E1CE010B9629DF96
:1021600044E06EE278E0CE010B9623DF44E06AE7BC
:1021700072E0CE010B961DDF44E066E772E0CE010F
:102180000B9617DF44E062E772E0CE010B9611DF99
:1021900080E290E09A87898742E0BE01675F7F4FC7
:1021A000CE010B9606DF41E06AE278E0CE010B96A5
:1021B00000DF44E06DE172E0CE010B96FADE44E010
:1021C00065E172E0CE010B96F4DE44E065E278E072
:1021D000CE010B96EEDE44E061E278E0CE010B9694
:1021E000E8DE44E061E172E0CE010B96E2DE41E020
:1021F0006DE578E0CE010B96DCDE44E061E372E051
:10220000CE010B96D6DE86E591E3A3E3B0E08983A9
:102210009A83AB83BC831C870B8744E0BE016F5F4E
:102220007F4FCE010B96C5DEE2EBFAE08491882366
:1022300041F09091C00095FFFCCF8093C60031968D
:10224000F5CFECEAF4E08491882341F09091C0004E
:1022500095FFFCCF8093C6003196F5CF8091C000EA
:1022600085FFFCCF8AE08093C6002C960FB6F894C9
:10227000DEBF0FBECDBFDF91CF911F910F910895AB
:10228000CF93DF93C2EBDAE0FE018491882341F023
:102290009091C00095FFFCCF8093C6003196F5CF9A
:1022A000ECE9F4E08491882341F09091C00095FF1F
:1022B000FCCF8093C6003196F5CF8091C00085FF9A
:1022C000FCCF8AE08093C600FE018491E2EBFAE045
:1022D000882349F09091C00095FFFCCF8093C60001
:1022E00031968491F5CF409136125091371260911A
:1022F00038127091391284E994E00E94B71B409122
:102300003A1250913B1260913C1270913D1281E95A
:1023100094E00E94B71B40913E1250913F12609191
:102320004012709141128EE894E00E94B71B4091D8
:1023300042125091431260914412709145128BE801
:1023400094E00E94B71B8091C00085FFFCCF8AE01B
:102350008093C600FE018491E2EBFAE0882349F005
:102360009091C00095FFFCCF8093C6003196849178
:10237000F5CFE1E7F4E08491882341F09091C0002B
:1023800095FFFCCF8093C6003196F5CF8091C000B9
:1023900085FFFCCF8AE08093C600FE018491E2EBCA
:1023A000FAE0882349F09091C00095FFFCCF80931C
:1023B000C60031968491F5CF409146125091471254
:1023C000609148127091491288E694E00E94B71B10
:1023D00040914A1250914B1260914C1270914D12E3
:1023E00085E694E00E94B71B40914E1250914F1227
:1023F000609150127091511282E694E00E94B71BD6
:102400004091521250915312609154127091551292
:102410008FE594E00E94B71B8091C00085FFFCCF40
:102420008AE08093C600FE018491E2EBFAE0882303
:1024300049F09091C00095FFFCCF8093C600319683
:102440008491F5CFE1E4F4E08491882341F0909108
:10245000C00095FFFCCF8093C6003196F5CF8091E8
:10246000C00085FFFCCF8AE08093C600FE01849106
:10247000E2EBFAE0882349F09091C00095FFFCCF91
:102480008093C60031968491F5CF409126125091E9
:102490002712609128127091291288E394E00E941B
:1024A000C81B40912A1250912B1260912C127091EE
:1024B0002D1285E394E00E94C81B40912E1250918A
:1024C0002F12609130127091311282E394E00E94D9
:1024D000C81B4091321250913312609134127091A6
:1024E00035128FE294E00E94C81B8091C00085FFE6
:1024F000FCCF8AE08093C600FE018491E2EBFAE013
:10250000882349F09091C00095FFFCCF8093C600CE
:1025100031968491F5CFEAEFF3E08491882341F07E
:102520009091C00095FFFCCF8093C6003196F5CF07
:102530008091C00085FFFCCF8AE08093C600FE0139
:102540008491E2EBFAE0882349F09091C00095FF76
:10255000FCCF8093C60031968491F5CF40911E1236
:1025600050911F12609120127091211281EF93E01F
:102570000E94B71B40911A1250911B1260911C12BD
:1025800070911D128EEE93E00E94B71B8091C000E7
:1025900085FFFCCF8AE08093C600FE018491E2EBC8
:1025A000FAE0882349F09091C00095FFFCCF80931A
:1025B000C60031968491F5CFEBE3F3E08491882354
:1025C00041F09091C00095FFFCCF8093C6003196FA
:1025D000F5CF8091C00085FFFCCF8AE08093C600D4
:1025E000FE018491E2EBFAE0882349F09091C0006B
:1025F00095FFFCCF8093C60031968491F5CF409132
:10260000221250912312609124127091251282E3BC
:1026100093E00E94B71B40910A1250910B126091F7
:102620000C1270910D128FE293E00E94B71B409143
:1026300056125091571260915812709159128CE2B3
:1026400093E00E94C81B409116125091171260919E
:1026500018127091191289E293E00E94B71B409101
:10266000121250911312609114127091151286E299
:1026700093E00E94B71B40910E1250910F1260918F
:1026800010127091111283E293E00E94B71B8091A7
:10269000C00085FFFCCF8AE08093C600FE018491D4
:1026A000E2EBFAE0882349F09091C00095FFFCCF5F
:1026B0008093C60031968491F5CFE1E1F3E08491F7
:1026C000882341F09091C00095FFFCCF8093C60015
:1026D0003196F5CF8091C00085FFFCCF8AE08093D2
:1026E000C600FE018491E2EBFAE0882349F0909164
:1026F000C00095FFFCCF8093C60031968491F5CF42
:1027000040914108509142086091430870914408FB
:1027100088E093E00E94B71B40914508509146081D
:10272000609147087091480885E093E00E94B71BCC
:102730004091490850914A0860914B0870914C08AB
:1027400082E093E00E94B71B8091C00085FFFCCF20
:102750008AE08093C600FE018491E2EBFAE08823D0
:1027600049F09091C00095FFFCCF8093C600319650
:102770008491F5CFE4EFF2E08491882341F09091C9
:10278000C00095FFFCCF8093C6003196F5CF8091B5
:10279000C00085FFFCCF8AE08093C600FE018491D3
:1027A000E2EBFAE0882349F09091C00095FFFCCF5E
:1027B0008093C60031968491F5CF40917A02509172
:1027C0007B0260917C0270917D028AEE92E0CFD70D
:1027D00060917602709177028091780290917902EF
:1027E0000E947387AB01BC0187EE92E0C0D7609175
:1027F00072027091730280917402909175020E942E
:102800007F87AB01BC0184EE92E0B1D78091C0001C
:1028100085FFFCCF8AE08093C600FE018491E2EB45
:10282000FAE0882349F09091C00095FFFCCF809397
:10283000C60031968491F5CFE0EBF2E084918823D5
:1028400041F09091C00095FFFCCF8093C600319677
:10285000F5CF8091C00085FFFCCF8AE08093C60051
:10286000FE018491E2EBFAE0882349F09091C000E8
:1028700095FFFCCF8093C60031968491F5CF4091AF
:102880001D0250911E0260911F027091200286EA83
:1028900092E06DD720E030E040E752E4609115020D
:1028A0007091160280911702909118020E9448B20E
:1028B000AB01BC0183EA92E05AD7409125085091C0
:1028C0002608609127087091280880EA92E04FD787
:1028D0008091C00085FFFCCF8AE08093C600FE0196
:1028E0008491E2EBFAE0882349F09091C00095FFD3
:1028F000FCCF8093C60031968491F5CFE4E7F2E0F7
:102900008491882341F09091C00095FFFCCF809383
:10291000C6003196F5CF8091C00085FFFCCF8AE0DC
:102920008093C600FE018491E2EBFAE0882349F02F
:102930009091C00095FFFCCF8093C60031968491A2
:10294000F5CF4091210850912208609123087091A1
:1029500024088AE692E00BD720E030E040E752E41A
:1029600060911102709112028091130290911402F1
:102970000E9448B2AB01BC0187E692E0F8D6809194
:10298000C00085FFFCCF8AE08093C600FE018491E1
:10299000E2EBFAE0882349F09091C00095FFFCCF6C
:1029A0008093C60031968491F5CFEDE0F2E08491FA
:1029B000882341F09091C00095FFFCCF8093C60022
:1029C0003196F5CF8091C00085FFFCCF8AE08093DF
:1029D000C600FE018491E2EBFAE0882349F0909171
:1029E000C00095FFFCCF8093C60031968491F5CF4F
:1029F00040912A0850E060E070E083E092E0C8D6A1
:102A00008091C00085FFFCCF8AE08093C600FE0164
:102A10008491E2EBFAE0882349F09091C00095FFA1
:102A2000FCCF8093C60031968491F5CF80915D08EC
:102A3000882399F1E0EFF1E08491882341F09091AF
:102A4000C00095FFFCCF8093C6003196F5CF8091F2
:102A5000C00085FFFCCF8AE08093C600FE01C491D0
:102A6000E2EBFAE0CC2349F08091C00085FFFCCF77
:102A7000C093C6003196C491F5CF40913102509178
:102A80003202609133027091340286EE91E06FD68B
:102A90008091C00085FFFCCF11C0EAECF1E0849189
:102AA000882341F09091C00095FFFCCF8093C60031
:102AB0003196F5CF8091C00085FFFCCF8AE08093EE
:102AC000C600DF91CF910895AF92BF92CF92DF926F
:102AD000EF92FF920F931F93CF93DF93CDB7DEB7A3
:102AE000E0970FB6F894DEBF0FBECDBF80E1E7EAF6
:102AF000F2E0DE01919601900D928A95E1F780E176
:102B0000E7EBF2E0DE01519601900D928A95E1F734
:102B100080E1E7ECF2E0DE01119601900D928A95DA
:102B2000E1F76E0181E2C80ED11C86E3E82E82E156
:102B3000F82E8E010F5E1F4F66E472E1AE014F5F0B
:102B40005F4F96E2A92E92E1B92E20E030E0F60127
:102B500081919191A191B1916F01F701819391932D
:102B6000A193B1937F01F80181919191A191B191CC
:102B70008F01FB0181939193A193B193BF01FA015E
:102B800081919191A191B191AF01F50181939193BF
:102B9000A193B1935F012F5F3F4F24303105B9F608
:102BA0000E94D56F80E090E8ABE3B5E480931E12FD
:102BB00090931F12A0932012B093211280931A12A7
:102BC00090931B12A0931C12B0931D12109222120C
:102BD00010922312109224121092251280E29EE489
:102BE000A0E0B0E08093561290935712A093581231
:102BF000B093591210920A1210920B1210920C12EA
:102C000010920D1280E090E0A0EAB1E480931612D9
:102C100090931712A0931812B09319128DEC9CEC9C
:102C2000ACECBEE38093121290931312A093141293
:102C3000B093151280E090E0A0EAB0E480930E1209
:102C400090930F12A0931012B09311121092490892
:102C500010924A0810924B0810924C0810924508A6
:102C600010924608109247081092480810924108A6
:102C700010924208109243081092440882ED90E0AE
:102C80009093801380937F1382E390E090937E1360
:102C900080937D1310927C1310927B138FEF90E042
:102CA00090937A138093791384E690E0909378134D
:102CB00080937713109276131092751380E090E052
:102CC000A4E8B2E480937A0290937B02A0937C0202
:102CD000B0937D0266EF78E288E391E40E946D870D
:102CE00060937602709377028093780290937902D2
:102CF0006FE872E48DEB92E40E9479876093720230
:102D00007093730280937402909375020E94B97C51
:102D100080E090E0A0E8BFE380936E0290936F02A2
:102D2000A0937002B093710210922A0880E090E0A4
:102D3000A0E4B0E480931D0290931E02A0931F02B2
:102D4000B093200240E050E064E372E44093150247
:102D50005093160260931702709318021092250880
:102D60001092260810922708109228081092210825
:102D700010922208109223081092240840E050E09C
:102D800060E071E4409311025093120260931302C9
:102D90007093140210925D08809331029093320276
:102DA000A0933302B09334020E94B528E2EBFAE01C
:102DB0008491882341F09091C00095FFFCCF8093CF
:102DC000C6003196F5CFEEE8F1E08491882341F01A
:102DD0009091C00095FFFCCF8093C6003196F5CF4F
:102DE0008091C00085FFFCCF8AE08093C600E0960A
:102DF0000FB6F894DEBF0FBECDBFDF91CF911F910C
:102E00000F91FF90EF90DF90CF90BF90AF9008951B
:102E1000CF93DF93CDB7DEB72C970FB6F894DEBF14
:102E20000FBECDBF84E690E09C878B8786E591E35B
:102E3000A3E3B0E089839A83AB83BC8344E0BE0103
:102E40006B5F7F4FCE010B96DAD843E050E0BE01B6
:102E50006B5F7F4FCE0101960E94F1B6892B09F07E
:102E6000E3C040E166E372E1CE010B96C8D840E1D1
:102E700066E472E1CE010B96C2D840E166E272E1EF
:102E8000CE010B96BCD80E94D56F44E06EE172E192
:102E9000CE010B96B4D844E06AE172E1CE010B9604
:102EA000AED844E062E272E1CE010B96A8D844E0CD
:102EB0006AE072E1CE010B96A2D844E066E572E1C9
:102EC000CE010B969CD844E066E172E1CE010B96F0
:102ED00096D844E062E172E1CE010B9690D844E0CE
:102EE0006EE072E1CE010B968AD84CE061E478E0A6
:102EF000CE010B9684D842E06FE773E1CE010B96CA
:102F00007ED842E06DE773E1CE010B9678D842E0BF
:102F10006BE773E1CE010B9672D842E069E773E18B
:102F2000CE010B966CD842E067E773E1CE010B96B9
:102F300066D842E065E773E1CE010B9660D844E0C5
:102F40006EE278E0CE010B965AD844E06AE772E070
:102F5000CE010B9654D844E066E772E0CE010B96A2
:102F60004ED844E062E772E0CE010B9648D842E0CA
:102F7000BE01675F7F4FCE010B9641D841E06AE208
:102F800078E0CE010B963BD844E06DE172E0CE01D3
:102F90000B9635D844E065E172E0CE010B962FD850
:102FA00044E065E278E0CE010B9629D844E061E286
:102FB00078E0CE010B9623D844E061E172E0CE01C7
:102FC0000B961DD841E06DE578E0CE010B9617D841
:102FD00044E061E372E0CE010B9611D80E94B5285F
:102FE0000E94B97CE2EBFAE08491882341F0909151
:102FF000C00095FFFCCF8093C6003196F5CFE0EB83
:10300000F1E08491882341F09091C00095FFFCCFBE
:103010008093C6003196F5CF8091C00085FFFCCF2C
:103020008AE08093C60001C04FDD2AD92C960FB6E6
:10303000F894DEBF0FBECDBFDF91CF9108951F92F0
:103040000F920FB60F9211240BB60F922F933F934E
:103050004F935F936F938F939F93EF93FF93609141
:10306000C6002091430630914406C90101968F772E
:10307000992740914506509146068417950741F0DF
:10308000F901ED53FA4F6083909344068093430611
:10309000FF91EF919F918F916F915F914F913F9130
:1030A0002F910F900BBE0F900FBE0F901F90189591
:1030B0009A01AB01211581EE38074105510549F10F
:1030C00082E08093C00060E079E08DE390E00E94B0
:1030D00066B32150310941095109CA01B90122E001
:1030E00030E040E050E00E9466B33093C50020938A
:1030F000C4008091C10080618093C1008091C100B3
:1031000088608093C1008091C10080688093C10075
:1031100008951092C00020E130E0E7CF20914506ED
:10312000309146068091430690914406821793079A
:1031300071F0F901ED53FA4F80812F5F3F4F2F77E8
:103140003327309346062093450690E008958FEF8D
:103150009FEF08958091450690914606909344060E
:103160008093430608954F925F926F927F928F9261
:103170009F92AF92BF92CF92DF92EF92FF920F9306
:103180001F93CF93DF93CDB7DEB7A0970FB6F89418
:10319000DEBF0FBECDBF5C01411551056105710554
:1031A000E9F420E030E040E350E060E070E0A09619
:1031B0000FB6F894DEBF0FBECDBFDF91CF911F9148
:1031C0000F91FF90EF90DF90CF90BF90AF909F90C6
:1031D0008F907F906F905F904F905BC08E010F5FDC
:1031E0001F4FC12CD12C76014801422E512C612C4D
:1031F000712C8FEFC81AD80AE80AF80ACB01BA0175
:10320000A30192010E9444B3CA01F80161938F01A6
:10321000A901BC01411551056105710551F7F1E0A6
:10322000CF1AD108E108F108F401EC0DFD1D8081F1
:103230008A3010F440E301C047E3480F552747FDAB
:103240005095652F752F20E030E0C50122D081E038
:10325000C81AD108E108F108EFEFCE16DE06EE0637
:10326000FE0611F7A0960FB6F894DEBF0FBECDBFD5
:10327000DF91CF911F910F91FF90EF90DF90CF9052
:10328000BF90AF909F908F907F906F905F904F9086
:1032900008952115310539F48091C00085FFFCCFD8
:1032A0004093C60008952A30310509F41CC05BCF55
:1032B000CF93DF93EC0120E030E04DE050E060E0A0
:1032C00070E0E7DF20E030E04AE050E060E070E0EE
:1032D000CE01DF91CF91DDCF9A01AB01662757FD7B
:1032E0006095762FD6CFCF92DF92EF92FF92CF9359
:1032F000DF93EC016A017B0177FF0FC020E030E033
:103300004DE250E060E070E0C4DFF094E094D094CF
:10331000C094C11CD11CE11CF11C2AE0B701A6011C
:10332000CE01DF91CF91FF90EF90DF90CF901BCF38
:103330002115310539F48091C00085FFFCCF409301
:10334000C600089510CF9A01462F50E060E070E06B
:10335000EFCFCF93DF93EC019A01AB0160E070E017
:10336000E7DFCE01DF91CF91A3CF8F929F92AF92F3
:10337000BF92CF92DF92EF92FF921F93CF93DF9392
:10338000EC016A017B01122F20E030E0A901C701A6
:10339000B6010E9473AF87FF0CC020E030E04DE221
:1033A00050E060E070E0CE0174DFF7FAF094F7F8D7
:1033B000F094B12C60E070E080E09FE3B11641F042
:1033C00020E030E040E251E40E947AAFB394F6CFBF
:1033D0009B01AC01C701B6010E949AAE6B017C0152
:1033E0000E94E7AF4B015C010E9413B09B01AC014E
:1033F000C701B6010E9499AE6B017C012AE0B501BC
:10340000A401CE01B0DE112361F0E8E4F5E0819182
:10341000882339F09091C00095FFFCCF8093C600BF
:10342000F6CF112319F120E030E040E251E4C7016A
:10343000B6010E9448B26B017C010E94E2AF4B01D1
:10344000AA2497FCA094BA2CB501A401CE014BDFAD
:10345000C501B4010E9415B09B01AC01C701B601C2
:103460000E9499AE6B017C011150DBCFDF91CF91AF
:103470001F91FF90EF90DF90CF90BF90AF909F9003
:103480008F90089572CFFC0165917591859194910B
:1034900008952F923F924F925F926F927F928F92F8
:1034A0009F92AF92BF92CF92DF92EF92FF920F93D3
:1034B0001F93CF93DF9300D000D0CDB7DEB71C01B0
:1034C000FC01ED58F54F14919C01220F331F220F80
:1034D000331F3E832D83235B374F4901F90110824F
:1034E00011821282138229E538E045E558E061E552
:1034F00078E08DE498E00E94036F8D819E818E5765
:10350000954FC1DF6B017C01612F772767FD7095B7
:10351000872F972F0E9415B02B013C012D813E81F2
:10352000245F374F590120E030E040EC5FE3C701F2
:10353000B6010E9448B2A30192010E9448B2F5016F
:1035400060837183828393832D813E81235C3D4F11
:103550003C832B83F9016081718182819381609327
:103560000B0270930C0280930D0290930E0220E0E8
:1035700030E040E752E40E947AAF2DE2C22E28E00C
:10358000D22E7B018C0128E138E044E158E060E173
:1035900078E08CE098E00E943D650E940E78F4018E
:1035A000108211821282138229E538E045E558E045
:1035B00061E578E08DE498E00E94036F2D813E8103
:1035C0002A58354F3A832983C9015DDF9058A301FA
:1035D00092010E9448B2F5016083718382839383D4
:1035E00020E030E040E752E460910B0270910C0261
:1035F00080910D0290910E020E947AAF7B018C01A6
:1036000028E138E044E158E060E178E08CE098E0BF
:103610000E943D650E940E7889819A8134DF9B016A
:10362000AC010E949AAEA30192010E9448B2F5013A
:10363000608371838283938320E030E040E05FE326
:10364000EB81FC8160817181828193810E9448B20B
:1036500060930B0270930C0280930D0290930E0204
:1036600020E030E040E752E40E947AAF7B018C0119
:1036700028E138E044E158E060E178E08CE098E04F
:103680000E943D650E940E788D819E818257954FE4
:10369000FADE0D811E810F5B174FF8012081318109
:1036A000428153810E949AAEF401608371838283C8
:1036B00093838D819E818A55954FE5DE2D813E81D4
:1036C0002B5C374F7901F801208131814281538190
:1036D0000E949AAEF70160837183828393838D8108
:1036E0009E818656954FCFDE2D813E812F5D3D4FC9
:1036F0007901F80120813181428153810E949AAE83
:10370000F7016083718382839383F40180819181C7
:10371000A281B381F50180839183A283B383109248
:103720000B0210920C0210920D0210920E020E94D7
:10373000B870F101EE5CF74F81E0808326960FB6FA
:10374000F894DEBF0FBECDBFDF91CF911F910F91D7
:10375000FF90EF90DF90CF90BF90AF909F908F90B1
:103760007F906F905F904F903F902F900895FC0155
:103770002491222341F03091C00035FFFCCF2093EB
:10378000C6000196F4CF22E030E082EC95E07ACEDC
:10379000FC012491222341F03091C00035FFFCCF81
:1037A0002093C6000196F4CF2AE030E082EC95E049
:1037B000BFCD2091610630916206243031050CF0B6
:1037C0006AC0409163065091640660E6649F900170
:1037D000659F300D1124BC01C9018559994F0E9484
:1037E000EAB6E2EBFAE08491882341F09091C000C0
:1037F00095FFFCCF8093C6003196F5CFE8E6FAE05E
:103800008491882341F09091C00095FFFCCF809374
:10381000C6003196F5CF809163069091640620E64C
:10382000289FF001299FF00D1124E559F94F81914E
:10383000882339F09091C00095FFFCCF8093C6009B
:10384000F6CFE6E6FAE08491882341F09091C0003B
:1038500095FFFCCF8093C6003196F5CF8091C000D4
:1038600085FFFCCF8AE08093C6008091630690912B
:103870006406019664E070E00E9431B390936406A0
:103880008093630680916106909162060196909301
:103890006206809361060895209161063091620668
:1038A000243031050CF06AC04091630650916406E3
:1038B00060E6649F9001659F300D1124BC01C90131
:1038C0008559994F0E945AB6E2EBFAE08491882319
:1038D00041F09091C00095FFFCCF8093C6003196D7
:1038E000F5CFEBE5FAE08491882341F09091C00098
:1038F00095FFFCCF8093C6003196F5CF809163068B
:103900009091640620E6289FF001299FF00D112474
:10391000E559F94F8191882339F09091C00095FFC6
:10392000FCCF8093C600F6CFE9E5FAE084918823C6
:1039300041F09091C00095FFFCCF8093C600319676
:10394000F5CF8091C00085FFFCCF8AE08093C60050
:103950008091630690916406019664E070E00E9495
:1039600031B39093640680936306809161069091D1
:1039700062060196909362068093610608959B9A71
:10398000A3980895FCDF40E052EC61E070E082EC27
:1039900095E08EDBE3E5FAE08491882341F0909195
:1039A000C00095FFFCCF8093C6003196F5CF809183
:1039B000C00085FFFCCF8AE08093C60082EB9AE0CE
:1039C000FC012491222341F03091C00035FFFCCF4F
:1039D0002093C6003196F5CF24B720FF14C0EBE446
:1039E000FAE03491332341F04091C00045FFFCCF11
:1039F0003093C6003196F5CF3091C00035FFFCCF33
:103A00003AE03093C60021FF14C0EBE3FAE03491B2
:103A1000332341F04091C00045FFFCCF3093C600F6
:103A20003196F5CF3091C00035FFFCCF3AE03093AE
:103A3000C60022FF14C0EAE2FAE03491332341F0D9
:103A40004091C00045FFFCCF3093C6003196F5CFC2
:103A50003091C00035FFFCCF3AE03093C60023FF21
:103A600014C0EAE1FAE03491332341F04091C00000
:103A700045FFFCCF3093C6003196F5CF3091C000A2
:103A800035FFFCCF3AE03093C60025FF14C0EAE0D2
:103A9000FAE02491222341F03091C00035FFFCCFA1
:103AA0002093C6003196F5CF2091C00025FFFCCFB2
:103AB0002AE02093C60014BEE3E0FAE0249122231A
:103AC00041F03091C00035FFFCCF2093C600319605
:103AD000F5CFEDEFF9E02491222341F03091C000C1
:103AE00035FFFCCF2093C6003196F5CF2091C00062
:103AF00025FFFCCF2AE02093C600FC012491E2EBD5
:103B0000FAE0222349F03091C00035FFFCCF20932A
:103B1000C60031962491F5CFEDEEF9E024912223F1
:103B200041F03091C00035FFFCCF2093C6003196A4
:103B3000F5CFE8EDF9E02491222341F03091C00067
:103B400035FFFCCF2093C6003196F5CFECECF9E0C1
:103B50002491222341F03091C00035FFFCCF209307
:103B6000C6003196F5CFE5EBF9E02491222341F030
:103B70003091C00035FFFCCF2093C6003196F5CFC1
:103B80002091C00025FFFCCF2AE02093C600EAEA7E
:103B9000F9E02491222341F03091C00035FFFCCFA1
:103BA0002093C6003196F5CFEEE9F9E02491222367
:103BB00041F03091C00035FFFCCF2093C600319614
:103BC000F5CF2091C00025FFFCCF2AE02093C6004E
:103BD000FC018491E2EBFAE0882349F09091C00067
:103BE00095FFFCCF8093C60031968491F5CFEFE826
:103BF000F9E08491882341F09091C00095FFFCCFBB
:103C00008093C6003196F5CF0E94304D4AE050E0D7
:103C1000BC0182EC95E060DBE8E7F9E08491882361
:103C200041F09091C00095FFFCCF8093C600319683
:103C3000F5CF4AE050E060ED74E082EC95E04CDBBB
:103C40008091C00085FFFCCF8AE08093C60010926F
:103C50006706109268061092690610926A06D8D814
:103C60000E943A800E94ED640E94167A0E9490960B
:103C7000FFEF23ED80E3F15020408040E1F700C0EA
:103C80000000089580915B0690915C0660E070E012
:103C900001960C94B1B380915B0690915C064AE06A
:103CA00050E060E070E001960C9419B5682F77271A
:103CB00067FD7095209165063091660640E6429F4B
:103CC000C001439F900D11248559994F0E94D6B68B
:103CD00090935C0680935B0621E0892B09F420E039
:103CE000822F08950E9442A8609357067093580649
:103CF0008093590690935A0608950E9442A86093B3
:103D00005706709358068093590690935A06E0918F
:103D10006506F0916606E959F94F8081811114C05A
:103D2000E4E6F5E08491882341F09091C00095FF8E
:103D3000FCCF8093C6003196F5CF8091C00085FFFF
:103D4000FCCF8AE08093C600089582EC95E002DA09
:103D5000E7E6F5E08491882341F09091C00095FF5B
:103D6000FCCF8093C6003196F5CF4091F00750917B
:103D7000F1076091F2077091F3074F5F5F4F6F4F4C
:103D80007F4F2AE030E082EC95E083DA8091C0003A
:103D900085FFFCCF8AE08093C600AFCF8F929F92C1
:103DA000AF92BF92CF92DF92EF92FF920F931F9349
:103DB000CF93DF933BE5E32E34E0F32E0DE418E0E0
:103DC000CCE0D8E042E6C42E48E0D42EF701819141
:103DD0007F016CDF882311F155DF4B015C01F60197
:103DE0008081811103C06091EB0701C061E070E048
:103DF00080E090E00E9415B0F8012081318142817D
:103E000053810E9448B29B01AC01C501B4010E94DC
:103E10009AAE688379838A839B8309C0F801808185
:103E20009181A281B38188839983AA83BB830C5F2C
:103E30001F4F2496FFEFCF1ADF0A8FE5E81684E0C4
:103E4000F80621F686E432DF8823D1F01BDF6B0110
:103E50007C016093FC077093FD078093FE079093AD
:103E6000FF0720E030E0A9010E9476B1181644F463
:103E7000C0920B02D0920C02E0920D02F0920E0260
:103E8000DF91CF911F910F91FF90EF90DF90CF9036
:103E9000BF90AF909F908F90089580DF89E406DFF8
:103EA000882351F0EFDE609300087093010880933F
:103EB00002089093030808C01092000810920108AD
:103EC00010920208109203088AE4F0DE882351F071
:103ED000D9DE6093040870930508809306089093D8
:103EE0000708089510920408109205081092060819
:103EF000109207080895CF92DF92EF92FF92CF932E
:103F0000DF93EC01C0903508D0903608E090370878
:103F1000F0903808A7019601688179818A819B8198
:103F20000E9473AF87FF04C0C882D982EA82FB82F5
:103F3000C0903908D0903A08E0903B08F0903C08D7
:103F4000A70196016C817D818E819F810E9473AF54
:103F500087FF04C0CC82DD82EE82FF8220E030E069
:103F6000A90160913D0870913E0880913F089091B1
:103F700040080E949AAE6B017C019B01AC016885F0
:103F800079858A859B850E9473AF87FF04C0C886A8
:103F9000D986EA86FB86C0902102D0902202E0906A
:103FA0002302F0902402A7019601688179818A8119
:103FB0009B810E9476B1181624F4C882D982EA82C5
:103FC000FB82C0902502D0902602E0902702F0905C
:103FD0002802A70196016C817D818E819F810E94BC
:103FE00076B1181624F4CC82DD82EE82FF82C09076
:103FF0002902D0902A02E0902B02F0902C02A70117
:104000009601688579858A859B850E9476B1181608
:1040100024F4C886D986EA86FB86DF91CF91FF908B
:10402000EF90DF90CF900895CF92DF92EF92FF92C2
:104030000F931F938CE098E05EDF0E9442A860938C
:104040005706709358068093590690935A0620910C
:104050000C0830910D0840910E0850910F086091A6
:104060004D0870914E0880914F08909150080E9421
:1040700073AF811179C020911008309111084091DF
:104080001208509113086091510870915208809164
:104090005308909154080E9473AF811165C020E0CD
:1040A00030E040E752E460910B0270910C02809185
:1040B0000D0290910E020E947AAF5DE2C52E58E08B
:1040C000D52E7B018C0128E138E044E158E060E125
:1040D00078E08CE098E00E943D6580910C0890911A
:1040E0000D08A0910E08B0910F0880934D08909391
:1040F0004E08A0934F08B0935008809110089091FB
:104100001108A0911208B091130880935108909360
:104110005208A0935308B0935408809114089091CA
:104120001508A0911608B091170880935508909330
:104130005608A0935708B09358088091180890919A
:104140001908A0911A08B0911B0880935908909300
:104150005A08A0935B08B0935C081F910F91FF90E1
:10416000EF90DF90CF90089560913B0270913C02F8
:10417000882777FD8095982F0E9415B020910B021B
:1041800030910C0240910D0250910E020E9448B2F3
:1041900020E030E040E752E40E947AAF20E030E0D7
:1041A00048EC52E488CFCF92DF92EF92FF92CF9308
:1041B000C62FE0912D08F0E0882309F4C2C0DF018A
:1041C000A75DB74F8C91811196C180914D08909158
:1041D0004E08A0914F08B091500880930C0890931E
:1041E0000D08A0930E08B0930F088091510890918C
:1041F0005208A0915308B0915408809310089093EE
:104200001108A0931208B09313088091550890915B
:104210005608A0915708B0915808809314089093BD
:104220001508A0931608B0931708C0905908D090AD
:104230005A08E0905B08F0905C08C0921808D09291
:104240001908E0921A08F0921B08EE0FFF1FEE0FFC
:10425000FF1FE35DFD4F2081318142815381CC23DB
:1042600049F06091190270911A0280911B0290919D
:104270001C0208C060911D0270911E0280911F02F5
:10428000909120020E947AAF9B01AC01C701B60158
:104290000E949AAE6093590870935A0880935B0805
:1042A00090935C0889E598E00E94A86FC0900B028B
:1042B000D0900C02E0900D02F0900E0220E030E071
:1042C00040E752E460911502709116028091170246
:1042D000909118020E9448B260930B0270930C02F6
:1042E00080930D0290930E02E0912D08F0E0E75DBF
:1042F000F74F81E0808398DE2091250830912608D1
:1043000040912708509128086091550870915608EF
:1043100080915708909158080E9499AE6093550873
:1043200070935608809357089093580829E538E011
:1043300045E558E061E578E08DE498E00E94036F80
:10434000D1C0E75DF74F8081882309F4D4C0809104
:104350004D0890914E08A0914F08B091500880935D
:104360000C0890930D08A0930E08B0930F0880914D
:10437000510890915208A0915308B091540880932D
:10438000100890931108A0931208B093130860913D
:10439000550870915608809157089091580860937D
:1043A0001408709315088093160890931708C0900E
:1043B0005908D0905A08E0905B08F0905C08C092D1
:1043C0001808D0921908E0921A08F0921B08209160
:1043D00025083091260840912708509128080E940E
:1043E0009AAE60935508709356088093570890933F
:1043F000580829E538E045E558E061E578E08DE4C6
:1044000098E00E94036FF0902D08CC2389F0209152
:104410001D0830911E0840911F085091200860919E
:10442000190270911A0280911B0290911C0210C017
:1044300020912108309122084091230850912408AE
:1044400060911D0270911E0280911F0290912002C6
:104450000E949AAE24E0F29EF0011124E35DFD4F2C
:1044600020813181428153810E947AAF9B01AC014E
:104470006091590870915A0880915B0890915C088E
:104480000E9499AE6093590870935A0880935B0814
:1044900090935C0889E598E00E94A86FC0900B0299
:1044A000D0900C02E0900D02F0900E0220E030E07F
:1044B00040E752E460911102709112028091130260
:1044C000909114020E9448B260930B0270930C0208
:1044D00080930D0290930E02E0912D08F0E0E75DCD
:1044E000F74F1082A1DDC0920B02D0920C02E09235
:1044F0000D02F0920E02CF91FF90EF90DF90CF90DF
:104500000895AF92BF92CF92DF92EF92FF920F93F6
:104510001F93CF93DF93D82F209104083091050883
:1045200040910608509107086091000870910108B9
:1045300080910208909103080E9483B1C62F172F23
:10454000082FF92E60913B0270913C02882777FD7D
:104550008095982F0E9415B020910B0230910C028B
:1045600040910D0250910E020E9448B220E030E0CE
:1045700040E752E40E947AAF20E030E048EC52E499
:104580000E947AAF20912D082F93DF93FF920F9313
:104590001F93CF935B016C0172E0E72E01E020E0F6
:1045A00040E058E06CE078E08DE498E00E94C55D62
:1045B00080910C0890910D08A0910E08B0910F0801
:1045C00080934D0890934E08A0934F08B0935008E5
:1045D0008091100890911108A0911208B0911308D1
:1045E0008093510890935208A0935308B0935408B5
:1045F0008091140890911508A0911608B0911708A1
:104600008093550890935608A0935708B093580884
:104610008091180890911908A0911A08B0911B0870
:104620008093590890935A08A0935B08B0935C0854
:104630000E9442A8609357067093580680935906CB
:1046400090935A060F900F900F900F900F900F902D
:10465000DF91CF911F910F91FF90EF90DF90CF905E
:10466000BF90AF900895F8940E94FB80179A109223
:104670003208169A10923308159A10923408149A38
:1046800060E087E40E941BAAE8EBFAE084918823AB
:1046900041F09091C00095FFFCCF8093C600319609
:1046A000F5CFE5E4F5E08491882341F09091C000D6
:1046B00095FFFCCF8093C6003196F5CF8091C00066
:1046C00085FFFCCF8AE08093C6008CE395E00E94D2
:1046D0002D967894C6E0D0E0219749F068EC70E020
:1046E00080E090E00E9471A80E94BD96F5CFF894FA
:1046F000FFCF2F923F924F925F926F927F928F9255
:104700009F92AF92BF92CF92DF92EF92FF920F9360
:104710001F93CF93DF93CDB7DEB76E970FB6F894A4
:10472000DEBF0FBECDBFB0E6BB2E14E0E12EF12CF4
:104730000EE3C02E08E0D02E8AE0A82E9924939490
:10474000809143069091440620914506309146069B
:10475000821B930B8F779927892B09F418C28091BC
:1047600061069091620604970CF011C282EC95E00C
:104770000E948E188093600620915E0630915F063D
:104780008A3061F08D3051F08A3321F490915D06CA
:10479000992321F02F3531050CF41BC1211531056A
:1047A00009F435C18091630690916406B89E30018A
:1047B000B99E700C1124F301E20FF31FE559F94F74
:1047C000108220915D062111FFC0FC01E959F94FCB
:1047D000108283010559194F6EE470E0C8010E94F0
:1047E000D6B60097F1F190935C0680935B06801B30
:1047F000910B860D971D4AE050E060E070E084590F
:10480000994F0E9419B56093F4077093F507809350
:10481000F6079093F7074090F0075090F1076090EB
:10482000F2077090F3072FEF421A520A620A720AD7
:104830000091630610916406641575058605970559
:1048400009F4E8C0B09EC001B19E900D11246AE544
:1048500079E08559994F0E9488B6892B09F0DAC012
:1048600069C16AE270E0C8010E94D6B6892B09F4DA
:1048700044C0E8EBFAE08491882341F09091C000B5
:1048800095FFFCCF8093C6003196F5CFE4EBF8E0BE
:104890008491882341F09091C00095FFFCCF8093D4
:1048A000C6003196F5CF4091F0075091F107609125
:1048B000F2077091F3072AE030E082EC95E00E9465
:1048C00049198091C00085FFFCCF8AE08093C60023
:1048D00010925F0610925E06C0C28091F40790911C
:1048E000F507A091F607B091F7078093F007909332
:1048F000F107A093F207B093F307809163069091BC
:104900006406B89E8001B99E100D1124C801855916
:10491000994F3C0167E470E00E94D6B6009781F1A0
:1049200090935C0680935B0686199709800F911F10
:1049300060E070E08459994F0E94B1B30E94E2AFE9
:1049400064307105E8F4809149068823C9F0F601C6
:104950008491EEE3F8E0882349F09091C00095FF40
:10496000FCCF8093C60031968491F5CF8091C00032
:1049700085FFFCCFA092C60084E398E00E942096B9
:104980000091630610916406B09EC001B19E900D27
:10499000112464E373E08559994F0E94E1B6892B95
:1049A00009F461DEC8010196B7010E9431B390930A
:1049B0006406809363068091610690916206019679
:1049C000909362068093610610925F0610925E06D5
:1049D000B7CE8B3311F490925D0690915D069111E4
:1049E000AFCE4091630650916406B9016F5F7F4F6F
:1049F00070935F0660935E06B49EF001B59EF00D65
:104A00001124E20FF31FE559F94F808399CE1092DC
:104A10005D0623C2B09E3001B19E700C1124C3010B
:104A20008559994F1C016AE270E00E94D6B6009742
:104A300089F5E8EBFAE08491882341F09091C00079
:104A400095FFFCCF8093C6003196F5CFEEEDF8E0F0
:104A50008491882341F09091C00095FFFCCF809312
:104A6000C6003196F5CF4091F0075091F107609163
:104A7000F2077091F3072AE030E082EC95E00E94A3
:104A800049198091C00085FFFCCF8AE08093C60061
:104A90005CD91ECF20E010E0F301E20FF11DE559D3
:104AA000F94F30813A3219F02F5F1327F5CF9093E9
:104AB0005C0680935B0682199309860D971D60E062
:104AC00070E08459994F0E94B1B30E94E2AF212F48
:104AD00030E02617370709F400CFE8EBFAE08491BD
:104AE000882341F09091C00095FFFCCF8093C600D1
:104AF0003196F5CFE8E0F9E08491882341F0909178
:104B0000C00095FFFCCF8093C6003196F5CF409151
:104B1000F0075091F1076091F2077091F3072AE0D6
:104B200030E082EC95E00E9449198091C00085FF39
:104B3000FCCFABCFE8EBFAE08491882341F0909171
:104B4000C00095FFFCCF8093C6003196F5CFE7E219
:104B5000F9E08491882341F09091C00095FFFCCF4B
:104B60008093C6003196F5CF4091F0075091F10740
:104B70006091F2077091F3072AE030E082EC95E053
:104B80000E9449198091C00085FFFCCF7ECF8091A3
:104B90006808882309F461C180915E0690915F06E0
:104BA000892B09F05AC18091610690916206892B88
:104BB00011F410924706F8EE2F2EF3E03F2E412C11
:104BC000512CACE3CA2ED12CE12CF12C8E010F5FBD
:104BD0001F4FE0E66E2E772473944091E90A5091BE
:104BE000EA0A6091EB0A7091EC0A8091E10A9091D7
:104BF000E20AA091E30AB091E40A481759076A074C
:104C00007B0708F02AC180916106909162060497A3
:104C10000CF023C18091470681111FC180913C0A8D
:104C200090913D0AA0913E0AB0913F0A8093E90A13
:104C30009093EA0AA093EB0AB093EC0A84E39AE01B
:104C40000E940247482F809360068A30B9F04D30A9
:104C5000A9F0433229F420915D06211103C00EC052
:104C60004A33C9F320915E0630915F062F35310536
:104C70002CF48F3FFFEF9F0709F0D1C04091E90A64
:104C80005091EA0A6091EB0A7091EC0A8091E10A76
:104C90009091E20AA091E30AB091E40A48175907FB
:104CA0006A077B0708F481C0E1E2F8E08491882379
:104CB00041F09091C00095FFFCCF8093C6003196E3
:104CC000F5CF8091C00085FFFCCFFAE0F093C600DD
:104CD0000E9442A860934B0670934C0680934D0649
:104CE00090934E0680904F0690905006A0905106EB
:104CF000B0905206681979098A099B09A2019101AD
:104D00000E9444B349015A01CA01B901A7019601A1
:104D10000E9444B3CA01B901A70196010E9444B39D
:104D20007F936F93C501B40120E13EE040E050E085
:104D30000E9444B33F932F93ADE0B8E0BF93AF938D
:104D40001F930F930E940EB7E2EBFAE084910FB627
:104D5000F894DEBF0FBECDBF882349F09091C0000C
:104D600095FFFCCF8093C60031968491F5CFF80172
:104D70008191882339F09091C00095FFFCCF8093FA
:104D8000C600F6CF8091C00085FFFCCF3AE030939B
:104D9000C600C8010E94299386E698E00E946D5DD6
:104DA00061E086E698E00E94A55780916006833214
:104DB00011F47092470620915E0630915F0621152E
:104DC000310509F424CE8091630690916406689EB3
:104DD000F001699EF00D1124E20FF31FE559F94F20
:104DE0001082FC01E959F94F7082209161063091DF
:104DF00062062F5F3F4F3093620620936106019653
:104E000064E070E00E9431B390936406809363067F
:104E100010925D0610925F0610925E06DECE4B3356
:104E200011F470925D0640915D064111D2CE409121
:104E3000630650916406B9016F5F7F4F70935F0600
:104E400060935E06649EF001659EF00D1124E20FF2
:104E5000F31FE559F94F8083C0CE6E960FB6F894D4
:104E6000DEBF0FBECDBFDF91CF911F910F91FF909D
:104E7000EF90DF90CF90BF90AF909F908F907F90FA
:104E80006F905F904F903F902F900895CF92DF9258
:104E9000EF92FF920F931F93CF93C82F80916106DB
:104EA0009091620603970CF424DC0E9442A80091C2
:104EB0005306109154062091550630915606C09025
:104EC0005706D0905806E0905906F0905A066C1993
:104ED0007D098E099F09061717072807390728F447
:104EE000012B022B032B09F0BEDB409107025091EE
:104EF00008026091090270910A02452B462B472B4C
:104F000019F10E9442A8009157061091580620916D
:104F1000590630915A06601B710B820B930B00915E
:104F20000702109108022091090230910A02061727
:104F300017072807390740F49091020D8091010D61
:104F4000981302C0CC2349F0CF911F910F91FF908D
:104F5000EF90DF90CF900C942165179A1092320851
:104F6000169A10923308159A10923408149AECCFBE
:104F70000E94FB8080914906811138C081E08093B6
:104F800049068091F0079091F107A091F207B09146
:104F9000F3078093EC079093ED07A093EE07B0938F
:104FA000EF07E8EBFAE08491882341F09091C0008C
:104FB00095FFFCCF8093C6003196F5CFE6ECF4E088
:104FC0008491882341F09091C00095FFFCCF80939D
:104FD000C6003196F5CF8091C00085FFFCCF8AE0F6
:104FE0008093C6008CEB94E00C94209608958091F9
:104FF00049060895CF93DF93EC0180912D088093AB
:105000004A0684E50E94561E811102C080E075C0E8
:105010000E94421E0E94E7AF60934A066623B1F3E6
:10502000E2EBFAE08491882341F09091C00095FF73
:10503000FCCF8093C6003196F5CFCD36D105B9F0BF
:1050400054F4C836D105B1F0C936D10509F045C0D0
:10505000EEE7F3E021C0CA3DD10531F0CD3DD105E9
:10506000E1F5E9E3F3E036C0E0E5F3E029C0E7E687
:10507000F3E01CC0E5E9F3E08191882371F19091A0
:10508000C00095FFFCCF8093C600F6CF9091C00082
:1050900095FFFCCF8093C60081918111F7CF1DC091
:1050A0009091C00095FFFCCF8093C6008191811143
:1050B000F7CF13C09091C00095FFFCCF8093C6003E
:1050C00081918111F7CF09C09091C00095FFFCCF6D
:1050D0008093C60081918111F7CF40E050E060914C
:1050E0004A0682EC95E00E94A3198091C00085FFDA
:1050F000FCCF8AE08093C60081E0DF91CF910895D4
:10510000CF92DF92EF92FF9220915D082223F1F07F
:1051100020E030E040E05FE30E9448B26B017C0198
:1051200020E030E0A9010E9473AF882379F0A70145
:105130009601C701B6010E9448B22BED3FE049E459
:1051400050E40E9448B29B01AC0104C020E030E072
:1051500040E85FE360E070E080E89FE30E947AAFA0
:10516000FF90EF90DF90CF900895609131027091A1
:1051700032028091330290913402C2DF60932D029B
:1051800070932E0280932F029093300208953F92E5
:105190004F925F926F927F928F929F92AF92BF9247
:1051A000CF92DF92EF92FF920F931F93CF93DF93F3
:1051B000CDB7DEB7E9970FB6F894DEBF0FBECDBF0F
:1051C00087E40E94561E882309F44CC20E94421EA6
:1051D0000E94E2AF6A30710509F4AFC09CF46230FE
:1051E000710509F44CC024F477FF25C00C94563F98
:1051F0006330710509F44EC06430710509F455C07F
:105200000C94563F6A35710509F4D8C154F46B30DB
:10521000710509F498C06C31710509F49AC00C94B9
:10522000563F6B35710509F4CDC16C35710509F434
:10523000CEC10C94563F8091490681110C94563F83
:105240000E94CE1E80912A088823A9F088E50E943A
:10525000561E811110C089E50E94561E81110BC097
:105260008AE50E94561E811106C085E40E94561EE2
:1052700081110C94593F0E9414200C94563F809148
:10528000490681110C94563F0E944D1F81E039D987
:105290000C94563F8091490681110C94563F0E9410
:1052A0004D1F80E02ED90C94563F81E098E00E947B
:1052B000209680E50E94561E882339F00E94421EE7
:1052C0000E94E7AF4B015C0103C0812C912C54017B
:1052D00083E50E94561E882361F00E94421E20E052
:1052E00030E04AE754E40E9448B20E94E7AF4B0125
:1052F0005C010E940E780E9442A86B017C01C80CE0
:10530000D91CEA1CFB1C0E9442A8609357067093AC
:1053100058068093590690935A060E9442A86C152D
:105320007D058E059F0510F00C94563F0E941C7D54
:1053300080E0ACDD0E94BD96F0CF60E081E00E948D
:10534000D3200C94563F60E080E00E94D3200C9460
:10535000563F80910B0290910C02A0910D02B091EA
:105360000E028093F8079093F907A093FA07B09381
:10537000FB0780913B0290913C02909361088093DF
:10538000600884E690E090933C0280933B020E9488
:1053900042A86093570670935806809359069093DD
:1053A0005A0681E00E94BF7080914D0890914E088E
:1053B000A0914F08B091500880930C0890930D086D
:1053C000A0930E08B0930F08809151089091520855
:1053D000A0915308B091540880931008909311083D
:1053E000A0931208B0931308809155089091560825
:1053F000A0915708B091580880931408909315080D
:10540000A0931608B09317088091590890915A08F4
:10541000A0915B08B0915C088093180890931908DC
:10542000A0931A08B0931B0810920B0210920C0262
:1054300010920D0210920E0288E50E94561E8823DB
:1054400011F090E00AC089E50E94561E8111F9CF43
:105450008AE50E94561E91E0982790930F029111C1
:105460000C94883F88E50E94561E81110C94883F59
:1054700080910F0281110C948E3F89E50E94561E87
:1054800081110C948E3F88E50E94561E8823D1F02E
:105490000E944B1E672B682B692BA1F00E94421EB5
:1054A00020914108309142084091430850914408AE
:1054B0000E949AAE60934D0870934E0880934F08F7
:1054C0009093500889E50E94561E8823D1F00E94CF
:1054D0004B1E672B682B692BA1F00E94421E209166
:1054E00045083091460840914708509148080E946D
:1054F0009AAE60935108709352088093530890932A
:10550000540880910F0281110C94943F8AE50E9407
:10551000561E81110C94943F8AE50E94561E8823E2
:10552000D1F00E944B1E672B682B692BA1F00E94C3
:10553000421E2091490830914A0840914B085091F1
:105540004C080E949AAE6093550870935608809359
:1055500057089093580829E538E045E558E061E59B
:1055600078E08DE498E00E94036F80E00E94BF70B5
:105570008091F8079091F907A091FA07B091FB0785
:1055800080930B0290930C02A0930D02B0930E0235
:10559000809160089091610890933C0280933B0257
:1055A0000E9442A86093570670935806809359064C
:1055B00090935A060E94B8700C94563F1092EB07D5
:1055C0000C94563F81E08093EB070C94563F85E4A2
:1055D0000E94561E811102C00E940E785BE5C52E06
:1055E00054E0D52E61E4E62E68E0F62E0DE418E0D6
:1055F000B12CF60181916F010E94561E882339F16A
:10560000F3E0BF120CC00E94421EF8016083718358
:105610008283938389E598E00E94A86F18C00E9456
:10562000421EF70120813181428153810E949AAE4E
:10563000F801608371838283938329E538E045E52F
:1056400058E061E578E08DE498E00E94036FB39440
:10565000F4E0EF0EF11C0C5F1F4F24E0B212C9CF33
:105660000C94563F8DE40E94561E882311F40C942E
:10567000853E0E94421E0E94E2AF6737710509F421
:10568000A0C10CF0CEC06A32710509F412C40CF04E
:105690005FC06731710509F46DC254F5623171055F
:1056A00009F473C7BCF477FF02C00C94563F623014
:1056B00071050CF489C16131710511F00C94563FEC
:1056C00089EB97E00E9420961798169815981498E1
:1056D0000C94563F6531710509F440C20CF044C288
:1056E0006431710511F00C94563FE9EAF7E012C2FB
:1056F0006B31710509F46AC2B4F46931710509F4BA
:1057000051C20CF055C286E698E00E9434550E94C2
:1057100042A860934F067093500680935106909371
:1057200052060C94563F6E31710509F48AC234F466
:105730006C31710509F450C20C94563F6F317105FC
:1057400009F459C36032710509F4B9C20C94563F8B
:105750006836710509F4F4C3C4F56335710509F4BD
:105760000FC7C4F46135710509F4E9C60CF004C72C
:105770006035710511F00C94563F9B9AA39881E017
:105780008093100286E197E00E9420960E94BD96C9
:105790000C94563F6535710509F42FC70CF4F5C616
:1057A0006C35710511F00C94563F2BE534E039AFA0
:1057B00028AF06E312E166E4862E62E1962E7AEFC8
:1057C000A72E71E1B72E312C94C76D36710509F4FF
:1057D000F1C48CF46A36710509F481C60CF4DEC399
:1057E0006B36710511F00C94563F10922C081092F4
:1057F0002B080C94563F6237710509F4AFC73CF48F
:105800006037710511F00C94563F0E9433236337C3
:10581000710509F480C76537710509F48BC70C94CD
:10582000563F6C3231E0730711F40C942C380CF0B5
:1058300053C06C3C710511F40C943B3624F56E3B5F
:10584000710509F441C574F46937710511F40C94BC
:10585000933414F40C948E346C38710509F48DC3B0
:105860000C94563F693C710511F40C94FD356B3C6A
:10587000710511F40C941E36683C710511F00C94FE
:10588000563F0C948835603D710511F40C94113726
:1058900054F46E3C710511F40C94BD3614F40C9460
:1058A0005D360C94DA366C3D710511F40C949C371E
:1058B0003CF4613D710511F40C9439370C94563F5A
:1058C0006D3D710511F40C94AB37623E710511F416
:1058D0000C94D1370C94563F643F91E0790711F452
:1058E0000C940E3A2CF56033F1E07F0711F40C9420
:1058F00028395CF46E3231E0730711F40C94C53929
:1059000014F40C9462380C94D3396F3591E0790714
:1059100011F40C94293E6039E1E07E0711F40C94F7
:105920000B3A6E35714011F00C94563F0C94F23DD9
:10593000683522E0720711F40C94EC3A94F4663F57
:1059400081E0780711F40C94143A14F40C94113A91
:10595000673F714011F00C94563F0E9440110C9427
:10596000563F6B38F3E07F0711F40C94CC3D3CF4C8
:105970006335734011F40C94173A0C94563F603A17
:1059800083E0780709F404C2673E734011F00C9479
:10599000563F109249060E9433968091EC079091F1
:1059A000ED07A091EE07B091EF078093F007909379
:1059B000F107A093F207B093F3070E94A51E0C9481
:1059C000563FEBEBF3E0BAC700915B0610915C0623
:1059D0000E5F1F4F80E50E94561E882379F00E94BB
:1059E000421E0E94E7AF6B017C01BB24B39461159A
:1059F00071058105910531F4B12C04C0B12CC12C85
:105A0000D12C760183E50E94561E882399F00E94CE
:105A1000421E20E030E04AE754E40E9448B20E946F
:105A2000E7AF6B017C01AA24A39461157105810580
:105A3000910509F4A12C6AE270E0C8010E94D6B673
:105A4000009711F0FC011082F801CF012191203262
:105A5000E1F3B11007C0A11005C0222319F00E9484
:105A6000299304C08BEE97E00E94209681E00E946B
:105A700003930E940E780E9442A860935706709389
:105A800058068093590690935A06C114D104E10434
:105A9000F104A9F00E9442A84B015C018C0C9D1CF2
:105AA000AE1CBF1C0E9442A8681579058A059B059B
:105AB000B8F40E949B97811113C00C949A3F0E94E6
:105AC0009997882311F40C94563F0E949B9781115B
:105AD0000AC00E941C7D80E0D9D90E94BD96F5CFF6
