:100000000C94370F0C94640F0C94640F0C94640FD1
:100010000C94640F0C94640F0C94640F0C94640F94
:100020000C94640F0C94640F0C94640F0C94640F84
:100030000C94640F0C9486BC0C94640F0C94640FA5
:100040000C94640F0C94257F0C94640F0C94640F33
:100050000C94640F0C94640F0C94A2880C94D3B885
:100060000C94640F0C946B530C94640F0C94640FF9
:100070000C94640F0C94640F0C94640F0C94640F34
:100080000C94640F0C94640F0C94640F0C94640F24
:100090000C94640F0C94640F0C94640F0C945AB578
:1000A0000C94640F0C94640F0C94640F0C94640F04
:1000B0000C94640F0C94640F0C94640F0C94640FF4
:1000C0000C94640F0C94640F0C94640F0C94640FE4
:1000D0000C94640F0C94640F0C94640F0C94640FD4
:1000E0000C94640F084AD73B3BCE016E84BCBFFD25
:1000F000C12F3D6C74319ABD56833DDA3D00C77FF8
:1001000011BED9E4BB4C3E916BAAAABE0000008090
:100110003F05A84CCDB2D44EB93836A9020C50B91F
:10012000918688083CA6AAAA2ABE000000803F4DFE
:10013000383420582059205A20450043616E6E6F94
:100140007420656E746572207375626469723A20FA
:10015000004D3234004D3233202573006175746FC9
:1001600025692E67006572726F72207772697469F3
:100170006E6720746F2066696C65004E6F74205343
:1001800044207072696E74696E67002F00534420BA
:100190007072696E74696E67206279746520002ED2
:1001A0000044656C6574696F6E206661696C656496
:1001B0002C2046696C653A200046696C65206465B0
:1001C0006C657465643A002E006F70656E20666120
:1001D000696C65642C2046696C653A200057726929
:1001E00074696E6720746F2066696C653A20002E12
:1001F000006F70656E206661696C65642C204669CD
:100200006C653A20002E006F70656E206661696C27
:1002100065642C2046696C653A200046696C65204F
:1002200073656C6563746564002053697A653A2070
:100230000046696C65206F70656E65643A20002E1B
:10024000006F70656E206661696C65642C2046697C
:100250006C653A20004E6F77206672657368206681
:10026000696C653A20004E6F7720646F696E672075
:1002700066696C653A20002220706F73002220703E
:100280006172656E743A2200535542524F5554497B
:100290004E452043414C4C207461726765743A228C
:1002A00000747279696E6720746F2063616C6C20D2
:1002B0007375622D67636F64652066696C65732072
:1002C0007769746820746F6F206D616E79206C653A
:1002D00076656C732E204D4158206C6576656C20D8
:1002E00069733A0053442063617264206F6B006F3E
:1002F00070656E526F6F74206661696C656400761C
:100300006F6C756D652E696E6974206661696C65C8
:100310006400534420696E6974206661696C00480A
:10032000617264636F6465642044656661756C74B2
:100330002053657474696E6773204C6F61646564E3
:100340000046696C616D656E742073657474696EC6
:1003500067733A2044697361626C656400202020F1
:100360004D32303020440046696C616D656E7420FA
:1003700073657474696E67733A002020204D3230C3
:10038000392053004175746F2D5265747261637426
:100390003A20533D3020746F2064697361626C654C
:1003A0002C203120746F20696E74657270726574D0
:1003B00020657874727564652D6F6E6C79206D6F31
:1003C0007665732061732072657472616374732043
:1003D0006F72207265636F7665726965730020467F
:1003E000002020204D3230382053005265636F7654
:1003F00065723A20533D4578747261206C656E6772
:10040000746820286D6D2920463A53706565642014
:10041000286D6D2F6D2900205A00204600202020D5
:100420004D323037205300526574726163743A2044
:10043000533D4C656E67746820286D6D2920463ADF
:10044000537065656420286D6D2F6D29205A3A2000
:100450005A4C69667420286D6D290020440020499B
:10046000002020204D33303120500050494420736B
:10047000657474696E67733A00205A002059002031
:10048000204D323036205800486F6D65206F66660B
:1004900073657420286D6D293A00204500205A00AC
:1004A00020580020420020540020204D32303520BA
:1004B0005300416476616E636564207661726961A0
:1004C000626C65733A20533D4D696E2066656564C4
:1004D0007261746520286D6D2F73292C20543D4D59
:1004E000696E2074726176656C2066656564726100
:1004F000746520286D6D2F73292C20423D6D696E27
:10050000696D756D207365676D656E742074696DB6
:100510006520286D73292C20583D6D6178696D75B3
:100520006D205859206A65726B20286D6D2F7329D4
:100530002C20205A3D6D6178696D756D205A206AB6
:1005400065726B20286D6D2F73292C2020453D6D21
:100550006178696D756D2045206A65726B20286D24
:100560006D2F73290020540020204D323034205349
:1005700000416363656C65726174696F6E3A205304
:100580003D616363656C65726174696F6E2C2054A4
:100590003D7265747261637420616363656C65723A
:1005A0006174696F6E00204500205A0020590020B8
:1005B000204D3230312058004D6178696D756D20C5
:1005C000416363656C65726174696F6E20286D6D3F
:1005D0002F7332293A00204500205A00205900206C
:1005E000204D3230332058004D6178696D756D2093
:1005F00066656564726174657320286D6D2F73295B
:100600003A00204500205A0020590020204D393260
:1006100020580053746570732070657220756E6980
:10062000743A004572726F723A006563686F3A00FF
:1006300053544F505045442E20005072696E7465DB
:10064000722073746F707065642064756520746FB8
:10065000206572726F72732E204669782074686507
:10066000206572726F7220616E6420757365204D13
:1006700039393920746F20726573746172742E2059
:100680002854656D70657261747572652069732098
:1006900072657365742E20536574206974206166D9
:1006A0007465722072657374617274696E67290073
:1006B0004B494C4C45442E20005072696E74657253
:1006C0002068616C7465642E206B696C6C2829202D
:1006D00063616C6C656421006F6B00526573656EBD
:1006E000643A20002200556E6B6E6F776E20636F48
:1006F0006D6D616E643A2022004D323230205325F8
:1007000069005A204F6666736574203A20007A5F4C
:100710006D61783A20007A5F6D696E3A20005A2048
:100720004F6666736574005A204F66667365742061
:100730006F6B002200556E6B6E6F776E20636F6D6E
:100740006D616E643A2022007A5F6D61783A200014
:100750007A5F6D696E3A2000795F6D61783A2000AA
:10076000795F6D696E3A2000785F6D61783A20009C
:10077000785F6D696E3A2000205A3A0020593A009D
:1007800020436F756E7420583A200020453A0020AF
:100790005A3A0020593A00583A004649524D5741BA
:1007A00052455F4E414D453A4D61726C696E20561F
:1007B000312E302E323B20537072696E7465722F69
:1007C0006772626C206D617368757020666F72204D
:1007D00067656E36204649524D574152455F555226
:1007E0004C3A68747470733A2F2F67697468756235
:1007F0002E636F6D2F4D61726C696E4669726D77F5
:100800006172652F4D61726C696E2050524F544F6A
:10081000434F4C5F56455253494F4E3A312E30208C
:100820004D414348494E455F545950453A507275C1
:1008300073612069332045585452554445525F43F3
:100840004F554E543A3120555549443A30303030A6
:10085000303030302D303030302D303030302D30A1
:100860003030302D3030303030303030303030308B
:100870000A005072757361206933204F66662E003E
:1008800050727573612069332072656164792E003E
:1008900042656420646F6E652E0020423A00204558
:1008A0003A00543A004265642048656174696E6795
:1008B0002E0048656174696E6720646F6E652E0056
:1008C00020573A0020453A00543A0048656174695F
:1008D0006E672E2E2E002042403A0020403A002023
:1008E0002F003A00205400202F0020423A00202FF1
:1008F000006F6B20543A002569206D696E2C20250D
:10090000692073656300456E642066696C65206CC0
:1009100069737400426567696E2066696C65206C56
:10092000697374004E6F206D6F76652E005072757E
:1009300073612069332072656164792E005265739A
:10094000756D696E67207072696E740057616974A5
:1009500020666F7220757365722E2E2E00536C65A3
:1009600065702E2E2E00FFFFFF000056430000464C
:10097000431FC548430000A0400000A04000000005
:100980004000000000000000001F856B3E000000DA
:1009900000000000001F856B3E000056430000462B
:1009A0004300004943256920686F757273202569EB
:1009B000206D696E7574657300446F6E652070728A
:1009C000696E74696E672066696C650053544F5098
:1009D0005045442E20005072696E74657220737405
:1009E0006F707065642064756520746F2065727225
:1009F0006F72732E20466978207468652065727264
:100A00006F7220616E6420757365204D393939200D
:100A1000746F20726573746172742E202854656D32
:100A20007065726174757265206973207265736593
:100A3000742E205365742069742061667465722079
:100A400072657374617274696E6729004E6F204C11
:100A5000696E65204E756D626572207769746820D5
:100A6000636865636B73756D2C204C617374204CE7
:100A7000696E653A20004E6F20436865636B73753D
:100A80006D2077697468206C696E65206E756D6283
:100A900065722C204C617374204C696E653A20009D
:100AA000636865636B73756D206D69736D617463E5
:100AB000682C204C617374204C696E653A20004CA0
:100AC000696E65204E756D626572206973206E6F68
:100AD00074204C617374204C696E65204E756D6294
:100AE00065722B312C204C617374204C696E653A11
:100AF00020004D31313000446F6E6520736176699E
:100B00006E672066696C652E006F6B004D32390090
:100B10002020506C616E6E65724275666665724229
:100B2000797465733A20002046726565204D656DC5
:100B30006F72793A2000536570203237203230319D
:100B40003500436F6D70696C65643A2000286E6FE4
:100B50006E652C2064656661756C7420636F6E66CB
:100B600069672900207C20417574686F723A200003
:100B700053657020323720323031352031383A31E8
:100B8000353A323900204C617374205570646174B9
:100B900065643A2000312E302E32004D61726C694E
:100BA0006E0020536F6674776172652052657365BD
:100BB0007400205761746368646F672052657365C1
:100BC00074002042726F776E206F757420526573C7
:100BD0006574002045787465726E616C205265738F
:100BE000657400506F77657255700073746172742C
:100BF000002200656E717565696E67202200220013
:100C0000656E717565696E6720220020746F6F20B4
:100C10006C6F6E6720657874727573696F6E207083
:100C2000726576656E7465640020636F6C64206520
:100C30007874727573696F6E2070726576656E7404
:100C400065640000002110422063308440A550C636
:100C500060E770088129914AA16BB18CC1ADD1CEFA
:100C6000E1EFF13112100273325222B5529442F781
:100C700072D662399318837BB35AA3BDD39CC3FF4A
:100C8000F3DEE36224433420040114E664C774A451
:100C90004485546AA54BB528850995EEE5CFF5AC9A
:100CA000C58DD55336722611163006D776F6669561
:100CB00056B4465BB77AA719973887DFF7FEE79DEA
:100CC000D7BCC7C448E5588668A7784008611802B1
:100CD000282338CCC9EDD98EE9AFF9488969990A3A
:100CE000A92BB9F55AD44AB77A966A711A500A33C1
:100CF0003A122AFDDBDCCBBFFB9EEB799B588B3B8A
:100D0000BB1AABA66C877CE44CC55C222C033C6010
:100D10000C411CAEED8FFDECCDCDDD2AAD0BBD68D9
:100D20008D499D977EB66ED55EF44E133E322E51A0
:100D30001E700E9FFFBEEFDDDFFCCF1BBF3AAF5929
:100D40009F788F8891A981CAB1EBA10CD12DC14E9A
:100D5000F16FE18010A100C230E32004502540462D
:100D6000706760B9839893FBA3DAB33DC31CD37F4C
:100D7000E35EF3B1029012F322D23235421452777D
:100D8000625672EAB5CBA5A89589856EF54FE52C1C
:100D9000D50DC5E234C324A01481046674476424CD
:100DA000540544DBA7FAB79987B8975FE77EF71D2C
:100DB000C73CD7D326F2369106B01657667676151D
:100DC0004634564CD96DC90EF92FE9C899E9898A7C
:100DD000B9ABA94458654806782768C018E108826D
:100DE00038A3287DCB5CDB3FEB1EFBF98BD89BBB8C
:100DF000AB9ABB754A545A376A167AF10AD01AB3BD
:100E00002A923A2EFD0FED6CDD4DCDAABD8BADE8DB
:100E10009DC98D267C076C645C454CA23C832CE00C
:100E20001CC10C1FEF3EFF5DCF7CDF9BAFBABFD96B
:100E30008FF89F176E367E554E745E932EB23ED15C
:100E40000EF01E7C3C3E5E2B3D3F2F5B5D3B2C2A13
:100E5000225C0045303A20005A3A2000593A2000DE
:100E6000583A20004D53312C4D53322050696E7347
:100E70000A0024F404D9201BC40C5C0E9804C40995
:100E80005F0265077101F405F900FB04B300480433
:100E90008700C10369005803550003034500BE02E3
:100EA0003A008402310053022A002902250004027C
:100EB0002000E4011C00C8011900AF0117009801CF
:100EC0001400840113007101100061011000510130
:100ED0000E0043010D0036010B002B010B00200119
:100EE0000B00150109000C01090003010800FB00BB
:100EF0000800F3000800EB000700E4000600DE0035
:100F00000600D8000600D2000600CC000500C7008D
:100F10000500C2000500BD000400B9000400B500D2
:100F20000400B1000400AD000400A9000400A50005
:100F30000300A20003009F0004009B000300980030
:100F400003009500020093000300900003008D0051
:100F500002008B000300880002008600020084006B
:100F60000300810002007F0002007D0002007B0080
:100F70000200790002007700010076000200740090
:100F8000020072000100710002006F0002006D009B
:100F900001006C0002006A000100690002006700A5
:100FA00001006600010065000100640002006200AB
:100FB000010061000100600001005F0002005D00AF
:100FC00001005C0001005B0001005A0001005900B3
:100FD00001005800010057000100560001005500B3
:100FE00001005400010053000000530001005200B2
:100FF000010051000100500001004F0001004E00AF
:1010000000004E0001004D0001004C0001004B00AB
:1010100000004B0001004A000100490001004800A7
:1010200000004800010047000100460000004600A3
:10103000010045000000450001004400010043009C
:101040000000430001004200000042000100410096
:10105000000041000100400001003F0000003F008F
:1010600001003E0000003E0001003D0000003D0088
:1010700001003C0000003C0000003C0001003B007F
:1010800000003B0001003A0000003A000100390076
:10109000000039000100380000003800000038006E
:1010A0000100370000003700010036000000360064
:1010B000000036000100350000003500000035005A
:1010C000010034000000340000003400010033004F
:1010D0000000330000003300010032000000320045
:1010E000000032000100310000003100000031003A
:1010F00001003000000030000000300001002F002F
:1011000000002F0000002F0000002F0001002E0023
:1011100000002E0000002E0001002D0000002D0018
:1011200000002D0000002D0001002C0000002C000C
:1011300000002C0000002C0001002B0000002B0000
:1011400000002B0000002B0001002A0000002A00F4
:1011500000002A0000002A000100290000002900E8
:1011600000002900000029000000290001002800DB
:1011700000002800000028000000280000002800CF
:1011800001002700000027000000270000002700C2
:1011900000002700010026000000260000002600B5
:1011A00000002600000026000100250000002500A8
:1011B000000025000000250000002500000025009B
:1011C000010024000000240000002400000024008E
:1011D0000000240001002300000023000000230081
:1011E0000000230000002300000023000000230073
:1011F0000100220000002200000022000000220066
:101200000000220000002200010021000000210057
:10121000000021000000210000002100000021004A
:10122000000021000100200000002000000020003C
:10123000000020000000200000002000000020002E
:101240000000200001001F0000001F0000001F0020
:1012500000001F0000001F0000001F0000001F0012
:1012600001001E0000001E0000001E0000001E0005
:10127000000024F4D43050C38E20C2A24017828BC9
:101280007011127A910D816CD90AA861E108C758D2
:101290006607615143061E4B5D05C145A7041A410F
:1012A0001104093D9803713931034036DB0265337F
:1012B0009102D4305402802E1D02632CEE01752A57
:1012C000C501B028A001102781018F2564012B24BE
:1012D0004B01E0223401AC211F018D200D01801F44
:1012E000FC00841EED00971DDF00B81CD200E61B39
:1012F000C600201BBC00641AB200B219A8000A196B
:10130000A0006A189900D117910040178B00B516FC
:10131000840031167E00B31579003A157300C714A6
:101320006F0058146A00EE136600881363002513DB
:101330005E00C7125B006C12570015125400C111F9
:10134000510070114F0021114B00D61049008D1033
:1013500047004610440002104200C00F4000800FBA
:101360003E00420F3C00060F3B00CB0E3800930EB0
:1013700037005C0E3500270E3400F30D3200C10D2E
:101380003100900D3000600D2E00320D2D00050D46
:101390002C00D90C2B00AE0C2900850C29005C0C0C
:1013A0002700350C27000E0C2600E80B2400C40B88
:1013B0002400A00B23007D0B23005A0B2100390BC6
:1013C0002100180B2000F80A1F00D90A1E00BB0AD2
:1013D0001E009D0A1D00800A1D00630A1C00470AAA
:1013E0001B002C0A1B00110A1A00F7091A00DD095C
:1013F0001900C4091900AB091900920917007B09EB
:101400001800630917004C09160036091600200958
:1014100016000A091500F5081500E0081400CC08AC
:101420001400B8081400A4081400900813007D08E4
:1014300012006B0813005808120046081200340806
:101440001100230811001208110001081100F00713
:101450001000E0071000D0071000C0071000B00710
:101460000F00A107100091070E0083070F007407FB
:101470000F0065070E0057070E0049070E003B07D7
:101480000D002E070E0020070D0013070D000607A4
:101490000D00F9060C00ED060D00E0060C00D40668
:1014A0000C00C8060C00BC060C00B0060C00A4061C
:1014B0000B0099060C008D060B0082060B007706C8
:1014C0000B006C060B0061060A0057060B004C0669
:1014D0000A0042060A0038060A002E060A00240600
:1014E0000A001A060A001006090007060A00FD0590
:1014F0000900F4050900EB050900E2050900D9051A
:101500000900D0050900C7050900BE050900B50599
:101510000800AD050800A50509009C050800940514
:1015200008008C050800840508007C050800740587
:1015300008006C050700650508005D0507005605F5
:1015400008004E050700470507004005080038055C
:101550000700310507002A050700230507001C05C1
:101560000600160507000F0507000805060002051E
:101570000700FB040600F5040700EE040600E8047B
:101580000600E2040700DB040600D5040600CF04D1
:101590000600C9040600C3040600BD040600B70423
:1015A0000600B1040500AC040600A6040600A00471
:1015B00005009B04060095040500900406008A04BB
:1015C000050085040500800406007A040500750402
:1015D0000500700405006B04050066040500610445
:1015E00005005C04050057040500520405004D0485
:1015F000050048040500430405003E0404003A04C5
:10160000050035040500300404002C0405002704FF
:101610000400230405001E0404001A040400160438
:101620000500110404000D0404000904050004046D
:10163000040000040400FC030400F8030400F403A5
:101640000400F0030400EC030400E8030400E403D6
:101650000400E0030400DC030400D8030400D40306
:101660000400D0030400CC030400C8030300C50336
:101670000300656E6473746F7073206869743A2038
:101680005A00205A3A00656E6473746F7073206854
:1016900069743A20590020593A00656E6473746F7A
:1016A0007073206869743A20580020583A00656EBB
:1016B0006473746F7073206869743A2000457272A5
:1016C0003A204D415854454D502042454400546500
:1016D0006D706572617475726520686561746564AA
:1016E00020626564207377697463686564206F663F
:1016F000662E204D415854454D50207472696767DD
:1017000065726564202121004572723A204D494E70
:1017100054454D50003A20457874727564657220C6
:101720007377697463686564206F66662E204D491F
:101730004E54454D50207472696767657265642028
:1017400021004572723A204D415854454D50003A9F
:101750002045787472756465722073776974636864
:101760006564206F66662E204D415854454D5020CB
:10177000747269676765726564202100202D2049B5
:101780006E76616C69642065787472756465722028
:101790006E756D6265722021001000C90210012C67
:1017A000014001220170011801B0010E01F0010495
:1017B000015002FA00B002F0003003E600D003DC72
:1017C000009004D2007005C800A006BE000008B456
:1017D00000B009AA00D00BA000600E960060118C2A
:1017E000000015820020197800C01D6E00A0226440
:1017F00000B0275A00902C500000314600E0343CE5
:101800000010383200903A2800603C1E00A03D14C1
:1018100000803E0A00203F000070012C019001274B
:1018200001B0012201C0011D01F0011801100213D5
:101830000130020E016002090190020401C002FFA2
:10184000000003FA004003F5008003F000D003EB32
:10185000002004E6007004E100E004DC004005D74D
:1018600000C005D2004006CD00D006C8008007C3E6
:10187000003008BE00F008B900C009B400B00AAFDB
:1018800000B00BAA00D00CA500000EA000500F9BCA
:1018900000C01096005012910000148C00C01587F3
:1018A00000B0178200B0197D00D01B7800001E73B5
:1018B0000040206E0090226900F024640040275F01
:1018C0000090295A00E02B5500102E500020304B7C
:1018D0000010324600E033410090353C00103737AD
:1018E0000070383200A0392D00B03A2800A03B2308
:1018F00000603C1E00103D1900903D1400103E0F8A
:1019000000703E0A00C03E0500003F000050494400
:10191000204175746F74756E652066696E697368B1
:101920006564212050757420746865206C6173743F
:10193000204B702C204B6920616E64204B64206327
:101940006F6E7374616E74732066726F6D20616266
:101950006F766520696E746F20436F6E6669677578
:10196000726174696F6E2E6800504944204175742D
:101970006F74756E65206661696C65642120746999
:101980006D656F75740020403A006F6B20543A000B
:101990006F6B20423A00504944204175746F747552
:1019A0006E65206661696C6564212054656D7065A3
:1019B00072617475726520746F6F20686967680062
:1019C000204B643A2000204B693A2000204B703AAB
:1019D000200020436C6173736963205049442000E8
:1019E0002054753A2000204B753A2000206D617814
:1019F0003A2000206D696E3A200020643A200020D1
:101A0000626961733A20002D2D3A2D2D002D2D2D68
:101A100000534400012000012000537570706F7264
:101A2000740053657474696E677300556E6C6F61F2
:101A3000642066696C616D656E74004C6F61642032
:101A400066696C616D656E74004E6F20534420634F
:101A5000617264005072696E742066726F6D2053FB
:101A6000440053746F70207072696E740052657315
:101A7000756D65207072696E7400506175736520B4
:101A80007072696E74005072656865617400547597
:101A90006E6500496E666F2073637265656E0068DF
:101AA0006F77746F2E707275736133642E636F6D10
:101AB00000666F72756D2E707275736133642E637C
:101AC0006F6D00707275736133642E636F6D004DBE
:101AD00061696E00473238004175746F20686F6D20
:101AE00065004D38340044697361626C652073741D
:101AF00065707065727300473238205A0043616C1C
:101B0000696272617465205A004D6F766520617854
:101B100069730054656D7065726174757265004D0E
:101B200061696E004578747275646572004D6F76F8
:101B300065205A004D6F76652059004D6F766520FF
:101B4000580053657474696E6773004578747275D4
:101B5000646572005A005900580046616E20737027
:101B60006565640046616E2073706565640042655A
:101B70006400426564004E6F7A7A6C65004E6F7A3D
:101B80007A6C650053657474696E677300052E2E58
:101B9000004D61696E004D3234004D3233202573A3
:101BA000004D383420582059205A204500436F6F8B
:101BB0006C646F776E00464C4558202D20203233E0
:101BC000302F35300050502020202D202032353449
:101BD0002F3130300048495053202D2020323230F0
:101BE0002F3130300050455420202D202032343009
:101BF0002F393000504C4120202D20203231302F01
:101C000035300041425320202D20203235352F31F0
:101C10003030004D61696E004D36303000436861F0
:101C20006E67652066696C616D656E7400466C6FE9
:101C30007700466C6F770046616E2073706565644F
:101C40000046616E20737065656400426564004201
:101C50006564004E6F7A7A6C65004E6F7A7A6C65B7
:101C6000005370656564005370656564004D61697B
:101C70006E00436172642072656D6F766564004327
:101C800061726420696E736572746564004D3330EF
:101C90003020533639382050323030004D33303018
:101CA000205336353920503230300047312045340A
:101CB000302046313030004731204537302046341F
:101CC0003030004D383300473120452D3830204624
:101CD000343030004D38330000002100240027004C
:101CE0002A002D003000330001010000040107012B
:101CF0000A0100002200250028002B002E003100E0
:101D0000340002010000050108010B010000200061
:101D10002300260029002C002F00320000010000C3
:101D2000030106010901050505050705080808085E
:101D3000020202020A0A0808040404040101010163
:101D4000010101010303030303030303040707075E
:101D50000C0C0C0C0C0C0C0C020202020606060603
:101D6000060606060B0B0B0B0B0B0B0B07070A0AE1
:101D70000A0A0A0A050505040404080801021020DD
:101D800020080810204010204080020102010804B1
:101D90000201010204081020408080402010080445
:101DA000020180040201804020100804020108049E
:101DB00002010102040810204080010204081020E2
:101DC000408010080408801020400440801020400B
:101DD00004800000090A02080B0C0D070603040129
:101DE00000000000000000000000000000000000F3
:101DF00000000000000000000000000000001110C2
:101E00000F000000000000000000000000000000C3
:101E100000000000000000000000000000000000C2
:101E2000000000000000000002494E46494E49549F
:101E3000594E414ECDCCCC3D0AD7233C17B7D138B3
:101E400077CC2B329595E6241FB14F0A0000204134
:101E50000000C84200401C4620BCBE4CCA1B0E5AA3
:101E6000AEC59D74562AFF5355AAC9B4512A1124F0
:101E70001FBECFEFD1E2DEBFCDBF00E00CBF15E04B
:101E8000A0E0B2E0ECE7FAE801E00BBF02C0079087
:101E90000D92A23CB107D9F71BBE14E1A2ECB5E04C
:101EA00001C01D92AA34B107E1F71EE1CCE6DEE1E4
:101EB00004C02297FE010E94E4C4C436D107C9F7CA
:101EC0000E94E0BB0C9432C50C940000A0E0B0E08E
:101ED000ECE6FFE00C9401C5EC015B0161157105B6
:101EE00019F0FB0191838083F9908F2D90E00E947F
:101EF000E8C4892BC9F7FDE2FF1621F4F990EE241E
:101F0000E39405C02BE2F21609F4F990EE248E0159
:101F100001501040C80169E27EE143E050E069D21F
:101F2000892BF9F48E010E5F1F4FC8016CE27EE130
:101F300045E050E05ED2892B19F48E01095F1F4FF6
:101F4000A114B10419F0F50111830083E0FC04C071
:101F500070E090E080E813C070E090E080E86FEF00
:101F600007C1C80161E37EE143E050E042D2892B22
:101F700069F4A114B10429F470E090E080EC6FE7FB
:101F8000F7C02296F501D183C083F6CF8824992427
:101F900040E050E060E070E0EF2DE053EA30A0F563
:101FA000F2E0EF2A8E2D90E09C0128703070E2FE66
:101FB00006C0232B79F50894811C911C2BC0232B80
:101FC00019F0089481089108DB01CA0112E0880F1A
:101FD000991FAA1FBB1F1A95D1F7480F591F6A1FD7
:101FE0007B1F440F551F661F771F4E0F511D611D2C
:101FF000711D483929E9520729E9620729E1720769
:1020000048F084E0E82A06C0EE3F31F4E3FC39C032
:1020100098E0E92AF990C0CFE53311F0E53189F570
:1020200029912D3219F4E0E1EE2A05C02B3219F086
:1020300081E090E003C0299182E090E0E22FE0533C
:10204000EA3018F0C81BD90B1CC020E030E0FCE0DF
:1020500020383F075CF4C901880F991F880F991F2A
:10206000280F391F220F331F2E0F311DE991E05326
:10207000EA3068F3E4FE03C0309521953F4F820EAD
:10208000931ECE2CDD24E1FE07C0A114B10421F083
:102090002197F501D183C083CB01BA010E944DC1C4
:1020A0007B018C01F3E0CF22DD2423E0C216D104B2
:1020B00021F417FB109517F9109557016801C80115
:1020C000B70120E030E040E050E00E94ADC088233E
:1020D00009F44AC097FE0DC028E4E22E2EE1F22E4C
:1020E0009094819491089394C0E2D0E000E010E0D5
:1020F00012C090E6E92E9EE1F92EF6CFF701259168
:10210000359145915491C601B5010E948DC35B0183
:102110006C018C1A9D0A8C169D0684F7D595C7957F
:102120000F5F1F4F0630110529F08CEF9FEFE80E6F
:10213000F91EF1CFC501D6017C018D018C2D880FD0
:102140008D2D881F8F3F51F0C601B50120E030E092
:1021500040E050E00E94ADC0882331F482E290E07C
:1021600090934914809348147E2D9F2D802F612FCA
:10217000272F392F482F562FB901CA01CDB7DEB707
:10218000ECE00C941DC52F923F925F926F927F926C
:102190008F929F92AF92BF92CF92DF92EF92FF9277
:1021A0000F931F93CF93DF938C011B01EA016115FD
:1021B000710519F0FB0191838083209749F0CE01CE
:1021C0000297839728F020E030E040E050E0F6C02E
:1021D000F801A1908F018A2D90E00E94E8C4892B1C
:1021E000B9F7FDE2AF1631F4F801A1908F01552443
:1021F000539407C0FBE2AF1619F4F801A1908F01C8
:102200005524209719F0C031D105C1F4F0E3AF1681
:1022100079F4F8018081883711F0883549F4F801A4
:10222000A1800E5F1F4FF2E05F2AC0E1D0E006C040
:10223000209721F480E3A816E9F427C0C830D1051F
:1022400031F1C930D10524F4C230D10531F50CC0CB
:10225000CA30D10589F0C031D105F9F4C12CD12C97
:10226000E12CB8E0FB2E28C0C12CD12CE12CA0E43D
:10227000FA2E22C0CAE0D0E0FCECCF2EFCECDF2E20
:10228000FCECEF2EFCE0FF2E17C0C8E0D0E0C12C24
:10229000D12CE12CE0E1FE2E0FC09E01442737FD3A
:1022A0004095542F60E070E080E090E80E94A5C463
:1022B000C901DA016C017D0120E030E040E050E02E
:1022C00060E03E01882477FC8094982C70EDB72E56
:1022D000BA0CE9E0EB1570F48A2D81548A3118F4B8
:1022E00099ECB92E06C08A2D81568A3150F589EABB
:1022F000B82EBA0C8B2D90E08C179D0714F56F3F0C
:10230000E1F0C216D306E406F506B0F0CA01B90141
:10231000A40193010E945FC49B01AC012B0D311DF0
:10232000411D511D2130F0E03F07F0E04F07F0E87C
:102330005F0710F461E001C06FEFF801A1908F0119
:10234000C5CF2114310481F0662331F001501040D3
:10235000F1011183008308C051FE1AC002501040E1
:10236000F1011183008314C067FF12C050FC05C047
:102370002FEF3FEF4FEF5FE704C020E030E040E099
:1023800050E882E290E0909349148093481416C07C
:1023900050FE08C050954095309521953F4F4F4FC6
:1023A0005F4F0CC057FF0AC082E290E0909349143F
:1023B000809348142FEF3FEF4FEF5FE7B901CA0159
:1023C000DF91CF911F910F91FF90EF90DF90CF9011
:1023D000BF90AF909F908F907F906F905F903F9055
:1023E0002F900895FB01DC0105900D920020E1F78C
:1023F0000895FB01DC014150504088F08D918134FB
:102400001CF08B350CF4805E659161341CF06B35EB
:102410000CF4605E861B611171F3990B0895881BA3
:10242000FCCFFB01DC014150504048F005900D927B
:102430000020C9F701C01D9241505040E0F70895B7
:10244000FB0155915523A9F0BF01DC014D914517C2
:102450004111E1F759F4CD010590002049F04D916B
:1024600040154111C9F3FB014111EFCF81E090E02C
:1024700001970895FB01DC0104C08D910190801942
:1024800021F441505040C8F7881B990B0895FB0177
:10249000DC0102C001900D9241505040D8F70895E0
:1024A000FB01DC018D9181341CF08B350CF4805ED6
:1024B000619161341CF06B350CF4605E861B611118
:1024C00089F3990B0895FB01DC010D900020E9F7D9
:1024D000119701900D920020E1F70895FC01819180
:1024E000861721F08823D9F7992708953197CF01CE
:1024F0000895FB01DC018D91019080190110D9F341
:10250000990B0895FB01DC0101900D920020E1F789
:102510000895FB01DC014150504030F08D91019055
:10252000801919F40020B9F7881B990B0895FB0155
:10253000DC014150504048F001900D920020C9F755
:1025400001C01D9241505040E0F70895AEE0B0E068
:10255000ECEAF2E10C9409C50E891F898EE08C83A8
:102560001A8309838FEF9FE79E838D839E01265EEA
:102570003F4FCE010196688D798DA9010AD02F8138
:102580003885020F131FF80110822E96E4E00C9498
:1025900025C5ABE0B0E0EFECF2E10C94FBC43C01EC
:1025A0002B015A01FC0117821682838181FD03C031
:1025B0006FEF7FEFB9C19AE0892E1E010894211CAC
:1025C000311CF3012381F20123FD859123FF8191C9
:1025D0002F01882309F4A5C1853239F423FD8591A3
:1025E00023FF81912F01853221F490E0B301B7D10F
:1025F000E8CF982FFF24EE249924FFE1FF15D0F0B7
:102600009B3269F09C3228F4903259F0933291F465
:102610000EC09D3249F0903369F441E024C052E08D
:10262000F52A84E0F82A28C098E0F92A25C0E0E1DC
:10263000FE2A22C0F7FC29C0892F80538A3070F40B
:10264000F6FE05C0989C902C1124980E15C0E89CAD
:10265000E02C1124E80EF0E2FF2A0EC09E3229F48D
:10266000F6FC5FC140E4F42A07C09C3619F450E838
:10267000F52A02C0983649F4F20123FD959123FF13
:1026800091912F01992309F0B8CF892F8554833078
:1026900018F08052833038F444E050E0A40EB51EA8
:1026A0005FE359830FC0933631F0933779F0933558
:1026B00009F052C01FC0F5018081898342E050E0DB
:1026C000A40EB51E610101E010E011C0F501C0804B
:1026D000D180F6FC03C06FEF7FEF02C0692D70E080
:1026E00042E050E0A40EB51EC6012ED18C015FE77A
:1026F000F52213C0F501C080D180F6FC03C06FEF56
:102700007FEF02C0692D70E042E050E0A40EB51EDC
:10271000C6010FD18C0150E8F52AF3FE06C018C09F
:1027200080E290E0B3011BD1EA948E2D90E008176F
:102730001907B0F30DC0F601F7FC8591F7FE819102
:102740006F0190E0B3010BD1E110EA940150104009
:102750000115110581F7E2C0943611F0993661F543
:10276000F7FE08C0F501208131814281538184E068
:1027700090E00AC0F501808191819C01442737FDDA
:102780004095542F82E090E0A80EB91E9FE6F922F2
:1027900057FF09C050954095309521953F4F4F4FB9
:1027A0005F4FE0E8FE2ACA01B901A1012AE030E04A
:1027B00002D1D82ED2183FC0953729F41F2D1F7E85
:1027C0002AE030E01DC01F2D197F9F3661F0903741
:1027D00020F4983509F0A5C00FC0903739F098372C
:1027E00009F09FC004C028E030E00AC0106114FD69
:1027F000146020E130E004C014FD166020E132E0F6
:1028000017FF08C0F501608171818281938144E0E6
:1028100050E008C0F50180819181BC0180E090E02A
:1028200042E050E0A40EB51EA101C5D0D82ED218AA
:102830008FE7F82EF122F6FE0BC05EEFF522D914D9
:1028400038F4F4FE07C0F2FC05C08FEEF82202C097
:102850001D2D01C0192DF4FE0DC0FE01ED0DF11D61
:102860008081803319F499EEF92208C01F5FF2FECF
:1028700005C003C08F2D867809F01F5F0F2DF3FC74
:1028800013C0F0FE0EC01E1510F09D2C0AC09D2C2A
:102890009E0C911A1E2D05C080E290E0B3015FD01E
:1028A0001F5F1E15C8F304C01E1510F4E11A01C005
:1028B000EE2404FF0EC080E390E0B30150D002FF8D
:1028C0001BC001FD03C088E790E00EC088E590E0E2
:1028D0000BC0802F867881F001FF02C08BE201C01F
:1028E00080E2F7FC8DE290E0B30139D005C080E3CF
:1028F00090E0B30134D09A94D914C8F3DA94F1017A
:10290000ED0DF11D808190E0B30129D0DD20B1F7FC
:1029100005C080E290E0B30122D0EA94EE20C9F72E
:1029200050CEF30166817781CB012B96E2E10C94C6
:1029300017C5FC010590615070400110D8F78095D3
:1029400090958E0F9F1F0895FC016150704001907B
:102950000110D8F7809590958E0F9F1F08950F93C3
:102960001F93CF93DF938C01EB018B8181FF1BC001
:1029700082FF0DC02E813F818C819D8128173907F0
:1029800064F4E881F9810193F983E88306C0E8855E
:10299000F985802F1995892B31F48E819F810196BD
:1029A0009F838E8302C00FEF1FEFC801DF91CF918D
:1029B0001F910F910895FA01AA27283051F1203173
:1029C00081F1E8946F936E7F6E5F7F4F8F4F9F4FC3
:1029D000AF4FB1E03ED0B4E03CD0670F781F891F05
:1029E0009A1FA11D680F791F8A1F911DA11D6A0FD3
:1029F000711D811D911DA11D20D009F468943F9186
:102A00002AE0269F11243019305D3193DEF6CF0184
:102A10000895462F4770405D4193B3E00FD0C9F74A
:102A2000F6CF462F4F70405D4A3318F0495D31FDB7
:102A30004052419302D0A9F7EACFB4E0A69597950A
:102A4000879577956795BA95C9F7009761057105E0
:102A500008959B01AC010A2E06945795479537952A
:102A60002795BA95C9F7620F731F841F951FA01D84
:102A70000895FC01128213820895FC01838188234A
:102A800011F081E082830895FC018281811112821C
:102A90000895CF93DF93DC01FC01EB55FE4F80815D
:102AA00091810097C9F1019791838083ED01CC5A00
:102AB000DF4FFD01ED58FF4F8BE1019009928150EE
:102AC000E1F7FD01EE5AFF4FAF58BF4F8D919C913A
:102AD0001197A157B04091838083FD01ED58FF4FBE
:102AE00020E030E0AD014B555E4F10C02F5F3F4FEF
:102AF000EF01DF015F968BE10D9009928150E1F7C4
:102B0000858D968D329791838083B196DA018D9170
:102B10009C912817390750F3DF91CF910895FC015C
:102B200089E495E0918380838781882321F0CF0118
:102B300004960C94466F0895CF92DF92EF92FF9225
:102B40000F931F93DF93CF93CDB7DEB76F970FB679
:102B5000F894DEBF0FBECDBF8C016B01095A1F4F29
:102B6000D8018C9107551040882321F42FE2E22EE2
:102B7000F12C03C090E5E92EF12CE00EF11E89E462
:102B800095E09A8389831C821B8218861D82B70177
:102B90006C5F7F4FCE010596A60121E00E94327640
:102BA000882391F5EAE2F6E0949108C08091C00094
:102BB00085FFFCCF9093C600319694919923B1F78D
:102BC000EBE3F1E0949108C08091C00085FFFCCF59
:102BD0009093C600319694919923B1F709C08091E2
:102BE000C00085FFFCCF0894C11CD11C9093C60087
:102BF000F6019081992399F78091C00085FFFCCF61
:102C00008AE08093C6005AC0F801EB55FE4F208140
:102C100031812A30310508F040C02F5F3F4F3183AA
:102C2000208321503040F90185E0EE0FFF1F8A9587
:102C3000E1F7E21BF30BED58FF4FE00FF11F13C05C
:102C4000AF01415E5F4FBF018BE1DB010D90BD0124
:102C5000DA010D92AD018150C1F7929182913296C5
:102C6000968F858F7F9721503040BFEF2E3F3B07D7
:102C700039F7D801AD58BF4FF70134968BE1019079
:102C80000D928150E1F70F581F4FF7018281938118
:102C9000D8018D939C9301571040D801AC5ABF4F77
:102CA000FE0135968BE101900D928150E1F70E5AAD
:102CB0001F4F8B819C81F80191838083CE01019607
:102CC0002EDF6F960FB6F894DEBF0FBECDBFCF914B
:102CD000DF911F910F91FF90EF90DF90CF900895BB
:102CE000EF92FF920F931F938C013EECE32E31E0A5
:102CF000F32EE80EF91EC7010E94F96EC7010E946B
:102D0000466FF801108211821F910F91FF90EF9092
:102D10000895CF92DF92EF92FF920F931F93CF937C
:102D2000DF937C016B01DB010D900020E9F78D0141
:102D300001501040061B170BEEECF1E0EE0EFF1EEB
:102D4000D7011C92E2E3FEEFEE0EFF1ECB016EE414
:102D500070E0C4DBEC01009731F4F8013197EC0D21
:102D6000FD1D86010CC060E270E0B8DB8C010F5FD6
:102D70001F4FCE016AE270E0B1DBFC0131978DE0BC
:102D800081838AE082831382C70186539E4FB801F4
:102D90000E9443778EEC91E0E80EF91ED7018C91EA
:102DA000882319F1E3E2F6E0949108C08091C00015
:102DB00085FFFCCF9093C600319694919923B1F78B
:102DC000E5E6F1E0949108C08091C00085FFFCCF5A
:102DD0009093C600319694919923B1F78091C000E9
:102DE00085FFFCCF8AE08093C600DF91CF911F91D1
:102DF0000F91FF90EF90DF90CF900895CF93DF93E6
:102E0000EC018B81882309F43BC0EDE8F1E094915B
:102E100008C08091C00085FFFCCF9093C60031961A
:102E200094919923B1F7CD57DD4F488159816A813B
:102E30007B81C358D24087EE9AE02AE030E00E94BE
:102E40009854EBE8F1E0949108C08091C00085FFB0
:102E5000FCCF9093C600319694919923B1F7C55851
:102E6000DD4F488159816A817B8187EE9AE02AE0B3
:102E700030E00E9498548091C00085FFFCCF12C0C2
:102E8000EBE7F1E0949108C08091C00085FFFCCF92
:102E90009093C600319694919923B1F78091C00028
:102EA00085FFFCCF8AE08093C600DF91CF91089523
:102EB0002F923F924F925F926F927F928F929F924A
:102EC000AF92BF92CF92DF92EF92FF920F931F9338
:102ED000DF93CF93CDB7DEB7AC970FB6F894DEBFD4
:102EE0000FBECDBF5C014B01FC018381882309F437
:102EF0003BC1C50182539E4F0E94466FF50112826D
:102F00001A8A1D8A198A188A89E495E09F878E8714
:102F10005EE4C52ED12CCA0CDB1C2FE230E0A20EE1
:102F2000B31EF601B182A08221ED3FEFA20EB31EC7
:102F3000F40180818F3209F08DC0C4016FE270E02E
:102F4000CDDA7C010894E11CF11C3E010894611C5F
:102F5000711C260142E1242E312C2C0E3D1E75C021
:102F6000C7016FE270E0BADA6C01009709F480C023
:102F7000E816F90608F07CC08C010E191F09C30180
:102F8000B701A801D4DA060D171DF8011082F3016C
:102F900007C08091C00085FFFCCF31969093C6009A
:102FA00090819923B1F78091C00085FFFCCFFAE0B2
:102FB000F093C600F201608171816115710519F409
:102FC00060E070E002C06C5F7F4FC101A30121E0AF
:102FD0000E943276882371F5E9ECF1E0949108C003
:102FE0008091C00085FFFCCF9093C60031969491EC
:102FF0009923B1F7FE01319607C08091C00085FF8B
:10300000FCCF31969093C60090819923B1F7E7ECFD
:10301000F1E0949108C08091C00085FFFCCF9093AF
:10302000C600319694919923B1F78091C00085FF35
:10303000FCCF94C02EE030E02C0F3D1FF201318315
:10304000208376010894E11CF11CE114F10409F0DD
:1030500087CF0BC080E590E0A80EB91EF601B182C3
:10306000A08220EB3FEFA20EB31ED82C092D02C088
:10307000DE2C0F2D8EE490E0A80EB91EF5018081A4
:10308000918122EB3FEFA20EB31E009719F480E06E
:1030900090E001C004966D2D702F0E94FE7688236B
:1030A00071F1E9EBF1E0949108C08091C00085FFD7
:1030B000FCCF9093C600319694919923B1F78D2D52
:1030C000902F9C01F90107C08091C00085FFFCCFC3
:1030D00031969093C60090819923B1F78091C000FA
:1030E00085FFFCCF8AE08093C60083E892E0A80EBB
:1030F000B91EF501108211821282138232C0E1EAF8
:10310000F1E0949108C08091C00085FFFCCF9093BE
:10311000C600319694919923B1F78D2D902F9C0183
:10312000F90107C08091C00085FFFCCF31969093D4
:10313000C60090819923B1F7EFE9F1E0949108C0BE
:103140008091C00085FFFCCF9093C600319694918A
:103150009923B1F78091C00085FFFCCF8AE080936E
:10316000C600CE010E96DBDCAC960FB6F894DEBF3F
:103170000FBECDBFCF91DF911F910F91FF90EF90C8
:10318000DF90CF90BF90AF909F908F907F906F9087
:103190005F904F903F902F900895BF92CF92DF9213
:1031A000EF92FF920F931F93CF93DF938C01EB016C
:1031B0008FE28993EE24E394FF2475EAC72E71E031
:1031C000D72EC00ED11E6FE1B62E14C0FB9CC001DD
:1031D00011248D589F4F800F911FBE010E94566F82
:1031E00002C02196E3948881882319F08CE88E151B
:1031F000C0F7F3942F2D30E0F601808191812817DC
:10320000390720F3E7FC07C0C80182539E4FBE0177
:103210000E94566F01C01882DF91CF911F910F91CC
:10322000FF90EF90DF90CF90BF900895EF92FF92C4
:103230000F931F93CF93DF938C01FC01138286A918
:10324000882321F0C801C3960E94466FE7EAEE2E5C
:10325000E1E0FE2EE00EF11EC70160E045E30E94B2
:10326000F56C882309F5EAE2F6E0949108C08091B4
:10327000C00085FFFCCF9093C600319694919923AE
:10328000B1F7E2E1F3E0949108C08091C00085FFBE
:10329000FCCF9093C600319694919923B1F7809119
:1032A000C00085FFFCCF7DC0E801C455DE4FCE01D4
:1032B000B70141E00E94D477882341F5CE01B701E0
:1032C00040E00E94D477882309F5E3E2F6E0949188
:1032D00008C08091C00085FFFCCF9093C600319656
:1032E00094919923B1F7EFEFF2E0949108C08091A7
:1032F000C00085FFFCCF9093C6003196949199232E
:10330000B1F78091C00085FFFCCF4BC0C801C396C8
:10331000BE010E943872882309F5E3E2F6E0949139
:1033200008C08091C00085FFFCCF9093C600319605
:1033300094919923B1F7EFEEF2E0949108C0809157
:10334000C00085FFFCCF9093C600319694919923DD
:10335000B1F78091C00085FFFCCF23C081E0F80168
:103360008383EAE2F6E0949108C08091C00085FF73
:10337000FCCF9093C600319694919923B1F7E4EE77
:10338000F2E0949108C08091C00085FFFCCF90933B
:10339000C600319694919923B1F78091C00085FFC2
:1033A000FCCF8AE08093C600D801AC5ABF4FF80129
:1033B000F3968BE101900D928150E1F7F80181A91C
:1033C00092A90E5A1F4FF801918380830255104035
:1033D000C8018F96025B1F4FF80191838083DF91B4
:1033E000CF911F910F91FF90EF9008952F923F92F0
:1033F0004F925F926F927F929F92AF92BF92CF92C5
:10340000DF92EF92FF920F931F93DF93CF93CDB78D
:10341000DEB7CC55D0400FB6F894DEBF0FBECDBF9F
:103420006C01662311F527E832E0C20ED31ED601E7
:103430008C91E9E7FDEFCE0EDF1E882309F4E2C090
:103440002FE732E0C20ED31ED601ED90FD900D9114
:103450001C91E1E8FDEFCE0EDF1E0E941BB9E616BF
:10346000F7060807190708F4CDC027E832E0C20EB6
:10347000D31ED6011C92E9E7FDEFCE0EDF1ED6016A
:1034800013968C91882339F4C601D0DEF60183812E
:10349000882309F4B7C000D000D0EDB7FEB731964D
:1034A0007E010894E11CF11CADB7BEB71296FC92E8
:1034B000EE9211978CE591E093838283D6019D96DD
:1034C0008D919C919E979583848340D88701EDB719
:1034D000FEB736960FB6F894FEBF0FBEEDBF57018C
:1034E0000AC0D8018C91992787FD90950E94F0C45D
:1034F000F80181938F01F50101900020E9F73197E0
:10350000EA19FB09802F8E198E175CF313E3A12EA5
:10351000B12CAC0CBD1CC50140E050E060E070E097
:103520000E942F6E9924BDE3EB2EF12CEC0EFD1EB4
:103530002E010894411C511CAFE16A2E712C6C0EB7
:103540007D1EF5E52F2EF1E03F2E42C0D8018C9173
:1035500090E00E94F0C4F80181938F01D7010D9093
:103560000020E9F71197AE19BF09802F8E198A172D
:103570006CF327968FAD27978E3751F1C701B201B3
:1035800045E050E00E948912009711F500D000D06C
:10359000EDB7FEB73196ADB7BEB712967C926E927C
:1035A000119733822282558244820E94A612EDB77F
:1035B000FEB736960FB6F894FEBF0FBEEDBFC3013F
:1035C0000E94033781E591E00E948A369924939402
:1035D000C501B70140E050E00E945771181614F47D
:1035E0008701BCCF992041F48FEF9FEFD6019E96C3
:1035F0009C938E939D9706C0F60185A596A501968E
:1036000096A785A7C45ADF4F0FB6F894DEBF0FBE4A
:10361000CDBFCF91DF911F910F91FF90EF90DF9081
:10362000CF90BF90AF909F907F906F905F904F90A2
:103630003F902F9008952F923F924F925F926F92FA
:103640007F928F929F92AF92BF92CF92DF92EF9232
:10365000FF920F931F93DF93CF93CDB7DEB7CF5871
:10366000D0400FB6F894DEBF0FBECDBF8C012B014A
:103670006A01C757DF4F39832883C958D04084E097
:1036800090E0C80ED91EF8017196C957DF4FF98333
:10369000E883C758D04044E0642E712C600E711E40
:1036A000CA57DF4F1882C658D04036E6E32EF12CB9
:1036B000EC0EFD1EC7010B96C557DF4F998388831B
:1036C000CB58D04028E8822E22E0922E800E911E08
:1036D0009AE8A92E92E0B92EA00EB11E87E4282EFA
:1036E000312C2C0E3D1EF1013496C357DF4FF98368
:1036F000E883CD58D040EAE2F6E08491C157DF4F2D
:103700008883CF58D04053C1F7018385482F50E0BC
:10371000BA01687170706031710509F056C1F40129
:10372000208131812130310509F44FC1223031052A
:1037300009F44BC1F701DE0111969081903239F006
:103740008E2F8E19883011F48EE28D939D933196D1
:10375000C557DF4F88819981CB58D040E817F907CA
:1037600061F71C921E86F2018081882331F4CE011C
:103770000E9660E072E00E946312CE010E96B201D6
:103780000E946312CE010E96BE016F5F7F4F0E94B2
:103790006312CE010E9660E072E00E9463121CA6D6
:1037A0001FA61BA61AA689E495E099A788A7CE01B3
:1037B0008C96B601AE014F5F5F4F21E00E943276DA
:1037C000882309F03FC0F40180819181892BD1F5D4
:1037D000C157DF4F9881CF58D040EAE2F6E008C0E9
:1037E0008091C00085FFFCCF9093C60031969491E4
:1037F0009923B1F7E2E0F2E007C08091C00085FFB5
:10380000FCCF31969093C60090819923B1F78091B7
:10381000C00085FFFCCFFAE0F093C600FE013196B0
:1038200007C08091C00085FFFCCF31969093C60001
:1038300090819923B1F78091C00085FFFCCF8AE089
:103840008093C600C357DF4FA881B981CD58D040BF
:10385000FE01BC968BE101900D928150E1F78AA5A3
:103860009BA5F1019383828389E495E09183808312
:10387000C801BE01625F7F4FA10120E030E0DBDEC6
:10388000C1014DD9CE0188964AD991C09E3209F422
:103890008EC09F3509F48BC0F80191899E3209F4DE
:1038A00086C09F3509F483C043FD81C080E060314C
:1038B000710509F481E0F80184A7882349F4F70130
:1038C0008085873409F073C081858E3709F46FC015
:1038D000D301F7018081803241F08E2F8E1988301C
:1038E00011F48EE28D9380818D933196C557DF4F11
:1038F00088819981CB58D040E817F90759F71C9275
:10390000F40180819181009701F5F20107C0809157
:10391000C00085FFFCCF31969093C600908199231B
:10392000B1F7F30107C08091C00085FFFCCF31964D
:103930009093C60090819923B1F78091C00085FFD4
:10394000FCCFFAE0F093C60032C08130910539F423
:10395000F5018081918101969183808328C002972F
:1039600031F5C757DF4F88819981C958D0400097FA
:1039700031F0B3010E945012892B71F42BC0CA5749
:10398000DF4F9881C658D040292F30E0F501808163
:10399000918128173907F1F0CA57DF4FF881C658CF
:1039A000D040FF5FCA57DF4FF883C658D040C601EA
:1039B000B701C957DF4F48815981C758D0400E948D
:1039C000577118160CF4A0CE05C0F7019081992309
:1039D00009F05CCFC157DF4F0FB6F894DEBF0FBEC2
:1039E000CDBFCF91DF911F910F91FF90EF90DF90AE
:1039F000CF90BF90AF909F908F907F906F905F908F
:103A00004F903F902F900895EF92FF920F931F9346
:103A1000DF93CF93CDB7DEB76F970FB6F894DEBFC5
:103A20000FBECDBF7C018C01025B1F4F805B9F4F9F
:103A3000F8019183808328E832E0E20EF31E21E052
:103A400030E0F701219331937F011182108226E744
:103A50003DEFE20EF31E049640E050E060E070E0BF
:103A60000E942F6EF80120813181DE011596F90147
:103A700034968BE101900D928150E1F7F90182813A
:103A800093819C838B8389E495E09A838983C70122
:103A900065E172E08E010F5F1F4FA80120E030E06A
:103AA000CADDC8013CD8F701E657FD4F80819181FE
:103AB0006F960FB6F894DEBF0FBECDBFCF91DF91EA
:103AC0001F910F91FF90EF900895CF92DF92EF92A8
:103AD000FF920F931F93DF93CF93CDB7DEB76F970E
:103AE0000FB6F894DEBF0FBECDBF7C016A018C011A
:103AF000025B1F4F805B9F4FF8019183808328E812
:103B000032E0E20EF31E22E030E0F7012193319320
:103B10007F017183608326E73DEFE20EF31E04967A
:103B200040E050E060E070E00E942F6EF8012081DC
:103B30003181DE011596F90134968BE101900D92E9
:103B40008150E1F7F901828193819C838B8389E421
:103B500095E09A838983C70165E172E08E010F5F6A
:103B60001F4FA801960167DDC8010E948F156F964F
:103B70000FB6F894DEBF0FBECDBFCF91DF911F917E
:103B80000F91FF90EF90DF90CF9008952F923F928A
:103B90004F925F926F927F928F929F92AF92BF925D
:103BA000CF92DF92EF92FF920F931F93DF93CF9309
:103BB000CDB7DEB7AD970FB6F894DEBF0FBECDBF61
:103BC0007C013B014DA7DC0113968C91882309F4FD
:103BD00050C3E1EDF1E0EE0EFF1ED7018C91EFE254
:103BE000FEEFEE0EFF1E882309F418C1222309F010
:103BF000E0C029EE31E0E20EF31ED7018C91E7E13F
:103C0000FEEFEE0EFF1E882371F1E3E2F6E09491E1
:103C100008C08091C00085FFFCCF9093C60031960C
:103C200094919923B1F7E1EAF2E0949108C0809170
:103C3000C00085FFFCCF9093C600319694919923E4
:103C4000B1F787EE9AE061E070E04AE050E00E9450
:103C5000E7548091C00085FFFCCF8AE08093C600C6
:103C60000E94EC2A06C3EAE2F6E0949108C0809133
:103C7000C00085FFFCCF9093C600319694919923A4
:103C8000B1F7E8E8F2E0949108C08091C00085FFA8
:103C9000FCCF9093C600319694919923B1F7F3012C
:103CA00007C08091C00085FFFCCF31969093C6007D
:103CB00090819923B1F7EDE7F2E0949108C08091EB
:103CC000C00085FFFCCF9093C60031969491992354
:103CD000B1F7C7012EEE31E0E20EF31EB7015DDA57
:103CE0004BEF5FEFE40EF51ED7019C91E7E1FEEF8D
:103CF000EE0EFF1E8DE8989FF0011124E251FE4F59
:103D0000EE0DFF1D07C08091C00085FFFCCF3196EE
:103D10009093C60090819923B1F7E7E7F2E0949180
:103D200008C08091C00085FFFCCF9093C6003196FB
:103D300094919923B1F723E832E0E20EF31ED70104
:103D40004D915D916D917C91EDE7FDEFEE0EFF1EC3
:103D500087EE9AE02AE030E00E9498548091C000FB
:103D600085FFFCCF8AE08093C600A70147515E4FD4
:103D7000DA012C91E22FF0E0EE0FFF1FEE0FFF1F94
:103D8000EE0DFF1DE651FE4F83E892E0E80EF91EAE
:103D9000D701AD90BD90CD90DC908DE79DEFE80E02
:103DA000F91EA082B182C282D3822F5FDA012C93E6
:103DB0002FC0EAE2F6E0949108C08091C00085FF30
:103DC000FCCF9093C600319694919923B1F7E6E623
:103DD000F2E0949108C08091C00085FFFCCF9093E1
:103DE000C600319694919923B1F7F30107C08091F1
:103DF000C00085FFFCCF31969093C6009081992337
:103E0000B1F78091C00085FFFCCF8AE08093C600A7
:103E1000C70182539E4F0E94466F39C0E9EEF1E020
:103E2000EE0EFF1ED7011C92E7E1FEEFEE0EFF1E25
:103E3000EAE2F6E0949108C08091C00085FFFCCFD3
:103E40009093C600319694919923B1F7E5E5F2E09D
:103E5000949108C08091C00085FFFCCF9093C6006C
:103E6000319694919923B1F7F30107C08091C00076
:103E700085FFFCCF31969093C60090819923B1F7CE
:103E80008091C00085FFFCCF8AE08093C600D701F7
:103E900012961C921A8A1D8A198A188A89E495E05A
:103EA0009F878E876EE4A62EB12CAE0CBF1CEFE26E
:103EB000F0E0EE0EFF1ED501ED92FC92E1EDFFEF7A
:103EC000EE0EFF1ED3018C918F3209F090C0C3011A
:103ED0006FE270E00E946E126C010894C11CD11C4C
:103EE0004E010894811C911C250152E1252E312C94
:103EF0002C0E3D1E77C0C6016FE270E00E946E126C
:103F00005C01009709F480C0C816D90608F07CC08F
:103F10008C010C191D09C401B601A8010E94971259
:103F2000080D191DF8011082F40107C08091C0002E
:103F300085FFFCCF31969093C60090819923B1F70D
:103F40008091C00085FFFCCFFAE0F093C600D2015B
:103F50006D917C916115710519F460E070E002C00B
:103F60006C5F7F4FC101A40121E00E94327688235B
:103F700071F5E1E4F2E0949108C08091C00085FF02
:103F8000FCCF9093C600319694919923B1F7FE012E
:103F9000319607C08091C00085FFFCCF3196909389
:103FA000C60090819923B1F7EFE3F2E0949108C045
:103FB0008091C00085FFFCCF9093C600319694910C
:103FC0009923B1F78091C00085FFFCCF23C12EE07B
:103FD00030E02C0F3D1FF2013183208365010894EE
:103FE000C11CD11CC114D10409F085CF0BC040E520
:103FF00050E0E40EF51ED501ED92FC92E0EBFFEFF0
:10400000EE0EFF1E830101C08601F701E25BFF4F48
:104010002DA5222309F4BFC060817181611571054E
:1040200019F460E070E002C06C5F7F4FC7018253FB
:104030009E4FA80121E00E943276882309F47EC0B9
:104040004FED51E0E40EF51ED7014D915D916D915C
:104050007C91ECE9F0E0EE0EFF1ED7014D935D93ED
:104060006D937C931397E5E8FDEFEE0EFF1EE1E301
:10407000F2E0949108C08091C00085FFFCCF90933E
:10408000C600319694919923B1F7F80107C0809149
:10409000C00085FFFCCF31969093C6009081992394
:1040A000B1F7E9E2F2E0949108C08091C00085FF89
:1040B000FCCF9093C600319694919923B1F787EE87
:1040C0009AE02AE030E00E9498548091C00085FF79
:1040D000FCCF8AE08093C60023E832E0E20EF31EB4
:1040E000D7011D921D921D921C921397EDE7FDEFD3
:1040F000EE0EFF1EEBE1F2E0949108C08091C0004B
:1041000085FFFCCF9093C600319694919923B1F727
:104110008091C00085FFFCCF8AE08093C600C70174
:1041200060E070E0A801D1DCD70151968C91882322
:1041300009F498C087010F5E1F4F94C0E7E0F2E0DA
:10414000949108C08091C00085FFFCCF9093C60079
:10415000319694919923B1F7F80107C08091C0007E
:1041600085FFFCCF31969093C60090819923B1F7DB
:10417000E5E0F2E0949108C08091C00085FFFCCF9B
:104180009093C600319694919923B1F78091C00025
:1041900085FFFCCF3FC0608171816115710519F405
:1041A00060E070E002C06C5F7F4FC70182539E4F9A
:1041B000A80126E50E943276882381F5E1EFF1E03F
:1041C000949108C08091C00085FFFCCF9093C600F9
:1041D000319694919923B1F7F80107C08091C000FE
:1041E00085FFFCCF31969093C60090819923B1F75B
:1041F000EFEEF1E0949108C08091C00085FFFCCF04
:104200009093C600319694919923B1F78091C000A4
:1042100085FFFCCF8AE08093C60027C081E0F701CC
:104220008083EDEDF1E0949108C08091C00085FF9E
:10423000FCCF9093C600319694919923B1F7F30186
:1042400007C08091C00085FFFCCF31969093C600D7
:1042500090819923B1F78091C00085FFFCCF8AE05F
:104260008093C600C8010E947BAACE010E960E94D0
:104270008F15AD960FB6F894DEBF0FBECDBFCF91B0
:10428000DF911F910F91FF90EF90DF90CF90BF9043
:10429000AF909F908F907F906F905F904F903F90E6
:1042A0002F900895EF92FF920F931F93CF93DF9378
:1042B000EC010E940A7F8E0107511E4FD8018C919C
:1042C000BEECEB2EB1E0FB2EEC0EFD1E882399F127
:1042D000C7010E94466FF8016081615060838DE8DC
:1042E000689FB001112462517E4F6C0F7D1FCE017B
:1042F00041E021E04BDCD801EC91F0E0EE0FFF1F34
:10430000EE0FFF1FEC0FFD1FE651FE4F4081518164
:1043100062817381CD57DD4F488359836A837B83E4
:10432000C358D240C7010E942F6E8B81882369F049
:1043300081E08A830AC00E94737CC7010E94466F95
:104340001A828FE291E00E948A36DF91CF911F910D
:104350000F91FF90EF900895FC0181E08183CF01E0
:1043600040E021E013CCEF92FF920F931F93DF9375
:10437000CF93CDB7DEB76F970FB6F894DEBF0FBE01
:10438000CDBF7C0188E892E0E80EF91EF7011182AA
:10439000108288E79DEFE80EF91E87010D5C1F4F24
:1043A000C80140E050E060E070E00E942F6EDE0146
:1043B0001596F8018BE101900D928150E1F7F7011C
:1043C00081A992A99C838B8389E495E09A83898350
:1043D000C70165E172E08E010F5F1F4FA80120E069
:1043E00030E029D9C8010E948F156F960FB6F89456
:1043F000DEBF0FBECDBFCF91DF911F910F91FF9018
:10440000EF9008950F931F93CF93DF93DC01D39622
:104410001C92D397D6961C92D697D2961C921E9237
:10442000D19789E495E0D0969C938E939F97AC5A50
:10443000BF4F1C9213961C92A755B040FD01E05B44
:10444000FF4FAE5ABF4F11961C921E92A255B0401C
:1044500091838083ED01C159DF4FFE0120E030E000
:10446000482F148217821382128240839183215E27
:104470003F4F7F9681E02633380799F7A855BE4F06
:1044800089E18C9313961C9258961C921B961C9251
:1044900013961C92A15DB140FD01E653FE4FA4535B
:1044A000BE4F11961C921E9240839183A155BF4F1F
:1044B0001D921D921D921C92139718961D921D928B
:1044C0001D921C921397A358B24012961C921297F9
:1044D00013961C9213971C9211961C9211978D01A2
:1044E00001581D4FF8011082118212821382AB55C0
:1044F000BE4F11961C921E92AC5BBF4F1C92FE01E8
:10450000C90111920197E9F7A256BF4F81E08C9340
:10451000A758B2409E961C921E929D970E941BB96E
:1045200068577C4E8F4F9F4FF80160837183828361
:104530009383DF91CF911F910F910895EF92FF9296
:104540000F931F93DF93CF93CDB7DEB7E0970FB6EE
:10455000F894DEBF0FBECDBFDE011196E9EFF4E0A7
:1045600080E101900D928150E1F7DE015196E9EE74
:10457000F4E080E101900D928150E1F7DE01919627
:10458000E9EDF4E080E101900D928150E1F789813D
:104590009A81AB81BC818093FC0A9093FD0AA09321
:1045A000FE0AB093FF0A89899A89AB89BC898093F6
:1045B000EC0A9093ED0AA093EE0AB093EF0A89A15A
:1045C0009AA1ABA1BCA180930C0B90930D0BA0936F
:1045D0000E0BB0930F0B8D819E81AF81B8858093B8
:1045E000000B9093010BA093020BB093030B8D89EA
:1045F0009E89AF89B88D8093F00A9093F10AA093B9
:10460000F20AB093F30A8DA19EA1AFA1B8A5809341
:10461000100B9093110BA093120BB093130B898581
:104620009A85AB85BC858093040B9093050BA09372
:10463000060BB093070B898D9A8DAB8DBC8D809343
:10464000F40A9093F50AA093F60AB093F70A89A5A5
:104650009AA5ABA5BCA58093140B9093150BA093C2
:10466000160BB093170B8D859E85AF85B889809307
:10467000080B9093090BA0930A0BB0930B0B8D8D35
:104680009E8DAF8DB8A18093F80A9093F90AA093FC
:10469000FA0AB093FB0A8DA59EA5AFA5B8A9809391
:1046A000180B9093190BA0931A0BB0931B0B0E943D
:1046B000AB5980E090E8ABE3B5E48093200B909396
:1046C000210BA093220BB093230B8093240B909388
:1046D000250BA093260BB093270B0F2EF0E0EF2EA7
:1046E000F0E0FF2EF0E00F2FF0E01F2FF02DE09212
:1046F0001C0BF0921D0B00931E0B10931F0B80E2FE
:104700009EE4A0E0B0E08093E80A9093E90AA093C9
:10471000EA0AB093EB0AE092340BF092350B009367
:10472000360B1093370B80E090E0A0EAB1E4809361
:10473000280B9093290BA0932A0BB0932B0B8DEC95
:104740009CECACECBEE380932C0B90932D0BA093D0
:104750002E0BB0932F0B80E090E0A0EAB0E48093A2
:10476000300B9093310BA093320BB093330BE0924C
:104770007108F09272080093730810937408E09225
:104780006D08F0926E0800936F0810937008E09225
:104790006908F0926A0800936B0810936C0882ED28
:1047A00090E09093F6128093F51282E390E090935C
:1047B000F8128093F7121092FA121092F9128FEFFA
:1047C00090E09093FC128093FB1284E690E090932B
:1047D000FE128093FD12109200131092FF1283E3D9
:1047E00093EBA3E2B2E480939A0490939B04A0938A
:1047F0009C04B0939D0460E070E08CE990E40E941A
:10480000D88760939E0470939F048093A004909334
:10481000A10465E87BE28CEA92E40E94E48760935D
:10482000A2047093A3048093A4049093A5040E940F
:10483000F68680E090E0A0E8BFE38093A604909322
:10484000A704A093A804B093A90410927F0820E0C5
:1048500030E040E450E420937004309371044093BE
:1048600072045093730480E090E0A4E3B2E4809378
:10487000780490937904A0937A04B0937B04E09237
:104880008108F09282080093830810938408E092D4
:104890008508F0928608009387081093880880E0C6
:1048A00090E0A0E0B1E480937C0490937D04A09319
:1048B0007E04B0937F0410925808209350043093E4
:1048C0005104409352045093530432D6EAE2F6E086
:1048D000949108C08091C00085FFFCCF9093C600E2
:1048E000319694919923B1F7EFE1F3E0949108C0E8
:1048F0008091C00085FFFCCF9093C60031969491C3
:104900009923B1F78091C00085FFFCCF8AE08093A6
:10491000C600E0960FB6F894DEBF0FBECDBFCF91B4
:10492000DF911F910F91FF90EF900895CF93DF9348
:10493000CAE2D6E0FE01949108C08091C00085FFD4
:10494000FCCF9093C600319694919923B1F7E3E19F
:10495000F6E0949108C08091C00085FFFCCF909351
:10496000C600319694919923B1F78091C00085FFDC
:10497000FCCF8AE08093C600FE019491EAE2F6E063
:1049800008C08091C00085FFFCCF9093C60031968F
:1049900094919923B1F74091FC0A5091FD0A6091DE
:1049A000FE0A7091FF0A8BE096E00E947E304091F3
:1049B000000B5091010B6091020B7091030B88E08A
:1049C00096E00E947E304091040B5091050B60915F
:1049D000060B7091070B85E096E00E947E304091B7
:1049E000080B5091090B60910A0B70910B0B82E040
:1049F00096E00E947E30E6E1F2E007C08091C000C0
:104A000085FFFCCF31969093C60090819923B1F732
:104A10008091C00085FFFCCF8AE08093C600FE0134
:104A20009491EAE2F6E008C08091C00085FFFCCFD7
:104A30009093C600319694919923B1F7E8EEF5E092
:104A4000949108C08091C00085FFFCCF9093C60070
:104A5000319694919923B1F78091C00085FFFCCFE6
:104A60008AE08093C600FE019491EAE2F6E008C075
:104A70008091C00085FFFCCF9093C6003196949141
:104A80009923B1F74091EC0A5091ED0A6091EE0A3A
:104A90007091EF0A8FED95E00E947E304091F00A10
:104AA0005091F10A6091F20A7091F30A8CED95E051
:104AB0000E947E304091F40A5091F50A6091F60A06
:104AC0007091F70A89ED95E00E947E304091F80AD6
:104AD0005091F90A6091FA0A7091FB0A86ED95E00F
:104AE0000E947E30E6E1F2E007C08091C00085FFC1
:104AF000FCCF31969093C60090819923B1F78091B5
:104B0000C00085FFFCCF8AE08093C600FE0194912F
:104B1000EAE2F6E008C08091C00085FFFCCF9093E8
:104B2000C600319694919923B1F7E8EBF5E09491A2
:104B300008C08091C00085FFFCCF9093C6003196DD
:104B400094919923B1F78091C00085FFFCCF8AE052
:104B50008093C600FE019491EAE2F6E008C08091DD
:104B6000C00085FFFCCF9093C600319694919923A5
:104B7000B1F740910C0B50910D0B60910E0B7091A1
:104B80000F0B8FEA95E00E9491304091100B5091ED
:104B9000110B6091120B7091130B8CEA95E00E943F
:104BA00091304091140B5091150B6091160B709140
:104BB000170B89EA95E00E9491304091180B5091B3
:104BC000190B60911A0B70911B0B86EA95E00E94FD
:104BD0009130E6E1F2E007C08091C00085FFFCCF94
:104BE00031969093C60090819923B1F78091C000CF
:104BF00085FFFCCF8AE08093C600FE019491EAE233
:104C0000F6E008C08091C00085FFFCCF9093C600FD
:104C1000319694919923B1F7E1E7F5E0949108C0BA
:104C20008091C00085FFFCCF9093C600319694918F
:104C30009923B1F78091C00085FFFCCF8AE0809373
:104C4000C600FE019491EAE2F6E008C08091C0003F
:104C500085FFFCCF9093C600319694919923B1F7CC
:104C60004091200B5091210B6091220B7091230BEE
:104C700088E695E00E947E304091240B5091250BF0
:104C80006091260B7091270B85E695E00E947E309F
:104C9000E6E1F2E007C08091C00085FFFCCF3196CD
:104CA0009093C60090819923B1F78091C00085FF51
:104CB000FCCF8AE08093C600FE019491EAE2F6E020
:104CC00008C08091C00085FFFCCF9093C60031964C
:104CD00094919923B1F7E2EBF4E0949108C08091AC
:104CE000C00085FFFCCF9093C60031969491992324
:104CF000B1F78091C00085FFFCCF8AE08093C600A9
:104D0000FE019491EAE2F6E008C08091C00085FFC0
:104D1000FCCF9093C600319694919923B1F74091BE
:104D20001C0B50911D0B60911E0B70911F0B89EA9B
:104D300094E00E947E304091340B5091350B60918D
:104D4000360B7091370B86EA94E00E947E304091DA
:104D5000E80A5091E90A6091EA0A7091EB0A83EA45
:104D600094E00E9491304091280B5091290B609162
:104D70002A0B70912B0B80EA94E00E947E304091C8
:104D80002C0B50912D0B60912E0B70912F0B8DE9F8
:104D900094E00E947E304091300B5091310B609135
:104DA000320B7091330B8AE994E00E947E30E6E189
:104DB000F2E007C08091C00085FFFCCF3196909350
:104DC000C60090819923B1F78091C00085FFFCCF88
:104DD0008AE08093C600FE019491EAE2F6E008C002
:104DE0008091C00085FFFCCF9093C60031969491CE
:104DF0009923B1F7E8E8F4E0949108C08091C000ED
:104E000085FFFCCF9093C600319694919923B1F71A
:104E10008091C00085FFFCCF8AE08093C600FE0130
:104E20009491EAE2F6E008C08091C00085FFFCCFD3
:104E30009093C600319694919923B1F740916908F7
:104E400050916A0860916B0870916C088FE794E04C
:104E50000E947E3040916D0850916E0860916F08FD
:104E6000709170088CE794E00E947E304091710848
:104E700050917208609173087091740889E794E00A
:104E80000E947E30E6E1F2E007C08091C00085FF1D
:104E9000FCCF31969093C60090819923B1F7809111
:104EA000C00085FFFCCF8AE08093C600FE0194918C
:104EB000EAE2F6E008C08091C00085FFFCCF909345
:104EC000C600319694919923B1F7EBE6F4E0949102
:104ED00008C08091C00085FFFCCF9093C60031963A
:104EE00094919923B1F78091C00085FFFCCF8AE0AF
:104EF0008093C600FE019491EAE2F6E008C080913A
:104F0000C00085FFFCCF9093C60031969491992301
:104F1000B1F740919A0450919B0460919C04709168
:104F20009D0481E694E00E947E3060919E04709121
:104F30009F048091A0049091A1040E94DE87AB01A0
:104F4000BC018EE594E00E947E306091A2047091D5
:104F5000A3048091A4049091A5040E94EA87AB0168
:104F6000BC018BE594E00E947E30E6E1F2E007C0F0
:104F70008091C00085FFFCCF31969093C600908150
:104F80009923B1F78091C00085FFFCCF8AE0809320
:104F9000C600FE019491EAE2F6E008C08091C000EC
:104FA00085FFFCCF9093C600319694919923B1F779
:104FB000E7E2F4E0949108C08091C00085FFFCCF47
:104FC0009093C600319694919923B1F78091C000D7
:104FD00085FFFCCF8AE08093C600FE019491EAE24F
:104FE000F6E008C08091C00085FFFCCF9093C6001A
:104FF000319694919923B1F74091700450917104C6
:1050000060917204709173048DE194E00E947E308F
:10501000609178047091790480917A0490917B0476
:1050200020E030E040E752E40E948DC3AB01BC01B8
:105030008AE194E00E947E3040918108509182087C
:10504000609183087091840887E194E00E947E302B
:10505000E6E1F2E007C08091C00085FFFCCF319609
:105060009093C60090819923B1F78091C00085FF8D
:10507000FCCF8AE08093C600FE019491EAE2F6E05C
:1050800008C08091C00085FFFCCF9093C600319688
:1050900094919923B1F7EBEEF3E0949108C08091DD
:1050A000C00085FFFCCF9093C60031969491992360
:1050B000B1F78091C00085FFFCCF8AE08093C600E5
:1050C000FE019491EAE2F6E008C08091C00085FFFD
:1050D000FCCF9093C600319694919923B1F74091FB
:1050E000850850918608609187087091880881EE44
:1050F00093E00E947E3060917C0470917D048091E9
:105100007E0490917F0420E030E040E752E40E946A
:105110008DC3AB01BC018EED93E0F0D7E6E1F2E088
:1051200007C08091C00085FFFCCF31969093C600E8
:1051300090819923B1F78091C00085FFFCCF8AE070
:105140008093C600FE019491EAE2F6E008C08091E7
:10515000C00085FFFCCF9093C600319694919923AF
:10516000B1F7E4E8F3E0949108C08091C00085FFB6
:10517000FCCF9093C600319694919923B1F780911A
:10518000C00085FFFCCF8AE08093C600FE019491A9
:10519000EAE2F6E008C08091C00085FFFCCF909362
:1051A000C600319694919923B1F740917F0850E061
:1051B00060E070E08AE793E0B4D7E6E1F2E007C090
:1051C0008091C00085FFFCCF31969093C6009081FE
:1051D0009923B1F78091C00085FFFCCF8AE08093CE
:1051E000C600FE019491EAE2F6E008C08091C0009A
:1051F00085FFFCCF9093C600319694919923B1F727
:1052000080915808882309F441C0E7E6F3E09491BF
:1052100008C08091C00085FFFCCF9093C6003196F6
:1052200094919923B1F78091C00085FFFCCF8AE06B
:105230008093C600FE019491EAE2F6E008C08091F6
:10524000C00085FFFCCF9093C600319694919923BE
:10525000B1F7409150045091510460915204709103
:1052600053048DE593E04AD7E6E1F2E007C0809170
:10527000C00085FFFCCF31969093C60090819923A2
:10528000B1F78091C00085FFFCCF12C0E1E4F3E0EC
:10529000949108C08091C00085FFFCCF9093C60018
:1052A000319694919923B1F78091C00085FFFCCF8E
:1052B0008AE08093C600DF91CF910895EF92FF922C
:1052C0000F931F93CF93DF93EC01E0905804F0907D
:1052D000590400915A0410915B04688179818A8194
:1052E0009B81A80197010E94ADC0882324F4E88225
:1052F000F9820A831B83E0905C04F0905D040091C6
:105300005E0410915F046C817D818E819F81A80174
:1053100097010E94ADC0882324F4EC82FD820E83A5
:105320001F83609160047091610480916204909188
:10533000630420E030E040E050E00E94D4BF7B01F5
:105340008C01688579858A859B85A80197010E94D3
:10535000ADC0882324F4E886F9860A871B87E0908D
:105360006404F090650400916604109167046881FC
:1053700079818A819B81A80197010E94BBC218167E
:1053800024F4E882F9820A831B83E0906804F09099
:10539000690400916A0410916B046C817D818E8197
:1053A0009F81A80197010E94BBC2181624F4EC82C9
:1053B000FD820E831F83E0906C04F0906D040091D9
:1053C0006E0410916F04688579858A859B85A80194
:1053D00097010E94BBC2181624F4E886F9860A8752
:1053E0001B87DF91CF911F910F91FF90EF90089550
:1053F0008091960808950F931F93CF93DF93813088
:10540000910549F46F5F7F4F09F046C082EC95E04B
:105410000E94022241C0892B09F03EC06F5F7F4F7E
:10542000D9F589E495E090938D0780938C0780915E
:105430009307882321F080E997E00E94466FC8E433
:10544000D7E009E415E005C06F9786E0C231D807C0
:1054500051F0198308838F818823B1F3CE0104961C
:105460000E94466FF1CF89E495E0998388838F810C
:10547000882321F0CE0104960E94466F89E495E0CE
:105480009093F2058093F1058091F805882321F02F
:1054900085EF95E00E94466FDF91CF911F910F91AC
:1054A000089580E090E06FEF7FEFA5CF81E090E07E
:1054B0006FEF7FEFA0CFEF92FF920F931F939B01AF
:1054C000AC0180915808882321F1CA01B90120E07C
:1054D00030E040E05FE30E948DC37B018C0120E05F
:1054E00030E040E050E00E94ADC0882391F0C80158
:1054F000B701A80197010E948DC39B01AC01CA01AD
:105500002BED3FE049E450E40E948DC39B01AC01C8
:1055100004C020E030E040E85FE360E070E080E855
:105520009FE30E94B4C01F910F91FF90EF900895E8
:1055300060915004709151048091520490915304F1
:10554000BADF60935404709355048093560490938B
:10555000570408950E94C98780919608882309F00E
:105560003AC081E0809396088091990890919A08BA
:10557000A0919B08B0919C0880939D0890939E08F1
:10558000A0939F08B093A008E3E2F6E0949108C0CE
:105590008091C00085FFFCCF9093C6003196949116
:1055A0009923B1F7EAE3F6E0949108C08091C00036
:1055B00085FFFCCF9093C600319694919923B1F763
:1055C0008091C00085FFFCCF8AE08093C60080E315
:1055D00096E00C9468AA0895CF93DF93F8940E9404
:1055E000C987179A10927508169A10927608159A1C
:1055F00010927708149A87E460E00E94CCBAE3E244
:10560000F6E0949108C08091C00085FFFCCF909394
:10561000C600319694919923B1F7E9EBF6E09491A5
:1056200008C08091C00085FFFCCF9093C6003196E2
:1056300094919923B1F78091C00085FFFCCF8AE057
:105640008093C60080EB96E00E9475AA7894C5E02E
:10565000D0E008C068EC70E080E090E00E9429B9DA
:105660000E949BAA21978FEFCF3FD80799F7F89414
:10567000FFCF0E941BB96093A3087093A408809386
:10568000A5089093A608E091CC08F091CD08E253CC
:10569000F74F80818823A9F4E8EDF6E0949108C0E3
:1056A0008091C00085FFFCCF9093C6003196949105
:1056B0009923B1F78091C00085FFFCCF8AE08093E9
:1056C000C60008950E941BB96093A3087093A408B4
:1056D0008093A5089093A60808956F927F928F9269
:1056E0009F92AF92BF92CF92DF92EF92FF920F9371
:1056F0001F93F82E6091AB087091AC088091AD08B3
:105700009091AE082091AF083091B0084091B10857
:105710005091B2080E94C8C23B014C0100D000D099
:105720000DB71EB70F5F1F4F609148047091490479
:10573000882777FD8095982F0E944FC1209186047D
:105740003091870440918804509189040E948DC350
:1057500020E030E040E752E40E94B4C020E030E0B6
:1057600048EC52E40E94B4C05B016C01F801608215
:10577000718282829382F48280917C08858389E59C
:1057800098E067EB78E04BEA58E020E001E032E097
:10579000E32E0E94BC558091B7089091B808A09163
:1057A000B908B091BA088093590890935A08A09309
:1057B0005B08B0935C088091BB089091BC08A091F5
:1057C000BD08B091BE0880935D0890935E08A093D9
:1057D0005F08B09360088091BF089091C008A091C5
:1057E000C108B091C2088093610890936208A093A9
:1057F0006308B09364088091C3089091C408A09195
:10580000C508B091C6088093650890936608A09378
:105810006708B09368088DB79EB706960FB6F894E0
:105820009EBF0FBE8DBF0E941BB96093A3087093EB
:10583000A4088093A5089093A6081F910F91FF904C
:10584000EF90DF90CF90BF90AF909F908F907F9020
:105850006F900895CF92DF92EF92FF920F931F9374
:1058600087EB98E02BDD0E941BB96093A30870932F
:10587000A4088093A5089093A60860915908709198
:105880005A0880915B0890915C082091B70830918C
:10589000B8084091B9085091BA080E94ADC0882359
:1058A00009F07AC060915D0870915E0880915F0890
:1058B000909160082091BB083091BC084091BD08D0
:1058C0005091BE080E94ADC0882309F065C0609168
:1058D000860470918704809188049091890420E067
:1058E00030E040E752E40E94B4C07B018C0187EBBA
:1058F00098E06BEB78E04FEB58E023EC38E0ECE716
:10590000CE2EE8E0DE2E0E94175F8091B7089091BE
:10591000B808A091B908B091BA088093590890933B
:105920005A08A0935B08B0935C088091BB089091E3
:10593000BC08A091BD08B091BE0880935D0890930B
:105940005E08A0935F08B09360088091BF089091B3
:10595000C008A091C108B091C208809361089093DB
:105960006208A0936308B09364088091C308909183
:10597000C408A091C508B091C608809365089093AB
:105980006608A0936708B09368081F910F91FF9075
:10599000EF90DF90CF900895609148047091490492
:1059A000882777FD8095982F0E944FC1209186040B
:1059B0003091870440918804509189040E948DC3DE
:1059C00020E030E040E752E40E94B4C020E030E044
:1059D00048EC52E488CF87EE9AE00E94F653EBED54
:1059E000F6E0949108C08091C00085FFFCCF9093B1
:1059F000C600319694919923B1F74091990850913E
:105A00009A0860919B0870919C084F5F5F4F6F4FA1
:105A10007F4F87EE9AE02AE030E00E94B4548091F4
:105A2000C00085FFFCCF8AE08093C60022CEDF92C3
:105A3000EF92FF920F931F93D62E10917C0888232C
:105A400009F4C8C0212F30E0F901E058F74F8081F8
:105A5000882309F09DC18091590890915A08A0911E
:105A60005B08B0915C088093B7089093B808A09346
:105A7000B908B093BA0880915D0890915E08A09132
:105A80005F08B09160088093BB089093BC08A09316
:105A9000BD08B093BE088091610890916208A09102
:105AA0006308B09164088093BF089093C008A093E6
:105AB000C108B093C208E0906508F09066080091B4
:105AC000670810916808E092C308F092C408009338
:105AD000C5081093C608F901EE0FFF1FEE0FFF1F58
