:100000000C9405100C9436100C9436100C94361089
:100010000C9436100C9436100C9436100C94361048
:100020000C9436100C9436100C9436100C94361038
:100030000C9436100C94C1B10C9436100C943610FC
:100040000C9436100C9462710C9436100C9436108B
:100050000C9436100C9436100C9489860C948EAB4C
:100060000C9436100C947E180C9436100C943610A8
:100070000C9436100C9436100C9436100C943610E8
:100080000C9436100C9436100C9436100C943610D8
:100090000C9436100C9436100C9436100C943610C8
:1000A0000C9436100C9436100C9436100C943610B8
:1000B0000C9436100C9436100C9436100C943610A8
:1000C0000C9436100C9436100C9436100C94361098
:1000D0000C9436100C9436100C9436100C94361088
:1000E0000C943610D686E48600870E8728873687DC
:1000F0005087548756875A876287BDACC2ACC7AC5D
:10010000D1ACDBAC54ADE5ACEDACF5ACFFAC09ADBE
:1001100013AD22AD2CAD54AD36AD40AD4AAD76AD8C
:1001200079AD68AD6CAD72ADB0AD7DAD81AD87AD73
:100130008BAD8FAD95AD99AD9DADB0ADA3ADA7AD78
:10014000ABAD084AD73B3BCE016E84BCBFFDC12F8F
:100150003D6C74319ABD56833DDA3D00C77F11BEB8
:10016000D9E4BB4C3E916BAAAABE000000803F05BB
:10017000A84CCDB2D44EB93836A9020C50B99186EC
:1001800088083CA6AAAA2ABE000000803F00486159
:100190007264636F6465642044656661756C742085
:1001A00053657474696E6773204C6F616465640095
:1001B00053746F7265642073657474696E6773201D
:1001C0007265747269657665640046696C616D6517
:1001D0006E742073657474696E67733A2044697332
:1001E00061626C6564002020204D32303020440074
:1001F00046696C616D656E742073657474696E67B1
:10020000733A002020204D3230392053004175745C
:100210006F2D526574726163743A20533D302074BF
:100220006F2064697361626C652C203120746F20CB
:10023000696E746572707265742065787472756425
:10024000652D6F6E6C79206D6F76657320617320FC
:100250007265747261637473206F72207265636F6C
:10026000766572696573002046002020204D32308B
:10027000382053005265636F7665723A20533D45CE
:1002800078747261206C656E67746820286D6D29C2
:1002900020463A537065656420286D6D2F6D2900E6
:1002A000205A002046002020204D323037205300B5
:1002B000526574726163743A20533D4C656E677485
:1002C0006820286D6D2920463A53706565642028A2
:1002D0006D6D2F6D29205A3A205A4C69667420287A
:1002E0006D6D29002044002049002020204D33302E
:1002F000312050005049442073657474696E6773EF
:100300003A00205A0020590020204D323036205823
:1003100000486F6D65206F666673657420286D6D8B
:10032000293A00204500205A002058002042002091
:10033000540020204D323035205300416476616EE8
:10034000636564207661726961626C65733A2053FB
:100350003D4D696E20666565647261746520286D27
:100360006D2F73292C20543D4D696E207472617677
:10037000656C20666565647261746520286D6D2FFB
:1003800073292C20423D6D696E696D756D20736512
:10039000676D656E742074696D6520286D73292CF6
:1003A00020583D6D6178696D756D205859206A65DA
:1003B000726B20286D6D2F73292C20205A3D6D61A2
:1003C00078696D756D205A206A65726B20286D6D95
:1003D0002F73292C2020453D6D6178696D756D2046
:1003E00045206A65726B20286D6D2F73290020549B
:1003F0000020204D323034205300416363656C652A
:10040000726174696F6E3A20533D616363656C6518
:10041000726174696F6E2C20543D726574726163F1
:100420007420616363656C65726174696F6E00202E
:100430004500205A0020590020204D3230312058EC
:10044000004D6178696D756D20416363656C6572FF
:100450006174696F6E20286D6D2F7332293A002008
:100460004500205A0020590020204D3230332058BA
:10047000004D6178696D756D2066656564726174A3
:10048000657320286D6D2F73293A00204500205A8E
:100490000020590020204D393220580053746570D7
:1004A000732070657220756E69743A0053657474B8
:1004B000696E67732053746F7265640053544F50B4
:1004C0005045442E20005072696E7465722073741A
:1004D0006F707065642064756520746F206572723A
:1004E0006F72732E20466978207468652065727279
:1004F0006F7220616E6420757365204D3939392023
:10050000746F20726573746172742E202854656D47
:1005100070657261747572652069732072657365A8
:10052000742E20536574206974206166746572208E
:1005300072657374617274696E6729004B494C4C23
:1005400045442E20005072696E7465722068616C9B
:100550007465642E206B696C6C28292063616C6C57
:10056000656421006F6B00526573656E643A20000C
:100570002200556E6B6E6F776E20636F6D6D616ECE
:10058000643A2022004D32323020532569005A202F
:100590004F6666736574203A20007A5F6D61783A21
:1005A00020007A5F6D696E3A20005A204F666673AC
:1005B0006574005A204F6666736574206F6B002265
:1005C00000556E6B6E6F776E20636F6D6D616E643C
:1005D0003A2022007A5F6D61783A20007A5F6D6977
:1005E0006E3A2000795F6D61783A2000795F6D691D
:1005F0006E3A2000785F6D61783A2000785F6D690F
:100600006E3A2000205A3A0020593A0020436F7574
:100610006E7420583A200020453A00205A3A0020B3
:10062000593A00583A004649524D574152455F4E9B
:10063000414D453A4D61726C696E2056312E302E17
:10064000323B20537072696E7465722F6772626CF0
:10065000206D617368757020666F722067656E36F5
:10066000204649524D574152455F55524C3A6874A5
:100670007470733A2F2F6769746875622E636F6D9B
:100680002F4D61726C696E4669726D776172652F6C
:100690004D61726C696E2050524F544F434F4C5F06
:1006A00056455253494F4E3A312E30204D41434822
:1006B000494E455F545950453A505255534120696F
:1006C000332B2045585452554445525F434F554EA5
:1006D000543A3120555549443A303030303030307A
:1006E000302D303030302D303030302D3030303013
:1006F0002D3030303030303030303030300A005033
:10070000525553412069332B204155532E005052EE
:100710005553412069332B2062657265697421004D
:1007200042656420646F6E652E0020423A002045C9
:100730003A00543A00566F726865697A656E2E2EDB
:100740002E00447275636B656E2E2E2E0020573A74
:100750000020453A00543A0048656174696E672E7E
:100760002E2E002042403A0020403A00202F003A2E
:1007700000205400202F0020423A00202F006F6BF1
:1007800020543A002569206D696E2C20256920735C
:10079000656300456E642066696C65206C697374DE
:1007A00000426567696E2066696C65206C697374C8
:1007B000004B65696E65204265776567756E6700F9
:1007C00050525553412069332B206265726569741C
:1007D0002100447275636B65207765697465722EBC
:1007E0002E2E007761727465206175662045696EF2
:1007F000676162652E2E2E2E007363686C616665DC
:100800006E2E2E2E00256920686F75727320256963
:10081000206D696E7574657300446F6E652070722B
:10082000696E74696E672066696C650053544F5039
:100830005045442E20005072696E746572207374A6
:100840006F707065642064756520746F20657272C6
:100850006F72732E20466978207468652065727205
:100860006F7220616E6420757365204D39393920AF
:10087000746F20726573746172742E202854656DD4
:100880007065726174757265206973207265736535
:10089000742E20536574206974206166746572201B
:1008A00072657374617274696E6729004E6F204CB3
:1008B000696E65204E756D62657220776974682077
:1008C000636865636B73756D2C204C617374204C89
:1008D000696E653A20004E6F20436865636B7375DF
:1008E0006D2077697468206C696E65206E756D6225
:1008F00065722C204C617374204C696E653A20003F
:10090000636865636B73756D206D69736D61746386
:10091000682C204C617374204C696E653A20004C41
:10092000696E65204E756D626572206973206E6F09
:1009300074204C617374204C696E65204E756D6235
:1009400065722B312C204C617374204C696E653AB2
:1009500020004D31313000446F6E6520736176693F
:100960006E672066696C652E006F6B004D32390032
:100970002020506C616E6E657242756666657242CB
:10098000797465733A20002046726565204D656D67
:100990006F72793A20004A616E2032302032303155
:1009A0003600436F6D70696C65643A2000286E6F85
:1009B0006E652C2064656661756C7420636F6E666D
:1009C00069672900207C20417574686F723A2000A5
:1009D0004A616E20323020323031362031363A339F
:1009E000303A343100204C61737420557064617466
:1009F00065643A2000312E302E32004D61726C69F0
:100A00006E0020536F66747761726520526573655E
:100A10007400205761746368646F67205265736562
:100A200074002042726F776E206F75742052657368
:100A30006574002045787465726E616C2052657330
:100A4000657400506F7765725570007374617274CD
:100A5000002200656E717565696E672022002200B4
:100A6000656E717565696E67202200FFFFFF0000EB
:100A7000A0400000A04000000040000057430000DC
:100A80003E4300004843000000000000000000005A
:100A9000803E0000574300003E43000048430000F2
:100AA000000000000000000000006563686F3A006D
:100AB0004572726F723A0000002110422063308448
:100AC00040A550C660E770088129914AA16BB18C9E
:100AD000C1ADD1CEE1EFF13112100273325222B525
:100AE000529442F772D662399318837BB35AA3BDEE
:100AF000D39CC3FFF3DEE36224433420040114E6F5
:100B000064C774A44485546AA54BB528850995EE3D
:100B1000E5CFF5ACC58DD55336722611163006D704
:100B200076F6669556B4465BB77AA719973887DF8D
:100B3000F7FEE79DD7BCC7C448E5588668A778404C
:100B400008611802282338CCC9EDD98EE9AFF948DD
:100B50008969990AA92BB9F55AD44AB77A966A7164
:100B60001A500A333A122AFDDBDCCBBFFB9EEB792D
:100B70009B588B3BBB1AABA66C877CE44CC55C22B4
:100B80002C033C600C411CAEED8FFDECCDCDDD2A7D
:100B9000AD0BBD688D499D977EB66ED55EF44E1344
:100BA0003E322E511E700E9FFFBEEFDDDFFCCF1BCD
:100BB000BF3AAF599F788F8891A981CAB1EBA10C38
:100BC000D12DC14EF16FE18010A100C230E32004AD
:100BD00050254046706760B9839893FBA3DAB33D14
:100BE000C31CD37FE35EF3B1029012F322D23235FD
:100BF00042145277625672EAB5CBA5A89589856EE4
:100C0000F54FE52CD50DC5E234C324A0148104664C
:100C100074476424540544DBA7FAB79987B8975FF3
:100C2000E77EF71DC73CD7D326F2369106B016579C
:100C3000667676154634564CD96DC90EF92FE9C83B
:100C400099E9898AB9ABA94458654806782768C0EC
:100C500018E1088238A3287DCB5CDB3FEB1EFBF953
:100C60008BD89BBBAB9ABB754A545A376A167AF13C
:100C70000AD01AB32A923A2EFD0FED6CDD4DCDAAA3
:100C8000BD8BADE89DC98D267C076C645C454CA28C
:100C90003C832CE01CC10C1FEF3EFF5DCF7CDF9B33
:100CA000AFBABFD98FF89F176E367E554E745E93DC
:100CB0002EB23ED10EF01E7C3C3E5E2B3D3F2F5BA4
:100CC0005D3B2C2A225C004D383420582059205A94
:100CD00020450043616E6E6F7420656E74657220EE
:100CE0007375626469723A20004D3234004D3233BC
:100CF000202573006175746F25692E670065727217
:100D00006F722077726974696E6720746F206669EC
:100D10006C65004E6F74205344207072696E746964
:100D20006E67002F005344207072696E74696E679D
:100D3000206279746520002E0044656C6574696FCB
:100D40006E206661696C65642C2046696C653A208A
:100D50000046696C652064656C657465643A002EB4
:100D6000006F70656E206661696C65642C20466951
:100D70006C653A200057726974696E6720746F2041
:100D800066696C653A20002E006F70656E206661A2
:100D9000696C65642C2046696C653A20002E006FF2
:100DA00070656E206661696C65642C2046696C65AF
:100DB0003A200046696C652073656C6563746564F0
:100DC000002053697A653A200046696C65206F708F
:100DD000656E65643A20002E006F70656E20666156
:100DE000696C65642C2046696C653A20004E6F770B
:100DF0002066726573682066696C653A20004E6FE4
:100E00007720646F696E672066696C653A200022FE
:100E100020706F73002220706172656E743A220038
:100E2000535542524F5554494E452043414C4C2056
:100E30007461726765743A2200747279696E672012
:100E4000746F2063616C6C207375622D67636F64CF
:100E5000652066696C6573207769746820746F6FAC
:100E6000206D616E79206C6576656C732E204D4126
:100E700058206C6576656C2069733A005344206392
:100E8000617264206F6B006F70656E526F6F7420BB
:100E90006661696C656400766F6C756D652E696E50
:100EA0006974206661696C656400534420696E69E9
:100EB00074206661696C0020746F6F206C6F6E67C0
:100EC00020657874727573696F6E207072657665CF
:100ED0006E7465640020636F6C642065787472754D
:100EE00073696F6E2070726576656E746564004517
:100EF000303A20005A3A2000593A2000583A20004F
:100F00004D53312C4D53322050696E730A00656E7B
:100F10006473746F7073206869743A205A00205AA1
:100F20003A00656E6473746F7073206869743A2058
:100F3000590020593A00656E6473746F70732068AD
:100F400069743A20580020583A00656E6473746FD3
:100F50007073206869743A200024F4D43050C38E32
:100F600020C2A24017828B7011127A910D816CD928
:100F70000AA861E108C7586607615143061E4B5D28
:100F800005C145A7041A411104093D98037139317F
:100F9000034036DB0265339102D4305402802E1DAB
:100FA00002632CEE01752AC501B028A0011027812B
:100FB000018F2564012B244B01E0223401AC211F59
:100FC000018D200D01801FFC00841EED00971DDFA8
:100FD00000B81CD200E61BC600201BBC00641AB27D
:100FE00000B219A8000A19A0006A189900D1179137
:100FF0000040178B00B516840031167E00B31579BA
:10100000003A157300C7146F0058146A00EE136697
:10101000008813630025135E00C7125B006C125733
:101020000015125400C111510070114F0021114BD5
:1010300000D61049008D10470046104400021042AF
:1010400000C00F4000800F3E00420F3C00060F3BE7
:1010500000CB0E3800930E37005C0E3500270E349F
:1010600000F30D3200C10D3100900D3000600D2EE7
:1010700000320D2D00050D2C00D90C2B00AE0C29D3
:1010800000850C29005C0C2700350C27000E0C266F
:1010900000E80B2400C40B2400A00B23007D0B23CD
:1010A000005A0B2100390B2100180B2000F80A1FF1
:1010B00000D90A1E00BB0A1E009D0A1D00800A1DE1
:1010C00000630A1C00470A1B002C0A1B00110A1AA5
:1010D00000F7091A00DD091900C4091900AB091944
:1010E00000920917007B091800630917004C0916C4
:1010F0000036091600200916000A091500F5081522
:1011000000E0081400CC081400B8081400A4081467
:1011100000900813007D0812006B08130058081295
:1011200000460812003408110023081100120811AB
:101130000001081100F0071000E0071000D00710B0
:1011400000C0071000B0070F00A107100091070EA4
:101150000083070F0074070F0065070E0057070E86
:101160000049070E003B070D002E070E0020070D5B
:101170000013070D0006070D00F9060C00ED060D23
:1011800000E0060C00D4060C00C8060C00BC060CDF
:1011900000B0060C00A4060B0099060C008D060B8F
:1011A0000082060B0077060B006C060B0061060A36
:1011B0000057060B004C060A0042060A0038060AD1
:1011C000002E060A0024060A001A060A0010060964
:1011D0000007060A00FD050900F4050900EB0509F2
:1011E00000E2050900D9050900D0050900C7050975
:1011F00000BE050900B5050800AD050800A50509F4
:10120000009C050800940508008C0508008405086A
:10121000007C050800740508006C050700650508DA
:10122000005D050700560508004E05070047050745
:10123000004005080038050700310507002A0507AA
:1012400000230507001C050600160507000F05070B
:10125000000805060002050700FB040600F5040768
:1012600000EE040600E8040600E2040700DB0406C2
:1012700000D5040600CF040600C9040600C3040616
:1012800000BD040600B7040600B1040500AC040666
:1012900000A6040600A00405009B040600950405B2
:1012A00000900406008A04050085040500800406F9
:1012B000007A04050075040500700405006B040540
:1012C0000066040500610405005C04050057040580
:1012D00000520405004D04050048040500430405C0
:1012E000003E0404003A04050035040500300404FF
:1012F000002C04050027040400230405001E040438
:10130000001A04040016040500110404000D04046E
:1013100000090405000404040000040400FC0304A4
:1013200000F8030400F4030400F0030400EC0304D9
:1013300000E8030400E4030400E0030400DC030409
:1013400000D8030400D4030400D0030400CC030439
:1013500000C8030300C503030024F404D9201BC400
:101360000C5C0E9804C4095F0265077101F405F96D
:1013700000FB04B30048048700C10369005803550B
:101380000003034500BE023A008402310053022AE2
:10139000002902250004022000E4011C00C80119F4
:1013A00000AF0117009801140084011300710110AF
:1013B000006101100051010E0043010D0036010BC8
:1013C000002B010B0020010B00150109000C010985
:1013D0000003010800FB000800F3000800EB000711
:1013E00000E4000600DE000600D8000600D2000679
:1013F00000CC000500C7000500C2000500BD0004C8
:1014000000B9000400B5000400B1000400AD000400
:1014100000A9000400A5000300A20003009F00042F
:10142000009B000300980003009500020093000356
:1014300000900003008D0002008B00030088000272
:10144000008600020084000300810002007F000289
:10145000007D0002007B000200790002007700019D
:1014600000760002007400020072000100710002A8
:10147000006F0002006D0001006C0002006A0001B4
:1014800000690002006700010066000100650001BC
:1014900000640002006200010061000100600001C0
:1014A000005F0002005D0001005C0001005B0001C4
:1014B000005A0001005900010058000100570001C6
:1014C00000560001005500010054000100530000C7
:1014D00000530001005200010051000100500001C2
:1014E000004F0001004E0000004E0001004D0001C1
:1014F000004C0001004B0000004B0001004A0001BD
:1015000000490001004800000048000100470001B8
:1015100000460000004600010045000000450001B3
:1015200000440001004300000043000100420000AD
:1015300000420001004100000041000100400001A4
:10154000003F0000003F0001003E0000003E00019F
:10155000003D0000003D0001003C0000003C000098
:10156000003C0001003B0000003B0001003A00008D
:10157000003A000100390000003900010038000085
:10158000003800000038000100370000003700017B
:101590000036000000360000003600010035000073
:1015A0000035000000350001003400000034000068
:1015B000003400010033000000330000003300015C
:1015C0000032000000320000003200010031000053
:1015D0000031000000310001003000000030000048
:1015E00000300001002F0000002F0000002F00003D
:1015F000002F0001002E0000002E0000002E000130
:10160000002D0000002D0000002D0000002D000125
:10161000002C0000002C0000002C0000002C000119
:10162000002B0000002B0000002B0000002B00010D
:10163000002A0000002A0000002A0000002A000101
:1016400000290000002900000029000000290000F6
:1016500000290001002800000028000000280000E8
:1016600000280000002800010027000000270000DB
:1016700000270000002700000027000100260000CE
:1016800000260000002600000026000000260001C1
:1016900000250000002500000025000000250000B6
:1016A00000250000002500010024000000240000A7
:1016B000002400000024000000240001002300009A
:1016C000002300000023000000230000002300008E
:1016D000002300000023000100220000002200007F
:1016E0000022000000220000002200000022000171
:1016F0000021000000210000002100000021000066
:101700000021000000210000002100010020000055
:101710000020000000200000002000000020000049
:10172000002000000020000000200001001F000039
:10173000001F0000001F0000001F0000001F00002D
:10174000001F0000001F0001001E0000001E00001E
:10175000001E0000001E0000004572723A204D413C
:101760005854454D50204245440054656D70657293
:101770006174757265206865617465642062656472
:10178000207377697463686564206F66662E204DE8
:10179000415854454D50207472696767657265649D
:1017A000202121004572723A204D494E54454D503A
:1017B000003A204578747275646572207377697495
:1017C00063686564206F66662E204D494E54454D12
:1017D00050207472696767657265642021004572E4
:1017E000723A204D415854454D50003A2045787486
:1017F0007275646572207377697463686564206FBD
:1018000066662E204D415854454D502074726967CC
:101810006765726564202100202D20496E76616C19
:101820006964206578747275646572206E756D6286
:101830006572202100504944204175746F74756EA3
:10184000652066696E69736865642120507574202F
:10185000746865206C617374204B702C204B692078
:10186000616E64204B6420636F6E7374616E747379
:101870002066726F6D2061626F766520696E746F8D
:1018800020436F6E66696775726174696F6E2E684A
:1018900000504944204175746F74756E652066610F
:1018A000696C6564212074696D656F7574002040F2
:1018B0003A006F6B20543A006F6B20423A00504957
:1018C00044204175746F74756E65206661696C653E
:1018D00064212054656D7065726174757265207441
:1018E0006F6F206869676800204B643A2000204BC6
:1018F000693A2000204B703A200020436C617373DA
:1019000069632050494420002054753A2000204B40
:10191000753A2000206D61783A2000206D696E3A9A
:10192000200020643A200020626961733A20001090
:1019300000C90210012C014001220170011801B000
:10194000010E01F00104015002FA00B002F0003073
:1019500003E600D003DC009004D2007005C800A0AC
:1019600006BE000008B400B009AA00D00BA00060B9
:101970000E960060118C000015820020197800C0BE
:101980001D6E00A0226400B0275A00902C50000069
:10199000314600E0343C0010383200903A280060B4
:1019A0003C1E00A03D1400803E0A00203F00007055
:1019B000012C0190012701B0012201C0011D01F09D
:1019C0000118011002130130020E0160020901909A
:1019D000020401C002FF000003FA004003F500808A
:1019E00003F000D003EB002004E6007004E100E007
:1019F00004DC004005D700C005D2004006CD00D071
:101A000006C8008007C3003008BE00F008B900C057
:101A100009B400B00AAF00B00BAA00D00CA50000BA
:101A20000EA000500F9B00C01096005012910000B5
:101A3000148C00C0158700B0178200B0197D00D04B
:101A40001B7800001E730040206E0090226900F099
:101A500024640040275F0090295A00E02B550010B5
:101A60002E500020304B0010324600E033410090F1
:101A7000353C001037370070383200A0392D00B0E7
:101A80003A2800A03B2300603C1E00103D19009046
:101A90003D1400103E0F00703E0A00C03E050000DD
:101AA0003F00004B65696E65205344204B617274A2
:101AB0006521005344204B61727465206265726534
:101AC00069742100473120453430204631303000E0
:101AD0004731204537302046343030004D38330010
:101AE000473120452D38302046343030004D3833D2
:101AF000004732385A005A204B616C69627269653E
:101B000072656E0047312046383030302058313011
:101B1000332059393300352E204D697474650047E0
:101B20003120463830303020583235205931373066
:101B300000342E20583A32352020593A31373000BF
:101B40004731204638303030205831373020593135
:101B5000373000332E20583A31373020593A313758
:101B6000300047312046383030302058313730206F
:101B7000593500322E20583A31373020593A350045
:101B80004731204638303030205832352020593502
:101B900000312E20583A32352020593A350048611C
:101BA00075707400473238002D2D3A2D2D002D2DE3
:101BB0002D005344000120000120004D363030003C
:101BC00046696C616D656E747765636873656C00FA
:101BD000466C75737300466C7573730056656E744E
:101BE000696C61746F720056656E74696C61746FB4
:101BF0007200426574740042657474004E617365CE
:101C0000004E61736500476573636877696E646948
:101C1000676B65697400476573636877696E6469AB
:101C2000676B656974004861757074004865697A0E
:101C3000756E672041555300464C4558202D202095
:101C40003233302F35300050502020202D202032CC
:101C500035342F3130300048495053202D20203268
:101C600032302F3130300050455420202D2020328A
:101C700034302F393000504C4120202D202032317B
:101C8000302F36350041425320202D20203235356B
:101C90002F313030004861757074004D3834004D7C
:101CA000383420582059205A2045004D3234004DF8
:101CB000323320257300052E2E00486175707400A4
:101CC000580059005A004578747275646572003185
:101CD0006D6D202D3E20302E316D6D00302E316D1A
:101CE0006D202D3E20316D6D0045787472756465F0
:101CF00072005A2D416368736500592D4163687302
:101D00006500582D41636873650045696E7374659D
:101D10006C6C756E67656E005049442D43005049E8
:101D2000442D43005049442D44005049442D440063
:101D30005049442D49005049442D49005049442DF3
:101D400050005049442D500056656E74696C6174A2
:101D50006F720056656E74696C61746F72004265D3
:101D600074740042657474004E617365004E617353
:101D7000650045696E7374656C6C756E67656E00A1
:101D8000473238004175746F2D4E756C6C70756EEE
:101D90006B74004B616C696272696572656E004DAF
:101DA00038340041636873656E20415553004163C8
:101DB0006873656E2066616872656E0054656D704B
:101DC0006572617475720048617570740045696E62
:101DD0007374656C6C756E67656E0046696C616DD9
:101DE0002E2061757377657266656E0046696C6159
:101DF0006D2E206C6164656E00473020583231359D
:101E00002E3020593138302E302000417262656901
:101E10007473706F736974696F6E00416368736582
:101E20006E2066616872656E004B65696E65205351
:101E300044204B6172746521005344204B617274DD
:101E4000650041626272656368656E00576569741A
:101E5000657200506175736500566F726865697AC6
:101E6000656E004665696E65696E7374656C6C7548
:101E70006E6700496E666F0000000A0B02090C0DC8
:101E80000E0807030401000000000000000000002D
:101E90000000000000000000000000000000000042
:101EA00000000000121110000000000000000000FF
:101EB0000000000000000000000000000000000022
:101EC000000000000000000000000000000001020F
:101ED000102020080810204010204080020102013C
:101EE00008040201010204081020408080402010F4
:101EF000080402018004020180402010080402014D
:101F000008040201010204081020408001020408B4
:101F100010204080100804088010204004408010E9
:101F20002040048005050505070508080808020289
:101F300002020A0A08080404040401010101010163
:101F400001010303030303030303040707070C0C46
:101F50000C0C0C0C0C0C020202020606060606060D
:101F600006060B0B0B0B0B0B0B0B07070A0A0A0AD7
:101F70000A0A0505050404040808000020002300DF
:101F8000260029002C002F00320000010000030170
:101F90000601090100002200250028002B002E0068
:101FA0003100340002010000050108010B010000AE
:101FB0002100240027002A002D00300033000101F9
:101FC0000000040107010A01024E414E494E4954E6
:101FD00059494E46CDCCCC3D0AD7233C17B7D13812
:101FE00077CC2B329595E6241FB14F0A0000204193
:101FF0000000C84200401C4620BCBE4CCA1B0E5A02
:10200000AEC59D745E42DFA3624211241FBECFEFB6
:10201000D1E2DEBFCDBF00E00CBF15E0A0E0B2E032
:10202000E0E2FBE701E00BBF02C007900D92A43F86
:10203000B107D9F723E1A4EFB5E001C01D92A13F9C
:10204000B207E1F710E2C8E0D0E200E006C0229754
:102050000109FE010BBF0E9434B7C430D10780E0F4
:102060000807A9F70E9421B20C947FBD0C940000D0
:10207000EF92FF920F931F93CF93DF931F92CDB7F1
:10208000DEB78C017B01460FF70161917F01F801FA
:102090008081918149830E94C8BCF801808191812F
:1020A00001969183808349814E11EECF0F90DF918D
:1020B000CF911F910F91FF90EF900895EF92FF92B3
:1020C0000F931F93CF93DF931F92CDB7DEB78C0191
:1020D0007B01460FF8018081918149830E94C0BC39
:1020E000F70181937F01F8018081918101969183AD
:1020F000808349814E11EECF0F90DF91CF911F91D8
:102100000F91FF90EF9008950F931F93CF93DF935C
:10211000CDB7DEB72C970FB6F894DEBF0FBECDBF9C
:1021200080E390E3A0E3B0E08D839E83AF83B88724
:1021300004E610E01C870B8744E0BE016B5F7F4F15
:10214000CE010B9695DF40E16CE672E1CE010B9675
:102150008FDF40E16CE772E1CE010B9689DF40E151
:102160006CE572E1CE010B9683DF44E064E572E139
:10217000CE010B967DDF44E060E572E1CE010B9667
:1021800077DF44E068E572E1CE010B9671DF44E051
:1021900060E472E1CE010B966BDF44E06CE872E123
:1021A000CE010B9665DF44E06CE472E1CE010B9644
:1021B0005FDF44E068E472E1CE010B9659DF44E052
:1021C00064E472E1CE010B9653DF4CE063E778E004
:1021D000CE010B964DDF42E065EB73E1CE010B962D
:1021E00047DF42E063EB73E1CE010B9641DF42E053
:1021F00061EB73E1CE010B963BDF42E06FEA73E1E6
:10220000CE010B9635DF42E06DEA73E1CE010B960D
:102210002FDF42E06BEA73E1CE010B9629DF44E049
:1022200060E678E0CE010B9623DF44E06AE772E0D7
:10223000CE010B961DDF44E066E772E0CE010B96FF
:1022400017DF44E062E772E0CE010B9611DF80E217
:1022500090E09A87898742E0BE01675F7F4FCE0199
:102260000B9606DF41E06CE578E0CE010B9600DFCF
:1022700044E06DE172E0CE010B96FADE44E065E1E8
:1022800072E0CE010B96F4DE44E067E578E0CE0123
:102290000B96EEDE44E063E578E0CE010B96E8DED7
:1022A00044E061E172E0CE010B96E2DE41E06FE8CE
:1022B00078E0CE010B96DCDE44E061E372E0CE0113
:1022C0000B96D6DE86E591E3A3E3B0E089839A839B
:1022D000AB83BC831C870B8744E0BE016F5F7F4FDD
:1022E000CE010B96C5DEEAEAFAE08491882341F03C
:1022F0009091C00095FFFCCF8093C6003196F5CF3A
:10230000ECEAF4E08491882341F09091C00095FFBD
:10231000FCCF8093C6003196F5CF8091C00085FF39
:10232000FCCF8AE08093C6002C960FB6F894DEBFEF
:102330000FBECDBFDF91CF911F910F910895CF9325
:10234000DF93CAEADAE0FE018491882341F090919C
:10235000C00095FFFCCF8093C6003196F5CFECE925
:10236000F4E08491882341F09091C00095FFFCCF68
:102370008093C6003196F5CF8091C00085FFFCCFD9
:102380008AE08093C600FE018491EAEAFAE088239D
:1023900049F09091C00095FFFCCF8093C600319624
:1023A0008491F5CF40916C1250916D1260916E1234
:1023B00070916F1284E994E00E94161C4091701293
:1023C00050917112609172127091731281E994E0D0
:1023D0000E94161C409174125091751260917612F1
:1023E000709177128EE894E00E94161C409178124A
:1023F0005091791260917A1270917B128BE894E07F
:102400000E94161C8091C00085FFFCCF8AE080935B
:10241000C600FE018491EAEAFAE0882349F090912F
:10242000C00095FFFCCF8093C60031968491F5CF14
:10243000E1E7F4E08491882341F09091C00095FF9A
:10244000FCCF8093C6003196F5CF8091C00085FF08
:10245000FCCF8AE08093C600FE018491EAEAFAE0AC
:10246000882349F09091C00095FFFCCF8093C6006F
:1024700031968491F5CF40917C1250917D126091FC
:102480007E1270917F1288E694E00E94161C4091A3
:10249000801250918112609182127091831285E6B0
:1024A00094E00E94161C4091841250918512609114
:1024B00086127091871282E694E00E94161C409169
:1024C00088125091891260918A1270918B128FE557
:1024D00094E00E94161C8091C00085FFFCCF8AE02A
:1024E0008093C600FE018491EAEAFAE0882349F06D
:1024F0009091C00095FFFCCF8093C60031968491E7
:10250000F5CFE1E4F4E08491882341F09091C0009C
:1025100095FFFCCF8093C6003196F5CF8091C00027
:1025200085FFFCCF8AE08093C600FE018491EAEA31
:10253000FAE0882349F09091C00095FFFCCF80938A
:10254000C60031968491F5CF40915C1250915D1296
:1025500060915E1270915F1288E394E00E94271CE4
:1025600040916012509161126091621270916312F9
:1025700085E394E00E94271C4091641250916512FB
:10258000609166127091671282E394E00E94271CAA
:10259000409168125091691260916A1270916B12A9
:1025A0008FE294E00E94271C8091C00085FFFCCF41
:1025B0008AE08093C600FE018491EAEAFAE088236B
:1025C00049F09091C00095FFFCCF8093C6003196F2
:1025D0008491F5CFEAEFF3E08491882341F0909164
:1025E000C00095FFFCCF8093C6003196F5CF809157
:1025F000C00085FFFCCF8AE08093C600FE01849175
:10260000EAEAFAE0882349F09091C00095FFFCCFF8
:102610008093C60031968491F5CF40915412509129
:102620005512609156127091571281EF93E00E94FB
:10263000161C40915012509151126091521270919B
:1026400053128EEE93E00E94161C8091C00085FF0D
:10265000FCCF8AE08093C600FE018491EAEAFAE0AA
:10266000882349F09091C00095FFFCCF8093C6006D
:1026700031968491F5CFEBE3F3E08491882341F028
:102680009091C00095FFFCCF8093C6003196F5CFA6
:102690008091C00085FFFCCF8AE08093C600FE01D8
:1026A0008491EAEAFAE0882349F09091C00095FF0E
:1026B000FCCF8093C60031968491F5CF409158129B
:1026C0005091591260915A1270915B1282E393E01B
:1026D0000E94161C4091401250914112609142128A
:1026E000709143128FE293E00E94161C40918C126D
:1026F00050918D1260918E1270918F128CE293E046
:102700000E94271C40914C1250914D1260914E1224
:1027100070914F1289E293E00E94161C409148127A
:102720005091491260914A1270914B1286E293E0E7
:102730000E94161C4091441250914512609146121D
:102740007091471283E293E00E94161C8091C000B2
:1027500085FFFCCF8AE08093C600FE018491EAEAFF
:10276000FAE0882349F09091C00095FFFCCF809358
:10277000C60031968491F5CFE1E1F3E0849188239E
:1027800041F09091C00095FFFCCF8093C600319638
:10279000F5CF8091C00085FFFCCF8AE08093C60012
:1027A000FE018491EAEAFAE0882349F09091C000A2
:1027B00095FFFCCF8093C60031968491F5CF409170
:1027C000730850917408609175087091760888E0DC
:1027D00093E00E94161C4091770850917808609110
:1027E000790870917A0885E093E00E94161C409168
:1027F0007B0850917C0860917D0870917E0882E092
:1028000093E00E94161C8091C00085FFFCCF8AE0F7
:102810008093C600FE018491EAEAFAE0882349F039
:102820009091C00095FFFCCF8093C60031968491B3
:10283000F5CFE4EFF2E08491882341F09091C0005D
:1028400095FFFCCF8093C6003196F5CF8091C000F4
:1028500085FFFCCF8AE08093C600FE018491EAEAFE
:10286000FAE0882349F09091C00095FFFCCF809357
:10287000C60031968491F5CF40917A0250917B0247
:1028800060917C0270917D028AEE92E0CFD76091D8
:1028900076027091770280917802909179020E947D
:1028A0000D88AB01BC0187EE92E0C0D76091720247
:1028B0007091730280917402909175020E94198840
:1028C000AB01BC0184EE92E0B1D78091C00085FFDE
:1028D000FCCF8AE08093C600FE018491EAEAFAE028
:1028E000882349F09091C00095FFFCCF8093C600EB
:1028F00031968491F5CFE0EBF2E08491882341F0AA
:102900009091C00095FFFCCF8093C6003196F5CF23
:102910008091C00085FFFCCF8AE08093C600FE0155
:102920008491EAEAFAE0882349F09091C00095FF8B
:10293000FCCF8093C60031968491F5CF40911D0263
:1029400050911E0260911F027091200286EA92E06F
:102950006DD720E030E040E752E4609115027091BD
:10296000160280911702909118020E94DEB5AB0109
:10297000BC0183EA92E05AD7409157085091580819
:102980006091590870915A0880EA92E04FD780917F
:10299000C00085FFFCCF8AE08093C600FE018491D1
:1029A000EAEAFAE0882349F09091C00095FFFCCF55
:1029B0008093C60031968491F5CFE4E7F2E08491EC
:1029C000882341F09091C00095FFFCCF8093C60012
:1029D0003196F5CF8091C00085FFFCCF8AE08093CF
:1029E000C600FE018491EAEAFAE0882349F090915A
:1029F000C00095FFFCCF8093C60031968491F5CF3F
:102A000040915308509154086091550870915608B0
:102A10008AE692E00BD720E030E040E752E4609194
:102A200011027091120280911302909114020E947F
:102A3000DEB5AB01BC0187E692E0F8D68091C0001C
:102A400085FFFCCF8AE08093C600FE018491EAEA0C
:102A5000FAE0882349F09091C00095FFFCCF809365
:102A6000C60031968491F5CFEDE0F2E084918823A1
:102A700041F09091C00095FFFCCF8093C600319645
:102A8000F5CF8091C00085FFFCCF8AE08093C6001F
:102A9000FE018491EAEAFAE0882349F09091C000AF
:102AA00095FFFCCF8093C60031968491F5CF40917D
:102AB0005C0850E060E070E083E092E0C8D680916E
:102AC000C00085FFFCCF8AE08093C600FE018491A0
:102AD000EAEAFAE0882349F09091C00095FFFCCF24
:102AE0008093C60031968491F5CF80918F0888231A
:102AF00099F1E0EFF1E08491882341F09091C000DA
:102B000095FFFCCF8093C6003196F5CF8091C00031
:102B100085FFFCCF8AE08093C600FE01C491EAEAFB
:102B2000FAE0CC2349F08091C00085FFFCCFC09330
:102B3000C6003196C491F5CF4091310250913202D6
:102B4000609133027091340286EE91E06FD68091ED
:102B5000C00085FFFCCF11C0EAECF1E0849188232E
:102B600041F09091C00095FFFCCF8093C600319654
:102B7000F5CF8091C00085FFFCCF8AE08093C6002E
:102B8000DF91CF910895AF92BF92CF92DF92EF92F3
:102B9000FF920F931F93CF93DF93CDB7DEB7E097EC
:102BA0000FB6F894DEBF0FBECDBF80E1E7EAF2E0DA
:102BB000DE01919601900D928A95E1F780E1E7EBB5
:102BC000F2E0DE01519601900D928A95E1F780E1E5
:102BD000E7ECF2E0DE01119601900D928A95E1F7A3
:102BE0006E0181E2C80ED11C8CE6E82E82E1F82E3F
:102BF0008E010F5E1F4F6CE772E1AE014F5F5F4FBA
:102C00009CE5A92E92E1B92E20E030E0F6018191F9
:102C10009191A191B1916F01F70181939193A1934A
:102C2000B1937F01F80181919191A191B1918F01AF
:102C3000FB0181939193A193B193BF01FA0181911B
:102C40009191A191B191AF01F50181939193A193DC
:102C5000B1935F012F5F3F4F24303105B9F60E94D9
:102C60006F7080E090E8ABE3B5E4809354129093EA
:102C70005512A0935612B09357128093501290930E
:102C80005112A0935212B0935312109258121092F4
:102C9000591210925A1210925B1280E29EE4A0E048
:102CA000B0E080938C1290938D12A0938E12B0930B
:102CB0008F121092401210924112109242121092F2
:102CC000431280E090E0A0EAB1E480934C1290932C
:102CD0004D12A0934E12B0934F128DEC9CECACECC5
:102CE000BEE38093481290934912A0934A12B09386
:102CF0004B1280E090E0A0EAB0E4809344129093FD
:102D00004512A0934612B093471210927B0810927E
:102D10007C0810927D0810927E081092770810921D
:102D200078081092790810927A081092730810921D
:102D30007408109275081092760882ED90E09093D6
:102D4000B6138093B51381E490E09093B41380930D
:102D5000B3131092B2131092B1138FEF90E09093CF
:102D6000B0138093AF1384E690E09093AE138093FA
:102D7000AD131092AC131092AB1380E090E0A4E876
:102D8000B2E480937A0290937B02A0937C02B0938A
:102D90007D0266EF78E288E391E40E940788609301
:102DA00076027093770280937802909379026FE8AD
:102DB00072E48DEB92E40E94138860937202709328
:102DC000730280937402909375020E94537D80E099
:102DD00090E0A0E8BFE380936E0290936F02A0930F
:102DE0007002B093710210925C0880E090E0A0E461
:102DF000B0E480931D0290931E02A0931F02B09333
:102E0000200240E050E064E372E4409315025093E6
:102E100016026093170270931802109257081092CE
:102E200058081092590810925A081092530810929C
:102E30005408109255081092560840E050E060E0A7
:102E400071E4409311025093120260931302709345
:102E5000140210928F088093310290933202A09353
:102E60003302B09334020E941429EAEAFAE0849112
:102E7000882341F09091C00095FFFCCF8093C6005D
:102E80003196F5CFEEE8F1E08491882341F09091FE
:102E9000C00095FFFCCF8093C6003196F5CF80919E
:102EA000C00085FFFCCF8AE08093C600E0960FB695
:102EB000F894DEBF0FBECDBFDF91CF911F910F9170
:102EC000FF90EF90DF90CF90BF90AF900895CF9399
:102ED000DF93CDB7DEB72C970FB6F894DEBF0FBEE9
:102EE000CDBF84E690E09C878B8786E591E3A3E3E2
:102EF000B0E089839A83AB83BC8344E0BE016B5FFF
:102F00007F4FCE010B96DAD843E050E0BE016B5FF5
:102F10007F4FCE0101960E9487BA892B09F0E3C04A
:102F200040E16CE672E1CE010B96C8D840E16CE757
:102F300072E1CE010B96C2D840E16CE572E1CE01A0
:102F40000B96BCD80E946F7044E064E572E1CE013C
:102F50000B96B4D844E060E572E1CE010B96AED892
:102F600044E068E572E1CE010B96A8D844E060E445
:102F700072E1CE010B96A2D844E06CE872E1CE017A
:102F80000B969CD844E06CE472E1CE010B9696D887
:102F900044E068E472E1CE010B9690D844E064E42A
:102FA00072E1CE010B968AD84CE063E778E0CE015F
:102FB0000B9684D842E065EB73E1CE010B967ED888
:102FC00042E063EB73E1CE010B9678D842E061EB0F
:102FD00073E1CE010B9672D842E06FEA73E1CE0145
:102FE0000B966CD842E06DEA73E1CE010B9666D881
:102FF00042E06BEA73E1CE010B9660D844E060E6F4
:1030000078E0CE010B965AD844E06AE772E0CE0130
:103010000B9654D844E066E772E0CE010B964ED88A
:1030200044E062E772E0CE010B9648D842E0BE0170
:10303000675F7F4FCE010B9641D841E06CE578E0A9
:10304000CE010B963BD844E06DE172E0CE010B96C9
:1030500035D844E065E172E0CE010B962FD844E00C
:1030600067E578E0CE010B9629D844E063E578E087
:10307000CE010B9623D844E061E172E0CE010B96BD
:103080001DD841E06FE878E0CE010B9617D844E0F8
:1030900061E372E0CE010B9611D80E9414290E94C0
:1030A000537DEAEAFAE08491882341F09091C000D0
:1030B00095FFFCCF8093C6003196F5CFE0EBF1E0B1
:1030C0008491882341F09091C00095FFFCCF8093BC
:1030D000C6003196F5CF8091C00085FFFCCF8AE015
:1030E0008093C60001C04FDD2AD92C960FB6F89404
:1030F000DEBF0FBECDBFDF91CF9108951F920F921B
:103100000FB60F9211240BB60F922F933F934F934C
:103110005F936F938F939F93EF93FF936091C6009C
:103120002091750630917606C90101968F7799270F
:1031300040917706509178068417950741F0F90180
:10314000EB50FA4F60839093760680937506FF915B
:10315000EF919F918F916F915F914F913F912F913F
:103160000F900BBE0F900FBE0F901F9018959A01F5
:10317000AB01211581EE38074105510549F182E087
:103180008093C00060E079E08DE390E00E94FCB69F
:103190002150310941095109CA01B90122E030E049
:1031A00040E050E00E94FCB63093C5002093C4007C
:1031B0008091C10080618093C1008091C1008860CE
:1031C0008093C1008091C10080688093C100089500
:1031D0001092C00020E130E0E7CF209177063091D7
:1031E000780680917506909176068217930771F0A4
:1031F000F901EB50FA4F80812F5F3F4F2F77332734
:10320000309378062093770690E008958FEF9FEF34
:103210000895809177069091780690937606809332
:10322000750608954F925F926F927F928F929F9250
:10323000AF92BF92CF92DF92EF92FF920F931F93C4
:10324000CF93DF93CDB7DEB7A0970FB6F894DEBF6C
:103250000FBECDBF5C014115510561057105E9F453
:1032600020E030E040E350E060E070E0A0960FB670
:10327000F894DEBF0FBECDBFDF91CF911F910F91AC
:10328000FF90EF90DF90CF90BF90AF909F908F9086
:103290007F906F905F904F905BC08E010F5F1F4FCC
:1032A000C12CD12C76014801422E512C612C712C5D
:1032B0008FEFC81AD80AE80AF80ACB01BA01A301AD
:1032C00092010E94DAB6CA01F80161938F01A90147
:1032D000BC01411551056105710551F7F1E0CF1AA7
:1032E000D108E108F108F401EC0DFD1D80818A3060
:1032F00010F440E301C047E3480F552747FD5095C0
:10330000652F752F20E030E0C50122D081E0C81A7A
:10331000D108E108F108EFEFCE16DE06EE06FE0654
:1033200011F7A0960FB6F894DEBF0FBECDBFDF91A8
:10333000CF911F910F91FF90EF90DF90CF90BF90B2
:10334000AF909F908F907F906F905F904F90089577
:103350002115310539F48091C00085FFFCCF4093E1
:10336000C60008952A30310509F41CC05BCFCF9305
:10337000DF93EC0120E030E04DE050E060E070E0F1
:10338000E7DF20E030E04AE050E060E070E0CE01AE
:10339000DF91CF91DDCF9A01AB01662757FD609594
:1033A000762FD6CFCF92DF92EF92FF92CF93DF931B
:1033B000EC016A017B0177FF0FC020E030E04DE2B5
:1033C00050E060E070E0C4DFF094E094D094C094EA
:1033D000C11CD11CE11CF11C2AE0B701A601CE01E1
:1033E000DF91CF91FF90EF90DF90CF901BCF211511
:1033F000310539F48091C00085FFFCCF4093C600B1
:10340000089510CF9A01462F50E060E070E0EFCFB2
:10341000CF93DF93EC019A01AB0160E070E0E7DF4E
:10342000CE01DF91CF91A3CF8F929F92AF92BF92A7
:10343000CF92DF92EF92FF921F93CF93DF93EC0135
:103440006A017B01122F20E030E0A901C701B6011B
:103450000E9409B387FF0CC020E030E04DE250E04D
:1034600060E070E0CE0174DFF7FAF094F7F8F094C2
:10347000B12C60E070E080E09FE3B11641F020E005
:1034800030E040E251E40E9410B3B394F6CF9B01C8
:10349000AC01C701B6010E9430B26B017C010E94F1
:1034A0007DB34B015C010E94A9B39B01AC01C70134
:1034B000B6010E942FB26B017C012AE0B501A40184
:1034C000CE01B0DE112361F0EBE8F5E081918823B5
:1034D00039F09091C00095FFFCCF8093C600F6CFE5
:1034E000112319F120E030E040E251E4C701B601B8
:1034F0000E94DEB56B017C010E9478B34B01AA24C7
:1035000097FCA094BA2CB501A401CE014BDFC501F4
:10351000B4010E94ABB39B01AC01C701B6010E948C
:103520002FB26B017C011150DBCFDF91CF911F9146
:10353000FF90EF90DF90CF90BF90AF909F908F90D3
:10354000089572CFFC0165917591859194910895CC
:103550002F923F924F925F926F927F928F929F92A3
:10356000AF92BF92CF92DF92EF92FF920F931F9391
:10357000CF93DF9300D000D0CDB7DEB71C01FC01A4
:10358000E559F54F14919C01220F331F220F331F71
:103590003E832D832158374F4901F9011082118252
:1035A000128213822BE838E047E858E063E878E0BD
:1035B0008FE798E00E949D6F8D819E818658954F80
:1035C000C1DF6B017C01612F772767FD7095872F25
:1035D000972F0E94ABB32B013C012D813E81225CD1
:1035E000374F590120E030E040EC5FE3C701B601FE
:1035F0000E94DEB5A30192010E94DEB5F501608351
:103600007183828393832D813E81235C3D4F3C8374
:103610002B83F901608171818281938160930B0218
:1036200070930C0280930D0290930E0220E030E024
:1036300040E752E40E9410B32FE5C22E28E0D22EBC
:103640007B018C012AE438E046E458E062E478E04B
:103650008EE398E00E94D7650E94A878F40110825A
:103660001182128213822BE838E047E858E063E8C1
:1036700078E08FE798E00E949D6F2D813E8122596E
:10368000354F3A832983C9015DDF9058A301920128
:103690000E94DEB5F501608371838283938320E00D
:1036A00030E040E752E460910B0270910C0280918F
:1036B0000D0290910E020E9410B37B018C012AE44E
:1036C00038E046E458E062E478E08EE398E00E9457
:1036D000D7650E94A87889819A8134DF9B01AC016B
:1036E0000E9430B2A30192010E94DEB5F501608311
:1036F00071838283938320E030E040E05FE3EB81DD
:10370000FC8160817181828193810E94DEB560932A
:103710000B0270930C0280930D0290930E0220E036
:1037200030E040E752E40E9410B37B018C012AE4B0
:1037300038E046E458E062E478E08EE398E00E94E6
:10374000D7650E94A8788D819E818A57954FFADEB1
:103750000D811E810D58174FF80120813181428162
:1037600053810E9430B2F40160837183828393831A
:103770008D819E818256954FE5DE2D813E812959AE
:10378000374F7901F80120813181428153810E94B4
:1037900030B2F70160837183828393838D819E8130
:1037A0008E56954FCFDE2D813E812F5D3D4F7901A5
:1037B000F80120813181428153810E9430B2F701AA
:1037C0006083718382839383F40180819181A281DC
:1037D000B381F50180839183A283B38310920B029E
:1037E00010920C0210920D0210920E020E94527161
:1037F000F101EC59F74F81E0808326960FB6F894DB
:10380000DEBF0FBECDBFDF91CF911F910F91FF9013
:10381000EF90DF90CF90BF90AF909F908F907F9070
:103820006F905F904F903F902F900895FC012491EE
:10383000222341F03091C00035FFFCCF2093C60019
:103840000196F4CF22E030E084EF95E07ACEFC01DF
:103850002491222341F03091C00035FFFCCF20930A
:10386000C6000196F4CF2AE030E084EF95E0BFCDAA
:103870002091930630919406243031050CF06AC0F3
:10388000409195065091960660E6649F9001659F71
:10389000300D1124BC01C9018356994F0E9480BA92
:1038A000EAEAFAE08491882341F09091C00095FF04
:1038B000FCCF8093C6003196F5CFE0E6FAE0849124
:1038C000882341F09091C00095FFFCCF8093C60003
:1038D0003196F5CF809195069091960620E6289F27
:1038E000F001299FF00D1124E356F94F81918823AF
:1038F00039F09091C00095FFFCCF8093C600F6CFC1
:10390000EEE5FAE08491882341F09091C00095FFA4
:10391000FCCF8093C6003196F5CF8091C00085FF23
:10392000FCCF8AE08093C600809195069091960620
:10393000019664E070E00E94C7B69093960680936B
:103940009506809193069091940601969093940623
:103950008093930608952091930630919406243025
:1039600031050CF06AC0409195065091960660E6CC
:10397000649F9001659F300D1124BC01C9018356DD
:10398000994F0E94F0B9EAEAFAE08491882341F065
:103990009091C00095FFFCCF8093C6003196F5CF83
:1039A000E3E5FAE08491882341F09091C00095FF0F
:1039B000FCCF8093C6003196F5CF8091950690910B
:1039C000960620E6289FF001299FF00D1124E3566A
:1039D000F94F8191882339F09091C00095FFFCCF79
:1039E0008093C600F6CFE1E5FAE08491882341F0A8
:1039F0009091C00095FFFCCF8093C6003196F5CF23
:103A00008091C00085FFFCCF8AE08093C600809142
:103A1000950690919606019664E070E00E94C7B604
:103A200090939606809395068091930690919406C4
:103A30000196909394068093930608959B9AA39879
:103A40000895FCDF40E052EC61E070E084EF95E027
:103A50008EDBEBE4FAE08491882341F09091C00082
:103A600095FFFCCF8093C6003196F5CF8091C000C2
:103A700085FFFCCF8AE08093C6008AEA9AE0FC01C9
:103A80002491222341F03091C00035FFFCCF2093D8
:103A9000C6003196F5CF24B720FF14C0E3E4FAE066
:103AA0003491332341F04091C00045FFFCCF309367
:103AB000C6003196F5CF3091C00035FFFCCF3AE01B
:103AC0003093C60021FF14C0E3E3FAE034913323BE
:103AD00041F04091C00045FFFCCF3093C6003196C5
:103AE000F5CF3091C00035FFFCCF3AE03093C600EF
:103AF00022FF14C0E2E2FAE03491332341F0409116
:103B0000C00045FFFCCF3093C6003196F5CF309111
:103B1000C00035FFFCCF3AE03093C60023FF14C04D
:103B2000E2E1FAE03491332341F04091C00045FFD7
:103B3000FCCF3093C6003196F5CF3091C00035FFF1
:103B4000FCCF3AE03093C60025FF14C0E2E0FAE073
:103B50002491222341F03091C00035FFFCCF209307
:103B6000C6003196F5CF2091C00025FFFCCF2AE09A
:103B70002093C60014BEEBEFF9E02491222341F01C
:103B80003091C00035FFFCCF2093C6003196F5CFB1
:103B9000E5EFF9E02491222341F03091C00035FF98
:103BA000FCCF2093C6003196F5CF2091C00025FFB1
:103BB000FCCF2AE02093C600FC012491EAEAFAE057
:103BC000222349F03091C00035FFFCCF2093C6007E
:103BD00031962491F5CFE5EEF9E02491222341F0CE
:103BE0003091C00035FFFCCF2093C6003196F5CF51
:103BF000E0EDF9E02491222341F03091C00035FF3F
:103C0000FCCF2093C6003196F5CFE4ECF9E0249187
:103C1000222341F03091C00035FFFCCF2093C60035
:103C20003196F5CFEDEAF9E02491222341F030916D
:103C3000C00035FFFCCF2093C6003196F5CF209110
:103C4000C00025FFFCCF2AE02093C600E2EAF9E09D
:103C50002491222341F03091C00035FFFCCF209306
:103C6000C6003196F5CFE6E9F9E02491222341F030
:103C70003091C00035FFFCCF2093C6003196F5CFC0
:103C80002091C00025FFFCCF2AE02093C600FC0154
:103C90008491EAEAFAE0882349F09091C00095FF08
:103CA000FCCF8093C60031968491F5CFE7E8F9E028
:103CB0008491882341F09091C00095FFFCCF8093C0
:103CC000C6003196F5CF0E948F4D4AE050E0BC010E
:103CD00084EF95E060DBE0E7F9E08491882341F030
:103CE0009091C00095FFFCCF8093C6003196F5CF30
:103CF0004AE050E060ED74E084EF95E04CDB8091A9
:103D0000C00085FFFCCF8AE08093C6001092990620
:103D100010929A0610929B0610929C06D8D80E9488
:103D2000D4800E944C650E94B07A0E94269AFFEFD0
:103D300023ED80E3F15020408040E1F700C0000017
:103D4000089580918D0690918E0660E070E0019656
:103D50000C9447B780918D0690918E064AE050E012
:103D600060E070E001960C94AFB8682F772767FD8C
:103D70007095209197063091980640E6429FC001C9
:103D8000439F900D11248356994F0E946CBA9093D3
:103D90008E0680938D0621E0892B09F420E0822F86
:103DA00008950E94D8AB6093890670938A06809329
:103DB0008B0690938C0608950E94D8AB6093890679
:103DC00070938A0680938B0690938C06E0919706F9
:103DD000F0919806E756F94F8081811114C0E4E60E
:103DE000F5E08491882341F09091C00095FFFCCFCD
:103DF0008093C6003196F5CF8091C00085FFFCCF3F
:103E00008AE08093C600089584EF95E002DAE7E641
:103E1000F5E08491882341F09091C00095FFFCCF9C
:103E20008093C6003196F5CF409122085091230827
:103E300060912408709125084F5F5F4F6F4F7F4F4F
:103E40002AE030E084EF95E083DA8091C00085FFBE
:103E5000FCCF8AE08093C600AFCF8F929F92AF9243
:103E6000BF92CF92DF92EF92FF920F931F93CF9367
:103E7000DF933BE5E32E34E0F32E0FE718E0CEE3CB
:103E8000D8E044E9C42E48E0D42EF70181917F01A7
:103E90006CDF882311F155DF4B015C01F601808155
:103EA000811103C060911D0801C061E070E080E0F5
:103EB00090E00E94ABB3F8012081318142815381AF
:103EC0000E94DEB59B01AC01C501B4010E9430B275
:103ED000688379838A839B8309C0F80180819181FB
:103EE000A281B38188839983AA83BB830C5F1F4F10
:103EF0002496FFEFCF1ADF0A8FE5E81684E0F80674
:103F000021F686E432DF8823D1F01BDF6B017C01D0
:103F100060932E0870932F08809330089093310897
:103F200020E030E0A9010E940CB5181644F4C092BC
:103F30000B02D0920C02E0920D02F0920E02DF9181
:103F4000CF911F910F91FF90EF90DF90CF90BF9096
:103F5000AF909F908F90089580DF89E406DF8823DB
:103F600051F0EFDE60933208709333088093340889
:103F70009093350808C010923208109233081092BE
:103F80003408109235088AE4F0DE882351F0D9DE37
:103F900060933608709337088093380890933908F7
:103FA000089510923608109237081092380810922F
:103FB00039080895CF92DF92EF92FF92CF93DF936B
:103FC000EC01C0906708D0906808E0906908F09014
:103FD0006A08A7019601688179818A819B810E9484
:103FE00009B387FF04C0C882D982EA82FB82C090ED
:103FF0006B08D0906C08E0906D08F0906E08A701F7
:1040000096016C817D818E819F810E9409B387FF1B
:1040100004C0CC82DD82EE82FF8220E030E0A90184
:1040200060916F087091700880917108909172088A
:104030000E9430B26B017C019B01AC0168857985DF
:104040008A859B850E9409B387FF04C0C886D986EC
:10405000EA86FB86C0902102D0902202E0902302E3
:10406000F0902402A7019601688179818A819B8161
:104070000E940CB5181624F4C882D982EA82FB8209
:10408000C0902502D0902602E0902702F0902802EE
:10409000A70196016C817D818E819F810E940CB564
:1040A000181624F4CC82DD82EE82FF82C0902902B1
:1040B000D0902A02E0902B02F0902C02A7019601EA
:1040C000688579858A859B850E940CB5181624F42D
:1040D000C886D986EA86FB86DF91CF91FF90EF9064
:1040E000DF90CF900895CF92DF92EF92FF920F93DF
:1040F0001F938EE398E05EDF0E94D8AB6093890641
:1041000070938A0680938B0690938C0620913E08CC
:1041100030913F08409140085091410860917F08DC
:104120007091800880918108909182080E9409B363
:10413000811179C020914208309143084091440890
:10414000509145086091830870918408809185089A
:10415000909186080E9409B3811165C020E030E08B
:1041600040E752E460910B0270910C0280910D02C5
:1041700090910E020E9410B35FE5C52E58E0D52E37
:104180007B018C012AE438E046E458E062E478E000
:104190008EE398E00E94D76580913E0890913F0899
:1041A000A0914008B091410880937F0890938008C7
:1041B000A0938108B09382088091420890914308AF
:1041C000A0914408B0914508809383089093840897
:1041D000A0938508B093860880914608909147087F
:1041E000A0914808B0914908809387089093880867
:1041F000A0938908B0938A0880914A0890914B084F
:10420000A0914C08B0914D0880938B0890938C0836
:10421000A0938D08B0938E081F910F91FF90EF909F
:10422000DF90CF90089560913B0270913C02882707
:1042300077FD8095982F0E94ABB320910B023091AF
:104240000C0240910D0250910E020E94DEB520E05A
:1042500030E040E752E40E9410B320E030E048EC48
:1042600052E488CFCF92DF92EF92FF92CF93C62F86
:10427000E0915F08F0E0882309F4C2C0DF01A55A8D
:10428000B74F8C91811196C180917F0890918008E1
:10429000A0918108B091820880933E0890933F08D6
:1042A000A0934008B09341088091830890918408BE
:1042B000A0918508B09186088093420890934308A6
:1042C000A0934408B093450880918708909188088E
:1042D000A0918908B0918A08809346089093470876
:1042E000A0934808B0934908C0908B08D0908C08E0
:1042F000E0908D08F0908E08C0924A08D0924B084A
:10430000E0924C08F0924D08EE0FFF1FEE0FFF1FDA
:10431000E35DFD4F2081318142815381CC2349F0FF
:104320006091190270911A0280911B0290911C02F7
:1043300008C060911D0270911E0280911F02909131
:1043400020020E9410B39B01AC01C701B6010E947C
:1043500030B260938B0870938C0880938D08909393
:104360008E088BE898E00E944270C0900B02D090BB
:104370000C02E0900D02F0900E0220E030E040E7E9
:1043800052E460911502709116028091170290918B
:1043900018020E94DEB560930B0270930C028093AA
:1043A0000D0290930E02E0915F08F0E0E55AF74F9E
:1043B00081E0808398DE2091570830915808409121
:1043C000590850915A086091870870918808809127
:1043D000890890918A080E942FB260938708709391
:1043E00088088093890890938A082BE838E047E88A
:1043F00058E063E878E08FE798E00E949D6FD1C0B5
:10440000E55AF74F8081882309F4D4C080917F0852
:1044100090918008A0918108B091820880933E0815
:1044200090933F08A0934008B0934108809183087F
:1044300090918408A0918508B091860880934208E5
:1044400090934308A0934408B0934508609187086F
:10445000709188088091890890918A086093460835
:10446000709347088093480890934908C0908B0840
:10447000D0908C08E0908D08F0908E08C0924A0889
:10448000D0924B08E0924C08F0924D0820915708CA
:10449000309158084091590850915A080E9430B202
:1044A00060938708709388088093890890938A089E
:1044B0002BE838E047E858E063E878E08FE798E0D9
:1044C0000E949D6FF0905F08CC2389F020914F08E7
:1044D0003091500840915108509152086091190252
:1044E00070911A0280911B0290911C0210C02091C1
:1044F00053083091540840915508509156086091E6
:104500001D0270911E0280911F02909120020E9454
:1045100030B224E0F29EF0011124E35DFD4F2081D2
:104520003181428153810E9410B39B01AC016091A3
:104530008B0870918C0880918D0890918E080E9454
:104540002FB260938B0870938C0880938D089093A2
:104550008E088BE898E00E944270C0900B02D090C9
:104560000C02E0900D02F0900E0220E030E040E7F7
:1045700052E46091110270911202809113029091A5
:1045800014020E94DEB560930B0270930C028093BC
:104590000D0290930E02E0915F08F0E0E55AF74FAC
:1045A0001082A1DDC0920B02D0920C02E0920D02AB
:1045B000F0920E02CF91FF90EF90DF90CF90089590
:1045C000AF92BF92CF92DF92EF92FF920F931F9321
:1045D000CF93DF93D82F2091360830913708409140
:1045E00038085091390860913208709133088091F1
:1045F0003408909135080E9419B5C62F172F082F3F
:10460000F92E60913B0270913C02882777FD8095DE
:10461000982F0E94ABB320910B0230910C02409175
:104620000D0250910E020E94DEB520E030E040E71E
:1046300052E40E9410B320E030E048EC52E40E94C3
:1046400010B320915F082F93DF93FF920F931F9376
:10465000CF935B016C0172E0E72E01E020E042E3C2
:1046600058E06EE378E08FE798E00E94245E809146
:104670003E0890913F08A0914008B0914108809376
:104680007F0890938008A0938108B093820880915E
:10469000420890914308A0914408B0914508809346
:1046A000830890938408A0938508B093860880912E
:1046B000460890914708A0914808B0914908809316
:1046C000870890938808A0938908B0938A088091FE
:1046D0004A0890914B08A0914C08B0914D088093E6
:1046E0008B0890938C08A0938D08B0938E080E943D
:1046F000D8AB6093890670938A0680938B0690935B
:104700008C060F900F900F900F900F900F90DF91ED
:10471000CF911F910F91FF90EF90DF90CF90BF90BE
:10472000AF900895F8940E949581179A10926408AA
:10473000169A10926508159A10926608149A60E00D
:1047400087E40E94B1ADE0EBFAE08491882341F068
:104750009091C00095FFFCCF8093C6003196F5CFB5
:10476000E5E4F5E08491882341F09091C00095FF45
:10477000FCCF8093C6003196F5CF8091C00085FFB5
:10478000FCCF8AE08093C6008CE395E00E94C39939
:104790007894C6E0D0E0219749F068EC70E080E0C2
:1047A00090E00E9407AC0E94539AF5CFF894FFCF97
:1047B0002F923F924F925F926F927F928F929F9231
:1047C000AF92BF92CF92DF92EF92FF920F931F931F
:1047D000CF93DF93CDB7DEB76E970FB6F894DEBFF9
:1047E0000FBECDBFB0E6BB2E14E0E12EF12C06E3E8
:1047F000C02E08E0D02E8AE0A82E992493948091B0
:104800007506909176062091770630917806821B86
:10481000930B8F779927892B09F418C280919306FF
:104820009091940604970CF011C284EF95E00E94D9
:10483000ED188093920620919006309191068A306F
:1048400061F08D3051F08A3321F490918F069923D5
:1048500021F02F3531050CF41BC12115310509F468
:1048600035C18091950690919606B89E3001B99E0B
:10487000700C1124F301E20FF31FE356F94F10827D
:1048800020918F062111FFC0FC01E756F94F1082DD
:1048900083010356194F6EE470E0C8010E946CBAA0
:1048A0000097F1F190938E0680938D06801B910BFB
:1048B000860D971D4AE050E060E070E08256994F07
:1048C0000E94AFB860932608709327088093280849
:1048D0009093290840902208509023086090240863
:1048E000709025082FEF421A520A620A720A00914C
:1048F000950610919606641575058605970509F4C9
:10490000E8C0B09EC001B19E900D112462E579E02F
:104910008356994F0E941EBA892B09F0DAC069C1EB
:104920006AE270E0C8010E946CBA892B09F444C0A5
:10493000E0EBFAE08491882341F09091C00095FF6C
:10494000FCCF8093C6003196F5CFECEAF8E0849175
:10495000882341F09091C00095FFFCCF8093C60062
:104960003196F5CF40912208509123086091240898
:10497000709125082AE030E084EF95E00E94A819A4
:104980008091C00085FFFCCF8AE08093C600109222
:10499000910610929006C0C2809126089091270837
:1049A000A0912808B09129088093220890932308A9
:1049B000A0932408B09325088091950690919606BF
:1049C000B89E8001B99E100D1124C8018356994FDD
:1049D0003C0167E470E00E946CBA009781F190930B
:1049E0008E0680938D0686199709800F911F60E0CF
:1049F00070E08256994F0E9447B70E9478B36430A6
:104A00007105E8F480917B068823C9F0F601849152
:104A1000E6E3F8E0882349F09091C00095FFFCCFD1
:104A20008093C60031968491F5CF8091C00085FFB8
:104A3000FCCFA092C6008CE298E00E94B69900914B
:104A4000950610919606B09EC001B19E900D11245E
:104A500064E373E08356994F0E9477BA892B09F477
:104A600061DEC8010196B7010E94C7B69093960611
:104A70008093950680919306909194060196909369
:104A80009406809393061092910610929006B7CEEA
:104A90008B3311F490928F0690918F069111AFCEC7
:104AA0004091950650919606B9016F5F7F4F7093C4
:104AB000910660939006B49EF001B59EF00D11240E
:104AC000E20FF31FE356F94F808399CE10928F06C1
:104AD00023C2B09E3001B19E700C1124C3018356D5
:104AE000994F1C016AE270E00E946CBA009789F548
:104AF000E0EBFAE08491882341F09091C00095FFAB
:104B0000FCCF8093C6003196F5CFE6EDF8E08491B6
:104B1000882341F09091C00095FFFCCF8093C600A0
:104B20003196F5CF409122085091230860912408D6
:104B3000709125082AE030E084EF95E00E94A819E2
:104B40008091C00085FFFCCF8AE08093C6005CD9CD
:104B50001ECF20E010E0F301E20FF11DE356F94F04
:104B600030813A3219F02F5F1327F5CF90938E06DC
:104B700080938D0682199309860D971D60E070E081
:104B80008256994F0E9447B70E9478B3212F30E098
:104B90002617370709F400CFE0EBFAE08491882369
:104BA00041F09091C00095FFFCCF8093C6003196F4
:104BB000F5CFE0E0F9E08491882341F09091C000C6
:104BC00095FFFCCF8093C6003196F5CF4091220827
:104BD0005091230860912408709125082AE030E064
:104BE00084EF95E00E94A8198091C00085FFFCCF5A
:104BF000ABCFE0EBFAE08491882341F09091C000C4
:104C000095FFFCCF8093C6003196F5CFEFE1F9E038
:104C10008491882341F09091C00095FFFCCF809350
:104C2000C6003196F5CF409122085091230860913B
:104C30002408709125082AE030E084EF95E00E9476
:104C4000A8198091C00085FFFCCF7ECF80919A0883
:104C5000882309F461C18091900690919106892B77
:104C600009F05AC18091930690919406892B11F412
:104C700010927906F8EE2F2EF3E03F2E412C512CA6
:104C8000ACE3CA2ED12CE12CF12C8E010F5F1F4F0B
:104C9000E0E66E2E7724739440911B0B50911C0B11
:104CA00060911D0B70911E0B8091130B9091140B52
:104CB000A091150BB091160B481759076A077B078F
:104CC00008F02AC1809193069091940604970CF005
:104CD00023C18091790681111FC180916E0A909144
:104CE0006F0AA091700AB091710A80931B0B909388
:104CF0001C0BA0931D0BB0931E0B86E69AE00E943E
:104D00006147482F809392068A30B9F04D30A9F060
:104D1000433229F420918F06211103C00EC04A337B
:104D2000C9F320919006309191062F3531052CF46E
:104D30008F3FFFEF9F0709F0D1C040911B0B5091AF
:104D40001C0B60911D0B70911E0B8091130B9091A9
:104D5000140BA091150BB091160B481759076A0751
:104D60007B0708F481C0E9E1F8E08491882341F0F1
:104D70009091C00095FFFCCF8093C6003196F5CF8F
:104D80008091C00085FFFCCFFAE0F093C6000E943E
:104D9000D8AB60937D0670937E0680937F069093D8
:104DA00080068090810690908206A0908306B09045
:104DB0008406681979098A099B09A20191010E9458
:104DC000DAB649015A01CA01B901A70196010E9448
:104DD000DAB6CA01B901A70196010E94DAB67F933B
:104DE0006F93C501B40120E13EE040E050E00E9435
:104DF000DAB63F932F93A5E0B8E0BF93AF931F932C
:104E00000F930E94A4BAEAEAFAE084910FB6F894EC
:104E1000DEBF0FBECDBF882349F09091C00095FF43
:104E2000FCCF8093C60031968491F5CFF801819133
:104E3000882339F09091C00095FFFCCF8093C60085
:104E4000F6CF8091C00085FFFCCF3AE03093C600DA
:104E5000C8010E94289688E998E00E94CC5D61E034
:104E600088E998E00E94045880919206833211F4F8
:104E700070927906209190063091910621153105A6
:104E800009F424CE8091950690919606689EF001D3
:104E9000699EF00D1124E20FF31FE356F94F1082C3
:104EA000FC01E756F94F70822091930630919406E9
:104EB0002F5F3F4F3093940620939306019664E052
:104EC00070E00E94C7B69093960680939506109264
:104ED0008F061092910610929006DECE4B3311F49D
:104EE00070928F0640918F064111D2CE4091950667
:104EF00050919606B9016F5F7F4F70939106609352
:104F00009006649EF001659EF00D1124E20FF31FE0
:104F1000E356F94F8083C0CE6E960FB6F894DEBF8D
:104F20000FBECDBFDF91CF911F910F91FF90EF90FA
:104F3000DF90CF90BF90AF909F908F907F906F90B9
:104F40005F904F903F902F900895CF92DF92EF9215
:104F5000FF920F931F93CF93C82F80919306909148
:104F6000940603970CF424DC0E94D8AB00918506CC
:104F7000109186062091870630918806C090890698
:104F8000D0908A06E0908B06F0908C066C197D0913
:104F90008E099F09061717072807390728F4012BE0
:104FA000022B032B09F0BEDB40910702509108024F
:104FB0006091090270910A02452B462B472B19F18B
:104FC0000E94D8AB0091890610918A0620918B0629
:104FD00030918C06601B710B820B930B00910702C2
:104FE000109108022091090230910A020617170752
:104FF0002807390740F49091380D8091370D9813A8
:1050000002C0CC2349F0CF911F910F91FF90EF90F8
:10501000DF90CF900C948065179A10926408169ACE
:1050200010926508159A10926608149AECCF0E94A7
:10503000958180917B06811138C081E080937B0649
:105040008091220890912308A0912408B09125080E
:1050500080931E0890931F08A0932008B093210806
:10506000E0EBFAE08491882341F09091C00095FF35
:10507000FCCF8093C6003196F5CFE6ECF4E0849146
:10508000882341F09091C00095FFFCCF8093C6002B
:105090003196F5CF8091C00085FFFCCF8AE08093E8
:1050A000C6008CEB94E00C94B699089580917B0631
:1050B0000895CF93DF93EC0180915F0880937C0685
:1050C00084E50E94B51E811102C080E075C00E9477
:1050D000A11E0E947DB360937C066623B1F3EAEAC9
:1050E000FAE08491882341F09091C00095FFFCCFB5
:1050F0008093C6003196F5CFCD36D105B9F054F482
:10510000C836D105B1F0C936D10509F045C0EEE782
:10511000F3E021C0CA3DD10531F0CD3DD105E1F527
:10512000E9E3F3E036C0E0E5F3E029C0E7E6F3E0C9
:105130001CC0E5E9F3E08191882371F19091C000F2
:1051400095FFFCCF8093C600F6CF9091C00095FFED
:10515000FCCF8093C60081918111F7CF1DC0909143
:10516000C00095FFFCCF8093C60081918111F7CFDD
:1051700013C09091C00095FFFCCF8093C600819131
:105180008111F7CF09C09091C00095FFFCCF8093AB
:10519000C60081918111F7CF40E050E060917C061C
:1051A00084EF95E00E94021A8091C00085FFFCCF39
:1051B0008AE08093C60081E0DF91CF910895CF927D
:1051C000DF92EF92FF9220918F082223F1F020E0EE
:1051D00030E040E05FE30E94DEB56B017C0120E03F
:1051E00030E0A9010E9409B3882379F0A701960154
:1051F000C701B6010E94DEB52BED3FE049E450E463
:105200000E94DEB59B01AC0104C020E030E040E824
:105210005FE360E070E080E89FE30E9410B3FF90DE
:10522000EF90DF90CF90089560913102709132023B
:105230008091330290913402C2DF60932D0270930B
:105240002E0280932F029093300208953F924F9246
:105250005F926F927F928F929F92AF92BF92CF9206
:10526000DF92EF92FF920F931F93CF93DF93CDB70F
:10527000DEB7E9970FB6F894DEBF0FBECDBF87E467
:105280000E94B51E882309F44CC20E94A11E0E94F0
:1052900078B36A30710509F4AFC09CF462307105CF
:1052A00009F44CC024F477FF25C00C94B53F63305B
:1052B000710509F44EC06430710509F455C00C94B1
:1052C000B53F6A35710509F4D8C154F46B307105E6
:1052D00009F498C06C31710509F49AC00C94B53F7B
:1052E0006B35710509F4CDC16C35710509F4CEC17A
:1052F0000C94B53F80917B0681110C94B53F0E94C0
:105300002D1F80915C088823A9F088E50E94B51EB6
:10531000811110C089E50E94B51E81110BC08AE57C
:105320000E94B51E811106C085E40E94B51E811140
:105330000C94B83F0E9473200C94B53F80917B067B
:1053400081110C94B53F0E94AC1F81E039D90C94B7
:10535000B53F80917B0681110C94B53F0E94AC1F34
:1053600080E02ED90C94B53F89EF97E00E94B69962
:1053700080E50E94B51E882339F00E94A11E0E947C
:105380007DB34B015C0103C0812C912C540183E55A
:105390000E94B51E882361F00E94A11E20E030E02B
:1053A0004AE754E40E94DEB50E947DB34B015C01E4
:1053B0000E94A8780E94D8AB6B017C01C80CD91C54
:1053C000EA1CFB1C0E94D8AB6093890670938A0686
:1053D00080938B0690938C060E94D8AB6C157D054C
:1053E0008E059F0510F00C94B53F0E94B67D80E0BD
:1053F000ACDD0E94539AF0CF60E081E00E94322140
:105400000C94B53F60E080E00E9432210C94B53FDF
:1054100080910B0290910C02A0910D02B0910E02AE
:1054200080932A0890932B08A0932C08B0932D0802
:1054300080913B0290913C02909393088093920854
:1054400084E690E090933C0280933B020E94D8ABAC
:105450006093890670938A0680938B0690938C06DE
:1054600081E00E94597180917F0890918008A091FD
:105470008108B091820880933E0890933F08A093E2
:105480004008B09341088091830890918408A091CE
:105490008508B09186088093420890934308A093B2
:1054A0004408B09345088091870890918808A0919E
:1054B0008908B0918A088093460890934708A09382
:1054C0004808B093490880918B0890918C08A0916E
:1054D0008D08B0918E0880934A0890934B08A09352
:1054E0004C08B0934D0810920B0210920C021092CF
:1054F0000D0210920E0288E50E94B51E882311F05D
:1055000090E00AC089E50E94B51E8111F9CF8AE5B5
:105510000E94B51E91E0982790930F0291110C9470
:10552000E73F88E50E94B51E81110C94E73F80910A
:105530000F0281110C94ED3F89E50E94B51E811187
:105540000C94ED3F88E50E94B51E8823D1F00E949F
:10555000AA1E672B682B692BA1F00E94A11E209127
:1055600073083091740840917508509176080E9434
:1055700030B260937F087093800880938108909385
:10558000820889E50E94B51E8823D1F00E94AA1ED8
:10559000672B682B692BA1F00E94A11E2091770830
:1055A000309178084091790850917A080E9430B281
:1055B000609383087093840880938508909386088D
:1055C00080910F0281110C94F33F8AE50E94B51E71
:1055D00081110C94F33F8AE50E94B51E8823D1F017
:1055E0000E94AA1E672B682B692BA1F00E94A11EA6
:1055F00020917B0830917C0840917D0850917E0875
:105600000E9430B26093870870938808809389085D
:1056100090938A082BE838E047E858E063E878E0A0
:105620008FE798E00E949D6F80E00E945971809101
:105630002A0890912B08A0912C08B0912D088093F6
:105640000B0290930C02A0930D02B0930E02809176
:1056500092089091930890933C0280933B020E94A1
:10566000D8AB6093890670938A0680938B069093DB
:105670008C060E9452710C94B53F10921D080C9438
:10568000B53F81E080931D080C94B53F85E40E94EE
:10569000B51E811102C00E94A8785BE5C52E54E0BA
:1056A000D52E63E7E62E68E0F62E0FE718E0B12C62
:1056B000F60181916F010E94B51E882339F1F3E054
:1056C000BF120CC00E94A11EF80160837183828307
:1056D00093838BE898E00E94427018C00E94A11E3C
:1056E000F70120813181428153810E9430B2F8015B
:1056F00060837183828393832BE838E047E858E026
:1057000063E878E08FE798E00E949D6FB394F4E03F
:10571000EF0EF11C0C5F1F4F24E0B212C9CF0C94A6
:10572000B53F8DE40E94B51E882311F40C94E43E2D
:105730000E94A11E0E9478B36737710509F4A0C1C9
:105740000CF0CEC06A32710509F412C40CF05FC0CF
:105750006731710509F46DC254F56231710509F4C0
:1057600073C7BCF477FF02C00C94B53F623071057B
:105770000CF489C16131710511F00C94B53F81EBD6
:1057800097E00E94B69917981698159814980C945B
:10579000B53F6531710509F440C20CF044C2643173
:1057A000710511F00C94B53FE1EAF7E012C26B31DC
:1057B000710509F46AC2B4F46931710509F451C282
:1057C0000CF055C288E998E00E9493550E94D8AB2E
:1057D000609381067093820680938306909384067B
:1057E0000C94B53F6E31710509F48AC234F46C3102
:1057F000710509F450C20C94B53F6F31710509F47D
:1058000059C36032710509F4B9C20C94B53F6836CA
:10581000710509F4F4C3C4F56335710509F40FC7C4
:10582000C4F46135710509F4E9C60CF004C76035AC
:10583000710511F00C94B53F9B9AA39881E0809379
:1058400010028EE097E00E94B6990E94539A0C9441
:10585000B53F6535710509F42FC70CF4F5C66C35F5
:10586000710511F00C94B53F2BE534E039AF28AF4A
:105870000CE612E16CE7862E62E1962E70E3A72E0D
:1058800072E1B72E312C94C76D36710509F4F1C45D
:105890008CF46A36710509F481C60CF4DEC36B36EC
:1058A000710511F00C94B53F10925E0810925D08DE
:1058B0000C94B53F6237710509F4AFC73CF460370B
:1058C000710511F00C94B53F0E9492236337710566
:1058D00009F480C76537710509F48BC70C94B53F8F
:1058E0006C3231E0730711F40C948B380CF053C018
:1058F0006C3C710511F40C949A3624F56E3B7105DD
:1059000009F441C574F46937710511F40C94F2344B
:1059100014F40C94ED346C38710509F48DC30C94B7
:10592000B53F693C710511F40C945C366B3C710514
:1059300011F40C947D36683C710511F00C94B53F60
:105940000C94E735603D710511F40C94703754F4F4
:105950006E3C710511F40C941C3714F40C94BC3695
:105960000C9439376C3D710511F40C94FB373CF401
:10597000613D710511F40C9498370C94B53F6D3D61
:10598000710511F40C940A38623E710511F40C94FF
:1059900030380C94B53F643F91E0790711F40C94D2
:1059A0006D3A2CF56033F1E07F0711F40C948739E0
:1059B0005CF46E3231E0730711F40C94243A14F461
:1059C0000C94C1380C94323A6F3591E0790711F498
:1059D0000C94883E6039E1E07E0711F40C946A3A39
:1059E0006E35714011F00C94B53F0C94513E683502
:1059F00022E0720711F40C944B3B94F4663F81E073
:105A0000780711F40C94733A14F40C94703A673FCD
:105A1000714011F00C94B53F0E949F110C94B53F5A
:105A20006B38F3E07F0711F40C942B3E3CF46335A4
:105A3000734011F40C94763A0C94B53F603A83E0CD
:105A4000780709F404C2673E734011F00C94B53F27
:105A500010927B060E94C99980911E0890911F08A0
:105A6000A0912008B09121088093220890932308E8
:105A7000A0932408B09325080E94041F0C94B53FFE
:105A8000EBEBF3E0BAC700918D0610918E060E5F26
:105A90001F4F80E50E94B51E882379F00E94A11E49
:105AA0000E947DB36B017C01BB24B3946115710529
:105AB0008105910531F4B12C04C0B12CC12CD12C3D
:105AC000760183E50E94B51E882399F00E94A11EED
:105AD00020E030E04AE754E40E94DEB50E947DB346
