:100000000C94DF0F0C9410100C9410100C94101022
:100010000C9410100C9410100C9410100C941010E0
:100020000C9410100C9410100C9410100C941010D0
:100030000C9410100C944CB00C9410100C941010E4
:100040000C9410100C943C710C9410100C94101023
:100050000C9410100C9410100C9463860C9419AA34
:100060000C9410100C9458180C9410100C94101040
:100070000C9410100C9410100C9410100C94101080
:100080000C9410100C9410100C9410100C94101070
:100090000C9410100C9410100C9410100C94101060
:1000A0000C9410100C9410100C9410100C94101050
:1000B0000C9410100C9410100C9410100C94101040
:1000C0000C9410100C9410100C9410100C94101030
:1000D0000C9410100C9410100C9410100C94101020
:1000E0000C941010B086BE86DA86E88602871087E8
:1000F0002A872E87308734873C8748AB4DAB52AB7D
:100100005CAB66ABDFAB70AB78AB80AB8AAB94AB70
:100110009EABADABB7ABDFABC1ABCBABD5AB01AC43
:1001200004ACF3ABF7ABFDAB3BAC08AC0CAC12AC26
:1001300016AC1AAC20AC24AC28AC3BAC2EAC32AC28
:1001400036AC084AD73B3BCE016E84BCBFFDC12F05
:100150003D6C74319ABD56833DDA3D00C77F11BEB8
:10016000D9E4BB4C3E916BAAAABE000000803F05BB
:10017000A84CCDB2D44EB93836A9020C50B99186EC
:1001800088083CA6AAAA2ABE000000803F00486159
:100190007264636F6465642044656661756C742085
:1001A00053657474696E6773204C6F616465640095
:1001B00053746F7265642073657474696E6773201D
:1001C0007265747269657665640046696C616D6517
:1001D0006E742073657474696E67733A2044697332
:1001E00061626C6564002020204D32303020440074
:1001F00046696C616D656E742073657474696E67B1
:10020000733A002020204D3230392053004175745C
:100210006F2D526574726163743A20533D302074BF
:100220006F2064697361626C652C203120746F20CB
:10023000696E746572707265742065787472756425
:10024000652D6F6E6C79206D6F76657320617320FC
:100250007265747261637473206F72207265636F6C
:10026000766572696573002046002020204D32308B
:10027000382053005265636F7665723A20533D45CE
:1002800078747261206C656E67746820286D6D29C2
:1002900020463A537065656420286D6D2F6D2900E6
:1002A000205A002046002020204D323037205300B5
:1002B000526574726163743A20533D4C656E677485
:1002C0006820286D6D2920463A53706565642028A2
:1002D0006D6D2F6D29205A3A205A4C69667420287A
:1002E0006D6D29002044002049002020204D33302E
:1002F000312050005049442073657474696E6773EF
:100300003A00205A0020590020204D323036205823
:1003100000486F6D65206F666673657420286D6D8B
:10032000293A00204500205A002058002042002091
:10033000540020204D323035205300416476616EE8
:10034000636564207661726961626C65733A2053FB
:100350003D4D696E20666565647261746520286D27
:100360006D2F73292C20543D4D696E207472617677
:10037000656C20666565647261746520286D6D2FFB
:1003800073292C20423D6D696E696D756D20736512
:10039000676D656E742074696D6520286D73292CF6
:1003A00020583D6D6178696D756D205859206A65DA
:1003B000726B20286D6D2F73292C20205A3D6D61A2
:1003C00078696D756D205A206A65726B20286D6D95
:1003D0002F73292C2020453D6D6178696D756D2046
:1003E00045206A65726B20286D6D2F73290020549B
:1003F0000020204D323034205300416363656C652A
:10040000726174696F6E3A20533D616363656C6518
:10041000726174696F6E2C20543D726574726163F1
:100420007420616363656C65726174696F6E00202E
:100430004500205A0020590020204D3230312058EC
:10044000004D6178696D756D20416363656C6572FF
:100450006174696F6E20286D6D2F7332293A002008
:100460004500205A0020590020204D3230332058BA
:10047000004D6178696D756D2066656564726174A3
:10048000657320286D6D2F73293A00204500205A8E
:100490000020590020204D393220580053746570D7
:1004A000732070657220756E69743A0053657474B8
:1004B000696E67732053746F7265640053544F50B4
:1004C0005045442E20005072696E7465722073741A
:1004D0006F707065642064756520746F206572723A
:1004E0006F72732E20466978207468652065727279
:1004F0006F7220616E6420757365204D3939392023
:10050000746F20726573746172742E202854656D47
:1005100070657261747572652069732072657365A8
:10052000742E20536574206974206166746572208E
:1005300072657374617274696E6729004B494C4C23
:1005400045442E20005072696E7465722068616C9B
:100550007465642E206B696C6C28292063616C6C57
:10056000656421006F6B00526573656E643A20000C
:100570002200556E6B6E6F776E20636F6D6D616ECE
:10058000643A2022004D32323020532569005A202F
:100590004F6666736574203A20007A5F6D61783A21
:1005A00020007A5F6D696E3A20005A204F666673AC
:1005B0006574005A204F6666736574206F6B002265
:1005C00000556E6B6E6F776E20636F6D6D616E643C
:1005D0003A2022007A5F6D61783A20007A5F6D6977
:1005E0006E3A2000795F6D61783A2000795F6D691D
:1005F0006E3A2000785F6D61783A2000785F6D690F
:100600006E3A2000205A3A0020593A0020436F7574
:100610006E7420583A200020453A00205A3A0020B3
:10062000593A00583A004649524D574152455F4E9B
:10063000414D453A4D61726C696E2056312E302E17
:10064000323B20537072696E7465722F6772626CF0
:10065000206D617368757020666F722067656E36F5
:10066000204649524D574152455F55524C3A6874A5
:100670007470733A2F2F6769746875622E636F6D9B
:100680002F4D61726C696E4669726D776172652F6C
:100690004D61726C696E2050524F544F434F4C5F06
:1006A00056455253494F4E3A312E30204D41434822
:1006B000494E455F545950453A45696B6573206909
:1006C000332B2045585452554445525F434F554EA5
:1006D000543A3120555549443A303030303030307A
:1006E000302D303030302D303030302D3030303013
:1006F0002D3030303030303030303030300A00453E
:10070000696B65732069332B204155532E00456971
:100710006B65732069332B206265726569742E2EB8
:100720002E0042656420646F6E652E0020423A0000
:1007300020453A00543A00566F726865697A656ED2
:100740002E2E2E00447275636B656E2E2E2E0020A9
:10075000573A0020453A00543A0048656174696E82
:10076000672E2E2E002042403A0020403A00202FD3
:10077000003A00205400202F0020423A00202F0091
:100780006F6B20543A002569206D696E2C20256915
:100790002073656300456E642066696C65206C6932
:1007A000737400426567696E2066696C65206C69C8
:1007B0007374004B65696E65204265776567756E79
:1007C000670045696B65732069332B20626572652C
:1007D00069742E2E2E00447275636B6520776569EF
:1007E0007465722E2E2E00776172746520617566B5
:1007F0002045696E676162652E2E2E2E0073636838
:100800006C6166656E2E2E2E00256920686F7572EC
:1008100073202569206D696E7574657300446F6E71
:1008200065207072696E74696E672066696C650018
:1008300053544F505045442E20005072696E7465D9
:10084000722073746F707065642064756520746FB6
:10085000206572726F72732E204669782074686505
:10086000206572726F7220616E6420757365204D11
:1008700039393920746F20726573746172742E2057
:100880002854656D70657261747572652069732096
:1008900072657365742E20536574206974206166D7
:1008A0007465722072657374617274696E67290071
:1008B0004E6F204C696E65204E756D6265722077B3
:1008C00069746820636865636B73756D2C204C6177
:1008D0007374204C696E653A20004E6F2043686542
:1008E000636B73756D2077697468206C696E652021
:1008F0006E756D6265722C204C617374204C696E4C
:10090000653A2000636865636B73756D206D69736C
:100910006D617463682C204C617374204C696E6542
:100920003A20004C696E65204E756D6265722069D3
:1009300073206E6F74204C617374204C696E652057
:100940004E756D6265722B312C204C617374204C96
:10095000696E653A20004D31313000446F6E65207C
:10096000736176696E672066696C652E006F6B0037
:100970004D3239002020506C616E6E657242756692
:1009800066657242797465733A2000204672656527
:10099000204D656D6F72793A20004A616E203139C1
:1009A000203230313600436F6D70696C65643A20D7
:1009B00000286E6F6E652C2064656661756C74200E
:1009C000636F6E6669672900207C20417574686FCB
:1009D000723A20004A616E2031392032303136209F
:1009E00031313A31363A303700204C61737420553A
:1009F0007064617465643A2000312E302E32004DEF
:100A000061726C696E0020536F6674776172652045
:100A1000526573657400205761746368646F672062
:100A20005265736574002042726F776E206F757423
:100A3000205265736574002045787465726E616C30
:100A400020526573657400506F776572557000733E
:100A500074617274002200656E717565696E67203D
:100A600022002200656E717565696E67202200FFA5
:100A7000FFFF0000A0400000A04000000040000078
:100A8000574300003E4300004843000000000000C0
:100A900000000000803E0000574300003E4300007D
:100AA00048430000000000000000000000006563F3
:100AB000686F3A004572726F723A0000002110426E
:100AC0002063308440A550C660E770088129914AB0
:100AD000A16BB18CC1ADD1CEE1EFF1311210027337
:100AE000325222B5529442F772D662399318837B00
:100AF000B35AA3BDD39CC3FFF3DEE3622443342087
:100B0000040114E664C774A44485546AA54BB5284F
:100B1000850995EEE5CFF5ACC58DD5533672261116
:100B2000163006D776F6669556B4465BB77AA7199F
:100B3000973887DFF7FEE79DD7BCC7C448E55886DE
:100B400068A7784008611802282338CCC9EDD98EEF
:100B5000E9AFF9488969990AA92BB9F55AD44AB776
:100B60007A966A711A500A333A122AFDDBDCCBBF3F
:100B7000FB9EEB799B588B3BBB1AABA66C877CE446
:100B80004CC55C222C033C600C411CAEED8FFDEC8F
:100B9000CDCDDD2AAD0BBD688D499D977EB66ED556
:100BA0005EF44E133E322E511E700E9FFFBEEFDDDF
:100BB000DFFCCF1BBF3AAF599F788F8891A981CABC
:100BC000B1EBA10CD12DC14EF16FE18010A100C29B
:100BD00030E3200450254046706760B9839893FB4A
:100BE000A3DAB33DC31CD37FE35EF3B1029012F3EB
:100BF00022D2323542145277625672EAB5CBA5A89A
:100C00009589856EF54FE52CD50DC5E234C324A03A
:100C10001481046674476424540544DBA7FAB79929
:100C200087B8975FE77EF71DC73CD7D326F236918A
:100C300006B01657667676154634564CD96DC90EF1
:100C4000F92FE9C899E9898AB9ABA94458654806DA
:100C5000782768C018E1088238A3287DCB5CDB3F89
:100C6000EB1EFBF98BD89BBBAB9ABB754A545A372A
:100C70006A167AF10AD01AB32A923A2EFD0FED6C59
:100C8000DD4DCDAABD8BADE89DC98D267C076C647A
:100C90005C454CA23C832CE01CC10C1FEF3EFF5D69
:100CA000CF7CDF9BAFBABFD98FF89F176E367E55CA
:100CB0004E745E932EB23ED10EF01E7C3C3E5E2BF7
:100CC0003D3F2F5B5D3B2C2A225C004D3834205881
:100CD0002059205A20450043616E6E6F7420656E66
:100CE000746572207375626469723A20004D323403
:100CF000004D3233202573006175746F25692E67AE
:100D0000006572726F722077726974696E67207401
:100D10006F2066696C65004E6F74205344207072BA
:100D2000696E74696E67002F005344207072696E9B
:100D300074696E67206279746520002E0044656CCA
:100D40006574696F6E206661696C65642C20466904
:100D50006C653A200046696C652064656C65746555
:100D6000643A002E006F70656E206661696C656480
:100D70002C2046696C653A200057726974696E6769
:100D800020746F2066696C653A20002E006F7065D4
:100D90006E206661696C65642C2046696C653A203A
:100DA000002E006F70656E206661696C65642C2092
:100DB00046696C653A200046696C652073656C6510
:100DC00063746564002053697A653A200046696C53
:100DD00065206F70656E65643A20002E006F706547
:100DE0006E206661696C65642C2046696C653A20EA
:100DF000004E6F772066726573682066696C653A8D
:100E000020004E6F7720646F696E672066696C659D
:100E10003A20002220706F73002220706172656E8C
:100E2000743A2200535542524F5554494E4520437F
:100E3000414C4C207461726765743A220074727977
:100E4000696E6720746F2063616C6C207375622D0E
:100E500067636F64652066696C6573207769746881
:100E600020746F6F206D616E79206C6576656C7390
:100E70002E204D4158206C6576656C2069733A00D0
:100E800053442063617264206F6B006F70656E5213
:100E90006F6F74206661696C656400766F6C756D48
:100EA000652E696E6974206661696C6564005344DF
:100EB00020696E6974206661696C0020746F6F2010
:100EC0006C6F6E6720657874727573696F6E2070D1
:100ED000726576656E7465640020636F6C6420656E
:100EE0007874727573696F6E2070726576656E7452
:100EF00065640045303A20005A3A2000593A2000F3
:100F0000583A20004D53312C4D53322050696E73A6
:100F10000A00656E6473746F7073206869743A2098
:100F20005A00205A3A00656E6473746F70732068BB
:100F300069743A20590020593A00656E6473746FE1
:100F40007073206869743A20580020583A00656E22
:100F50006473746F7073206869743A200024F4D449
:100F60003050C38E20C2A24017828B7011127A912A
:100F70000D816CD90AA861E108C758660761514321
:100F8000061E4B5D05C145A7041A411104093D9891
:100F900003713931034036DB0265339102D430549A
:100FA00002802E1D02632CEE01752AC501B028A017
:100FB00001102781018F2564012B244B01E022348D
:100FC00001AC211F018D200D01801FFC00841EED4E
:100FD00000971DDF00B81CD200E61BC600201BBC1A
:100FE00000641AB200B219A8000A19A0006A189980
:100FF00000D117910040178B00B516840031167E82
:1010000000B31579003A157300C7146F0058146ABD
:1010100000EE1366008813630025135E00C7125BA1
:10102000006C12570015125400C111510070114F7D
:101030000021114B00D61049008D10470046104486
:101040000002104200C00F4000800F3E00420F3CE3
:1010500000060F3B00CB0E3800930E37005C0E35B8
:1010600000270E3400F30D3200C10D3100900D3019
:1010700000600D2E00320D2D00050D2C00D90C2B1B
:1010800000AE0C2900850C29005C0C2700350C27CC
:10109000000E0C2600E80B2400C40B2400A00B2338
:1010A000007D0B23005A0B2100390B2100180B2067
:1010B00000F80A1F00D90A1E00BB0A1E009D0A1D67
:1010C00000800A1D00630A1C00470A1B002C0A1B33
:1010D00000110A1A00F7091A00DD091900C40919DC
:1010E00000AB091900920917007B09180063091762
:1010F000004C09160036091600200916000A0915C9
:1011000000F5081500E0081400CC081400B8081415
:1011100000A4081400900813007D0812006B081347
:101120000058081200460812003408110023081164
:10113000001208110001081100F0071000E007106C
:1011400000D0071000C0071000B0070F00A1071063
:101150000091070E0083070F0074070F0065070E4C
:101160000057070E0049070E003B070D002E070E23
:101170000020070D0013070D0006070D00F9060CEF
:1011800000ED060D00E0060C00D4060C00C8060CAD
:1011900000BC060C00B0060C00A4060B0099060C5F
:1011A000008D060B0082060B0077060B006C060B09
:1011B0000061060A0057060B004C060A0042060AA8
:1011C0000038060A002E060A0024060A001A060A3B
:1011D000001006090007060A00FD050900F40509CC
:1011E00000EB050900E2050900D9050900D0050951
:1011F00000C7050900BE050900B5050800AD0508D2
:1012000000A50509009C050800940508008C050848
:1012100000840508007C050800740508006C0507BB
:1012200000650508005D050700560508004E050726
:10123000004705070040050800380507003105078D
:10124000002A050700230507001C050600160507F0
:10125000000F0507000805060002050700FB04064D
:1012600000F5040700EE040600E8040600E20407A7
:1012700000DB040600D5040600CF040600C90406FE
:1012800000C3040600BD040600B7040600B104054F
:1012900000AC040600A6040600A00405009B04069A
:1012A0000095040500900406008A040500850405E5
:1012B00000800406007A040500750405007004052A
:1012C000006B04050066040500610405005C04056C
:1012D0000057040500520405004D040500480405AC
:1012E00000430405003E0404003A040500350405EB
:1012F00000300404002C0405002704040023040526
:10130000001E0404001A040400160405001104045D
:10131000000D040400090405000404040000040492
:1013200000FC030400F8030400F4030400F00304C9
:1013300000EC030400E8030400E4030400E00304F9
:1013400000DC030400D8030400D4030400D0030429
:1013500000CC030400C8030300C503030024F40405
:10136000D9201BC40C5C0E9804C4095F0265077188
:1013700001F405F900FB04B30048048700C10369C8
:10138000005803550003034500BE023A00840231B1
:101390000053022A002902250004022000E4011C57
:1013A00000C8011900AF011700980114008401134F
:1013B00000710110006101100051010E0043010D88
:1013C0000036010B002B010B0020010B0015010959
:1013D000000C01090003010800FB000800F30008ED
:1013E00000EB000700E4000600DE000600D800065F
:1013F00000D2000600CC000500C7000500C20005B1
:1014000000BD000400B9000400B5000400B10004F0
:1014100000AD000400A9000400A5000300A2000321
:10142000009F0004009B0003009800030095000249
:101430000093000300900003008D0002008B000366
:101440000088000200860002008400030081000280
:10145000007F0002007D0002007B00020079000294
:1014600000770001007600020074000200720001A3
:1014700000710002006F0002006D0001006C0002AC
:10148000006A0001006900020067000100660001B7
:1014900000650001006400020062000100610001BB
:1014A00000600001005F0002005D0001005C0001BF
:1014B000005B0001005A00010059000100580001C2
:1014C00000570001005600010055000100540001C2
:1014D00000530000005300010052000100510001C0
:1014E00000500001004F0001004E0000004E0001BE
:1014F000004D0001004C0001004B0000004B0001BA
:10150000004A0001004900010048000000480001B5
:1015100000470001004600000046000100450000B1
:1015200000450001004400010043000000430001A9
:1015300000420000004200010041000000410001A3
:1015400000400001003F0000003F0001003E00009D
:10155000003E0001003D0000003D0001003C000095
:10156000003C0000003C0001003B0000003B00018B
:10157000003A0000003A0001003900000039000183
:10158000003800000038000000380001003700007B
:101590000037000100360000003600000036000170
:1015A0000035000000350000003500010034000067
:1015B000003400000034000100330000003300005C
:1015C0000033000100320000003200000032000150
:1015D0000031000000310000003100010030000047
:1015E0000030000000300001002F0000002F00003C
:1015F000002F0000002F0001002E0000002E000030
:10160000002E0001002D0000002D0000002D000024
:10161000002D0001002C0000002C0000002C000018
:10162000002C0001002B0000002B0000002B00000C
:10163000002B0001002A0000002A0000002A000000
:10164000002A0001002900000029000000290000F4
:1016500000290000002900010028000000280000E7
:1016600000280000002800000028000100270000DA
:1016700000270000002700000027000000270001CD
:1016800000260000002600000026000000260000C2
:1016900000260001002500000025000000250000B4
:1016A00000250000002500000025000100240000A6
:1016B0000024000000240000002400000024000199
:1016C000002300000023000000230000002300008E
:1016D000002300000023000000230001002200007E
:1016E0000022000000220000002200000022000072
:1016F0000022000100210000002100000021000064
:101700000021000000210000002100000021000154
:101710000020000000200000002000000020000049
:101720000020000000200000002000000020000138
:10173000001F0000001F0000001F0000001F00002D
:10174000001F0000001F0000001F0001001E00001D
:10175000001E0000001E0000001E00000045727206
:101760003A204D415854454D50204245440054655F
:101770006D70657261747572652068656174656409
:1017800020626564207377697463686564206F669E
:10179000662E204D415854454D502074726967673C
:1017A00065726564202121004572723A204D494ED0
:1017B00054454D50003A2045787472756465722026
:1017C0007377697463686564206F66662E204D497F
:1017D0004E54454D50207472696767657265642088
:1017E00021004572723A204D415854454D50003AFF
:1017F00020457874727564657220737769746368C4
:101800006564206F66662E204D415854454D50202A
:10181000747269676765726564202100202D204914
:101820006E76616C69642065787472756465722087
:101830006E756D62657220210050494420417574B7
:101840006F74756E652066696E69736865642120C2
:1018500050757420746865206C617374204B702C13
:10186000204B6920616E64204B6420636F6E73743B
:10187000616E74732066726F6D2061626F76652091
:10188000696E746F20436F6E666967757261746903
:101890006F6E2E6800504944204175746F74756EE8
:1018A00065206661696C6564212074696D656F757A
:1018B000740020403A006F6B20543A006F6B204256
:1018C0003A00504944204175746F74756E65206606
:1018D00061696C6564212054656D70657261747511
:1018E000726520746F6F206869676800204B643AE6
:1018F0002000204B693A2000204B703A2000204302
:101900006C61737369632050494420002054753A18
:101910002000204B753A2000206D61783A2000208D
:101920006D696E3A200020643A200020626961737C
:101930003A20001000C90210012C01400122017060
:10194000011801B0010E01F00104015002FA00B0CB
:1019500002F0003003E600D003DC009004D20070F7
:1019600005C800A006BE000008B400B009AA00D057
:101970000BA000600E960060118C00001582002004
:10198000197800C01D6E00A0226400B0275A009094
:101990002C500000314600E0343C001038320090FA
:1019A0003A2800603C1E00A03D1400803E0A002042
:1019B0003F000070012C0190012701B0012201C0FD
:1019C000011D01F00118011002130130020E016027
:1019D00002090190020401C002FF000003FA004066
:1019E00003F5008003F000D003EB002004E6007054
:1019F00004E100E004DC004005D700C005D200404F
:101A000006CD00D006C8008007C3003008BE00F035
:101A100008B900C009B400B00AAF00B00BAA00D0EA
:101A20000CA500000EA000500F9B00C010960050A7
:101A300012910000148C00C0158700B0178200B00E
:101A4000197D00D01B7800001E730040206E0090AE
:101A5000226900F024640040275F0090295A00E0CA
:101A60002B5500102E500020304B0010324600E065
:101A700033410090353C001037370070383200A0F9
:101A8000392D00B03A2800A03B2300603C1E001016
:101A90003D1900903D1400103E0F00703E0A00C03A
:101AA0003E0500003F00004B65696E6520534420F1
:101AB0004B6172746521005344204B617274652040
:101AC00062657265697421004731204534302046D3
:101AD0003130300047312045373020463430300037
:101AE0004D383300473120452D38302046343030D2
:101AF000004D3833004732385A005A204B616C6928
:101B00006272696572656E00473120463830303048
:101B100020583130332059393300352E204D697427
:101B20007465004731204638303030205832352037
:101B30005931373000342E20583A32352020593A66
:101B40003137300047312046383030302058313777
:101B500030205931373000332E20583A3137302079
:101B6000593A31373000473120463830303020582C
:101B700031373020593500322E20583A3137302055
:101B8000593A350047312046383030302058323508
:101B90002020593500312E20583A32352020593A2C
:101BA0003500486175707400473238002D2D3A2D8C
:101BB0002D002D2D2D005344000120000120004D4B
:101BC0003630300046696C616D656E7477656368A8
:101BD00073656C00466C75737300466C75737300A7
:101BE00056656E74696C61746F720056656E7469C7
:101BF0006C61746F720042657474004265747400A5
:101C00004E617365004E6173650047657363687765
:101C1000696E6469676B65697400476573636877AB
:101C2000696E6469676B65697400486175707400FA
:101C30004865697A756E672041555300464C455892
:101C4000202D20203233302F3530005050202020DE
:101C50002D20203235342F31303000484950532068
:101C60002D20203232302F3130300050455420208A
:101C70002D20203234302F393000504C4120202D7F
:101C800020203231302F35300041425320202D208A
:101C9000203235352F313030004861757074004D79
:101CA0003834004D383420582059205A2045004DF2
:101CB0003234004D323320257300052E2E0048614A
:101CC000757074005049442D43005049442D430021
:101CD0005049442D44005049442D44005049442D5E
:101CE00049005049442D49005049442D5000504965
:101CF000442D500056656E74696C61746F720056A5
:101D0000656E74696C61746F720042657474004230
:101D1000657474004E617365004E617365004569BA
:101D20006E7374656C6C756E67656E005800590053
:101D30005A004578747275646572004578747275DE
:101D4000646572005A005900580045696E737465E5
:101D50006C6C756E67656E00473238004175746F44
:101D60002D4E756C6C70756E6B74004B616C696296
:101D700072696572656E004D38340053636872692C
:101D800074746D6F746F72652041555300416368C0
:101D900073656E2066616872656E0054656D70656E
:101DA00072617475720048617570740045696E7374
:101DB00074656C6C756E67656E0046696C616D6507
:101DC0006E742061757377657266656E0046696C26
:101DD000616D656E74206C6164656E004B65696E43
:101DE00065205344204B6172746521005344204B9D
:101DF000617274650041626272656368656E005766
:101E0000656974657200506175736500566F72681C
:101E100065697A656E004665696E65696E7374659D
:101E20006C6C756E6700496E666F0000000A0B02ED
:101E3000090C0D0E0807030401000000000000005B
:101E40000000000000000000000000000000000092
:101E5000000000000000001211100000000000004F
:101E60000000000000000000000000000000000072
:101E70000000000000000000000000000000000062
:101E8000000102102020080810204010204080028D
:101E900001020108040201010204081020408080B0
:101EA0004020100804020180040201804020100834
:101EB000040201080402010102040810204080010C
:101EC00002040810204080100804088010204004FC
:101ED0004080102040048005050505070508080816
:101EE00008020202020A0A080804040404010101AB
:101EF00001010101010303030303030303040707B3
:101F0000070C0C0C0C0C0C0C0C0202020206060650
:101F100006060606060B0B0B0B0B0B0B0B07070A33
:101F20000A0A0A0A0A050505040404080800002034
:101F3000002300260029002C002F003200000100A1
:101F40000003010601090100002200250028002BE2
:101F5000002E003100340002010000050108010BD1
:101F60000100002100240027002A002D003000334A
:101F70000001010000040107010A01024E414E491F
:101F80004E495459494E46CDCCCC3D0AD7233C1737
:101F9000B7D13877CC2B329595E6241FB14F0A0084
:101FA0000020410000C84200401C4620BCBE4CCA74
:101FB0001B0E5AAEC59D740038426AA23C421124E1
:101FC0001FBECFEFD1E2DEBFCDBF00E00CBF15E0FA
:101FD000A0E0B2E0E6E3F8E701E00BBF02C0079043
:101FE0000D92A03EB107D9F723E1A0EEB5E001C004
:101FF0001D92AD3DB207E1F71FE1CCEBDFE100E060
:1020000006C022970109FE010BBF0E94BFB5C83B65
:10201000D10780E00807A9F70E94ACB00C940ABC75
:102020000C940000EF92FF920F931F93CF93DF93D6
:102030001F92CDB7DEB78C017B01460FF70161918E
:102040007F01F8018081918149830E9453BBF8018F
:102050008081918101969183808349814E11EECFD9
:102060000F90DF91CF911F910F91FF90EF90089506
:10207000EF92FF920F931F93CF93DF931F92CDB7F1
:10208000DEB78C017B01460FF80180819181498385
:102090000E944BBBF70181937F01F8018081918100
:1020A00001969183808349814E11EECF0F90DF918D
:1020B000CF911F910F91FF90EF9008950F931F9371
:1020C000CF93DF93CDB7DEB72C970FB6F894DEBF72
:1020D0000FBECDBF80E390E3A0E3B0E08D839E838D
:1020E000AF83B88704E610E01C870B8744E0BE018D
:1020F0006B5F7F4FCE010B9695DF40E168E572E1A3
:10210000CE010B968FDF40E168E672E1CE010B96BF
:1021100089DF40E168E472E1CE010B9683DF44E0A1
:1021200060E472E1CE010B967DDF44E06CE372E186
:10213000CE010B9677DF44E064E472E1CE010B96AA
:1021400071DF44E06CE272E1CE010B966BDF44E09C
:1021500068E772E1CE010B9665DF44E068E372E167
:10216000CE010B965FDF44E064E372E1CE010B9693
:1021700059DF44E060E372E1CE010B9653DF4CE09F
:102180006FE578E0CE010B964DDF42E061EA73E146
:10219000CE010B9647DF42E06FE973E1CE010B966B
:1021A00041DF42E06DE973E1CE010B963BDF42E097
:1021B0006BE973E1CE010B9635DF42E069E973E12B
:1021C000CE010B962FDF42E067E973E1CE010B965B
:1021D00029DF44E06CE478E0CE010B9623DF44E095
:1021E0006AE772E0CE010B961DDF44E066E772E01D
:1021F000CE010B9617DF44E062E772E0CE010B964A
:1022000011DF80E290E09A87898742E0BE01675F34
:102210007F4FCE010B9606DF41E068E478E0CE0107
:102220000B9600DF44E06DE172E0CE010B96FADE22
:1022300044E065E172E0CE010B96F4DE44E063E435
:1022400078E0CE010B96EEDE44E06FE378E0CE015D
:102250000B96E8DE44E061E172E0CE010B96E2DE2F
:1022600041E06BE778E0CE010B96DCDE44E061E311
:1022700072E0CE010B96D6DE86E591E3A3E3B0E0F3
:1022800089839A83AB83BC831C870B8744E0BE01A0
:102290006F5F7F4FCE010B96C5DEEEEAFAE08491C8
:1022A000882341F09091C00095FFFCCF8093C60039
:1022B0003196F5CFECEAF4E08491882341F09091D7
:1022C000C00095FFFCCF8093C6003196F5CF80917A
:1022D000C00085FFFCCF8AE08093C6002C960FB625
:1022E000F894DEBF0FBECDBFDF91CF911F910F914C
:1022F0000895CF93DF93CEEADAE0FE01849188233C
:1023000041F09091C00095FFFCCF8093C6003196BC
:10231000F5CFECE9F4E08491882341F09091C0007E
:1023200095FFFCCF8093C6003196F5CF8091C00019
:1023300085FFFCCF8AE08093C600FE018491EEEA1F
:10234000FAE0882349F09091C00095FFFCCF80937C
:10235000C60031968491F5CF409158125091591290
:1023600060915A1270915B1284E994E00E94F01B14
:1023700040915C1250915D1260915E1270915F12FB
:1023800081E994E00E94F01B40916012509161122B
:1023900060916212709163128EE894E00E94F01BCB
:1023A00040916412509165126091661270916712AB
:1023B0008BE894E00E94F01B8091C00085FFFCCF69
:1023C0008AE08093C600FE018491EEEAFAE0882359
:1023D00049F09091C00095FFFCCF8093C6003196E4
:1023E0008491F5CFE1E7F4E08491882341F0909166
:1023F000C00095FFFCCF8093C6003196F5CF809149
:10240000C00085FFFCCF8AE08093C600FE01849166
:10241000EEEAFAE0882349F09091C00095FFFCCFE6
:102420008093C60031968491F5CF40916812509107
:10243000691260916A1270916B1288E694E00E94B2
:10244000F01B40916C1250916D1260916E12709160
:102450006F1285E694E00E94F01B4091701250913B
:102460007112609172127091731282E694E00E9470
:10247000F01B409174125091751260917612709118
:1024800077128FE594E00E94F01B8091C00085FFD9
:10249000FCCF8AE08093C600FE018491EEEAFAE068
:1024A000882349F09091C00095FFFCCF8093C6002F
:1024B00031968491F5CFE1E4F4E08491882341F0F2
:1024C0009091C00095FFFCCF8093C6003196F5CF68
:1024D0008091C00085FFFCCF8AE08093C600FE019A
:1024E0008491EEEAFAE0882349F09091C00095FFCC
:1024F000FCCF8093C60031968491F5CF409148126D
:102500005091491260914A1270914B1288E394E005
:102510000E94011C40914C1250914D1260914E123C
:1025200070914F1285E394E00E94011C409150127B
:1025300050915112609152127091531282E394E0C3
:102540000E94011C409154125091551260915612F4
:10255000709157128FE294E00E94011C8091C0009C
:1025600085FFFCCF8AE08093C600FE018491EEEAED
:10257000FAE0882349F09091C00095FFFCCF80934A
:10258000C60031968491F5CFEAEFF3E08491882379
:1025900041F09091C00095FFFCCF8093C60031962A
:1025A000F5CF8091C00085FFFCCF8AE08093C60004
:1025B000FE018491EEEAFAE0882349F09091C00090
:1025C00095FFFCCF8093C60031968491F5CF409162
:1025D000401250914112609142127091431281EF6A
:1025E00093E00E94F01B40913C1250913D1260918B
:1025F0003E1270913F128EEE93E00E94F01B80918C
:10260000C00085FFFCCF8AE08093C600FE01849164
:10261000EEEAFAE0882349F09091C00095FFFCCFE4
:102620008093C60031968491F5CFEBE3F3E084917B
:10263000882341F09091C00095FFFCCF8093C600A5
:102640003196F5CF8091C00085FFFCCF8AE0809362
:10265000C600FE018491EEEAFAE0882349F09091E9
:10266000C00095FFFCCF8093C60031968491F5CFD2
:102670004091441250914512609146127091471258
:1026800082E393E00E94F01B40912C1250912D1296
:1026900060912E1270912F128FE293E00E94F01B36
:1026A000409178125091791260917A1270917B1258
:1026B0008CE293E00E94011C409138125091391233
:1026C00060913A1270913B1289E293E00E94F01BF4
:1026D0004091341250913512609136127091371238
:1026E00086E293E00E94F01B40913012509131122B
:1026F000609132127091331283E293E00E94F01BDA
:102700008091C00085FFFCCF8AE08093C600FE0167
:102710008491EEEAFAE0882349F09091C00095FF99
:10272000FCCF8093C60031968491F5CFE1E1F3E0D0
:102730008491882341F09091C00095FFFCCF809355
:10274000C6003196F5CF8091C00085FFFCCF8AE0AE
:102750008093C600FE018491EEEAFAE0882349F0F6
:102760009091C00095FFFCCF8093C6003196849174
:10277000F5CF40915F0850916008609161087091B9
:10278000620888E093E00E94F01B4091630850913A
:102790006408609165087091660885E093E00E9486
:1027A000F01B40916708509168086091690870912A
:1027B0006A0882E093E00E94F01B8091C00085FFD0
:1027C000FCCF8AE08093C600FE018491EEEAFAE035
:1027D000882349F09091C00095FFFCCF8093C600FC
:1027E00031968491F5CFE4EFF2E08491882341F0B3
:1027F0009091C00095FFFCCF8093C6003196F5CF35
:102800008091C00085FFFCCF8AE08093C600FE0166
:102810008491EEEAFAE0882349F09091C00095FF98
:10282000FCCF8093C60031968491F5CF40917A0217
:1028300050917B0260917C0270917D028AEE92E061
:10284000CFD7609176027091770280917802909153
:1028500079020E94E787AB01BC0187EE92E0C0D706
:10286000609172027091730280917402909175026E
:102870000E94F387AB01BC0184EE92E0B1D7809156
:10288000C00085FFFCCF8AE08093C600FE018491E2
:10289000EEEAFAE0882349F09091C00095FFFCCF62
:1028A0008093C60031968491F5CFE0EBF2E08491FD
:1028B000882341F09091C00095FFFCCF8093C60023
:1028C0003196F5CF8091C00085FFFCCF8AE08093E0
:1028D000C600FE018491EEEAFAE0882349F0909167
:1028E000C00095FFFCCF8093C60031968491F5CF50
:1028F00040911D0250911E0260911F0270912002B2
:1029000086EA92E06DD720E030E040E752E4609143
:1029100015027091160280911702909118020E9480
:1029200069B4AB01BC0183EA92E05AD740914308F5
:1029300050914408609145087091460880EA92E001
:102940004FD78091C00085FFFCCF8AE08093C600FE
:10295000FE018491EEEAFAE0882349F09091C000EC
:1029600095FFFCCF8093C60031968491F5CFE4E7C4
:10297000F2E08491882341F09091C00095FFFCCF54
:102980008093C6003196F5CF8091C00085FFFCCFC3
:102990008AE08093C600FE018491EEEAFAE0882383
:1029A00049F09091C00095FFFCCF8093C60031960E
:1029B0008491F5CF40913F085091400860914108C3
:1029C000709142088AE692E00BD720E030E040E7C1
:1029D00052E4609111027091120280911302909161
:1029E00014020E9469B4AB01BC0187E692E0F8D6FC
:1029F0008091C00085FFFCCF8AE08093C600FE0175
:102A00008491EEEAFAE0882349F09091C00095FFA6
:102A1000FCCF8093C60031968491F5CFEDE0F2E0D3
:102A20008491882341F09091C00095FFFCCF809362
:102A3000C6003196F5CF8091C00085FFFCCF8AE0BB
:102A40008093C600FE018491EEEAFAE0882349F003
:102A50009091C00095FFFCCF8093C6003196849181
:102A6000F5CF4091480850E060E070E083E092E0EC
:102A7000C8D68091C00085FFFCCF8AE08093C60055
:102A8000FE018491EEEAFAE0882349F09091C000BB
:102A900095FFFCCF8093C60031968491F5CF80914D
:102AA0007B08882399F1E0EFF1E08491882341F0DD
:102AB0009091C00095FFFCCF8093C6003196F5CF72
:102AC0008091C00085FFFCCF8AE08093C600FE01A4
:102AD000C491EEEAFAE0CC2349F08091C00085FF72
:102AE000FCCFC093C6003196C491F5CF409131021E
:102AF00050913202609133027091340286EE91E07F
:102B00006FD68091C00085FFFCCF11C0EAECF1E0E8
:102B10008491882341F09091C00095FFFCCF809371
:102B2000C6003196F5CF8091C00085FFFCCF8AE0CA
:102B30008093C600DF91CF910895AF92BF92CF925C
:102B4000DF92EF92FF920F931F93CF93DF93CDB756
:102B5000DEB7E0970FB6F894DEBF0FBECDBF80E1C1
:102B6000E7EAF2E0DE01919601900D928A95E1F795
:102B700080E1E7EBF2E0DE01519601900D928A953B
:102B8000E1F780E1E7ECF2E0DE01119601900D92B1
:102B90008A95E1F76E0181E2C80ED11C88E5E82E26
:102BA00082E1F82E8E010F5E1F4F68E672E1AE01E2
:102BB0004F5F5F4F98E4A92E92E1B92E20E030E0FC
:102BC000F60181919191A191B1916F01F7018193EA
:102BD0009193A193B1937F01F80181919191A1917A
:102BE000B1918F01FB0181939193A193B193BF01A7
:102BF000FA0181919191A191B191AF01F501819378
:102C00009193A193B1935F012F5F3F4F2430310522
:102C1000B9F60E94497080E090E8ABE3B5E4809398
:102C2000401290934112A0934212B09343128093AA
:102C30003C1290933D12A0933E12B0933F1210921B
:102C4000441210924512109246121092471280E2DE
:102C50009EE4A0E0B0E08093781290937912A09364
:102C60007A12B0937B1210922C1210922D121092A5
:102C70002E1210922F1280E090E0A0EAB1E480932F
:102C8000381290933912A0933A12B0933B128DEC04
:102C90009CECACECBEE38093341290933512A0937D
:102CA0003612B093371280E090E0A0EAB0E480934F
:102CB000301290933112A0933212B09333121092CB
:102CC0006708109268081092690810926A081092BA
:102CD00063081092640810926508109266081092BA
:102CE0005F0810926008109261081092620882EDED
:102CF00090E09093A2138093A11382E390E09093CD
:102D0000A01380939F1310929E1310929D138FEF28
:102D100090E090939C1380939B1384E690E09093B3
:102D20009A1380939913109298131092971380E03E
:102D300090E0A4E8B2E480937A0290937B02A0939F
:102D40007C02B0937D0266EF78E288E391E40E9412
:102D5000E187609376027093770280937802909374
:102D600079026FE872E48DEB92E40E94ED87609344
:102D700072027093730280937402909375020E94A2
:102D80002D7D80E090E0A0E8BFE380936E029093F9
:102D90006F02A0937002B09371021092480880E015
:102DA00090E0A0E4B0E480931D0290931E02A093F3
:102DB0001F02B093200240E050E064E372E44093CD
:102DC0001502509316026093170270931802109226
:102DD0004308109244081092450810924608109239
:102DE0003F0810924008109241081092420840E0BB
:102DF00050E060E071E4409311025093120260933E
:102E000013027093140210927B0880933102909306
:102E10003202A0933302B09334020E94EE28EEEA0D
:102E2000FAE08491882341F09091C00095FFFCCF97
:102E30008093C6003196F5CFEEE8F1E084918823C7
:102E400041F09091C00095FFFCCF8093C600319671
:102E5000F5CF8091C00085FFFCCF8AE08093C6004B
:102E6000E0960FB6F894DEBF0FBECDBFDF91CF91D5
:102E70001F910F91FF90EF90DF90CF90BF90AF9098
:102E80000895CF93DF93CDB7DEB72C970FB6F894A4
:102E9000DEBF0FBECDBF84E690E09C878B8786E5C2
:102EA00091E3A3E3B0E089839A83AB83BC8344E0DE
:102EB000BE016B5F7F4FCE010B96DAD843E050E046
:102EC000BE016B5F7F4FCE0101960E9412B9892B24
:102ED00009F0E3C040E168E572E1CE010B96C8D885
:102EE00040E168E672E1CE010B96C2D840E168E4A9
:102EF00072E1CE010B96BCD80E94497044E060E4B8
:102F000072E1CE010B96B4D844E06CE372E1CE01DD
:102F10000B96AED844E064E472E1CE010B96A8D8DB
:102F200044E06CE272E1CE010B96A2D844E068E77F
:102F300072E1CE010B969CD844E068E372E1CE01C9
:102F40000B9696D844E064E372E1CE010B9690D8DC
:102F500044E060E372E1CE010B968AD84CE06FE565
:102F600078E0CE010B9684D842E061EA73E1CE01AD
:102F70000B967ED842E06FE973E1CE010B9678D8CC
:102F800042E06DE973E1CE010B9672D842E06BE945
:102F900073E1CE010B966CD842E069E973E1CE0192
:102FA0000B9666D842E067E973E1CE010B9660D8D4
:102FB00044E06CE478E0CE010B965AD844E06AE72E
:102FC00072E0CE010B9654D844E066E772E0CE0181
:102FD0000B964ED844E062E772E0CE010B9648D8DB
:102FE00042E0BE01675F7F4FCE010B9641D841E0C2
:102FF00068E478E0CE010B963BD844E06DE172E0E6
:10300000CE010B9635D844E065E172E0CE010B9617
:103010002FD844E063E478E0CE010B9629D844E051
:103020006FE378E0CE010B9623D844E061E172E0D3
:10303000CE010B961DD841E06BE778E0CE010B96F0
:1030400017D844E061E372E0CE010B9611D80E94DC
:10305000EE280E942D7DEEEAFAE08491882341F06B
:103060009091C00095FFFCCF8093C6003196F5CFBC
:10307000E0EBF1E08491882341F09091C00095FF4E
:10308000FCCF8093C6003196F5CF8091C00085FFBC
:10309000FCCF8AE08093C60001C04FDD2AD92C9670
:1030A0000FB6F894DEBF0FBECDBFDF91CF9108956C
:1030B0001F920F920FB60F9211240BB60F922F93FF
:1030C0003F934F935F936F938F939F93EF93FF93F0
:1030D0006091C6002091610630916206C901019697
:1030E0008F7799274091630650916406841795075E
:1030F00041F0F901EF51FA4F60839093620680939B
:103100006106FF91EF919F918F916F915F914F9128
:103110003F912F910F900BBE0F900FBE0F901F90FD
:1031200018959A01AB01211581EE3807410551052B
:1031300049F182E08093C00060E079E08DE390E0A7
:103140000E9487B52150310941095109CA01B901CD
:1031500022E030E040E050E00E9487B53093C500A7
:103160002093C4008091C10080618093C100809150
:10317000C10088608093C1008091C1008068809305
:10318000C10008951092C00020E130E0E7CF209107
:103190006306309164068091610690916206821701
:1031A000930771F0F901EF51FA4F80812F5F3F4F84
:1031B0002F773327309364062093630690E00895B9
:1031C0008FEF9FEF0895809163069091640690932E
:1031D00062068093610608954F925F926F927F928C
:1031E0008F929F92AF92BF92CF92DF92EF92FF9217
:1031F0000F931F93CF93DF93CDB7DEB7A0970FB692
:10320000F894DEBF0FBECDBF5C01411551056105CD
:103210007105E9F420E030E040E350E060E070E068
:10322000A0960FB6F894DEBF0FBECDBFDF91CF9151
:103230001F910F91FF90EF90DF90CF90BF90AF90D4
:103240009F908F907F906F905F904F905BC08E01AA
:103250000F5F1F4FC12CD12C76014801422E512CFB
:10326000612C712C8FEFC81AD80AE80AF80ACB0132
:10327000BA01A30192010E9465B5CA01F8016193E8
:103280008F01A901BC01411551056105710551F777
:10329000F1E0CF1AD108E108F108F401EC0DFD1DB1
:1032A00080818A3010F440E301C047E3480F55277E
:1032B00047FD5095652F752F20E030E0C50122D0E5
:1032C00081E0C81AD108E108F108EFEFCE16DE065A
:1032D000EE06FE0611F7A0960FB6F894DEBF0FBEFD
:1032E000CDBFDF91CF911F910F91FF90EF90DF90B5
:1032F000CF90BF90AF909F908F907F906F905F9096
:103300004F9008952115310539F48091C00085FF53
:10331000FCCF4093C60008952A30310509F41CC043
:103320005BCFCF93DF93EC0120E030E04DE050E045
:1033300060E070E0E7DF20E030E04AE050E060E08D
:1033400070E0CE01DF91CF91DDCF9A01AB0166270E
:1033500057FD6095762FD6CFCF92DF92EF92FF92F6
:10336000CF93DF93EC016A017B0177FF0FC020E070
:1033700030E04DE250E060E070E0C4DFF094E094B3
:10338000D094C094C11CD11CE11CF11C2AE0B701EF
:10339000A601CE01DF91CF91FF90EF90DF90CF900B
:1033A0001BCF2115310539F48091C00085FFFCCF7A
:1033B0004093C600089510CF9A01462F50E060E078
:1033C00070E0EFCFCF93DF93EC019A01AB0160E0A7
:1033D00070E0E7DFCE01DF91CF91A3CF8F929F9274
:1033E000AF92BF92CF92DF92EF92FF921F93CF9353
:1033F000DF93EC016A017B01122F20E030E0A9018C
:10340000C701B6010E9494B187FF0CC020E030E0F4
:103410004DE250E060E070E0CE0174DFF7FAF09426
:10342000F7F8F094B12C60E070E080E09FE3B11613
:1034300041F020E030E040E251E40E949BB1B394BF
:10344000F6CF9B01AC01C701B6010E94BBB06B0176
:103450007C010E9408B24B015C010E9434B29B01C6
:10346000AC01C701B6010E94BAB06B017C012AE031
:10347000B501A401CE01B0DE112361F0E6E7F5E06D
:103480008191882339F09091C00095FFFCCF809303
:10349000C600F6CF112319F120E030E040E251E4FC
:1034A000C701B6010E9469B46B017C010E9403B29E
:1034B0004B01AA2497FCA094BA2CB501A401CE011B
:1034C0004BDFC501B4010E9436B29B01AC01C701BC
:1034D000B6010E94BAB06B017C011150DBCFDF91C5
:1034E000CF911F91FF90EF90DF90CF90BF90AF9062
:1034F0009F908F90089572CFFC0165917591859191
:10350000949108952F923F924F925F926F927F9283
:103510008F929F92AF92BF92CF92DF92EF92FF92E3
:103520000F931F93CF93DF9300D000D0CDB7DEB7BA
:103530001C01FC01E159F54F14919C01220F331F2E
:10354000220F331F3E832D832559374F4901F9013F
:10355000108211821282138227E738E043E758E095
:103560006FE678E08BE698E00E94776F8D819E8110
:103570008258954FC1DF6B017C01612F772767FD72
:103580007095872F972F0E9436B22B013C012D8119
:103590003E81265D374F590120E030E040EC5FE38B
:1035A000C701B6010E9469B4A30192010E9469B4E7
:1035B000F50160837183828393832D813E81235C37
:1035C0003D4F3C832B83F90160817181828193811E
:1035D00060930B0270930C0280930D0290930E0285
:1035E00020E030E040E752E40E949BB12BE4C22E81
:1035F00028E0D22E7B018C0126E338E042E358E03C
:103600006EE278E08AE298E00E94B1650E948278DA
:10361000F401108211821282138227E738E043E717
:1036200058E06FE678E08BE698E00E94776F2D8196
:103630003E812E58354F3A832983C9015DDF90586A
:10364000A30192010E9469B4F501608371838283B2
:10365000938320E030E040E752E460910B027091E8
:103660000C0280910D0290910E020E949BB17B0191
:103670008C0126E338E042E358E06EE278E08AE22B
:1036800098E00E94B1650E94827889819A8134DF36
:103690009B01AC010E94BBB0A30192010E9469B4DE
:1036A000F501608371838283938320E030E040E002
:1036B0005FE3EB81FC8160817181828193810E9453
:1036C00069B460930B0270930C0280930D02909387
:1036D0000E0220E030E040E752E40E949BB17B0103
:1036E0008C0126E338E042E358E06EE278E08AE2BB
:1036F00098E00E94B1650E9482788D819E818657F4
:10370000954FFADE0D811E81015A174FF801208175
:103710003181428153810E94BBB0F4016083718387
:10372000828393838D819E818E55954FE5DE2D8119
:103730003E812D5A374F7901F80120813181428134
:1037400053810E94BBB0F7016083718382839383AE
:103750008D819E818A56954FCFDE2D813E812F5DD2
:103760003D4F7901F80120813181428153810E94CE
:10377000BBB0F7016083718382839383F4018081FE
:103780009181A281B381F50180839183A283B38368
:1037900010920B0210920C0210920D0210920E0267
:1037A0000E942C71F101E05BF74F81E08083269647
:1037B0000FB6F894DEBF0FBECDBFDF91CF911F9142
:1037C0000F91FF90EF90DF90CF90BF90AF909F90C0
:1037D0008F907F906F905F904F903F902F900895C3
:1037E000FC012491222341F03091C00035FFFCCF31
:1037F0002093C6000196F4CF22E030E080EE95E001
:103800007ACEFC012491222341F03091C00035FF93
:10381000FCCF2093C6000196F4CF2AE030E080EE82
:1038200095E0BFCD20917F06309180062430310590
:103830000CF06AC0409181065091820660E6649F58
:103840009001659F300D1124BC01C9018757994F24
:103850000E940BB9EEEAFAE08491882341F090913E
:10386000C00095FFFCCF8093C6003196F5CFE4E60B
:10387000FAE08491882341F09091C00095FFFCCF3D
:103880008093C6003196F5CF809181069091820693
:1038900020E6289FF001299FF00D1124E757F94FEA
:1038A0008191882339F09091C00095FFFCCF8093DF
:1038B000C600F6CFE2E6FAE08491882341F09091C9
:1038C000C00095FFFCCF8093C6003196F5CF809164
:1038D000C00085FFFCCF8AE08093C60080918106FE
:1038E00090918206019664E070E00E9452B5909338
:1038F00082068093810680917F06909180060196D2
:103900009093800680937F06089520917F063091E2
:103910008006243031050CF06AC040918106509138
:10392000820660E6649F9001659F300D1124BC0102
:10393000C9018757994F0E947BB8EEEAFAE084915B
:10394000882341F09091C00095FFFCCF8093C60082
:103950003196F5CFE7E5FAE08491882341F0909124
:10396000C00095FFFCCF8093C6003196F5CF8091C3
:1039700081069091820620E6289FF001299FF00D94
:103980001124E757F94F8191882339F09091C000B5
:1039900095FFFCCF8093C600F6CFE5E5FAE0849171
:1039A000882341F09091C00095FFFCCF8093C60022
:1039B0003196F5CF8091C00085FFFCCF8AE08093DF
:1039C000C6008091810690918206019664E070E0C5
:1039D0000E9452B5909382068093810680917F0663
:1039E0009091800601969093800680937F060895BB
:1039F0009B9AA3980895FCDF40E052EC61E070E0F0
:103A000080EE95E08EDBEFE4FAE08491882341F0CC
:103A10009091C00095FFFCCF8093C6003196F5CF02
:103A20008091C00085FFFCCF8AE08093C6008EEABB
:103A30009AE0FC012491222341F03091C00035FF2F
:103A4000FCCF2093C6003196F5CF24B720FF14C0D9
:103A5000E7E4FAE03491332341F04091C00045FFA0
:103A6000FCCF3093C6003196F5CF3091C00035FFC2
:103A7000FCCF3AE03093C60021FF14C0E7E3FAE040
:103A80003491332341F04091C00045FFFCCF309387
:103A9000C6003196F5CF3091C00035FFFCCF3AE03B
:103AA0003093C60022FF14C0E6E2FAE034913323DB
:103AB00041F04091C00045FFFCCF3093C6003196E5
:103AC000F5CF3091C00035FFFCCF3AE03093C6000F
:103AD00023FF14C0E6E1FAE03491332341F0409132
:103AE000C00045FFFCCF3093C6003196F5CF309132
:103AF000C00035FFFCCF3AE03093C60025FF14C06C
:103B0000E6E0FAE02491222341F03091C00035FF35
:103B1000FCCF2093C6003196F5CF2091C00025FF41
:103B2000FCCF2AE02093C60014BEEFEFF9E0249109
:103B3000222341F03091C00035FFFCCF2093C60016
:103B40003196F5CFE9EFF9E02491222341F030914D
:103B5000C00035FFFCCF2093C6003196F5CF2091F1
:103B6000C00025FFFCCF2AE02093C600FC01249171
:103B7000EEEAFAE0222349F03091C00035FFFCCF95
:103B80002093C60031962491F5CFE9EEF9E0249117
:103B9000222341F03091C00035FFFCCF2093C600B6
:103BA0003196F5CFE4EDF9E02491222341F03091F4
:103BB000C00035FFFCCF2093C6003196F5CFE8EC6E
:103BC000F9E02491222341F03091C00035FFFCCF71
:103BD0002093C6003196F5CFE1EBF9E02491222342
:103BE00041F03091C00035FFFCCF2093C6003196E4
:103BF000F5CF2091C00025FFFCCF2AE02093C6001E
:103C0000E6EAF9E02491222341F03091C00035FF2B
:103C1000FCCF2093C6003196F5CFEAE9F9E0249174
:103C2000222341F03091C00035FFFCCF2093C60025
:103C30003196F5CF2091C00025FFFCCF2AE02093DC
:103C4000C600FC018491EEEAFAE0882349F09091E5
:103C5000C00095FFFCCF8093C60031968491F5CFCC
:103C6000EBE8F9E08491882341F09091C00095FF42
:103C7000FCCF8093C6003196F5CF0E94694D4AE093
:103C800050E0BC0180EE95E060DBE4E7F9E0849170
:103C9000882341F09091C00095FFFCCF8093C6002F
:103CA0003196F5CF4AE050E060ED74E080EE95E0AB
:103CB0004CDB8091C00085FFFCCF8AE08093C6007A
:103CC000109285061092860610928706109288063A
:103CD000D8D80E94AE800E9426650E948A7A0E94EF
:103CE000B198FFEF23ED80E3F15020408040E1F7F1
:103CF00000C0000008958091790690917A0660E0F6
:103D000070E001960C94D2B58091790690917A0674
:103D10004AE050E060E070E001960C943AB7682FFA
:103D2000772767FD7095209183063091840640E6E1
:103D3000429FC001439F900D11248757994F0E94C5
:103D4000F7B890937A068093790621E0892B09F4DD
:103D500020E0822F08950E9463AA609375067093F5
:103D60007606809377069093780608950E9463AA5A
:103D70006093750670937606809377069093780625
:103D8000E0918306F0918406EB57F94F8081811111
:103D900014C0E4E6F5E08491882341F09091C000DE
:103DA00095FFFCCF8093C6003196F5CF8091C0007F
:103DB00085FFFCCF8AE08093C600089580EE95E0F1
:103DC00002DAE7E6F5E08491882341F09091C000A3
:103DD00095FFFCCF8093C6003196F5CF40910E0839
:103DE00050910F0860911008709111084F5F5F4F5C
:103DF0006F4F7F4F2AE030E080EE95E083DA8091CC
:103E0000C00085FFFCCF8AE08093C600AFCF8F92C1
:103E10009F92AF92BF92CF92DF92EF92FF920F9359
:103E20001F93CF93DF933BE5E32E34E0F32E0BE6B5
:103E300018E0CAE2D8E040E8C42E48E0D42EF701EA
:103E400081917F016CDF882311F155DF4B015C010B
:103E5000F6018081811103C06091090801C061E011
:103E600070E080E090E00E9436B2F801208131815C
:103E7000428153810E9469B49B01AC01C501B40128
:103E80000E94BBB0688379838A839B8309C0F80151
:103E900080819181A281B38188839983AA83BB8326
:103EA0000C5F1F4F2496FFEFCF1ADF0A8FE5E8164D
:103EB00084E0F80621F686E432DF8823D1F01BDFA8
:103EC0006B017C0160931A0870931B0880931C0897
:103ED00090931D0820E030E0A9010E9497B31816C6
:103EE00044F4C0920B02D0920C02E0920D02F092C8
:103EF0000E02DF91CF911F910F91FF90EF90DF9015
:103F0000CF90BF90AF909F908F90089580DF89E40D
:103F100006DF882351F0EFDE60931E0870931F08C0
:103F2000809320089093210808C010921E081092D8
:103F30001F0810922008109221088AE4F0DE8823DE
:103F400051F0D9DE609322087093230880932408EF
:103F50009093250808951092220810922308109239
:103F60002408109225080895CF92DF92EF92FF92D5
:103F7000CF93DF93EC01C0905308D0905408E090A9
:103F80005508F0905608A7019601688179818A81C9
:103F90009B810E9494B187FF04C0C882D982EA82C3
:103FA000FB82C0905708D0905808E0905908F090D4
:103FB0005A08A70196016C817D818E819F810E94A4
:103FC00094B187FF04C0CC82DD82EE82FF8220E0C4
:103FD00030E0A90160915B0870915C0880915D08F8
:103FE00090915E080E94BBB06B017C019B01AC010B
:103FF000688579858A859B850E9494B187FF04C076
:10400000C886D986EA86FB86C0902102D09022021B
:10401000E0902302F0902402A70196016881798143
:104020008A819B810E9497B3181624F4C882D98292
:10403000EA82FB82C0902502D0902602E0902702FF
:10404000F0902802A70196016C817D818E819F816D
:104050000E9497B3181624F4CC82DD82EE82FF8290
:10406000C0902902D0902A02E0902B02F0902C02FE
:10407000A7019601688579858A859B850E9497B3FB
:10408000181624F4C886D986EA86FB86DF91CF917C
:10409000FF90EF90DF90CF900895CF92DF92EF9254
:1040A000FF920F931F938AE298E05EDF0E9463AA5B
:1040B00060937506709376068093770690937806E2
:1040C00020912A0830912B0840912C0850912D08FE
:1040D00060916B0870916C0880916D0890916E08EA
:1040E0000E9494B1811179C020912E0830912F083F
:1040F000409130085091310860916F0870917008BC
:1041000080917108909172080E9494B1811165C0EC
:1041100020E030E040E752E460910B0270910C0225
:1041200080910D0290910E020E949BB15BE4C52E1E
:1041300058E0D52E7B018C0126E338E042E358E0BD
:104140006EE278E08AE298E00E94B16580912A08E8
:1041500090912B08A0912C08B0912D0880936B08AA
:1041600090936C08A0936D08B0936E0880912E0810
:1041700090912F08A0913008B091310880936F087A
:1041800090937008A0937108B093720880913208E0
:1041900090913308A0913408B0913508809373084A
:1041A00090937408A0937508B093760880913608B0
:1041B00090913708A0913808B0913908809377081A
:1041C00090937808A0937908B0937A081F910F9183
:1041D000FF90EF90DF90CF90089560913B02709137
:1041E0003C02882777FD8095982F0E9436B2209157
:1041F0000B0230910C0240910D0250910E020E9470
:1042000069B420E030E040E752E40E949BB120E036
:1042100030E048EC52E488CFCF92DF92EF92FF92E9
:10422000CF93C62FE0914B08F0E0882309F4C2C079
:10423000DF01A95BB74F8C91811196C180916B080A
:1042400090916C08A0916D08B0916E0880932A0837
:1042500090932B08A0932C08B0932D0880916F08A1
:1042600090917008A0917108B091720880932E0807
:1042700090932F08A0933008B09331088091730871
:1042800090917408A0917508B091760880933208D7
:1042900090933308A0933408B0933508C090770802
:1042A000D0907808E0907908F0907A08C0923608AB
:1042B000D0923708E0923808F0923908EE0FFF1FCD
:1042C000EE0FFF1FE35DFD4F20813181428153815D
:1042D000CC2349F06091190270911A0280911B025F
:1042E00090911C0208C060911D0270911E02809185
:1042F0001F02909120020E949BB19B01AC01C7015B
:10430000B6010E94BBB060937708709378088093E1
:10431000790890937A0887E798E00E941C70C09013
:104320000B02D0900C02E0900D02F0900E0220E003
:1043300030E040E752E460911502709116028091DE
:104340001702909118020E9469B460930B02709357
:104350000C0280930D0290930E02E0914B08F0E066
:10436000E95BF74F81E0808398DE2091430830912C
:104370004408409145085091460860917308709137
:10438000740880917508909176080E94BAB0609385
:10439000730870937408809375089093760827E7E4
:1043A00038E043E758E06FE678E08BE698E00E945B
:1043B000776FD1C0E95BF74F8081882309F4D4C0BF
:1043C00080916B0890916C08A0916D08B0916E0877
:1043D00080932A0890932B08A0932C08B0932D0863
:1043E00080916F0890917008A0917108B091720847
:1043F00080932E0890932F08A0933008B093310833
:104400006091730870917408809175089091760896
:104410006093320870933308809334089093350882
:10442000C0907708D0907808E0907908F0907A08EA
:10443000C0923608D0923708E0923808F0923908D6
:104440002091430830914408409145085091460816
:104450000E94BBB0609373087093740880937508D2
:104460009093760827E738E043E758E06FE678E076
:104470008BE698E00E94776FF0904B08CC2389F090
:1044800020913B0830913C0840913D0850913E08F6
:104490006091190270911A0280911B0290911C0286
:1044A00010C020913F083091400840914108509140
:1044B000420860911D0270911E0280911F0290912E
:1044C00020020E94BBB024E0F29EF0011124E35DC3
:1044D000FD4F20813181428153810E949BB19B011C
:1044E000AC0160917708709178088091790890917B
:1044F0007A080E94BAB06093770870937808809326
:10450000790890937A0887E798E00E941C70C09021
:104510000B02D0900C02E0900D02F0900E0220E011
:1045200030E040E752E460911102709112028091F4
:104530001302909114020E9469B460930B0270936D
:104540000C0280930D0290930E02E0914B08F0E074
:10455000E95BF74F1082A1DDC0920B02D0920C02F2
:10456000E0920D02F0920E02CF91FF90EF90DF905B
:10457000CF900895AF92BF92CF92DF92EF92FF92C9
:104580000F931F93CF93DF93D82F20912208309160
:104590002308409124085091250860911E087091CD
:1045A0001F0880912008909121080E94A4B3C62F73
:1045B000172F082FF92E60913B0270913C0288273B
:1045C00077FD8095982F0E9436B220910B02309192
:1045D0000C0240910D0250910E020E9469B420E03D
:1045E00030E040E752E40E949BB120E030E048EC2C
:1045F00052E40E949BB120914B082F93DF93FF92CE
:104600000F931F93CF935B016C0172E0E72E01E0E3
:1046100020E04EE158E06AE278E08BE698E00E9404
:10462000FE5D80912A0890912B08A0912C08B091F2
:104630002D0880936B0890936C08A0936D08B0933D
:104640006E0880912E0890912F08A0913008B091AB
:10465000310880936F0890937008A0937108B0930D
:1046600072088091320890913308A0913408B0917B
:1046700035088093730890937408A0937508B093DD
:1046800076088091360890913708A0913808B0914B
:1046900039088093770890937808A0937908B093AD
:1046A0007A080E9463AA60937506709376068093D9
:1046B0007706909378060F900F900F900F900F90C1
:1046C0000F90DF91CF911F910F91FF90EF90DF90AE
:1046D000CF90BF90AF900895F8940E946F81179A81
:1046E00010925008169A10925108159A109252087A
:1046F000149A60E087E40E943CACE4EBFAE0849119
:10470000882341F09091C00095FFFCCF8093C600B4
:104710003196F5CFE5E4F5E08491882341F090915E
:10472000C00095FFFCCF8093C6003196F5CF8091F5
:10473000C00085FFFCCF8AE08093C6008CE395E043
:104740000E944E987894C6E0D0E0219749F068EC3A
:1047500070E080E090E00E9492AA0E94DE98F5CF7F
:10476000F894FFCF2F923F924F925F926F927F9279
:104770008F929F92AF92BF92CF92DF92EF92FF9271
:104780000F931F93CF93DF93CDB7DEB76E970FB61E
:10479000F894DEBF0FBECDBFB0E6BB2E14E0E12E15
:1047A000F12C0AE3C02E08E0D02E8AE0A82E99242E
:1047B00093948091610690916206209163063091F6
:1047C0006406821B930B8F779927892B09F418C2F3
:1047D00080917F069091800604970CF011C280EEC4
:1047E00095E00E94C71880937E0620917C06309148
:1047F0007D068A3061F08D3051F08A3321F490913A
:104800007B06992321F02F3531050CF41BC12115AE
:10481000310509F435C18091810690918206B89ED8
:104820003001B99E700C1124F301E20FF31FE7571A
:10483000F94F108220917B062111FFC0FC01EB573C
:10484000F94F108283010757194F6EE470E0C801D9
:104850000E94F7B80097F1F190937A068093790659
:10486000801B910B860D971D4AE050E060E070E0E0
:104870008657994F0E943AB76093120870931308B5
:10488000809314089093150840900E0850900F08DC
:1048900060901008709011082FEF421A520A620AB5
:1048A000720A0091810610918206641575058605CD
:1048B000970509F4E8C0B09EC001B19E900D112487
:1048C00066E579E08757994F0E94A9B8892B09F0CE
:1048D000DAC069C16AE270E0C8010E94F7B8892BAA
:1048E00009F444C0E4EBFAE08491882341F090910C
:1048F000C00095FFFCCF8093C6003196F5CFE0EB6A
:10490000F8E08491882341F09091C00095FFFCCF9E
:104910008093C6003196F5CF40910E0850910F0854
:1049200060911008709111082AE030E080EE95E067
:104930000E9482198091C00085FFFCCF8AE080939D
:10494000C60010927D0610927C06C0C280911208AB
:1049500090911308A0911408B091150880930E0847
:1049600090930F08A0931008B093110880918106CE
:1049700090918206B89E8001B99E100D1124C80145
:104980008757994F3C0167E470E00E94F7B80097A1
:1049900081F190937A068093790686199709800FA2
:1049A000911F60E070E08657994F0E94D2B50E9437
:1049B00003B264307105E8F4809167068823C9F07A
:1049C000F6018491EAE3F8E0882349F09091C00071
:1049D00095FFFCCF8093C60031968491F5CF8091EE
:1049E000C00085FFFCCFA092C60080E398E00E9443
:1049F00041980091810610918206B09EC001B19E3F
:104A0000900D112464E373E08757994F0E9402B917
:104A1000892B09F461DEC8010196B7010E9452B5E5
:104A2000909382068093810680917F069091800604
:104A300001969093800680937F0610927D061092D7
:104A40007C06B7CE8B3311F490927B0690917B0657
:104A50009111AFCE4091810650918206B9016F5FEE
:104A60007F4F70937D0660937C06B49EF001B59EE7
:104A7000F00D1124E20FF31FE757F94F808399CE11
:104A800010927B0623C2B09E3001B19E700C11249F
:104A9000C3018757994F1C016AE270E00E94F7B882
:104AA000009789F5E4EBFAE08491882341F0909136
:104AB000C00095FFFCCF8093C6003196F5CFEAED9C
:104AC000F8E08491882341F09091C00095FFFCCFDD
:104AD0008093C6003196F5CF40910E0850910F0893
:104AE00060911008709111082AE030E080EE95E0A6
:104AF0000E9482198091C00085FFFCCF8AE08093DC
:104B0000C6005CD91ECF20E010E0F301E20FF11DDA
:104B1000E757F94F30813A3219F02F5F1327F5CF5D
:104B200090937A068093790682199309860D971DD2
:104B300060E070E08657994F0E94D2B50E9403B2A0
:104B4000212F30E02617370709F400CFE4EBFAE015
:104B50008491882341F09091C00095FFFCCF809311
:104B6000C6003196F5CFE4E0F9E08491882341F066
:104B70009091C00095FFFCCF8093C6003196F5CF91
:104B800040910E0850910F08609110087091110823
:104B90002AE030E080EE95E00E9482198091C0000A
:104BA00085FFFCCFABCFE4EBFAE08491882341F0A2
:104BB0009091C00095FFFCCF8093C6003196F5CF51
:104BC000E3E2F9E08491882341F09091C00095FFE1
:104BD000FCCF8093C6003196F5CF40910E085091DE
:104BE0000F0860911008709111082AE030E080EE03
:104BF00095E00E9482198091C00085FFFCCF7ECF96
:104C000080918608882309F461C180917C06909187
:104C10007D06892B09F05AC180917F06909180060C
:104C2000892B11F410926506F8EE2F2EF3E03F2E3B
:104C3000412C512CACE3CA2ED12CE12CF12C8E014D
:104C40000F5F1F4FE0E66E2E772473944091070BA1
:104C50005091080B6091090B70910A0B8091FF0A2B
:104C60009091000BA091010BB091020B48175907CE
:104C70006A077B0708F02AC180917F069091800621
:104C800004970CF023C18091650681111FC18091AA
:104C90005A0A90915B0AA0915C0AB0915D0A8093D8
:104CA000070B9093080BA093090BB0930A0B82E5B6
:104CB0009AE00E943B47482F80937E068A30B9F0E5
:104CC0004D30A9F0433229F420917B06211103C015
:104CD0000EC04A33C9F320917C0630917D062F35F2
:104CE00031052CF48F3FFFEF9F0709F0D1C04091B1
:104CF000070B5091080B6091090B70910A0B809182
:104D0000FF0A9091000BA091010BB091020B481784
:104D100059076A077B0708F481C0EDE1F8E0849148
:104D2000882341F09091C00095FFFCCF8093C6008E
:104D30003196F5CF8091C00085FFFCCFFAE0F0936B
:104D4000C6000E9463AA6093690670936A06809306
:104D50006B0690936C0680906D0690906E06A09006
:104D60006F06B0907006681979098A099B09A2013B
:104D700091010E9465B549015A01CA01B901A70113
:104D800096010E9465B5CA01B901A70196010E946A
:104D900065B57F936F93C501B40120E13EE040E02B
:104DA00050E00E9465B53F932F93A9E0B8E0BF9310
:104DB000AF931F930F930E942FB9EEEAFAE084910C
:104DC0000FB6F894DEBF0FBECDBF882349F0909197
:104DD000C00095FFFCCF8093C60031968491F5CF3B
:104DE000F8018191882339F09091C00095FFFCCFA4
:104DF0008093C600F6CF8091C00085FFFCCF3AE0DB
:104E00003093C600C8010E944A9584E898E00E9449
:104E1000A65D61E084E898E00E94DE5780917E06FE
:104E2000833211F47092650620917C0630917D06E4
:104E30002115310509F424CE8091810690918206D6
:104E4000689EF001699EF00D1124E20FF31FE757F1
:104E5000F94F1082FC01EB57F94F708220917F06C9
:104E6000309180062F5F3F4F3093800620937F065E
:104E7000019664E070E00E9452B5909382068093A0
:104E8000810610927B0610927D0610927C06DECE83
:104E90004B3311F470927B0640917B064111D2CEC8
:104EA0004091810650918206B9016F5F7F4F7093E8
:104EB0007D0660937C06649EF001659EF00D1124D2
:104EC000E20FF31FE757F94F8083C0CE6E960FB6FF
:104ED000F894DEBF0FBECDBFDF91CF911F910F9130
:104EE000FF90EF90DF90CF90BF90AF909F908F900A
:104EF0007F906F905F904F903F902F900895CF924A
:104F0000DF92EF92FF920F931F93CF93C82F809160
:104F10007F069091800603970CF424DC0E9463AA1C
:104F200000917106109172062091730630917406FB
:104F3000C0907506D0907606E0907706F0907806DF
:104F40006C197D098E099F0906171707280739076D
:104F500028F4012B022B032B09F0BEDB4091070242
:104F6000509108026091090270910A02452B462B6C
:104F7000472B19F10E9463AA0091750610917606DD
:104F80002091770630917806601B710B820B930B92
:104F900000910702109108022091090230910A0243
:104FA000061717072807390740F49091240D8091C0
:104FB000230D981302C0CC2349F0CF911F910F917C
:104FC000FF90EF90DF90CF900C945A65179A109253
:104FD0005008169A10925108159A10925208149A75
:104FE000ECCF0E946F8180916706811138C081E00B
:104FF0008093670680910E0890910F08A091100889
:10500000B091110880930A0890930B08A0930C08A4
:10501000B0930D08E4EBFAE08491882341F090917D
:10502000C00095FFFCCF8093C6003196F5CFE6EC2B
:10503000F4E08491882341F09091C00095FFFCCF6B
:105040008093C6003196F5CF8091C00085FFFCCFDC
:105050008AE08093C6008CEB94E00C94419808950C
:10506000809167060895CF93DF93EC0180914B0800
:105070008093680684E50E948F1E811102C080E043
:1050800075C00E947B1E0E9408B26093680666236A
:10509000B1F3EEEAFAE08491882341F09091C000E8
:1050A00095FFFCCF8093C6003196F5CFCD36D10564
:1050B000B9F054F4C836D105B1F0C936D10509F0BC
:1050C00045C0EEE7F3E021C0CA3DD10531F0CD3D4A
:1050D000D105E1F5E9E3F3E036C0E0E5F3E029C00E
:1050E000E7E6F3E01CC0E5E9F3E08191882371F184
:1050F0009091C00095FFFCCF8093C600F6CF9091B1
:10510000C00095FFFCCF8093C60081918111F7CF3D
:105110001DC09091C00095FFFCCF8093C600819187
:105120008111F7CF13C09091C00095FFFCCF809301
:10513000C60081918111F7CF09C09091C00095FF01
:10514000FCCF8093C60081918111F7CF40E050E001
:105150006091680680EE95E00E94DC198091C000A5
:1051600085FFFCCF8AE08093C60081E0DF91CF917C
:105170000895CF92DF92EF92FF9220917B08222335
:10518000F1F020E030E040E05FE30E9469B46B01A1
:105190007C0120E030E0A9010E9494B1882379F0DD
:1051A000A7019601C701B6010E9469B42BED3FE04B
:1051B00049E450E40E9469B49B01AC0104C020E0C2
:1051C00030E040E85FE360E070E080E89FE30E9449
:1051D0009BB1FF90EF90DF90CF90089560913102E6
:1051E000709132028091330290913402C2DF609359
:1051F0002D0270932E0280932F0290933002089517
:105200003F924F925F926F927F928F929F92AF9256
:10521000BF92CF92DF92EF92FF920F931F93CF93A3
:10522000DF93CDB7DEB7E9970FB6F894DEBF0FBEB8
:10523000CDBF87E40E948F1E882309F44CC20E94D0
:105240007B1E0E9403B26A30710509F4AFC09CF462
:105250006230710509F44CC024F477FF25C00C942A
:105260008F3F6330710509F44EC06430710509F455
:1052700055C00C948F3F6A35710509F4D8C154F4B8
:105280006B30710509F498C06C31710509F49AC04E
:105290000C948F3F6B35710509F4CDC16C357105E8
:1052A00009F4CEC10C948F3F8091670681110C9454
:1052B0008F3F0E94071F809148088823A9F088E546
:1052C0000E948F1E811110C089E50E948F1E8111DE
:1052D0000BC08AE50E948F1E811106C085E40E94E2
:1052E0008F1E81110C94923F0E944D200C948F3F91
:1052F0008091670681110C948F3F0E94861F81E088
:1053000039D90C948F3F8091670681110C948F3F9F
:105310000E94861F80E02ED90C948F3F8DEF97E07E
:105320000E94419880E50E948F1E882339F00E94D8
:105330007B1E0E9408B24B015C0103C0812C912CA2
:10534000540183E50E948F1E882361F00E947B1E1A
:1053500020E030E04AE754E40E9469B40E9408B2B9
:105360004B015C010E9482780E9463AA6B017C0160
:10537000C80CD91CEA1CFB1C0E9463AA609375062A
:105380007093760680937706909378060E9463AABE
:105390006C157D058E059F0510F00C948F3F0E94C3
:1053A000907D80E0ACDD0E94DE98F0CF60E081E08F
:1053B0000E940C210C948F3F60E080E00E940C2141
:1053C0000C948F3F80910B0290910C02A0910D02E2
:1053D000B0910E028093160890931708A0931808B6
:1053E000B093190880913B0290913C0290937F0802
:1053F00080937E0884E690E090933C0280933B0289
:105400000E9463AA60937506709376068093770670
:105410009093780681E00E94337180916B0890919F
:105420006C08A0916D08B0916E0880932A08909343
:105430002B08A0932C08B0932D0880916F089091B1
:105440007008A0917108B091720880932E08909313
:105450002F08A0933008B093310880917308909181
:105460007408A0917508B0917608809332089093E3
:105470003308A0933408B093350880917708909151
:105480007808A0917908B0917A08809336089093B3
:105490003708A0933808B093390810920B02109285
:1054A0000C0210920D0210920E0288E50E948F1ECF
:1054B000882311F090E00AC089E50E948F1E8111B7
:1054C000F9CF8AE50E948F1E91E0982790930F02F2
:1054D00091110C94C13F88E50E948F1E81110C949C
:1054E000C13F80910F0281110C94C73F89E50E9452
:1054F0008F1E81110C94C73F88E50E948F1E882360
:10550000D1F00E94841E672B682B692BA1F00E94AA
:105510007B1E20915F083091600840916108509196
:1055200062080E94BBB060936B0870936C08809314
:105530006D0890936E0889E50E948F1E8823D1F034
:105540000E94841E672B682B692BA1F00E947B1E92
:105550002091630830916408409165085091660875
:105560000E94BBB060936F087093700880937108BD
:105570009093720880910F0281110C94CD3F8AE5BF
:105580000E948F1E81110C94CD3F8AE50E948F1ED0
:105590008823D1F00E94841E672B682B692BA1F011
:1055A0000E947B1E2091670830916808409169082D
:1055B00050916A080E94BBB060937308709374089E
:1055C000809375089093760827E738E043E758E022
:1055D0006FE678E08BE698E00E94776F80E00E94AB
:1055E00033718091160890911708A0911808B09116
:1055F000190880930B0290930C02A0930D02B093B4
:105600000E0280917E0890917F0890933C028093D7
:105610003B020E9463AA609375067093760680939E
:105620007706909378060E942C710C948F3F10920D
:1056300009080C948F3F81E0809309080C948F3FF8
:1056400085E40E948F1E811102C00E9482785BE572
:10565000C52E54E0D52E6FE5E62E68E0F62E0BE65B
:1056600018E0B12CF60181916F010E948F1E8823F2
:1056700039F1F3E0BF120CC00E947B1EF801608379
:1056800071838283938387E798E00E941C7018C01F
:105690000E947B1EF70120813181428153810E944B
:1056A000BBB0F801608371838283938327E738E07E
:1056B00043E758E06FE678E08BE698E00E94776F6A
:1056C000B394F4E0EF0EF11C0C5F1F4F24E0B21214
:1056D000C9CF0C948F3F8DE40E948F1E882311F454
:1056E0000C94BE3E0E947B1E0E9403B26737710578
:1056F00009F4A0C10CF0CEC06A32710509F412C4DD
:105700000CF05FC06731710509F46DC254F5623168
:10571000710509F473C7BCF477FF02C00C948F3F86
:10572000623071050CF489C16131710511F00C947E
:105730008F3F83EB97E00E94419817981698159831
:1057400014980C948F3F6531710509F440C20CF038
:1057500044C26431710511F00C948F3FE3EAF7E025
:1057600012C26B31710509F46AC2B4F46931710572
:1057700009F451C20CF055C284E898E00E946D55BE
:105780000E9463AA60936D0670936E0680936F0605
:10579000909370060C948F3F6E31710509F48AC2A4
:1057A00034F46C31710509F450C20C948F3F6F31A1
:1057B000710509F459C36032710509F4B9C20C943A
:1057C0008F3F6836710509F4F4C3C4F5633571057C
:1057D00009F40FC7C4F46135710509F4E9C60CF08A
:1057E00004C76035710511F00C948F3F9B9AA39804
:1057F00081E0809310028EE097E00E9441980E9421
:10580000DE980C948F3F6535710509F42FC70CF4B1
:10581000F5C66C35710511F00C948F3F2BE534E023
:1058200039AF28AF08E512E168E6862E62E1962ED0
:105830007CE1A72E72E1B72E312C94C76D3671052D
:1058400009F4F1C48CF46A36710509F481C60CF4CC
:10585000DEC36B36710511F00C948F3F10924A082D
:10586000109249080C948F3F6237710509F4AFC755
:105870003CF46037710511F00C948F3F0E946C234B
:105880006337710509F480C76537710509F48BC763
:105890000C948F3F6C3231E0730711F40C9465382F
:1058A0000CF053C06C3C710511F40C94743624F563
:1058B0006E3B710509F441C574F46937710511F443
:1058C0000C94CC3414F40C94C7346C38710509F47E
:1058D0008DC30C948F3F693C710511F40C943636DE
:1058E0006B3C710511F40C945736683C710511F04E
:1058F0000C948F3F0C94C135603D710511F40C94EC
:105900004A3754F46E3C710511F40C94F63614F4D5
:105910000C9496360C9413376C3D710511F40C946D
:10592000D5373CF4613D710511F40C9472370C9439
:105930008F3F6D3D710511F40C94E437623E7105A3
:1059400011F40C940A380C948F3F643F91E079076E
:1059500011F40C94473A2CF56033F1E07F0711F411
:105960000C9461395CF46E3231E0730711F40C94DD
:10597000FE3914F40C949B380C940C3A6F3591E07A
:10598000790711F40C94623E6039E1E07E0711F46E
:105990000C94443A6E35714011F00C948F3F0C9486
:1059A0002B3E683522E0720711F40C94253B94F4E9
:1059B000663F81E0780711F40C944D3A14F40C948E
:1059C0004A3A673F714011F00C948F3F0E94791161
:1059D0000C948F3F6B38F3E07F0711F40C94053E75
:1059E0003CF46335734011F40C94503A0C948F3F9F
:1059F000603A83E0780709F404C2673E734011F00F
:105A00000C948F3F109267060E94549880910A0868
:105A100090910B08A0910C08B0910D0880930E088E
:105A200090930F08A0931008B09311080E94DE1EF7
:105A30000C948F3FEBEBF3E0BAC70091790610911D
:105A40007A060E5F1F4F80E50E948F1E882379F033
:105A50000E947B1E0E9408B26B017C01BB24B394A0
:105A6000611571058105910531F4B12C04C0B12C8B
:105A7000C12CD12C760183E50E948F1E882399F0DA
:105A80000E947B1E20E030E04AE754E40E9469B4A3
:105A90000E9408B26B017C01AA24A39461157105D0
:105AA0008105910509F4A12C6AE270E0C8010E9409
:105AB000F7B8009711F0FC011082F801CF01219195
:105AC0002032E1F3B11007C0A11005C0222319F064
:105AD0000E944A9504C087EE97E00E94419881E0B9
