:100000000C94DA0F0C940B100C940B100C940B1036
:100010000C940B100C940B100C940B100C940B10F4
:100020000C940B100C940B100C940B100C940B10E4
:100030000C940B100C94BAB10C940B100C940B1084
:100040000C940B100C94FC700C940B100C940B1073
:100050000C940B100C940B100C9423860C9487AB0F
:100060000C940B100C9453180C940B100C940B1054
:100070000C940B100C940B100C940B100C940B1094
:100080000C940B100C940B100C940B100C940B1084
:100090000C940B100C940B100C940B100C940B1074
:1000A0000C940B100C940B100C940B100C940B1064
:1000B0000C940B100C940B100C940B100C940B1054
:1000C0000C940B100C940B100C940B100C940B1044
:1000D0000C940B100C940B100C940B100C940B1034
:1000E0000C940B1070867E869A86A886C286D0866F
:1000F000EA86EE86F086F486FC86B6ACBBACC0AC75
:10010000CAACD4AC4DADDEACE6ACEEACF8AC02ADF6
:100110000CAD1BAD25AD4DAD2FAD39AD43AD6FADC4
:1001200072AD61AD65AD6BADA9AD76AD7AAD80ADAB
:1001300084AD88AD8EAD92AD96ADA9AD9CADA0ADB0
:10014000A4AD084AD73B3BCE016E84BCBFFDC12F96
:100150003D6C74319ABD56833DDA3D00C77F11BEB8
:10016000D9E4BB4C3E916BAAAABE000000803F05BB
:10017000A84CCDB2D44EB93836A9020C50B99186EC
:1001800088083CA6AAAA2ABE000000803F00486159
:100190007264636F6465642044656661756C742085
:1001A00053657474696E6773204C6F616465640095
:1001B00053746F7265642073657474696E6773201D
:1001C0007265747269657665640046696C616D6517
:1001D0006E742073657474696E67733A2044697332
:1001E00061626C6564002020204D32303020440074
:1001F00046696C616D656E742073657474696E67B1
:10020000733A002020204D3230392053004175745C
:100210006F2D526574726163743A20533D302074BF
:100220006F2064697361626C652C203120746F20CB
:10023000696E746572707265742065787472756425
:10024000652D6F6E6C79206D6F76657320617320FC
:100250007265747261637473206F72207265636F6C
:10026000766572696573002046002020204D32308B
:10027000382053005265636F7665723A20533D45CE
:1002800078747261206C656E67746820286D6D29C2
:1002900020463A537065656420286D6D2F6D2900E6
:1002A000205A002046002020204D323037205300B5
:1002B000526574726163743A20533D4C656E677485
:1002C0006820286D6D2920463A53706565642028A2
:1002D0006D6D2F6D29205A3A205A4C69667420287A
:1002E0006D6D29002044002049002020204D33302E
:1002F000312050005049442073657474696E6773EF
:100300003A00205A0020590020204D323036205823
:1003100000486F6D65206F666673657420286D6D8B
:10032000293A00204500205A002058002042002091
:10033000540020204D323035205300416476616EE8
:10034000636564207661726961626C65733A2053FB
:100350003D4D696E20666565647261746520286D27
:100360006D2F73292C20543D4D696E207472617677
:10037000656C20666565647261746520286D6D2FFB
:1003800073292C20423D6D696E696D756D20736512
:10039000676D656E742074696D6520286D73292CF6
:1003A00020583D6D6178696D756D205859206A65DA
:1003B000726B20286D6D2F73292C20205A3D6D61A2
:1003C00078696D756D205A206A65726B20286D6D95
:1003D0002F73292C2020453D6D6178696D756D2046
:1003E00045206A65726B20286D6D2F73290020549B
:1003F0000020204D323034205300416363656C652A
:10040000726174696F6E3A20533D616363656C6518
:10041000726174696F6E2C20543D726574726163F1
:100420007420616363656C65726174696F6E00202E
:100430004500205A0020590020204D3230312058EC
:10044000004D6178696D756D20416363656C6572FF
:100450006174696F6E20286D6D2F7332293A002008
:100460004500205A0020590020204D3230332058BA
:10047000004D6178696D756D2066656564726174A3
:10048000657320286D6D2F73293A00204500205A8E
:100490000020590020204D393220580053746570D7
:1004A000732070657220756E69743A0053657474B8
:1004B000696E67732053746F7265640053544F50B4
:1004C0005045442E20005072696E7465722073741A
:1004D0006F707065642064756520746F206572723A
:1004E0006F72732E20466978207468652065727279
:1004F0006F7220616E6420757365204D3939392023
:10050000746F20726573746172742E202854656D47
:1005100070657261747572652069732072657365A8
:10052000742E20536574206974206166746572208E
:1005300072657374617274696E6729004B494C4C23
:1005400045442E20005072696E7465722068616C9B
:100550007465642E206B696C6C28292063616C6C57
:10056000656421006F6B00526573656E643A20000C
:100570002200556E6B6E6F776E20636F6D6D616ECE
:10058000643A2022004D32323020532569005A202F
:100590004F6666736574203A20007A5F6D61783A21
:1005A00020007A5F6D696E3A20005A204F666673AC
:1005B0006574005A204F6666736574206F6B002265
:1005C00000556E6B6E6F776E20636F6D6D616E643C
:1005D0003A2022007A5F6D61783A20007A5F6D6977
:1005E0006E3A2000795F6D61783A2000795F6D691D
:1005F0006E3A2000785F6D61783A2000785F6D690F
:100600006E3A2000205A3A0020593A0020436F7574
:100610006E7420583A200020453A00205A3A0020B3
:10062000593A00583A004649524D574152455F4E9B
:10063000414D453A4D61726C696E2056312E302E17
:10064000323B20537072696E7465722F6772626CF0
:10065000206D617368757020666F722067656E36F5
:10066000204649524D574152455F55524C3A6874A5
:100670007470733A2F2F6769746875622E636F6D9B
:100680002F4D61726C696E4669726D776172652F6C
:100690004D61726C696E2050524F544F434F4C5F06
:1006A00056455253494F4E3A312E30204D41434822
:1006B000494E455F545950453A50727573612069EF
:1006C00033206D6F642E2045585452554445525F77
:1006D000434F554E543A3120555549443A30303005
:1006E00030303030302D303030302D303030302D13
:1006F000303030302D3030303030303030303030FD
:10070000300A005072757361206933206D6F642E5A
:10071000204F66662E005072757361206933206D1C
:100720006F642E2072656164792E004265642064D6
:100730006F6E652E0020423A0020453A00543A0080
:100740004265642048656174696E672E0048656182
:1007500074696E6720646F6E652E0020573A002022
:10076000453A00543A0048656174696E672E2E2E32
:10077000002042403A0020403A00202F003A00205A
:100780005400202F0020423A00202F006F6B20548D
:100790003A002569206D696E2C20256920736563F8
:1007A00000456E642066696C65206C697374004254
:1007B0006567696E2066696C65206C697374004EAC
:1007C0006F206D6F76652E005072757361206933EE
:1007D000206D6F642E2072656164792E00526573FE
:1007E000756D696E67207072696E74005761697407
:1007F00020666F7220757365722E2E2E00536C6505
:1008000065702E2E2E00256920686F757273202565
:1008100069206D696E7574657300446F6E65207034
:1008200072696E74696E672066696C650053544F17
:10083000505045442E20005072696E7465722073CA
:10084000746F707065642064756520746F206572C4
:10085000726F72732E204669782074686520657205
:10086000726F7220616E6420757365204D3939395D
:1008700020746F20726573746172742E2028546521
:100880006D7065726174757265206973207265732D
:1008900065742E20536574206974206166746572D6
:1008A0002072657374617274696E6729004E6F20DF
:1008B0004C696E65204E756D62657220776974684B
:1008C00020636865636B73756D2C204C61737420B5
:1008D0004C696E653A20004E6F20436865636B7308
:1008E000756D2077697468206C696E65206E756D12
:1008F0006265722C204C617374204C696E653A20DD
:1009000000636865636B73756D206D69736D6174E9
:1009100063682C204C617374204C696E653A20002A
:100920004C696E65204E756D626572206973206E2C
:100930006F74204C617374204C696E65204E756D28
:100940006265722B312C204C617374204C696E658A
:100950003A20004D31313000446F6E65207361766E
:10096000696E672066696C652E006F6B004D3239C9
:10097000002020506C616E6E65724275666665720D
:1009800042797465733A20002046726565204D6592
:100990006D6F72793A20004A616E20313820323012
:1009A000313600436F6D70696C65643A2000286EC3
:1009B0006F6E652C2064656661756C7420636F6E64
:1009C0006669672900207C20417574686F723A203F
:1009D000004A616E20313820323031362031353ACC
:1009E00032373A353200204C61737420557064619F
:1009F0007465643A2000312E302E32004D61726CE5
:100A0000696E0020536F667477617265205265735A
:100A1000657400205761746368646F672052657362
:100A20006574002042726F776E206F757420526576
:100A3000736574002045787465726E616C20526530
:100A400073657400506F77657255700073746172CE
:100A500074002200656E717565696E672022002240
:100A600000656E717565696E67202200FFFFFF00EB
:100A700000A0400000A040000000400000574300DC
:100A8000003E43000048430000000000000000CD8D
:100A9000CC4C3E0000574300003E4300004843005A
:100AA00000000000000000000000006563686F3A6D
:100AB000004572726F723A000000211042206330CC
:100AC0008440A550C660E770088129914AA16BB1A6
:100AD0008CC1ADD1CEE1EFF131121002733252224E
:100AE000B5529442F772D662399318837BB35AA3F6
:100AF000BDD39CC3FFF3DEE362244334200401141E
:100B0000E664C774A44485546AA54BB52885099545
:100B1000EEE5CFF5ACC58DD55336722611163006ED
:100B2000D776F6669556B4465BB77AA71997388795
:100B3000DFF7FEE79DD7BCC7C448E5588668A778AD
:100B40004008611802282338CCC9EDD98EE9AFF9E5
:100B5000488969990AA92BB9F55AD44AB77A966A8D
:100B6000711A500A333A122AFDDBDCCBBFFB9EEB35
:100B7000799B588B3BBB1AABA66C877CE44CC55C5D
:100B8000222C033C600C411CAEED8FFDECCDCDDD85
:100B90002AAD0BBD688D499D977EB66ED55EF44E2D
:100BA000133E322E511E700E9FFFBEEFDDDFFCCFD5
:100BB0001BBF3AAF599F788F8891A981CAB1EBA129
:100BC0000CD12DC14EF16FE18010A100C230E320A5
:100BD0000450254046706760B9839893FBA3DAB34D
:100BE0003DC31CD37FE35EF3B1029012F322D232F5
:100BF0003542145277625672EAB5CBA5A89589851D
:100C00006EF54FE52CD50DC5E234C324A014810444
:100C10006674476424540544DBA7FAB79987B897EC
:100C20005FE77EF71DC73CD7D326F2369106B01694
:100C300057667676154634564CD96DC90EF92FE9AC
:100C4000C899E9898AB9ABA94458654806782768E4
:100C5000C018E1088238A3287DCB5CDB3FEB1EFB8C
:100C6000F98BD89BBBAB9ABB754A545A376A167A34
:100C7000F10AD01AB32A923A2EFD0FED6CDD4DCD5C
:100C8000AABD8BADE89DC98D267C076C645C454C84
:100C9000A23C832CE01CC10C1FEF3EFF5DCF7CDF2C
:100CA0009BAFBABFD98FF89F176E367E554E745ED4
:100CB000932EB23ED10EF01E7C3C3E5E2B3D3F2F6C
:100CC0005B5D3B2C2A225C004D3834205820592093
:100CD0005A20450043616E6E6F7420656E746572B4
:100CE000207375626469723A20004D3234004D32CF
:100CF00033202573006175746F25692E6700657256
:100D0000726F722077726974696E6720746F2066E3
:100D1000696C65004E6F74205344207072696E7464
:100D2000696E67002F005344207072696E74696E9B
:100D300067206279746520002E0044656C657469D3
:100D40006F6E206661696C65642C2046696C653A3B
:100D5000200046696C652064656C657465643A00C2
:100D60002E006F70656E206661696C65642C20468C
:100D7000696C653A200057726974696E6720746FF8
:100D80002066696C653A20002E006F70656E2066E3
:100D900061696C65642C2046696C653A20002E0000
:100DA0006F70656E206661696C65642C2046696CA5
:100DB000653A200046696C652073656C65637465EF
:100DC00064002053697A653A200046696C65206F9B
:100DD00070656E65643A20002E006F70656E206647
:100DE00061696C65642C2046696C653A20004E6F21
:100DF000772066726573682066696C653A20004EDC
:100E00006F7720646F696E672066696C653A2000B1
:100E10002220706F73002220706172656E743A2216
:100E200000535542524F5554494E452043414C4C76
:100E3000207461726765743A2200747279696E6712
:100E400020746F2063616C6C207375622D67636F13
:100E500064652066696C6573207769746820746FB7
:100E60006F206D616E79206C6576656C732E204DF8
:100E70004158206C6576656C2069733A00534420B4
:100E800063617264206F6B006F70656E526F6F7478
:100E9000206661696C656400766F6C756D652E699E
:100EA0006E6974206661696C656400534420696EE4
:100EB0006974206661696C0020746F6F206C6F6EBE
:100EC0006720657874727573696F6E2070726576CD
:100ED000656E7465640020636F6C6420657874725D
:100EE0007573696F6E2070726576656E74656400E7
:100EF00045303A20005A3A2000593A2000583A200A
:100F0000004D53312C4D53322050696E730A0065E9
:100F10006E6473746F7073206869743A205A00208D
:100F20005A3A00656E6473746F7073206869743A1E
:100F300020590020593A00656E6473746F707320F5
:100F40006869743A20580020583A00656E647374DA
:100F50006F7073206869743A200024F4D43050C351
:100F60008E20C2A24017828B7011127A910D816C73
:100F7000D90AA861E108C7586607615143061E4BAC
:100F80005D05C145A7041A411104093D9803713953
:100F900031034036DB0265339102D4305402802E97
:100FA0001D02632CEE01752AC501B028A00110278F
:100FB00081018F2564012B244B01E0223401AC21F7
:100FC0001F018D200D01801FFC00841EED00971D68
:100FD000DF00B81CD200E61BC600201BBC00641A50
:100FE000B200B219A8000A19A0006A189900D11716
:100FF000910040178B00B516840031167E00B315A2
:1010000079003A157300C7146F0058146A00EE1384
:1010100066008813630025135E00C7125B006C1224
:10102000570015125400C111510070114F002111C9
:101030004B00D61049008D104700461044000210A6
:101040004200C00F4000800F3E00420F3C00060FE0
:101050003B00CB0E3800930E37005C0E3500270E98
:101060003400F30D3200C10D3100900D3000600DE1
:101070002E00320D2D00050D2C00D90C2B00AE0CCE
:101080002900850C29005C0C2700350C27000E0C6C
:101090002600E80B2400C40B2400A00B23007D0BCA
:1010A00023005A0B2100390B2100180B2000F80AED
:1010B0001F00D90A1E00BB0A1E009D0A1D00800ADF
:1010C0001D00630A1C00470A1B002C0A1B00110AA2
:1010D0001A00F7091A00DD091900C4091900AB0943
:1010E0001900920917007B091800630917004C09C1
:1010F000160036091600200916000A091500F50821
:101100001500E0081400CC081400B8081400A40866
:101110001400900813007D0812006B081300580893
:1011200012004608120034081100230811001208AA
:10113000110001081100F0071000E0071000D007AF
:101140001000C0071000B0070F00A10710009107A2
:101150000E0083070F0074070F0065070E00570786
:101160000E0049070E003B070D002E070E0020075A
:101170000D0013070D0006070D00F9060C00ED0623
:101180000D00E0060C00D4060C00C8060C00BC06DE
:101190000C00B0060C00A4060B0099060C008D068E
:1011A0000B0082060B0077060B006C060B00610635
:1011B0000A0057060B004C060A0042060A003806D1
:1011C0000A002E060A0024060A001A060A00100663
:1011D000090007060A00FD050900F4050900EB05F2
:1011E0000900E2050900D9050900D0050900C70575
:1011F0000900BE050900B5050800AD050800A505F4
:1012000009009C050800940508008C050800840569
:1012100008007C050800740508006C0507006505DA
:1012200008005D050700560508004E050700470544
:1012300007004005080038050700310507002A05AA
:101240000700230507001C050600160507000F050B
:1012500007000805060002050700FB040600F50468
:101260000700EE040600E8040600E2040700DB04C1
:101270000600D5040600CF040600C9040600C30416
:101280000600BD040600B7040600B1040500AC0466
:101290000600A6040600A00405009B0406009504B1
:1012A0000500900406008A040500850405008004FA
:1012B00006007A04050075040500700405006B043F
:1012C000050066040500610405005C040500570480
:1012D0000500520405004D040500480405004304C0
:1012E00005003E0404003A040500350405003004FE
:1012F00004002C04050027040400230405001E0438
:1013000004001A04040016040500110404000D046E
:101310000400090405000404040000040400FC03A4
:101320000400F8030400F4030400F0030400EC03D9
:101330000400E8030400E4030400E0030400DC0309
:101340000400D8030400D4030400D0030400CC0339
:101350000400C8030300C503030024F404D9201BC0
:10136000C40C5C0E9804C4095F0265077101F405A2
:10137000F900FB04B30048048700C1036900580367
:10138000550003034500BE023A00840231005302B7
:101390002A002902250004022000E4011C00C801E3
:1013A0001900AF01170098011400840113007101A6
:1013B00010006101100051010E0043010D003601C3
:1013C0000B002B010B0020010B00150109000C0183
:1013D000090003010800FB000800F3000800EB000F
:1013E0000700E4000600DE000600D8000600D20078
:1013F0000600CC000500C7000500C2000500BD00C6
:101400000400B9000400B5000400B1000400AD0000
:101410000400A9000400A5000300A20003009F002F
:1014200004009B0003009800030095000200930055
:101430000300900003008D0002008B000300880071
:1014400002008600020084000300810002007F0089
:1014500002007D0002007B0002007900020077009C
:1014600001007600020074000200720001007100A9
:1014700002006F0002006D0001006C0002006A00B3
:1014800001006900020067000100660001006500BC
:1014900001006400020062000100610001006000C0
:1014A00001005F0002005D0001005C0001005B00C4
:1014B00001005A00010059000100580001005700C6
:1014C00001005600010055000100540001005300C6
:1014D00000005300010052000100510001005000C3
:1014E00001004F0001004E0000004E0001004D00C1
:1014F00001004C0001004B0000004B0001004A00BD
:1015000001004900010048000000480001004700B8
:1015100001004600000046000100450000004500B3
:1015200001004400010043000000430001004200AC
:1015300000004200010041000000410001004000A5
:1015400001003F0000003F0001003E0000003E009F
:1015500001003D0000003D0001003C0000003C0097
:1015600000003C0001003B0000003B0001003A008D
:1015700000003A0001003900000039000100380085
:10158000000038000000380001003700000037007C
:101590000100360000003600000036000100350072
:1015A0000000350000003500010034000000340068
:1015B000000034000100330000003300000033005D
:1015C0000100320000003200000032000100310052
:1015D0000000310000003100010030000000300048
:1015E0000000300001002F0000002F0000002F003D
:1015F00000002F0001002E0000002E0000002E0031
:1016000001002D0000002D0000002D0000002D0025
:1016100001002C0000002C0000002C0000002C0019
:1016200001002B0000002B0000002B0000002B000D
:1016300001002A0000002A0000002A0000002A0001
:1016400001002900000029000000290000002900F5
:1016500000002900010028000000280000002800E8
:1016600000002800000028000100270000002700DB
:1016700000002700000027000000270001002600CE
:1016800000002600000026000000260000002600C2
:1016900001002500000025000000250000002500B5
:1016A00000002500000025000100240000002400A7
:1016B000000024000000240000002400010023009A
:1016C000000023000000230000002300000023008E
:1016D000000023000000230001002200000022007F
:1016E0000000220000002200000022000000220072
:1016F0000100210000002100000021000000210065
:101700000000210000002100000021000100200055
:101710000000200000002000000020000000200049
:1017200000002000000020000000200001001F0039
:1017300000001F0000001F0000001F0000001F002D
:1017400000001F0000001F0001001E0000001E001E
:1017500000001E0000001E0000004572723A204D7D
:10176000415854454D50204245440054656D7065C4
:101770007261747572652068656174656420626564
:1017800064207377697463686564206F66662E20D1
:101790004D415854454D50207472696767657265B4
:1017A00064202121004572723A204D494E54454D26
:1017B00050003A20457874727564657220737769B9
:1017C0007463686564206F66662E204D494E5445EB
:1017D0004D50207472696767657265642021004509
:1017E00072723A204D415854454D50003A20457888
:1017F00074727564657220737769746368656420B8
:101800006F66662E204D415854454D5020747269C4
:10181000676765726564202100202D20496E76611E
:101820006C6964206578747275646572206E756D7C
:10183000626572202100504944204175746F7475AF
:101840006E652066696E69736865642120507574E1
:1018500020746865206C617374204B702C204B6978
:1018600020616E64204B6420636F6E7374616E74CC
:10187000732066726F6D2061626F766520696E7489
:101880006F20436F6E66696775726174696F6E2E43
:101890006800504944204175746F74756E65206608
:1018A00061696C6564212074696D656F75740020D1
:1018B000403A006F6B20543A006F6B20423A005060
:1018C0004944204175746F74756E65206661696C5A
:1018D0006564212054656D70657261747572652050
:1018E000746F6F206869676800204B643A2000209D
:1018F0004B693A2000204B703A200020436C617302
:101900007369632050494420002054753A20002018
:101910004B753A2000206D61783A2000206D696E89
:101920003A200020643A200020626961733A200066
:101930001000C90210012C014001220170011801A0
:10194000B0010E01F00104015002FA00B002F000F3
:101950003003E600D003DC009004D2007005C8001C
:10196000A006BE000008B400B009AA00D00BA00079
:10197000600E960060118C0000158200201978001E
:10198000C01D6E00A0226400B0275A00902C5000A9
:1019900000314600E0343C0010383200903A280014
:1019A000603C1E00A03D1400803E0A00203F000065
:1019B00070012C0190012701B0012201C0011D011D
:1019C000F00118011002130130020E01600209013A
:1019D00090020401C002FF000003FA004003F5007A
:1019E0008003F000D003EB002004E6007004E10067
:1019F000E004DC004005D700C005D2004006CD0061
:101A0000D006C8008007C3003008BE00F008B90047
:101A1000C009B400B00AAF00B00BAA00D00CA500FA
:101A2000000EA000500F9B00C010960050129100B5
:101A300000148C00C0158700B0178200B0197D001B
:101A4000D01B7800001E730040206E0090226900B9
:101A5000F024640040275F0090295A00E02B5500D5
:101A6000102E500020304B0010324600E033410071
:101A700090353C001037370070383200A0392D0007
:101A8000B03A2800A03B2300603C1E00103D190026
:101A9000903D1400103E0F00703E0A00C03E05004D
:101AA000003F0000436172642072656D6F7665646B
:101AB000004361726420696E7365727465640047E7
:101AC0003120453430204631303000473120453711
:101AD000302046343030004D383300473120452D1A
:101AE00038302046343030004D3833002D2D3A2D1B
:101AF0002D002D2D2D005344000120000120004D0C
:101B0000363030004368616E67652066696C616DD0
:101B1000656E7400466C6F7700466C6F77004661A7
:101B20006E2073706565640046616E207370656534
:101B3000640042656400426564004E6F7A7A6C65A9
:101B4000004E6F7A7A6C650053706565640053705F
:101B5000656564004D61696E00436F6F6C646F77FB
:101B60006E00464C4558202D20203233302F353022
:101B70000050502020202D20203235342F3130309D
:101B80000048495053202D20203232302F31303040
:101B90000050455420202D20203234302F39300081
:101BA000504C4120202D20203231302F3530004143
:101BB000425320202D20203235352F313030004D3A
:101BC00061696E004D3834004D383420582059205A
:101BD0005A2045004D3234004D3233202573000524
:101BE0002E2E004D61696E0053746F7265206D6515
:101BF0006D6F72790042656400426564004E6F7AD1
:101C00007A6C65004E6F7A7A6C650046616E20735F
:101C1000706565640046616E20737065656400548C
:101C2000656D70657261747572650053746F72656D
:101C3000206D656D6F7279004265640042656400D5
:101C40004E6F7A7A6C65004E6F7A7A6C65004661E9
:101C50006E2073706565640046616E207370656503
:101C6000640054656D7065726174757265005072C0
:101C700065686561742041425320636F6E66005051
:101C800072656865617420504C4120636F6E660018
:101C90005049442D43005049442D43005049442DA0
:101CA00044005049442D44005049442D49005049B6
:101CB000442D49005049442D50005049442D5000B6
:101CC00046616E2073706565640046616E207370B6
:101CD0006565640042656400426564004E6F7A7A0F
:101CE0006C65004E6F7A7A6C650053657474696E2A
:101CF000677300580059005A00457874727564651E
:101D000072004578747275646572004D6F76652057
:101D10005A004D6F76652059004D6F76652058004A
:101D200053657474696E6773004732380041757487
:101D30006F20686F6D65004731205A2B31302E308F
:101D400020583231352E3020593138302E3020464F
:101D500031303030302E3000576F726B20686F6D2D
:101D600065004D38340044697361626C652073749A
:101D700065707065727300473238205A0043616C99
:101D8000696272617465205A004D6F7665206178D2
:101D900069730054656D7065726174757265004D8C
:101DA00061696E0053657474696E677300556E6C7B
:101DB0006F61642066696C616D656E74004C6F6163
:101DC000642066696C616D656E74004E6F205344CB
:101DD0002063617264005072696E742066726F6D68
:101DE0002053440053746F70207072696E740052F7
:101DF0006573756D65207072696E740050617573DE
:101E000065207072696E7400507265686561740057
:101E100054756E6500496E666F2073637265656EFA
:101E20000000000A0B02090C0D0E08070304010054
:101E300000000000000000000000000000000000A2
:101E4000000000000000000000000000001211105F
:101E50000000000000000000000000000000000082
:101E60000000000000000000000000000000000072
:101E700000000000000000010210202008081020CF
:101E80004010204080020102010804020101020406
:101E900008102040808040201008040201800402C5
:101EA000018040201008040201080402010102041C
:101EB000081020408001020408102040801008040F
:101EC0000880102040044080102040048005050553
:101ED00005070508080808020202020A0A080804A1
:101EE00004040401010101010101010303030303CF
:101EF000030303040707070C0C0C0C0C0C0C0C025E
:101F000002020206060606060606060B0B0B0B0B64
:101F10000B0B0B07070A0A0A0A0A0A05050504043F
:101F2000040808000020002300260029002C002FB0
:101F30000032000001000003010601090100002237
:101F400000250028002B002E003100340002010083
:101F500000050108010B0100002100240027002AD0
:101F6000002D003000330001010000040107010AC8
:101F700001024E414E494E495459494E46CDCCCCB2
:101F80003D0AD7233C17B7D13877CC2B329595E64D
:101F9000241FB14F0A000020410000C84200401C2D
:101FA0004620BCBE4CCA1B0E5AAEC59D74003342BF
:101FB000D7A3374211241FBECFEFD1E2DEBFCDBF82
:101FC00000E00CBF15E0A0E0B2E0E2E1FBE701E0D9
:101FD0000BBF02C007900D92A03CB107D9F723E1D7
:101FE000A0ECB5E001C01D92A93BB207E1F71FE1EB
:101FF000C2EBDFE100E006C022970109FE010BBF42
:102000000E942DB7CE3AD10780E00807A9F70E94B9
:102010001AB20C9478BD0C940000EF92FF920F93CB
:102020001F93CF93DF931F92CDB7DEB78C017B0157
:10203000460FF70161917F01F80180819181498309
:102040000E94C1BCF80180819181019691838083B7
:1020500049814E11EECF0F90DF91CF911F910F91DB
:10206000FF90EF900895EF92FF920F931F93CF93FD
:10207000DF931F92CDB7DEB78C017B01460FF801CD
:102080008081918149830E94B9BCF70181937F01CE
:10209000F8018081918101969183808349814E115D
:1020A000EECF0F90DF91CF911F910F91FF90EF90A6
:1020B00008950F931F93CF93DF93CDB7DEB72C977F
:1020C0000FB6F894DEBF0FBECDBF80E390E3A0E370
:1020D000B0E08D839E83AF83B88704E610E01C8751
:1020E0000B8744E0BE016B5F7F4FCE010B9695DFFF
:1020F00040E164E372E1CE010B968FDF40E164E4DE
:1021000072E1CE010B9689DF40E164E272E1CE011B
:102110000B9683DF44E06CE172E1CE010B967DDF2C
:1021200044E068E172E1CE010B9677DF44E060E2C3
:1021300072E1CE010B9671DF44E068E072E1CE01FE
:102140000B966BDF44E064E572E1CE010B9665DF30
:1021500044E064E172E1CE010B965FDF44E060E1B0
:1021600072E1CE010B9659DF44E06CE072E1CE01E2
:102170000B9653DF4CE06FE378E0CE010B964DDF1A
:1021800042E06DE773E1CE010B9647DF42E06BE77B
:1021900073E1CE010B9641DF42E069E773E1CE01C6
:1021A0000B963BDF42E067E773E1CE010B9635DF2C
:1021B00042E065E773E1CE010B962FDF42E063E773
:1021C00073E1CE010B9629DF44E06CE278E0CE01AA
:1021D0000B9623DF44E06AE772E0CE010B961DDF29
:1021E00044E066E772E0CE010B9617DF44E062E759
:1021F00072E0CE010B9611DF80E290E09A8789872A
:1022000042E0BE01675F7F4FCE010B9606DF41E0E3
:1022100068E278E0CE010B9600DF44E06DE172E009
:10222000CE010B96FADE44E065E172E0CE010B963A
:10223000F4DE44E063E278E0CE010B96EEDE44E0AB
:102240006FE178E0CE010B96E8DE44E061E172E0F8
:10225000CE010B96E2DE41E06BE578E0CE010B9615
:10226000DCDE44E061E372E0CE010B96D6DE86E56B
:1022700091E3A3E3B0E089839A83AB83BC831C879B
:102280000B8744E0BE016F5F7F4FCE010B96C5DE2A
:10229000EBEAFAE08491882341F09091C00095FF29
:1022A000FCCF8093C6003196F5CFECEAF4E0849140
:1022B000882341F09091C00095FFFCCF8093C60029
:1022C0003196F5CF8091C00085FFFCCF8AE08093E6
:1022D000C6002C960FB6F894DEBF0FBECDBFDF91BF
:1022E000CF911F910F910895CF93DF93CBEADAE05E
:1022F000FE018491882341F09091C00095FFFCCFAE
:102300008093C6003196F5CFECE9F4E08491882300
:1023100041F09091C00095FFFCCF8093C6003196AC
:10232000F5CF8091C00085FFFCCF8AE08093C60086
:10233000FE018491EBEAFAE0882349F09091C00015
:1023400095FFFCCF8093C60031968491F5CF4091E4
:10235000341250913512609136127091371284E91F
:1023600094E00E94EB1B4091381250913912609119
:102370003A1270913B1281E994E00E94EB1B40916C
:102380003C1250913D1260913E1270913F128EE8C6
:1023900094E00E94EB1B40914012509141126091D9
:1023A0004212709143128BE894E00E94EB1B8091E3
:1023B000C00085FFFCCF8AE08093C600FE018491B7
:1023C000EBEAFAE0882349F09091C00095FFFCCF3A
:1023D0008093C60031968491F5CFE1E7F4E08491D3
:1023E000882341F09091C00095FFFCCF8093C600F8
:1023F0003196F5CF8091C00085FFFCCF8AE08093B5
:10240000C600FE018491EBEAFAE0882349F090913E
:10241000C00095FFFCCF8093C60031968491F5CF24
:1024200040914412509145126091461270914712AA
:1024300088E694E00E94EB1B4091481250914912AB
:1024400060914A1270914B1285E694E00E94EB1B5A
:1024500040914C1250914D1260914E1270914F125A
:1024600082E694E00E94EB1B409150125091511271
:1024700060915212709153128FE594E00E94EB1B11
:102480008091C00085FFFCCF8AE08093C600FE01EA
:102490008491EBEAFAE0882349F09091C00095FF1F
:1024A000FCCF8093C60031968491F5CFE1E4F4E04F
:1024B0008491882341F09091C00095FFFCCF8093D8
:1024C000C6003196F5CF8091C00085FFFCCF8AE031
:1024D0008093C600FE018491EBEAFAE0882349F07C
:1024E0009091C00095FFFCCF8093C60031968491F7
:1024F000F5CF4091241250912512609126127091CF
:10250000271288E394E00E94FC1B4091281250910E
:10251000291260912A1270912B1285E394E00E9497
:10252000FC1B40912C1250912D1260912E12709133
:102530002F1282E394E00E94FC1B409130125091D4
:10254000311260913212709133128FE294E00E9446
:10255000FC1B8091C00085FFFCCF8AE08093C60001
:10256000FE018491EBEAFAE0882349F09091C000E3
:1025700095FFFCCF8093C60031968491F5CFEAEFAA
:10258000F3E08491882341F09091C00095FFFCCF47
:102590008093C6003196F5CF8091C00085FFFCCFB7
:1025A0008AE08093C600FE018491EBEAFAE088237A
:1025B00049F09091C00095FFFCCF8093C600319602
:1025C0008491F5CF40911C1250911D1260911E1202
:1025D00070911F1281EF93E00E94EB1B4091181243
:1025E0005091191260911A1270911B128EEE93E0A5
:1025F0000E94EB1B8091C00085FFFCCF8AE0809396
:10260000C600FE018491EBEAFAE0882349F090913C
:10261000C00095FFFCCF8093C60031968491F5CF22
:10262000EBE3F3E08491882341F09091C00095FFA3
:10263000FCCF8093C6003196F5CF8091C00085FF16
:10264000FCCF8AE08093C600FE018491EBEAFAE0B9
:10265000882349F09091C00095FFFCCF8093C6007D
:1026600031968491F5CF40912012509121126091C2
:1026700022127091231282E393E00E94EB1B40919F
:1026800008125091091260910A1270910B128FE298
:1026900093E00E94EB1B40915412509155126091AF
:1026A0005612709157128CE293E00E94FC1B4091ED
:1026B000141250911512609116127091171289E23E
:1026C00093E00E94EB1B4091101250911112609107
:1026D00012127091131286E293E00E94EB1B40915C
:1026E0000C1250910D1260910E1270910F1283E234
:1026F00093E00E94EB1B8091C00085FFFCCF8AE035
:102700008093C600FE018491EBEAFAE0882349F049
:102710009091C00095FFFCCF8093C60031968491C4
:10272000F5CFE1E1F3E08491882341F09091C0007E
:1027300095FFFCCF8093C6003196F5CF8091C00005
:1027400085FFFCCF8AE08093C600FE018491EBEA0E
:10275000FAE0882349F09091C00095FFFCCF809368
:10276000C60031968491F5CF40913F0850914008C2
:10277000609141087091420888E093E00E94EB1B51
:102780004091430850914408609145087091460873
:1027900085E093E00E94EB1B409147085091480868
:1027A0006091490870914A0882E093E00E94EB1B17
:1027B0008091C00085FFFCCF8AE08093C600FE01B7
:1027C0008491EBEAFAE0882349F09091C00095FFEC
:1027D000FCCF8093C60031968491F5CFE4EFF2E010
:1027E0008491882341F09091C00095FFFCCF8093A5
:1027F000C6003196F5CF8091C00085FFFCCF8AE0FE
:102800008093C600FE018491EBEAFAE0882349F048
:102810009091C00095FFFCCF8093C60031968491C3
:10282000F5CF40917A0250917B0260917C027091C9
:102830007D028AEE92E0CFD76091760270917702A6
:1028400080917802909179020E94A787AB01BC0128
:1028500087EE92E0C0D7609172027091730280910E
:102860007402909175020E94B387AB01BC0184EEA3
:1028700092E0B1D78091C00085FFFCCF8AE08093C1
:10288000C600FE018491EBEAFAE0882349F09091BA
:10289000C00095FFFCCF8093C60031968491F5CFA0
:1028A000E0EBF2E08491882341F09091C00095FF25
:1028B000FCCF8093C6003196F5CF8091C00085FF94
:1028C000FCCF8AE08093C600FE018491EBEAFAE037
:1028D000882349F09091C00095FFFCCF8093C600FB
:1028E00031968491F5CF40911D0250911E02609166
:1028F0001F027091200286EA92E06DD720E030E05E
:1029000040E752E46091150270911602809117021F
:10291000909118020E94D7B5AB01BC0183EA92E006
:102920005AD740912308509124086091250870914E
:10293000260880EA92E04FD78091C00085FFFCCF47
:102940008AE08093C600FE018491EBEAFAE08823D6
:1029500049F09091C00095FFFCCF8093C60031965E
:102960008491F5CFE4E7F2E08491882341F09091DF
:10297000C00095FFFCCF8093C6003196F5CF8091C3
:10298000C00085FFFCCF8AE08093C600FE018491E1
:10299000EBEAFAE0882349F09091C00095FFFCCF64
:1029A0008093C60031968491F5CF40911F085091D5
:1029B000200860912108709122088AE692E00BD7E6
:1029C00020E030E040E752E4609111027091120281
:1029D00080911302909114020E94D7B5AB01BC0103
:1029E00087E692E0F8D68091C00085FFFCCF8AE0B0
:1029F0008093C600FE018491EBEAFAE0882349F057
:102A00009091C00095FFFCCF8093C60031968491D1
:102A1000F5CFEDE0F2E08491882341F09091C00081
:102A200095FFFCCF8093C6003196F5CF8091C00012
:102A300085FFFCCF8AE08093C600FE018491EBEA1B
:102A4000FAE0882349F09091C00095FFFCCF809375
:102A5000C60031968491F5CF4091280850E060E09F
:102A600070E083E092E0C8D68091C00085FFFCCF83
:102A70008AE08093C600FE018491EBEAFAE08823A5
:102A800049F09091C00095FFFCCF8093C60031962D
:102A90008491F5CF80915B08882399F1E0EFF1E014
:102AA0008491882341F09091C00095FFFCCF8093E2
:102AB000C6003196F5CF8091C00085FFFCCF8AE03B
:102AC0008093C600FE01C491EBEAFAE0CC2349F002
:102AD0008091C00085FFFCCFC093C6003196C491A1
:102AE000F5CF4091310250913202609133027091E2
:102AF000340286EE91E06FD68091C00085FFFCCF56
:102B000011C0EAECF1E08491882341F09091C0007B
:102B100095FFFCCF8093C6003196F5CF8091C00021
:102B200085FFFCCF8AE08093C600DF91CF910895A6
:102B3000AF92BF92CF92DF92EF92FF920F931F93CB
:102B4000CF93DF93CDB7DEB7E0970FB6F894DEBF33
:102B50000FBECDBF80E1E7EAF2E0DE019196019081
:102B60000D928A95E1F780E1E7EBF2E0DE01519604
:102B700001900D928A95E1F780E1E7ECF2E0DE0149
:102B8000119601900D928A95E1F76E0181E2C80ECF
:102B9000D11C84E3E82E82E1F82E8E010F5E1F4FD8
:102BA00064E472E1AE014F5F5F4F94E2A92E92E1BF
:102BB000B92E20E030E0F60181919191A191B1917F
:102BC0006F01F70181939193A193B1937F01F80174
:102BD00081919191A191B1918F01FB018193919389
:102BE000A193B193BF01FA0181919191A191B1910A
:102BF000AF01F50181939193A193B1935F012F5F91
:102C00003F4F24303105B9F60E94097080E090E80A
:102C1000ABE3B5E480931C1290931D12A0931E1297
:102C2000B0931F128093181290931912A0931A1246
:102C3000B0931B12109220121092211210922212A5
:102C40001092231280E29EE4A0E0B0E08093541240
:102C500090935512A0935612B093571210920812E7
:102C60001092091210920A1210920B1280E090E05A
:102C7000A0EAB1E48093141290931512A093161257
:102C8000B09317128DEC9CECACECBEE38093101269
:102C900090931112A0931212B093131280E090E05F
:102CA000A0EAB0E480930C1290930D12A0930E1240
:102CB000B0930F12109247081092480810924908DA
:102CC00010924A0810924308109244081092450846
:102CD0001092460810923F08109240081092410846
:102CE0001092420882ED90E090937E1380937D13C2
:102CF00082E390E090937C1380937B1310927A137D
:102D0000109279138FEF90E090937813809377135C
:102D100084E690E090937613809375131092741369
:102D20001092731380E090E0A4E8B2E480937A02FA
:102D300090937B02A0937C02B0937D0266EF78E2D1
:102D400088E391E40E94A1876093760270937702F2
:102D500080937802909379026FE872E48DEB92E4AD
:102D60000E94AD8760937202709373028093740225
:102D7000909375020E94ED7C80E090E0A0E8BFE3B4
:102D800080936E0290936F02A0937002B0937102D1
:102D90001092280880E090E0A0E4B0E480931D0247
:102DA00090931E02A0931F02B093200240E050E0D7
:102DB00064E372E440931502509316026093170285
:102DC000709318021092230810922408109225087C
:102DD0001092260810921F081092200810922108C5
:102DE0001092220840E050E060E071E4409311024C
:102DF00050931202609313027093140210925B08B6
:102E00008093310290933202A0933302B093340244
:102E10000E94E928EBEAFAE08491882341F090913E
:102E2000C00095FFFCCF8093C6003196F5CFEEE849
:102E3000F1E08491882341F09091C00095FFFCCF90
:102E40008093C6003196F5CF8091C00085FFFCCFFE
:102E50008AE08093C600E0960FB6F894DEBF0FBEFE
:102E6000CDBFDF91CF911F910F91FF90EF90DF9039
:102E7000CF90BF90AF900895CF93DF93CDB7DEB7DB
:102E80002C970FB6F894DEBF0FBECDBF84E690E05E
:102E90009C878B8786E591E3A3E3B0E089839A83DF
:102EA000AB83BC8344E0BE016B5F7F4FCE010B96CA
:102EB000DAD843E050E0BE016B5F7F4FCE01019650
:102EC0000E9480BA892B09F0E3C040E164E372E11B
:102ED000CE010B96C8D840E164E472E1CE010B96B6
:102EE000C2D840E164E272E1CE010B96BCD80E94E8
:102EF000097044E06CE172E1CE010B96B4D844E075
:102F000068E172E1CE010B96AED844E060E272E176
:102F1000CE010B96A8D844E068E072E1CE010B9692
:102F2000A2D844E064E572E1CE010B969CD844E05F
:102F300064E172E1CE010B9696D844E060E172E163
:102F4000CE010B9690D844E06CE072E1CE010B9676
:102F50008AD84CE06FE378E0CE010B9684D842E04B
:102F60006DE773E1CE010B967ED842E06BE773E12B
:102F7000CE010B9678D842E069E773E1CE010B965B
:102F800072D842E067E773E1CE010B966CD842E05D
:102F900065E773E1CE010B9666D842E063E773E123
:102FA000CE010B9660D844E06CE278E0CE010B963F
:102FB0005AD844E06AE772E0CE010B9654D844E058
:102FC00066E772E0CE010B964ED844E062E772E00D
:102FD000CE010B9648D842E0BE01675F7F4FCE011D
:102FE0000B9641D841E068E278E0CE010B963BD8E1
:102FF00044E06DE172E0CE010B9635D844E065E126
:1030000072E0CE010B962FD844E063E278E0CE0167
:103010000B9629D844E06FE178E0CE010B9623D8D7
:1030200044E061E172E0CE010B961DD841E06BE512
:1030300078E0CE010B9617D844E061E372E0CE0150
:103040000B9611D80E94E9280E94ED7CEBEAFAE089
:103050008491882341F09091C00095FFFCCF80932C
:10306000C6003196F5CFE0EBF1E08491882341F082
:103070009091C00095FFFCCF8093C6003196F5CFAC
:103080008091C00085FFFCCF8AE08093C60001C01C
:103090004FDD2AD92C960FB6F894DEBF0FBECDBFF8
:1030A000DF91CF9108951F920F920FB60F921124C6
:1030B0000BB60F922F933F934F935F936F938F9322
:1030C0009F93EF93FF936091C6002091410630914A
:1030D0004206C90101968F77992740914306509186
:1030E00044068417950741F0F901EF53FA4F6083C6
:1030F0009093420680934106FF91EF919F918F91AB
:103100006F915F914F913F912F910F900BBE0F9058
:103110000FBE0F901F9018959A01AB01211581EEFB
:1031200038074105510549F182E08093C00060E015
:1031300079E08DE390E00E94F5B621503109410914
:103140005109CA01B90122E030E040E050E00E949C
:10315000F5B63093C5002093C4008091C100806112
:103160008093C1008091C10088608093C1008091EC
:10317000C10080688093C10008951092C00020E1D2
:1031800030E0E7CF2091430630914406809141061C
:10319000909142068217930771F0F901EF53FA4FAD
:1031A00080812F5F3F4F2F77332730934406209342
:1031B000430690E008958FEF9FEF089580914306B6
:1031C00090914406909342068093410608954F9251
:1031D0005F926F927F928F929F92AF92BF92CF92A7
:1031E000DF92EF92FF920F931F93CF93DF93CDB7B0
:1031F000DEB7A0970FB6F894DEBF0FBECDBF5C015F
:103200004115510561057105E9F420E030E040E326
:1032100050E060E070E0A0960FB6F894DEBF0FBEFD
:10322000CDBFDF91CF911F910F91FF90EF90DF9075
:10323000CF90BF90AF909F908F907F906F905F9056
:103240004F905BC08E010F5F1F4FC12CD12C7601B8
:103250004801422E512C612C712C8FEFC81AD80ACC
:10326000E80AF80ACB01BA01A30192010E94D3B681
:10327000CA01F80161938F01A901BC0141155105F3
:103280006105710551F7F1E0CF1AD108E108F108A5
:10329000F401EC0DFD1D80818A3010F440E301C083
:1032A00047E3480F552747FD5095652F752F20E0C0
:1032B00030E0C50122D081E0C81AD108E108F10848
:1032C000EFEFCE16DE06EE06FE0611F7A0960FB65D
:1032D000F894DEBF0FBECDBFDF91CF911F910F914C
:1032E000FF90EF90DF90CF90BF90AF909F908F9026
:1032F0007F906F905F904F9008952115310539F4BC
:103300008091C00085FFFCCF4093C60008952A300D
:10331000310509F41CC05BCFCF93DF93EC0120E0B3
:1033200030E04DE050E060E070E0E7DF20E030E0CA
:103330004AE050E060E070E0CE01DF91CF91DDCF58
:103340009A01AB01662757FD6095762FD6CFCF92B5
:10335000DF92EF92FF92CF93DF93EC016A017B0142
:1033600077FF0FC020E030E04DE250E060E070E019
:10337000C4DFF094E094D094C094C11CD11CE11C33
:10338000F11C2AE0B701A601CE01DF91CF91FF9099
:10339000EF90DF90CF901BCF2115310539F480914C
:1033A000C00085FFFCCF4093C600089510CF9A015E
:1033B000462F50E060E070E0EFCFCF93DF93EC0159
:1033C0009A01AB0160E070E0E7DFCE01DF91CF91C1
:1033D000A3CF8F929F92AF92BF92CF92DF92EF9244
:1033E000FF921F93CF93DF93EC016A017B01122FB1
:1033F00020E030E0A901C701B6010E9402B387FFB7
:103400000CC020E030E04DE250E060E070E0CE0122
:1034100074DFF7FAF094F7F8F094B12C60E070E004
:1034200080E09FE3B11641F020E030E040E251E45B
:103430000E9409B3B394F6CF9B01AC01C701B6015A
:103440000E9429B26B017C010E9476B34B015C01A2
:103450000E94A2B39B01AC01C701B6010E9428B231
:103460006B017C012AE0B501A401CE01B0DE11237D
:1034700061F0EBECF4E08191882339F09091C00089
:1034800095FFFCCF8093C600F6CF112319F120E001
:1034900030E040E251E4C701B6010E94D7B56B01AC
:1034A0007C010E9471B34B01AA2497FCA094BA2C12
:1034B000B501A401CE014BDFC501B4010E94A4B344
:1034C0009B01AC01C701B6010E9428B26B017C01CF
:1034D0001150DBCFDF91CF911F91FF90EF90DF90E4
:1034E000CF90BF90AF909F908F90089572CFFC01C6
:1034F000659175918591949108952F923F924F9285
:103500005F926F927F928F929F92AF92BF92CF9273
:10351000DF92EF92FF920F931F93CF93DF9300D030
:1035200000D0CDB7DEB71C01FC01E459F54F149172
:103530009C01220F331F220F331F3E832D83255BF7
:10354000374F4901F901108211821282138227E557
:1035500038E043E558E06FE478E08BE498E00E94BF
:10356000376F8D819E818558954FC1DF6B017C013E
:10357000612F772767FD7095872F972F0E94A4B33F
:103580002B013C012D813E81265F374F590120E000
:1035900030E040EC5FE3C701B6010E94D7B5A3015C
:1035A00092010E94D7B5F501608371838283938372
:1035B0002D813E81235C3D4F3C832B83F90160814B
:1035C00071818281938160930B0270930C028093CE
:1035D0000D0290930E0220E030E040E752E40E949A
:1035E00009B32BE2C22E28E0D22E7B018C0126E10A
:1035F00038E042E158E06EE078E08AE098E00E942E
:1036000071650E944278F401108211821282138245
:1036100027E538E043E558E06FE478E08BE498E094
:103620000E94376F2D813E812159354F3A8329837E
:10363000C9015DDF9058A30192010E94D7B5F50141
:10364000608371838283938320E030E040E752E41B
:1036500060910B0270910C0280910D0290910E020C
:103660000E9409B37B018C0126E138E042E158E079
:103670006EE078E08AE098E00E9471650E944278EE
:1036800089819A8134DF9B01AC010E9429B2A30198
:1036900092010E94D7B5F501608371838283938381
:1036A00020E030E040E05FE3EB81FC8160817181EC
:1036B000828193810E94D7B560930B0270930C02B4
:1036C00080930D0290930E0220E030E040E752E438
:1036D0000E9409B37B018C0126E138E042E158E009
:1036E0006EE078E08AE098E00E9471650E9442787E
:1036F0008D819E818957954FFADE0D811E81015C77
:10370000174FF80120813181428153810E9429B2F3
:10371000F40160837183828393838D819E818156BE
:10372000954FE5DE2D813E812D5C374F7901F80103
:1037300020813181428153810E9429B2F701608347
:103740007183828393838D819E818D56954FCFDEC9
:103750002D813E812F5D3D4F7901F801208131811E
:10376000428153810E9429B2F70160837183828371
:103770009383F40180819181A281B381F5018083DB
:103780009183A283B38310920B0210920C021092C9
:103790000D0210920E020E94EC70F101E05DF74FF5
:1037A00081E0808326960FB6F894DEBF0FBECDBFB2
:1037B000DF91CF911F910F91FF90EF90DF90CF900D
:1037C000BF90AF909F908F907F906F905F904F9041
:1037D0003F902F900895FC012491222341F03091D5
:1037E000C00035FFFCCF2093C6000196F4CF22E045
:1037F00030E080EC95E07ACEFC012491222341F068
:103800003091C00035FFFCCF2093C6000196F4CF65
:103810002AE030E080EC95E0BFCD20915F0630914A
:103820006006243031050CF06AC040916106509169
:10383000620660E6649F9001659F300D1124BC0113
:10384000C9018759994F0E9479BAEBEAFAE084914D
:10385000882341F09091C00095FFFCCF8093C60073
:103860003196F5CFE1E6FAE08491882341F090911A
:10387000C00095FFFCCF8093C6003196F5CF8091B4
:1038800061069091620620E6289FF001299FF00DC5
:103890001124E759F94F8191882339F09091C000A4
:1038A00095FFFCCF8093C600F6CFEFE5FAE0849158
:1038B000882341F09091C00095FFFCCF8093C60013
:1038C0003196F5CF8091C00085FFFCCF8AE08093D0
:1038D000C6008091610690916206019664E070E0F6
:1038E0000E94C0B6909362068093610680915F0645
:1038F0009091600601969093600680935F0608950C
:1039000020915F0630916006243031050CF06AC0CA
:10391000409161065091620660E6649F9001659F48
:10392000300D1124BC01C9018759994F0E94E9B992
:10393000EBEAFAE08491882341F09091C00095FF72
:10394000FCCF8093C6003196F5CFE4E5FAE0849190
:10395000882341F09091C00095FFFCCF8093C60072
:103960003196F5CF809161069091620620E6289FFE
:10397000F001299FF00D1124E759F94F8191882317
:1039800039F09091C00095FFFCCF8093C600F6CF30
:10399000E2E5FAE08491882341F09091C00095FF20
:1039A000FCCF8093C6003196F5CF8091C00085FF93
:1039B000FCCF8AE08093C6008091610690916206F8
:1039C000019664E070E00E94C0B690936206809316
:1039D000610680915F069091600601969093600663
:1039E00080935F0608959B9AA3980895FCDF40E0BA
:1039F00052EC61E070E080EC95E08EDBECE4FAE004
:103A00008491882341F09091C00095FFFCCF809372
:103A1000C6003196F5CF8091C00085FFFCCF8AE0CB
:103A20008093C6008BEA9AE0FC012491222341F0A6
:103A30003091C00035FFFCCF2093C6003196F5CF02
:103A400024B720FF14C0E4E4FAE03491332341F0BA
:103A50004091C00045FFFCCF3093C6003196F5CFB2
:103A60003091C00035FFFCCF3AE03093C60021FF13
:103A700014C0E4E3FAE03491332341F04091C000F4
:103A800045FFFCCF3093C6003196F5CF3091C00092
:103A900035FFFCCF3AE03093C60022FF14C0E3E2CA
:103AA000FAE03491332341F04091C00045FFFCCF50
:103AB0003093C6003196F5CF3091C00035FFFCCF72
:103AC0003AE03093C60023FF14C0E3E1FAE03491FA
:103AD000332341F04091C00045FFFCCF3093C60036
:103AE0003196F5CF3091C00035FFFCCF3AE03093EE
:103AF000C60025FF14C0E3E0FAE02491222341F040
:103B00003091C00035FFFCCF2093C6003196F5CF31
:103B10002091C00025FFFCCF2AE02093C60014BEF0
:103B2000ECEFF9E02491222341F03091C00035FF01
:103B3000FCCF2093C6003196F5CFE6EFF9E0249153
:103B4000222341F03091C00035FFFCCF2093C60006
:103B50003196F5CF2091C00025FFFCCF2AE02093BD
:103B6000C600FC012491EBEAFAE0222349F03091EF
:103B7000C00035FFFCCF2093C60031962491F5CFCD
:103B8000E6EEF9E02491222341F03091C00035FFA8
:103B9000FCCF2093C6003196F5CFE1EDF9E02491FA
:103BA000222341F03091C00035FFFCCF2093C600A6
:103BB0003196F5CFE5ECF9E02491222341F03091E4
:103BC000C00035FFFCCF2093C6003196F5CFEEEA5A
:103BD000F9E02491222341F03091C00035FFFCCF61
:103BE0002093C6003196F5CF2091C00025FFFCCF71
:103BF0002AE02093C600E3EAF9E02491222341F071
:103C00003091C00035FFFCCF2093C6003196F5CF30
:103C1000E7E9F9E02491222341F03091C00035FF1B
:103C2000FCCF2093C6003196F5CF2091C00025FF30
:103C3000FCCF2AE02093C600FC018491EBEAFAE075
:103C4000882349F09091C00095FFFCCF8093C60077
:103C500031968491F5CFE8E8F9E08491882341F02A
:103C60009091C00095FFFCCF8093C6003196F5CFB0
:103C70000E94644D4AE050E0BC0180EC95E060DBBE
:103C8000E1E7F9E08491882341F09091C00095FF2D
:103C9000FCCF8093C6003196F5CF4AE050E060ED4E
:103CA00074E080EC95E04CDB8091C00085FFFCCF98
:103CB0008AE08093C6001092650610926606109204
:103CC000670610926806D8D80E946E800E9421650F
:103CD0000E944A7A0E94C496FFEF23ED80E3F150E0
:103CE00020408040E1F700C000000895809159060F
:103CF00090915A0660E070E001960C9440B7809174
:103D0000590690915A064AE050E060E070E0019652
:103D10000C94A8B8682F772767FD709520916306EB
:103D20003091640640E6429FC001439F900D1124EC
:103D30008759994F0E9465BA90935A068093590605
:103D400021E0892B09F420E0822F08950E94D1AB55
:103D500060935506709356068093570690935806C5
:103D600008950E94D1AB60935506709356068093D8
:103D7000570690935806E0916306F0916406EB595C
:103D8000F94F8081811114C0E4E6F5E08491882325
:103D900041F09091C00095FFFCCF8093C600319612
:103DA000F5CF8091C00085FFFCCF8AE08093C600EC
:103DB000089580EC95E002DAE7E6F5E08491882347
:103DC00041F09091C00095FFFCCF8093C6003196E2
:103DD000F5CF4091EE075091EF076091F007709199
:103DE000F1074F5F5F4F6F4F7F4F2AE030E080EC6D
:103DF00095E083DA8091C00085FFFCCF8AE0809354
:103E0000C600AFCF8F929F92AF92BF92CF92DF92B8
:103E1000EF92FF920F931F93CF93DF933BE5E32E37
:103E200034E0F32E0BE418E0CAE0D8E040E6C42EFC
:103E300048E0D42EF70181917F016CDF882311F1D6
:103E400055DF4B015C01F6018081811103C0609157
:103E5000E90701C061E070E080E090E00E94A4B357
:103E6000F80120813181428153810E94D7B59B01A5
:103E7000AC01C501B4010E9429B2688379838A83A9
:103E80009B8309C0F80180819181A281B3818883DD
:103E90009983AA83BB830C5F1F4F2496FFEFCF1A31
:103EA000DF0A8FE5E81684E0F80621F686E432DFC3
:103EB0008823D1F01BDF6B017C016093FA077093BC
:103EC000FB078093FC079093FD0720E030E0A901F9
:103ED0000E9405B5181644F4C0920B02D0920C0251
:103EE000E0920D02F0920E02DF91CF911F910F919F
:103EF000FF90EF90DF90CF90BF90AF909F908F900A
:103F0000089580DF89E406DF882351F0EFDE6093B7
:103F1000FE077093FF07809300089093010808C084
:103F20001092FE071092FF071092000810920108ED
:103F30008AE4F0DE882351F0D9DE609302087093A2
:103F400003088093040890930508089510920208CE
:103F50001092030810920408109205080895CF9259
:103F6000DF92EF92FF92CF93DF93EC01C090330882
:103F7000D0903408E0903508F0903608A7019601FB
:103F8000688179818A819B810E9402B387FF04C086
:103F9000C882D982EA82FB82C0903708D090380864
:103FA000E0903908F0903A08A70196016C817D8174
:103FB0008E819F810E9402B387FF04C0CC82DD8284
:103FC000EE82FF8220E030E0A90160913B08709111
:103FD0003C0880913D0890913E080E9429B26B01F7
:103FE0007C019B01AC01688579858A859B850E944F
:103FF00002B387FF04C0C886D986EA86FB86C090D4
:104000002102D0902202E0902302F0902402A70126
:104010009601688179818A819B810E9405B5181675
:1040200024F4C882D982EA82FB82C0902502D09013
:104030002602E0902702F0902802A70196016C81E9
:104040007D818E819F810E9405B5181624F4CC8253
:10405000DD82EE82FF82C0902902D0902A02E09099
:104060002B02F0902C02A7019601688579858A853C
:104070009B850E9405B5181624F4C886D986EA8661
:10408000FB86DF91CF91FF90EF90DF90CF90089566
:10409000CF92DF92EF92FF920F931F938AE098E006
:1040A0005EDF0E94D1AB60935506709356068093F5
:1040B00057069093580620910A0830910B084091BA
:1040C0000C0850910D0860914B0870914C0880913C
:1040D0004D0890914E080E9402B3811179C0209141
:1040E0000E0830910F08409110085091110860910E
:1040F0004F087091500880915108909152080E9489
:1041000002B3811165C020E030E040E752E46091E5
:104110000B0270910C0280910D0290910E020E9490
:1041200009B35BE2C52E58E0D52E7B018C0126E158
:1041300038E042E158E06EE078E08AE098E00E94E2
:10414000716580910A0890910B08A0910C08B091BC
:104150000D0880934B0890934C08A0934D08B093A2
:104160004E0880910E0890910F08A0911008B09110
:10417000110880934F0890935008A0935108B09372
:1041800052088091120890911308A0911408B091E0
:1041900015088093530890935408A0935508B09342
:1041A00056088091160890911708A0911808B091B0
:1041B00019088093570890935808A0935908B09312
:1041C0005A081F910F91FF90EF90DF90CF900895C4
:1041D00060913B0270913C02882777FD8095982F73
:1041E0000E94A4B320910B0230910C0240910D0269
:1041F00050910E020E94D7B520E030E040E752E433
:104200000E9409B320E030E048EC52E488CFCF921E
:10421000DF92EF92FF92CF93C62FE0912B08F0E050
:10422000882309F4C2C0DF01A95DB74F8C918111C9
:1042300096C180914B0890914C08A0914D08B09187
:104240004E0880930A0890930B08A0930C08B09333
:104250000D0880914F0890915008A0915108B0919D
:10426000520880930E0890930F08A0931008B09303
:1042700011088091530890915408A0915508B0916D
:1042800056088093120890931308A0931408B093D3
:104290001508C0905708D0905808E0905908F09041
:1042A0005A08C0921608D0921708E0921808F092A7
:1042B0001908EE0FFF1FEE0FFF1FE35DFD4F20817A
:1042C000318142815381CC2349F060911902709170
:1042D0001A0280911B0290911C0208C060911D027D
:1042E00070911E0280911F02909120020E9409B3DA
:1042F0009B01AC01C701B6010E9429B26093570827
:10430000709358088093590890935A0887E598E06D
:104310000E94DC6FC0900B02D0900C02E0900D0266
:10432000F0900E0220E030E040E752E46091150288
:104330007091160280911702909118020E94D7B5D1
:1043400060930B0270930C0280930D0290930E0207
:10435000E0912B08F0E0E95DF74F81E0808398DE83
:104360002091230830912408409125085091260877
:1043700060915308709154088091550890915608A7
:104380000E9428B260935308709354088093550894
:104390009093560827E538E043E558E06FE478E06D
:1043A0008BE498E00E94376FD1C0E95DF74F8081C0
:1043B000882309F4D4C080914B0890914C08A091B7
:1043C0004D08B0914E0880930A0890930B08A09373
:1043D0000C08B0930D0880914F0890915008A0915F
:1043E0005108B091520880930E0890930F08A09343
:1043F0001008B0931108609153087091540880918F
:104400005508909156086093120870931308809392
:10441000140890931508C0905708D0905808E09061
:104420005908F0905A08C0921608D0921708E092E6
:104430001808F0921908209123083091240840911F
:104440002508509126080E9429B260935308709362
:104450005408809355089093560827E538E043E5C3
:1044600058E06FE478E08BE498E00E94376FF090BA
:104470002B08CC2389F020911B0830911C08409117
:104480001D0850911E086091190270911A028091C6
:104490001B0290911C0210C020911F08309120082F
:1044A000409121085091220860911D0270911E02D6
:1044B00080911F02909120020E9429B224E0F29E76
:1044C000F0011124E35DFD4F208131814281538150
:1044D0000E9409B39B01AC01609157087091580884
:1044E0008091590890915A080E9428B26093570809
:1044F000709358088093590890935A0887E598E07C
:104500000E94DC6FC0900B02D0900C02E0900D0274
:10451000F0900E0220E030E040E752E4609111029A
:104520007091120280911302909114020E94D7B5EB
:1045300060930B0270930C0280930D0290930E0215
:10454000E0912B08F0E0E95DF74F1082A1DDC09209
:104550000B02D0920C02E0920D02F0920E02CF916B
:10456000FF90EF90DF90CF900895AF92BF92CF92DF
:10457000DF92EF92FF920F931F93CF93DF93D82F89
:1045800020910208309103084091040850910508D9
:104590006091FE077091FF078091000890910108DB
:1045A0000E9412B5C62F172F082FF92E60913B02DB
:1045B00070913C02882777FD8095982F0E94A4B3C4
:1045C00020910B0230910C0240910D0250910E028D
:1045D0000E94D7B520E030E040E752E40E9409B3E2
:1045E00020E030E048EC52E40E9409B320912B080F
:1045F0002F93DF93FF920F931F93CF935B016C0177
:1046000072E0E72E01E020E04EEF57E06AE078E04C
:104610008BE498E00E94F95D80910A0890910B0864
:10462000A0910C08B0910D0880934B0890934C0812
:10463000A0934D08B0934E0880910E0890910F08FA
:10464000A0911008B091110880934F0890935008E2
:10465000A0935108B09352088091120890911308CA
:10466000A0911408B09115088093530890935408B2
:10467000A0935508B093560880911608909117089A
:10468000A0911808B0911908809357089093580882
:10469000A0935908B0935A080E94D1AB6093550675
:1046A0007093560680935706909358060F900F907C
:1046B0000F900F900F900F90DF91CF911F910F915E
:1046C000FF90EF90DF90CF90BF90AF900895F89457
:1046D0000E942F81179A10923008169A1092310872
:1046E000159A10923208149A60E087E40E94AAADED
:1046F000E1EBFAE08491882341F09091C00095FFAE
:10470000FCCF8093C6003196F5CFE5E4F5E08491C7
:10471000882341F09091C00095FFFCCF8093C600A4
:104720003196F5CF8091C00085FFFCCF8AE0809361
:10473000C6008CE395E00E9461967894C6E0D0E0D4
:10474000219749F068EC70E080E090E00E9400ACB6
:104750000E94F196F5CFF894FFCF2F923F924F929F
:104760005F926F927F928F929F92AF92BF92CF9201
:10477000DF92EF92FF920F931F93CF93DF93CDB70A
:10478000DEB76E970FB6F894DEBF0FBECDBFB0E6B2
:10479000BB2E14E0E12EF12C07E3C02E08E0D02E52
:1047A0008AE0A82E99249394809141069091420624
:1047B0002091430630914406821B930B8F779927F3
:1047C000892B09F418C280915F06909160060497C6
:1047D0000CF011C280EC95E00E94C21880935E0636
:1047E00020915C0630915D068A3061F08D3051F089
:1047F0008A3321F490915B06992321F02F353105FE
:104800000CF41BC12115310509F435C180916106F5
:1048100090916206B89E3001B99E700C1124F3018C
:10482000E20FF31FE759F94F108220915B06211127
:10483000FFC0FC01EB59F94F108283010759194F52
:104840006EE470E0C8010E9465BA0097F1F19093A0
:104850005A0680935906801B910B860D971D4AE0DE
:1048600050E060E070E08659994F0E94A8B86093CC
:10487000F2077093F3078093F4079093F507409045
:10488000EE075090EF076090F0077090F1072FEF60
:10489000421A520A620A720A009161061091620677
:1048A000641575058605970509F4E8C0B09EC0013A
:1048B000B19E900D112463E579E08759994F0E94CC
:1048C00017BA892B09F0DAC069C16AE270E0C80141
:1048D0000E9465BA892B09F444C0E1EBFAE08491A7
:1048E000882341F09091C00095FFFCCF8093C600D3
:1048F0003196F5CFEDEAF8E08491882341F090916C
:10490000C00095FFFCCF8093C6003196F5CF409153
:10491000EE075091EF076091F0077091F1072AE0E0
:1049200030E080EC95E00E947D198091C00085FF09
:10493000FCCF8AE08093C60010925D0610925C0660
:10494000C0C28091F2079091F307A091F407B09153
:10495000F5078093EE079093EF07A093F007B093CD
:10496000F1078091610690916206B89E8001B99E20
:10497000100D1124C8018759994F3C0167E470E07C
:104980000E9465BA009781F190935A068093590668
:1049900086199709800F911F60E070E08659994F42
:1049A0000E9440B70E9471B364307105E8F48091B1
:1049B00047068823C9F0F6018491E7E3F8E08823ED
:1049C00049F09091C00095FFFCCF8093C6003196CE
:1049D0008491F5CF8091C00085FFFCCFA092C600E6
:1049E0008DE298E00E945496009161061091620653
:1049F000B09EC001B19E900D112464E373E087590D
:104A0000994F0E9470BA892B09F461DEC8010196A2
:104A1000B7010E94C0B690936206809361068091B0
:104A20005F069091600601969093600680935F0602
:104A300010925D0610925C06B7CE8B3311F4909203
:104A40005B0690915B069111AFCE4091610650914B
:104A50006206B9016F5F7F4F70935D0660935C06DD
:104A6000B49EF001B59EF00D1124E20FF31FE7593B
:104A7000F94F808399CE10925B0623C2B09E30011D
:104A8000B19E700C1124C3018759994F1C016AE231
:104A900070E00E9465BA009789F5E1EBFAE0849135
:104AA000882341F09091C00095FFFCCF8093C60011
:104AB0003196F5CFE7EDF8E08491882341F09091AD
:104AC000C00095FFFCCF8093C6003196F5CF409192
:104AD000EE075091EF076091F0077091F1072AE01F
:104AE00030E080EC95E00E947D198091C00085FF48
:104AF000FCCF8AE08093C6005CD91ECF20E010E096
:104B0000F301E20FF11DE759F94F30813A3219F004
:104B10002F5F1327F5CF90935A0680935906821979
:104B20009309860D971D60E070E08659994F0E94A9
:104B300040B70E9471B3212F30E02617370709F4E0
:104B400000CFE1EBFAE08491882341F09091C0001E
:104B500095FFFCCF8093C6003196F5CFE1E0F9E0F8
:104B60008491882341F09091C00095FFFCCF809301
:104B7000C6003196F5CF4091EE075091EF07609156
:104B8000F0077091F1072AE030E080EC95E00E9498
:104B90007D198091C00085FFFCCFABCFE1EBFAE03F
:104BA0008491882341F09091C00095FFFCCF8093C1
:104BB000C6003196F5CFE0E2F9E08491882341F018
:104BC0009091C00095FFFCCF8093C6003196F5CF41
:104BD0004091EE075091EF076091F0077091F10757
:104BE0002AE030E080EC95E00E947D198091C000C1
:104BF00085FFFCCF7ECF80916608882309F461C1D0
:104C000080915C0690915D06892B09F05AC18091D4
:104C10005F0690916006892B11F410924506F8EE1C
:104C20002F2EF3E03F2E412C512CACE3CA2ED12C79
:104C3000E12CF12C8E010F5F1F4FE0E66E2E7724E2
:104C400073944091E70A5091E80A6091E90A7091E3
:104C5000EA0A8091DF0A9091E00AA091E10AB091FE
:104C6000E20A481759076A077B0708F02AC18091B2
:104C70005F069091600604970CF023C18091450671
:104C800081111FC180913A0A90913B0AA0913C0A80
:104C9000B0913D0A8093E70A9093E80AA093E90A4D
:104CA000B093EA0A82E39AE00E943647482F809345
:104CB0005E068A30B9F04D30A9F0433229F42091D4
:104CC0005B06211103C00EC04A33C9F320915C0674
:104CD00030915D062F3531052CF48F3FFFEF9F0794
:104CE00009F0D1C04091E70A5091E80A6091E90AC1
:104CF0007091EA0A8091DF0A9091E00AA091E10A9E
:104D0000B091E20A481759076A077B0708F481C087
:104D1000EAE1F8E08491882341F09091C00095FF8A
:104D2000FCCF8093C6003196F5CF8091C00085FFFF
:104D3000FCCFFAE0F093C6000E94D1AB6093490625
:104D400070934A0680934B0690934C0680904D06D4
:104D500090904E06A0904F06B090500668197909C1
:104D60008A099B09A20191010E94D3B649015A0107
:104D7000CA01B901A70196010E94D3B6CA01B901BF
:104D8000A70196010E94D3B67F936F93C501B4012A
:104D900020E13EE040E050E00E94D3B63F932F93E5
:104DA000A6E0B8E0BF93AF931F930F930E949DBA04
:104DB000EBEAFAE084910FB6F894DEBF0FBECDBFE8
:104DC000882349F09091C00095FFFCCF8093C600E6
:104DD00031968491F5CFF8018191882339F0909133
:104DE000C00095FFFCCF8093C600F6CF8091C00035
:104DF00085FFFCCF3AE03093C600C8010E945D9366
:104E000084E698E00E94A15D61E084E698E00E945B
:104E1000D95780915E06833211F470924506209135
:104E20005C0630915D062115310509F424CE809190
:104E3000610690916206689EF001699EF00D112452
:104E4000E20FF31FE759F94F1082FC01EB59F94FBC
:104E5000708220915F06309160062F5F3F4F309344
:104E6000600620935F06019664E070E00E94C0B681
:104E7000909362068093610610925B0610925D0625
:104E800010925C06DECE4B3311F470925B064091BB
:104E90005B064111D2CE4091610650916206B90184
:104EA0006F5F7F4F70935D0660935C06649EF001B8
:104EB000659EF00D1124E20FF31FE759F94F80832F
:104EC000C0CE6E960FB6F894DEBF0FBECDBFDF9199
:104ED000CF911F910F91FF90EF90DF90CF90BF90F7
:104EE000AF909F908F907F906F905F904F903F908A
:104EF0002F900895CF92DF92EF92FF920F931F931E
:104F0000CF93C82F80915F069091600603970CF4B1
:104F100024DC0E94D1AB00915106109152062091E1
:104F2000530630915406C0905506D0905606E09036
:104F30005706F09058066C197D098E099F090617CF
:104F400017072807390728F4012B022B032B09F038
:104F5000BEDB4091070250910802609109027091F6
:104F60000A02452B462B472B19F10E94D1AB009129
:104F70005506109156062091570630915806601B31
:104F8000710B820B930B0091070210910802209184
:104F9000090230910A02061717072807390740F45B
:104FA0009091000D8091FF0C981302C0CC2349F022
:104FB000CF911F910F91FF90EF90DF90CF900C94C5
:104FC0005565179A10923008169A10923108159A62
:104FD00010923208149AECCF0E942F8180914706DC
:104FE000811138C081E0809347068091EE0790914F
:104FF000EF07A091F007B091F1078093EA07909333
:10500000EB07A093EC07B093ED07E1EBFAE0849196
:10501000882341F09091C00095FFFCCF8093C6009B
:105020003196F5CFE6ECF4E08491882341F090913D
:10503000C00095FFFCCF8093C6003196F5CF8091DC
:10504000C00085FFFCCF8AE08093C6008CEB94E023
:105050000C9454960895809147060895CF93DF935A
:10506000EC0180912B088093480684E50E948A1EFB
:10507000811102C080E075C00E94761E0E9476B346
:10508000609348066623B1F3EBEAFAE08491882343
:1050900041F09091C00095FFFCCF8093C6003196FF
:1050A000F5CFCD36D105B9F054F4C836D105B1F0FD
:1050B000C936D10509F045C0EEE7F3E021C0CA3D8D
:1050C000D10531F0CD3DD105E1F5E9E3F3E036C09E
:1050D000E0E5F3E029C0E7E6F3E01CC0E5E9F3E032
:1050E0008191882371F19091C00095FFFCCF80934E
:1050F000C600F6CF9091C00095FFFCCF8093C6000C
:1051000081918111F7CF1DC09091C00095FFFCCF18
:105110008093C60081918111F7CF13C09091C00098
:1051200095FFFCCF8093C60081918111F7CF09C014
:105130009091C00095FFFCCF8093C60081918111B2
:10514000F7CF40E050E06091480680EC95E00E9487
:10515000D7198091C00085FFFCCF8AE08093C600FC
:1051600081E0DF91CF910895CF92DF92EF92FF928D
:1051700020915B082223F1F020E030E040E05FE383
:105180000E94D7B56B017C0120E030E0A9010E94AC
:1051900002B3882379F0A7019601C701B6010E94E6
:1051A000D7B52BED3FE049E450E40E94D7B59B0111
:1051B000AC0104C020E030E040E85FE360E070E074
:1051C00080E89FE30E9409B3FF90EF90DF90CF90BB
:1051D0000895609131027091320280913302909172
:1051E0003402C2DF60932D0270932E0280932F024F
:1051F0009093300208953F924F925F926F927F9208
:105200008F929F92AF92BF92CF92DF92EF92FF92D6
:105210000F931F93CF93DF93CDB7DEB7E9970FB608
:10522000F894DEBF0FBECDBF87E40E948A1E88239C
:1052300009F44CC20E94761E0E9471B36A30710557
:1052400009F4AFC09CF46230710509F44CC024F439
:1052500077FF25C00C948A3F6330710509F44EC076
:105260006430710509F455C00C948A3F6A357105A4
:1052700009F4D8C154F46B30710509F498C06C314D
:10528000710509F49AC00C948A3F6B35710509F4D5
:10529000CDC16C35710509F4CEC10C948A3F809163
:1052A000470681110C948A3F0E94021F80912808B2
:1052B0008823A9F088E50E948A1E811110C089E523
:1052C0000E948A1E81110BC08AE50E948A1E8111EC
:1052D00006C085E40E948A1E81110C948D3F0E94B5
:1052E00048200C948A3F8091470681110C948A3F94
:1052F0000E94811F81E039D90C948A3F8091470632
:1053000081110C948A3F0E94811F80E02ED90C9459
:105310008A3F8DEF97E00E94549680E50E948A1E96
:10532000882339F00E94761E0E9476B34B015C01FF
:1053300003C0812C912C540183E50E948A1E88238E
:1053400061F00E94761E20E030E04AE754E40E94BB
:10535000D7B50E9476B34B015C010E9442780E944F
:10536000D1AB6B017C01C80CD91CEA1CFB1C0E9450
:10537000D1AB609355067093560680935706909371
:1053800058060E94D1AB6C157D058E059F0510F067
:105390000C948A3F0E94507D80E0ACDD0E94F19623
:1053A000F0CF60E081E00E9407210C948A3F60E02A
:1053B00080E00E9407210C948A3F80910B0290911B
:1053C0000C02A0910D02B0910E028093F60790930B
:1053D000F707A093F807B093F90780913B029091EB
:1053E0003C0290935F0880935E0884E690E090937F
:1053F0003C0280933B020E94D1AB609355067093B0
:105400005606809357069093580681E00E94F370E9
:1054100080914B0890914C08A0914D08B0914E0896
:1054200080930A0890930B08A0930C08B0930D0882
:1054300080914F0890915008A0915108B091520866
:1054400080930E0890930F08A0931008B093110852
:105450008091530890915408A0915508B091560836
:105460008093120890931308A0931408B093150822
:105470008091570890915808A0915908B0915A0806
:105480008093160890931708A0931808B0931908F2
:1054900010920B0210920C0210920D0210920E024A
:1054A00088E50E948A1E882311F090E00AC089E5F1
:1054B0000E948A1E8111F9CF8AE50E948A1E91E01E
:1054C000982790930F0291110C94BC3F88E50E949D
:1054D0008A1E81110C94BC3F80910F0281110C94A3
:1054E000C23F89E50E948A1E81110C94C23F88E563
:1054F0000E948A1E8823D1F00E947F1E672B682B92
:10550000692BA1F00E94761E20913F08309140083F
:1055100040914108509142080E9429B260934B0883
:1055200070934C0880934D0890934E0889E50E9433
:105530008A1E8823D1F00E947F1E672B682B692B5F
:10554000A1F00E94761E20914308309144084091BA
:105550004508509146080E9429B260934F08709305
:105560005008809351089093520880910F02811146
:105570000C94C83F8AE50E948A1E81110C94C83F92
:105580008AE50E948A1E8823D1F00E947F1E672B25
:10559000682B692BA1F00E94761E2091470830915C
:1055A00048084091490850914A080E9429B26093E6
:1055B000530870935408809355089093560827E534
:1055C00038E043E558E06FE478E08BE498E00E942F
:1055D000376F80E00E94F3708091F6079091F70793
:1055E000A091F807B091F90780930B0290930C02F9
:1055F000A0930D02B0930E0280915E0890915F0817
:1056000090933C0280933B020E94D1AB609355067D
:105610007093560680935706909358060E94EC703C
:105620000C948A3F1092E9070C948A3F81E08093A2
:10563000E9070C948A3F85E40E948A1E811102C00A
:105640000E9442785BE5C52E54E0D52E6FE3E62E2E
:1056500068E0F62E0BE418E0B12CF60181916F01A1
:105660000E948A1E882339F1F3E0BF120CC00E9409
:10567000761EF801608371838283938387E598E0C7
:105680000E94DC6F18C00E94761EF70120813181D4
:10569000428153810E9429B2F80160837183828321
:1056A000938327E538E043E558E06FE478E08BE446
:1056B00098E00E94376FB394F4E0EF0EF11C0C5F9A
:1056C0001F4F24E0B212C9CF0C948A3F8DE40E9490
:1056D0008A1E882311F40C94B93E0E94761E0E9403
:1056E00071B36737710509F4A0C10CF0CEC06A32FE
:1056F000710509F412C40CF05FC06731710509F43B
:105700006DC254F56231710509F473C7BCF477FFBB
:1057100002C00C948A3F623071050CF489C161317A
:10572000710511F00C948A3F8FEB97E00E9454961C
:1057300017981698159814980C948A3F653171053E
:1057400009F440C20CF044C26431710511F00C94AC
:105750008A3FEFEAF7E012C26B31710509F46AC2C1
:10576000B4F46931710509F451C20CF055C284E6F4
:1057700098E00E9468550E94D1AB60934D067093EB
:105780004E0680934F06909350060C948A3F6E31DC
:10579000710509F48AC234F46C31710509F450C200
:1057A0000C948A3F6F31710509F459C36032710559
:1057B00009F4B9C20C948A3F6836710509F4F4C340
:1057C000C4F56335710509F40FC7C4F4613571057B
:1057D00009F4E9C60CF004C76035710511F00C94AA
:1057E0008A3F9B9AA39881E08093100286E197E01C
:1057F0000E9454960E94F1960C948A3F653571057B
:1058000009F42FC70CF4F5C66C35710511F00C9432
:105810008A3F2BE534E039AF28AF04E312E164E4BA
:10582000862E62E1962E78EFA72E71E1B72E312CED
:1058300094C76D36710509F4F1C48CF46A367105AC
:1058400009F481C60CF4DEC36B36710511F00C94BB
:105850008A3F10922A08109229080C948A3F6237D6
:10586000710509F4AFC73CF46037710511F00C9471
:105870008A3F0E9467236337710509F480C7653743
:10588000710509F48BC70C948A3F6C3231E07307C1
:1058900011F40C9460380CF053C06C3C710511F499
:1058A0000C946F3624F56E3B710509F441C574F410
:1058B0006937710511F40C94C73414F40C94C23494
:1058C0006C38710509F48DC30C948A3F693C7105ED
:1058D00011F40C9431366B3C710511F40C94523672
:1058E000683C710511F00C948A3F0C94BC35603D06
:1058F000710511F40C94453754F46E3C710511F4A4
:105900000C94F13614F40C9491360C940E376C3DD3
:10591000710511F40C94D0373CF4613D710511F41C
:105920000C946D370C948A3F6D3D710511F40C9405
:10593000DF37623E710511F40C9405380C948A3FF0
:10594000643F91E0790711F40C94423A2CF56033EE
:10595000F1E07F0711F40C945C395CF46E3231E0B5
:10596000730711F40C94F93914F40C9496380C94D0
:10597000073A6F3591E0790711F40C945D3E603978
:10598000E1E07E0711F40C943F3A6E35714011F05E
:105990000C948A3F0C94263E683522E0720711F47D
:1059A0000C94203B94F4663F81E0780711F40C944A
:1059B000483A14F40C94453A673F714011F00C9446
:1059C0008A3F0E9474110C948A3F6B38F3E07F0782
:1059D00011F40C94003E3CF46335734011F40C94C4
:1059E0004B3A0C948A3F603A83E0780709F404C28A
:1059F000673E734011F00C948A3F109247060E9454
:105A000067968091EA079091EB07A091EC07B0911F
:105A1000ED078093EE079093EF07A093F007B09304
:105A2000F1070E94D91E0C948A3FEBEBF3E0BAC752
:105A30000091590610915A060E5F1F4F80E50E9493
:105A40008A1E882379F00E94761E0E9476B36B012D
:105A50007C01BB24B394611571058105910531F476
:105A6000B12C04C0B12CC12CD12C760183E50E944D
:105A70008A1E882399F00E94761E20E030E04AE7D3
:105A800054E40E94D7B50E9476B36B017C01AA242E
:105A9000A394611571058105910509F4A12C6AE2B1
:105AA00070E0C8010E9465BA009711F0FC011082F5
:105AB000F801CF0121912032E1F3B11007C0A1100C
:105AC00005C0222319F00E945D9304C08CEE97E07C
:105AD0000E94549681E00E9437930E9442780E946F
